:020000040002F8
:106000000000042095BC0300BDBC0300BFBC03001E
:10601000C1BC0300C3BC0300C5BC030000000000FA
:10602000000000000000000000000000C7BC0300EA
:10603000C9BC030000000000CBBC0300CDBC0300C2
:10604000CFBC0300CFBC030035BB0300F9BA03008B
:106050000DBB0300CFBC030039A60300EDC1030054
:10606000D1B60300D9B60300E1B60300CFBC0300EC
:10607000CFBC0300CFBC0300CFBC0300CFBC0300E8
:10608000CFBC0300CFBC0300CFBC0300CFBC0300D8
:10609000CFBC0300CFBC0300CFBC0300CFBC0300C8
:1060A000CFBC0300CFBC0300E9B60300F1B6030088
:1060B000CFBC0300CFBC03000000000000000000C4
:1060C000CFBC0300CFBC0300CFBC030021BB030047
:1060D000CFBC0300CFBC0300CFBC0300CFBC030088
:1060E0005DBB0300CFBC0300CFBC03000000000079
:1060F00000000000CFBC03000000000049BB03000B
:10610000000000000000000000000000000000008F
:10611000000000000000000000000000000000007F
:10612000000000000000000000000000000000006F
:10613000000000000000000000000000000000005F
:10614000000000000000000000000000000000004F
:10615000000000000000000000000000000000003F
:10616000000000000000000000000000000000002F
:10617000000000000000000000000000000000001F
:10618000000000000000000000000000000000000F
:1061900000000000000000000000000000000000FF
:1061A00000000000000000000000000000000000EF
:1061B00000000000000000000000000000000000DF
:1061C00000000000000000000000000000000000CF
:1061D00000000000000000000000000000000000BF
:1061E00000000000000000000000000000000000AF
:1061F000000000000000000000000000000000009F
:106200007CB0EE877CB0EE87FF00FF00FF00FF0050
:10621000FF00FF00FF00FF00FF00FF00FF00FF0086
:10622000FF00FF00FF00FF00FF00FF00FF00FF0076
:10623000FF00FF00FF00FF002DE9F04F85B0039144
:106240000778A7F10903042B044607F07F0200F149
:106250000100F5D9202AF3D02B2F04BF677804461C
:106260002D2F72D09FED427B8DED007B4FF000080B
:106270004FF000098FB34FF0000E4FF0000ADFF827
:1062800000B1754619E018F0F1FF804689463046A6
:1062900018F086FF42464B4618F036FE52468046BE
:1062A00089465B46DDE9000135B319F009F9CDE90E
:1062B0000001AE4614F8017F7FB1A7F13006092E28
:1062C00052465B4640464946DDD9C5B92E2F16D108
:1062D00014F8017F0125002FEFD142464B46DDE93E
:1062E000000118F0C3FF80468946039B404649469B
:1062F0001C6005B0BDE8F08F4FF0010EDAE7BEF18B
:10630000000F29D042464B46DDE9000118F0AEFFF0
:1063100007F0DF07452F80468946E6D10399601CC8
:106320000A2218F0D5FD16490246002019F0FEFA9F
:1063300002460B464046494618F098FF804689467B
:106340004046494605B0BDE8F08F9FED0B7B67786E
:106350008DED007B013489E7DFF828904FF00008CD
:106360004046494605B0BDE8F08F00BFAFF300805E
:10637000000000000000F03F000000000000F0BF3F
:10638000000024400000F87F2DE9F84F1646002356
:10639000002204460D4619F0DBF9002840F09D80EC
:1063A000002200232046294619F0C8F928B13022DE
:1063B000002332707370BDE8F88F2046294617F02D
:1063C000C7F819F003FA7BA3D3E9002381462946D5
:1063D000204619F0BDF9002800F08680B9F1000FC1
:1063E000C0F2BE804A4600206F4919F09FFA02466B
:1063F0000B462046294619F063F804460D4666A16F
:10640000D1E9000101274FF0000822462B4618F081
:106410002DFF0022654B18F077FD19F0C3FA002F0D
:10642000CC464FF0FF3AC1464FF0000840F385805C
:10643000DFF888E15E4C0122AEF1700945F6F325E4
:106440004FF02E0BA94208BFA0424FF0300309D3F2
:10645000001B61EB0501A94208BFA04203F1010343
:10646000F6D2DBB2337050EA010306F1010409D120
:10647000BA4210DACE4502F101020CD026467EE87F
:106480000245DFE7BA4204BF86F801B0B41CCE452E
:1064900002F10102F2D1B8F1000F0DD022463021F5
:1064A00002F8011BC2F1010353442344002BF7DC23
:1064B0002AEAEA7301331C44BCF1010F4CD0652376
:1064C000BCF1000F2370C5BF2B236370611CA11C9E
:1064D0006046BDE8F84F0EF0DBBB05F100431D46FA
:1064E0002D23337001365BE72DA3D3E9002320462B
:1064F000294619F04BF900287FF470AFB9F10E0F5F
:1065000009F101073DDDA9F10E08424600202649A8
:1065100019F00CFA02460B462046294618F0D0FF27
:106520000022224B18F0F0FC19F03CFA002FA9F1E0
:106530000F0A4FF0010C3FF77BAF334630222E2479
:1065400003F8022B74707FEA090618D01E4403F882
:10655000012BB342FBD16BE700232370BDE8F88F1A
:10656000C9F100020020104919F0E0F902460B467B
:106570002046294618F07AFE04460D463FE71E469F
:1065800056E7C9F10E0200200749C84619F0CEF9B6
:106590004FF0010939E700BF0000901EC4BCD6428D
:1065A00050EFE2D6E41A4B44000024400000E03FE4
:1065B00000407A108DEDB5A0F7C6B03EB0040400DF
:1065C00070B54FF0FF3006F07BFA04466FF07F4065
:1065D00006F076FA0646204618F0D2FD00220C4B53
:1065E00018F044FE044630460D4618F0C9FD06A3D7
:1065F000D3E9002318F064FF02460B4620462946E3
:1066000018F082FC70BD00BF0000E0DFFFFF6F43A9
:106610000000F03D000000002DE9F04F2DED028B51
:10662000044683B0C06818F0BBFD804620698946E7
:1066300018F0B6FD824660698B4618F0B1FD02463F
:1066400001F1004306460F464046494616F02CFE2F
:1066500019F004F9E062054616F0DAFC01902846CC
:1066600016F08AFC019B0546184618F0ABFD424621
:106670004B4618F0FBFD80462846894618F0A2FDDF
:1066800032463B4618F0F2FD02460B46404649466C
:1066900018F038FC02460B465046594616F004FEE8
:1066A00019F0DCF8002208EE100A002330463946C3
:1066B00019F06CF828B3B5EEC08AF1EE10FA1CDDC3
:1066C00011A7D7E9006718EE100A18F07BFD024603
:1066D0000B463046394618F015FC32463B4618F05A
:1066E00013FC19F0BBF8A062E38843F00203E380D7
:1066F00003B0BDEC028BBDE8F08F05A7D7E90067BA
:10670000E1E784ED0A8AEFE7EA2E4454FB21F93FE2
:10671000EA2E4454FB21F9BF08B50FF069FDDFED07
:106720000C7A07EE100A67EE277A17EE900A18F037
:1067300049FD05A3D3E9002318F0C2FE19F046F87D
:1067400008BD00BFAFF30080EA2E4454FB2119407E
:106750000000B4430000000008B50FF05DFDDFED60
:106760000C7A07EE100A67EE277A17EE900A18F0F7
:1067700029FD05A3D3E9002318F0A2FE19F026F89D
:1067800008BD00BFAFF30080EA2E4454FB2119403E
:106790000000B44300000000494A21F00043934246
:1067A0002DE9704304460D464BDC464A93420E46A3
:1067B0000EDC3FA3D3E9002318F0A6FB0022424BD6
:1067C00018F0E4FF00284CD020462946BDE870832D
:1067D0003E4A93423BDCB3F1804F42DD16F0B2FA01
:1067E0002246804689462B462046294618F03EFD23
:1067F0000022354B18F088FB17F0E2F902460B46F1
:106800004046494618F080FB02460B4600202E49C0
:1068100018F056FE424604460D464B464046494651
:1068200018F072FB02460B462046294618F06CFB16
:1068300002F06AF8002EC9DC01F100431946BDE8F8
:10684000708302460B4618F05FFBBDE8708316F0BC
:1068500079FA02F059F818A3D3E9002318F054FB91
:10686000E8E722462B462046294618F0FFFC8046E2
:1068700089462046294616F065FA002204460D4650
:10688000114B4046494618F03FFB17F099F900229A
:106890000D4B18F039FB02460B464046494618F0AE
:1068A0000FFE22462B4618F02FFB00F0C5FAC1E779
:1068B0009C7500883CE4377EEF39FAFE422EE63FB5
:1068C000FFFFEF7FFFFF2F3E0000F03F0000B041D1
:1068D0002DE9F84FC44B21F000469E4204460D4678
:1068E0008A460EDDC14B9E4200F3AC8000F0A780CB
:1068F000BAF1000F40F3EA809FA1D1E90001BDE8A1
:10690000F88FBB4B9E4200F3B580A3F1DE739E422D
:1069100040F3A0804FF0FF3B22462B4620462946FD
:1069200018F0A4FC02460B468046894618F09EFCEF
:1069300093A3D3E9002306460F4618F097FC92A3D1
:10694000D3E9002318F0E0FA32463B4618F08EFCFB
:106950008FA3D3E9002318F0D7FA32463B4618F04C
:1069600085FC8DA3D3E9002318F0CEFA32463B46CE
:1069700018F07CFC8AA3D3E9002318F0C5FA32464C
:106980003B4618F073FC88A3D3E9002318F0BCFA47
:1069900042464B4618F06AFC85A3D3E900238046A3
:1069A00089463046394618F061FC83A3D3E90023B9
:1069B00018F0A8FA32463B4618F058FC80A3D3E9F9
:1069C000002318F09FFA32463B4618F04FFC7EA396
:1069D000D3E9002318F096FA32463B4618F046FCFD
:1069E0007BA3D3E9002318F08DFA32463B4618F01A
:1069F0003DFCBBF1FF3F02460B466CD0404649468A
:106A000018F082FA22462B4618F030FC794E7A4B69
:106A10004FEACB0B5E449B44DBE9002318F072FA8B
:106A200022462B4618F06EFA02460B46D6E90001C4
:106A300018F068FABAF1000F43DBBDE8F88F0028C0
:106A40003FF456AF22462B462046294618F05CFA02
:106A5000BDE8F88F60A3D3E9002318F055FA0022AF
:106A6000664B18F093FE00283FF454AF20462946A9
:106A7000BDE8F88F16F066F9614B9E4204460D465C
:106A800039DCA3F550239E425EDC02460B4618F02B
:106A90003BFA0022594B18F035FA002206460F4601
:106AA0004FF080432046294618F02EFA02460B4646
:106AB0003046394618F004FD4FF0000B04460D46F1
:106AC0002AE701F100431946BDE8F88F44A1D1E956
:106AD0000001BDE8F88F4046494618F015FA2246F5
:106AE0002B4618F0C3FB02460B462046294618F0F9
:106AF00009FABDE8F88F434B9E421ADC0022424B54
:106B000018F000FA002206460F463F4B2046294661
:106B100018F0ACFB0022394B18F0F6F902460B4690
:106B20003046394618F0CCFC4FF0020B04460D46B7
:106B3000F2E602460B460020344918F0C1FC4FF043
:106B4000030B04460D46E7E600222C4B18F0DAF959
:106B5000002206460F46294B2046294618F0D4F954
:106B600002460B463046394618F0AAFC4FF0010B9E
:106B700004460D46D0E600BF182D4454FB21F93FD2
:106B800011DA22E33AAD903FEB0D76244B7BA93F1F
:106B9000513DD0A0660DB13F6E204CC5CD45B73FED
:106BA000FF8300922449C23F0D5555555555D53F99
:106BB0002F6C6A2C44B4A2BF9AFDDE522DDEAD3F8D
:106BC0006D9A74AFF2B0B33F711623FEC671BC3F2D
:106BD000C4EB98999999C93F9C7500883CE4377E2D
:106BE000182D4454FB21F9BFFFFF0F440000F07F34
:106BF000FFFFDB3FC0040400E00404000000F03F9E
:106C0000FFFFF23FFF7F03400000F83F0000F0BFAE
:106C10002DE9F843C1F30A59A9F2FF35132D0246B5
:106C20000B460C4606468846074622DC002D50DB04
:106C3000DFF8F09049FA05F901EA090E5EEA060666
:106C40001CD036A3D3E9002318F05EF900220023FC
:106C500018F09CFD48B1002C04DD4FF4801343FA7A
:106C600005F5A84428EA0904002721463846BDE86E
:106C7000F883332D06DDB5F5806F3DD010461946FB
:106C8000BDE8F883A9F213494FF0FF3E2EFA09F947
:106C900010EA090FF2D021A3D3E9002318F034F948
:106CA0000022002318F072FD0028DED0002C09DD40
:106CB000142D2BD00127C5F1340507FA05F5AE19BF
:106CC00028BFB844444626EA090721463846BDE8AD
:106CD000F88312A3D3E9002318F016F90022002349
:106CE00018F054FD0028C0D0002C0BDB54EA060736
:106CF00006D00027084CB8E718F006F9BDE8F8837D
:106D00003C46B2E700274FF00044AEE704F101082B
:106D1000D8E700BFAFF300800000F03F9C7500880B
:106D20003CE4377EFFFF0F002DE9F041C1F30A5725
:106D3000A7F2FF35132D02460B460C468846064641
:106D40001CDC002D3FDB3A4F2F41864601EA070C41
:106D50005CEA0E0E17D034A3D3E9002318F0D4F860
:106D60000022002318F012FD20B1002C3FDB28EA9E
:106D70000704002621463046BDE8F081332D06DDAC
:106D8000B5F5806F2FD010461946BDE8F081A7F207
:106D900013474FF0FF3E2EFA07F73842F3D022A3F5
:106DA000D3E9002318F0B0F80022002318F0EEFC1D
:106DB0000028DFD0002C20DB444626EA07062146C7
:106DC0003046BDE8F08118A3D3E9002318F09CF801
:106DD0000022002318F0DAFC0028CBD0002C17DBAF
:106DE00000263446C6E718F08FF8BDE8F0814FF46E
:106DF000801343FA05F5A844B9E7142D10D00123F8
:106E0000C5F1340503FA05F5AE1928BF9844D3E758
:106E100024F00042074B324318BF1C460026A9E766
:106E200004F10108C8E700BF9C7500883CE4377E88
:106E3000FFFF0F000000F0BF2DE9F04FD84B994243
:106E400087B0804689460E4613DCD64B21F00044BD
:106E50009C4218DD0022D44B18F070FC002879D039
:106E6000002200230020D14918F02AFB07B0BDE81A
:106E7000F08FCF4B99422FDD42464B4618F044F835
:106E800007B0BDE8F08FCB4B9C4270DDCA4B1E446F
:106E90009E427ED80022C94B4046494618F034F83D
:106EA0004FEA215AAAF2FF3ABAF1000F04460D4602
:106EB0000E4640F3DE8142464B4618F023F8024668
:106EC0000B460020BD4918F01DF822462B4618F04D
:106ED000F7FACDE902010BE0B94B9E42DADD9FEDF6
:106EE0009A7B8DED027B4FEA265A4446AAF2FF3A7E
:106EF000B44BC6F313069E4246F07F5500F3E7807D
:106F000045F44015204629460022AC4B17F0FAFF05
:106F1000002204460D46AC4B18F0A8F922462B4639
:106F200018F0A4F9A046CDE90401A946CDE9000175
:106F3000002E3AD1002200232046294618F0FEFBFD
:106F4000002800F0CE80BAF1000F40F074810020DC
:106F5000002195E742464B464046314617F0D2FFA6
:106F600002460B4618F0ACFA07B0BDE8F08F0022DD
:106F7000964B17F0C9FF0022002318F007FC0028E9
:106F800000F0CC80924B9C4200F3C88040464946BA
:106F900076E700228C4B18F069F942464B4618F010
:106FA00065F9CDE900014FF0000A00224FF080435F
:106FB0004046494617F0A8FF02460B464046494660
:106FC00018F07EFA02460B4606460F4618F04EF9B8
:106FD0005FA3D3E9002304460D4618F047F95EA3EA
:106FE000D3E9002317F090FF22462B4618F03EF914
:106FF0005BA3D3E9002317F087FF22462B4618F046
:1070000035F959A3D3E9002317F07EFF22462B461A
:1070100018F02CF956A3D3E9002317F075FF224688
:107020002B4618F023F954A3D3E9002317F06CFF83
:1070300022462B4618F01AF951A3D3E9002317F082
:1070400063FF22462B4618F011F904460D46BAF1AB
:10705000000F00F0BF80504618F0A2F84AA3D3E911
:10706000002382468B4618F001F9DDE90023CDE9C3
:1070700004012046294617F047FF32463B4618F0E8
:10708000F5F843A3D3E9002304460D46504659467C
:1070900018F0ECF8DDE9022317F036FF02460B4644
:1070A0002046294617F030FF02460B46DDE9000175
:1070B00017F028FF42464B4617F024FF02460B46C6
:1070C000DDE9040117F01EFF07B0BDE8F08F45F4BD
:1070D0000015C6F5801620462946B6100AF1010AA9
:1070E00012E72DA3D3E900232046294618F0BEF865
:1070F00002460B460020314917F004FFDDE9042366
:1071000018F0B4F806460F46BAF1000F73D10246E4
:107110000B462046294617F0F5FEB1E642464B469F
:107120004046494618F0A2F80022274B18F09EF876
:1071300002460B464046494617F0E4FE07B0BDE85C
:10714000F08F00BFAFF300800000000000000000DF
:1071500044523EDF12F1C23F9FC678D0099AC33F26
:10716000DE03CB966446C73FAF788E1DC571CC3F1A
:10717000599322942449D23F04FA97999999D93F77
:10718000935555555555E53F0000E0FE422EE63F2C
:10719000763C7935EF39EA3D555555555555E53F1E
:1071A0007982DA3FFFFFEF3F0000F0BF000050C3DD
:1071B000FFFFEF7FFFFF1F3E3C412D400000F03FEF
:1071C000FFFF3F439DA006000000E03F000050434A
:1071D000FFFF8F3CDDE9004522462B4617F094FE69
:1071E00032463B4618F042F802460B4620462946F6
:1071F00017F088FE9CE7504617F0D2FF23A3D3E98F
:10720000002382468B4618F031F822A3D3E90023ED
:10721000804689465046594618F028F8DDE9022391
:1072200017F072FE02460B463046394617F06AFEEA
:1072300022462B46DCE7504617F0B2FF15A3D3E9F0
:10724000002306460F4618F011F8DDE9022317F077
:107250005BFE0EA3D3E9002304460D4630463946B3
:1072600018F004F802460B462046294617F04CFE5B
:1072700006E60022044B17F045FE02460B46404648
:10728000494617F03FFE20E60000F03F0000E0FE18
:10729000422EE63F763C7935EF39EA3D00000000AA
:1072A00008B516F0D5F804A3D3E9002318F008F9BF
:1072B00008BD00BFAFF30080EF39FAFE422EE63F73
:1072C0002DE9F043DFF8B4808BB004460D4601F0A1
:1072D000F3F898F90030013306460F462BD02246CA
:1072E0002B462046294618F05BFA814618BB2046FB
:1072F000294615F027FD1FA3D3E9002318F046FA0D
:10730000C8B1194A98F90030CDF820900321CDE991
:107310000445CDE902458DE806008BB9134B4FF0CB
:107320006042CDE90623684617F0EEFB70B1089B7A
:107330009BB9DDE90667304639460BB0BDE8F083FE
:107340000B490020022BCDE90601ECD117F068FDB6
:1073500022230360089B002BEBD017F061FD089BF4
:107360000360E6E7AFF30080A4160400FFFFEF47D9
:107370000000F07F7DF8B98FCE338640FF8100207A
:107380002DE9F043DFF8E4808BB004460D4601F0B0
:1073900043F998F90030013306460F4633D02046B2
:1073A000294617F0ABFB70B32CA3D3E9002320468A
:1073B000294618F0EBF9814650BB2AA3D3E90023F4
:1073C0002046294618F0C4F9E8B198F90030204A5F
:1073D000CDF82090002600270421022BCDE904459A
:1073E000CDE90245CDE906678DE8060029D068465B
:1073F00017F08AFB28B3089B1BB117F011FD089BFF
:107400000360DDE90667304639460BB0BDE8F0831E
:107410000F4A98F90030019203210022CDE904457A
:10742000CDE90245009108922BB90A4B4FF060421A
:10743000CDE90623DBE708490020022BCDE9060150
:10744000D5D117F0EDFC22230360D4E7AFF3008021
:10745000AC160400FFFFEF470000F07FEF39FAFEA3
:10746000422E864051302DD5104987C0FF81002023
:107470002DE9F04FDFF80C938DB006460F46144609
:107480001D4601F0C5FC99F90080B8F1FF3FCDE938
:10749000000136D022462B462046294618F080F9B6
:1074A000834670BB32463B463046394618F078F981
:1074B0008246002840F0A280304639460022002350
:1074C00018F03CF910B3002200232046294618F09A
:1074D00035F9834600286AD09FEDA17B0122A44B99
:1074E000CDF828A00292CDE90467CDE906458DEDDF
:1074F000087B0393B8F1000F45D09FED9B7B8DED8A
:10750000007BDDE900010DB0BDE8F08FDDE9000191
:1075100017F0F4FA8046002800F08D804FF0000A42
:107520004FF0000BDDE9000152465B4618F006F90A
:107530000028E6D03046394617F0E0FA0028E0D0BF
:107540002046294617F0DAFA0028DAD099F90030F7
:10755000874A039204210022022BCDE90467CDE97A
:107560000645CDE908AB02910A9203D002A817F0B4
:10757000CBFA68B917F054FC2223036008E09FEDB2
:10758000787B8DED087B02A817F0BEFA002830D07A
:107590000A9B1BB117F044FC0A9B03609DED087B1E
:1075A0008DED007BDDE900010DB0BDE8F08F2046D8
:1075B000294617F0A3FA0028A3D000220023204672
:1075C000294618F0C5F800289BD099F90030684A80
:1075D000CDF828B00121CDE90467CDE90645029137
:1075E0000392002BCBD063490020022BCDE9080188
:1075F000C9D117F015FC21230360C9E7002200233D
:107600002046294618F09AF800283FF47AAF5A4BE2
:107610005749CDF828B000220120B8F1020FCDE97A
:1076200004670290CDE90645CDE908230391AAD16C
:10763000CDE9002365E73046394617F05FFA0028A8
:107640003FF46CAF2046294617F058FA00283FF463
:1076500065AFDDE900231046194618F0A1F80028AF
:107660005FD1032399F900800293414B0A90CDE941
:107670000467CDE906450393B8F1000F2BD1DFF87D
:1076800008B14FF0604A0022002330463946CDE968
:1076900008AB18F05DF800283FF468AF0022374BC4
:1076A0002046294617F0E2FD04460D4617F034FA4D
:1076B00002460B462046294618F040F870BB304B76
:1076C00099F900804FF06042CDE90823B8F1020F2C
:1076D0007FF44CAF4EE7DFF8B4B04FF0000A002261
:1076E000002330463946CDE908AB18F031F80028C0
:1076F000ECD00022214B2046294617F0B7FD044666
:107700000D4617F009FA02460B462046294618F0A6
:1077100015F818B9174B0022CDE9082399F9008014
:10772000D4E799F90090124BCDF828800122CDE9D9
:107730000467CDE9064502920393B9F1000F3FF4C7
:107740001EAF002200231046194617F0B9FEB9F10A
:10775000020FCDE908013FF44CAF14E7AFF300800E
:107760000000000000000000000000000000F03FEA
:10777000C41604000000F0FF0000F03F0000E03FEE
:10778000FFFFEFC7FF810020FFFFEF470000F07F02
:107790002DE9F84FC44E21F00043B34204460D4694
:1077A0000DDD03F1404303F58013034340F0B9803E
:1077B000002940F3408100200021BDE8F88FBB4E36
:1077C000B34240F3A6800029C0F2788102460B46FE
:1077D0000020B74917F096FB0022B64B17F046FD84
:1077E00004460D4616F0ECF995A3D3E9002389462B
:1077F00080462946204617F039FD93A3D3E900239C
:1078000017F082FB22462B4617F030FD90A3D3E9F8
:10781000002317F077FB22462B4617F027FD8EA397
:10782000D3E9002317F070FB22462B4617F01EFD0C
:107830008BA3D3E9002317F065FB22462B4617F0F4
:1078400015FD89A3D3E9002317F05EFB22462B46E2
:1078500017F00CFD86A3D3E9002382468B46204611
:10786000294617F003FD84A3D3E9002317F04AFB50
:1078700022462B4617F0FAFC81A3D3E9002317F028
:1078800043FB22462B4617F0F1FC7FA3D3E90023EC
:1078900017F038FB22462B4617F0E8FC0022844BF9
:1078A00017F032FB02460B465046594617F008FEC9
:1078B00042464B4617F0DAFC002682468B4632469B
:1078C0004B463046494617F0D1FC02460B4620464F
:1078D000294617F017FB324604460D464B464046F4
:1078E000494617F011FB02460B462046294617F081
:1078F000E7FD02460B465046594617F005FB324657
:107900004B4617F001FB02460B4617F0FDFABDE8A7
:10791000F88F694A93420EDC5DA1D1E90001BDE810
:10792000F88F02460B4617F0EDFA02460B4617F0A9
:10793000C7FDBDE8F88F02460B4617F097FC40A341
:10794000D3E9002306460F4617F090FC3EA3D3E987
:10795000002317F0D9FA32463B4617F087FC3CA3C8
:10796000D3E9002317F0CEFA32463B4617F07EFCEF
:1079700039A3D3E9002317F0C7FA32463B4617F084
:1079800075FC37A3D3E9002317F0BCFA32463B4617
:1079900017F06CFC34A3D3E9002317F0B5FA324694
:1079A0003B4617F063FC32A3D3E9002380468946A7
:1079B0003046394617F05AFC2FA3D3E9002317F0BD
:1079C000A1FA32463B4617F051FC2DA3D3E9002320
:1079D00017F09AFA32463B4617F048FC2AA3D3E93F
:1079E000002317F08FFA32463B4617F03FFC002287
:1079F0002F4B17F089FA02460B464046494617F0CE
:107A00005FFD22462B4617F031FC02460B4622A1B1
:107A1000D1E9000117F076FA02460B4620462946C6
:107A200017F070FA02460B4619A1D1E9000117F0D0
:107A300069FABDE8F88F1AA1D1E90001BDE8F88F15
:107A400009F7FD0DE13D023F88B20175E0EF493FC6
:107A50003B8F68B52882A43F5544880E55C1C93F65
:107A60007D6FEB0312D6D43F555555555555C53F3F
:107A700082922EB1C5B8B33F59018D1B6C06E63F0B
:107A8000C88A599CE52A00404B2D8A1C273A03409E
:107A9000182D4454FB21F93F075C143326A6913C72
:107AA000182D4454FB210940FFFFEF3FFFFFDF3F4C
:107AB0000000F03F0000E03F0000603C00225C4B13
:107AC00017F022FA00225B4B17F0D0FB40A3D3E95A
:107AD000002304460D4617F0C9FB3FA3D3E900235A
:107AE00017F012FA22462B4617F0C0FB3CA3D3E94D
:107AF000002317F007FA22462B4617F0B7FB3AA3EC
:107B0000D3E9002317F000FA22462B4617F0AEFB0C
:107B100037A3D3E9002317F0F5F922462B4617F0D7
:107B2000A5FB35A3D3E9002317F0EEF922462B4637
:107B300017F09CFB804689462046294616F040F8FF
:107B40002FA3D3E9002306460F462046294617F007
:107B50008DFB2DA3D3E9002317F0D4F922462B4641
:107B600017F084FB2AA3D3E9002317F0CDF92246AE
:107B70002B4617F07BFB28A3D3E9002317F0C2F9AB
:107B800022462B4617F072FB0022294B17F0BCF956
:107B900002460B464046494617F092FC32463B46A9
:107BA00017F064FB1EA3D3E9002317F0ABF93246AC
:107BB0003B4617F0A9F902460B4617F0A5F9024615
:107BC0000B4619A1D1E9000117F09CF9BDE8F88F27
:107BD00009F7FD0DE13D023F88B20175E0EF493F35
:107BE0003B8F68B52882A43F5544880E55C1C93FD4
:107BF0007D6FEB0312D6D43F555555555555C53FAE
:107C000082922EB1C5B8B33F59018D1B6C06E63F79
:107C1000C88A599CE52A00404B2D8A1C273A03400C
:107C2000075C143326A6913C182D4454FB210940CF
:107C30000000F03F0000E03F434A91422DE9F84345
:107C400004460D4639DD414A914209DD02F179527F
:107C5000914240DD02460B4617F056F9BDE8F88325
:107C600001F1404202F58012024330D0B1F1804F61
:107C70003ADC0022364B17F045F902460B46044623
:107C80000D4617F041F9224606460F462B46204680
:107C9000294617F0EBFA02460B463046394617F0F4
:107CA00033F915F08DFF0B4602462946204617F0A2
:107CB0002BF9BDE8F843FFF7BFB802460B4617F0B3
:107CC00021F902460B4617F0FBFBBDE8F8830020C4
:107CD0000021BDE8F88300F017FE19A3D3E90023C3
:107CE00017F012F9BDE8F88302460B4617F0BEFA0A
:107CF0000022174B17F006F915F062FF2246804666
:107D000089462B462046294617F0FEF8424606468D
:107D10000F464B462046294617F0F6F802460B461A
:107D200000200B4917F0CCFB0B4602463946304683
:107D300017F0E8F8BDE8F84300F0E6BDAFF30080C7
:107D4000EF39FAFE422EE63FFFFFEF3FFFFFAF4164
:107D50000000F03F000000002DE9F047BE4B21F08D
:107D60000048984584B004460D4612DD08F14048AD
:107D700008F58018034658EA030321D002460B4653
:107D800017F0C0F802460B4617F09AFB04B0BDE8A6
:107D9000F087B24B98458A4629DCB8F1795F80F2CA
:107DA000658191A3D3E9002317F0AEF80022AC4B14
:107DB00017F0ECFCD8B12046294604B0BDE8F087A6
:107DC0008BA3D3E9002317F051FA8BA3D3E9002347
:107DD00006460F462046294617F048FA02460B464B
:107DE0003046394617F090F804B0BDE8F0872046D9
:107DF000294614F0A7FF02460B460020984917F0C9
:107E000081F80022974B17F031FA7DA3D3E90023C4
:107E100004460D4617F02AFA7BA3D3E9002317F096
:107E200073F822462B4617F021FA79A3D3E90023F1
:107E300017F068F822462B4617F018FA76A3D3E914
:107E4000002317F061F822462B4617F00FFA74A3AF
:107E5000D3E9002317F056F822462B4617F006FA0E
:107E600071A3D3E9002317F04FF822462B4617F0F1
:107E7000FDF96FA3D3E90023CDE90001204629468F
:107E800017F0F4F96CA3D3E9002317F03BF822466E
:107E90002B4617F0EBF96AA3D3E9002317F034F867
:107EA00022462B4617F0E2F967A3D3E9002317F027
:107EB00029F822462B4617F0D9F9694B002217F012
:107EC00023F8CDE902012046294615F079FE664BDC
:107ED000984506460F4666DCDDE90223DDE9000130
:107EE00017F0EEFA3246CDE900013B4630463946FE
:107EF00017F00AF802460B46DDE9000117F0B6F963
:107F00004FF00008CDE9000142463B464046394665
:107F100017F0ACF902460B462046294616F0F2FF50
:107F2000424604460D463B463046394616F0ECFFC5
:107F300002460B462046294617F0C2FA02460B4677
:107F400016F0E2FF02460B462BA1D1E9000116F024
:107F5000D9FF02460B46DDE9000116F0D3FF424689
:107F600004460D463B464046394616F0CDFF0246D4
:107F70000B4637A1D1E9000116F0C4FF02460B46BB
:107F80002046294616F0BEFF02460B4630A1D1E935
:107F9000000116F0B7FFBAF1000F3FF7F7AE01F19D
:107FA00000431946F2E6DDE90223DDE9000117F09E
:107FB00087FA32463B4617F059F932463B4616F0EF
:107FC000A3FF02460B4616F09FFF0BA3D3E9002345
:107FD00016F098FF02460B4605A1D1E9000116F004
:107FE00091FFD8E7AFF300809C7500883CE4377EB2
:107FF000182D4454FB21F93F075C143326A6913C0D
:1080000009F7FD0DE13D023F88B20175E0EF493F00
:108010003B8F68B52882A43F5544880E55C1C93F9F
:108020007D6FEB0312D6D43F555555555555C53F79
:1080300082922EB1C5B8B33F59018D1B6C06E63F45
:10804000C88A599CE52A00404B2D8A1C273A0340D8
:10805000182D4454FB21E93FFFFFEF3FFFFFDF3FB7
:108060000000F03F0000E03F3233EF3F02460B4696
:1080700017F0FCF837A3D3E9002306460F4617F0A4
:10808000F5F836A3D3E9002316F03EFF32463B460F
:1080900017F0ECF833A3D3E9002316F033FF324690
:1080A0003B4617F0E3F831A3D3E9002316F02CFF89
:1080B00032463B4617F0DAF82EA3D3E9002316F038
:1080C00021FF32463B4617F0D1F82CA3D3E9002319
:1080D00016F01AFF32463B4617F0C8F829A3D3E939
:1080E0000023804689463046394617F0BFF827A35B
:1080F000D3E9002316F006FF32463B4617F0B6F8E8
:1081000024A3D3E9002316F0FFFE32463B4617F0C6
:10811000ADF822A3D3E9002316F0F4FE32463B4625
:1081200017F0A4F800220A4B16F0EEFE02460B46AA
:108130004046494617F0C4F922462B4617F096F8F8
:1081400022462B4616F0E0FE04B0BDE8F08700BFE3
:108150000000F03F09F7FD0DE13D023F88B20175D7
:10816000E0EF493F3B8F68B52882A43F5544880E15
:1081700055C1C93F7D6FEB0312D6D43F55555555B8
:108180005555C53F82922EB1C5B8B33F59018D1BDD
:108190006C06E63FC88A599CE52A00404B2D8A1C94
:1081A000273A0340000000002DE9F84F1D465342D6
:1081B000134325F0004ADFF8E0E14AEAD373734540
:1081C000144606460F4647D8C0F1000848EA0008A2
:1081D00021F0004343EAD878F0458B463CD805F1BE
:1081E000404808F5801858EA020850D04FEAA578B0
:1081F00008F0020848EAD17850EA030134D052EA84
:108200000A023CD0F24557D0734538D0A3EB0A039D
:108210001B153C2B42DC002D70DB22462B463046E2
:10822000394617F04DF914F08DFDFEF751FBB8F10A
:10823000010F5FD0B8F1020F4ED0B8F1000F62D03D
:1082400043A3D3E9002316F05DFE43A3D3E9002343
:1082500016F058FEBDE8F88F32463B4620462946C8
:1082600016F052FEBDE8F88FB8F1020F1AD0B8F13F
:10827000030F10D13AA1D1E90001BDE8F88FBBF19D
:10828000000F14DB38A1D1E90001BDE8F88FBDE88B
:10829000F84FFEF71DBB3946BDE8F88F32A1D1E992
:1082A0000001C4E72CA1D1E90001BDE8F88F30A19D
:1082B000D1E90001BDE8F88F534526D0B8F1020F8F
:1082C000F0D0B8F1030FD5D0B8F1010F4FF0000096
:1082D00029D00021BDE8F88F1DA3D3E9002316F0B3
:1082E00011FE02460B461CA1D1E9000116F00AFE60
:1082F000BDE8F88F01F10041BDE8F88F3C338CDA1E
:108300000020002193E7BDE8F88FB8F1020F18D0E4
:10831000B8F1030F10D0B8F1010F08D016A1D1E9C0
:108320000001BDE8F88F4FF00041BDE8F88F14A1BF
:10833000D1E90001BDE8F88F13A1D1E90001BDE842
:10834000F88F13A1D1E90001BDE8F88FAFF30080E9
:10835000075C143326A6A13C182D4454FB21094088
:10836000182D4454FB2109C0182D4454FB21F93F1A
:10837000182D4454FB21F9BF182D4454FB21E93F2B
:10838000182D4454FB21E9BFD221337F7CD902C090
:10839000D221337F7CD902400000F07F0000000032
:1083A00043422DE9F047034321F000463E4A46EAA6
:1083B000D373934204460D4613D896423DD03B4BAF
:1083C0009E428A4617DC36A3D3E9002316F09CFDB3
:1083D0000022002317F0DAF9A8B320462946BDE8A9
:1083E000F08702460B4616F08DFD02460B4617F04D
:1083F00067F8BDE8F0872E4B9E42354624DD3346B4
:108400000246314616F080FD224606460F462B46B0
:108410000020254916F076FD02460B4630463946C7
:1084200017F04EF8FEF708FD0022224B16F01EFF53
:10843000BAF1000F2FDBBDE8F0870022002317F010
:108440003FF8BDE8F087354622462B4620462946B0
:1084500016F05AFD22462B4606460F4616F006FF3A
:108460002246804689462B4600200F4916F04AFDD9
:1084700002460B464046494617F022F832463B4634
:1084800016F042FDFEF7D8FC00220A4B16F0EEFE75
:10849000BAF1000FCFDA01F100431946BDE8F087C9
:1084A0009C7500883CE4377E0000F03FFFFF2F3EC4
:1084B000FFFFDF3F0000E03F2DE9F8434E4B21F086
:1084C00000449C4206460F461BDC4C4B9C4222DD7E
:1084D0004B4B9C4263DD4B4B9C427BDD4A4B9C42A9
:1084E00046DD01339C4240D041A3D3E9002310462E
:1084F000194616F0BBFE06460F4630463946BDE823
:10850000F88302460B4616F0B1FE06460F4630468B
:108510003946BDE8F88314F015FC02F0B1FC0022E6
:108520003A4B8046894616F0EFFCB4F1725F06467E
:108530000F46ECDB42464B464046494616F096FE57
:1085400032463B4604460D463046394616F0DCFCC2
:1085500002460B462046294616F0B2FF00222B4B5E
:1085600016F0D2FC06460F46D1E7294B9842BBD8FD
:108570003046394614F0E6FB0022264B16F076FE14
:1085800000F04AF8002204460D46224B16F06EFE1B
:1085900022462B4616F06AFE06460F46B7E714F051
:1085A000D1FB00F039F800221A4B06460F4616F0B0
:1085B0005DFE32463B4604460D460020154916F046
:1085C0007FFF02460B462046294616F09DFC0646D4
:1085D0000F469CE714F0B6FB00F01EF800220D4B8E
:1085E00016F044FE06460F4691E700BFAFF3008049
:1085F0009C7500883CE4377EFFFFEF7F422ED63F1C
:10860000FFFF3540412E8640CD3386400000F03FCD
:108610007DF8B98F0000E03F2DE9F04FB04E21F01A
:108620000042B24283B004460D464FEAD1770DD9DD
:10863000AC4EB24225D9C1F31303034340F0EC80A2
:108640000FB10020002103B0BDE8F08FA64B9A4285
:1086500000F2CB80A54B9A4200F2DC808AA3D3E9DA
:10866000002316F051FC0022A14B17F08FF80028D0
:1086700000F006812046294600229D4B16F044FC5E
:10868000E1E783A3D3E9002317F080F8002840F046
:10869000C88081A3D3E900232046294617F058F863
:1086A0000028CED1934E7EA3D3E9002306EBC70664
:1086B0002046294616F0DAFDD6E9002316F024FC00
:1086C00017F084F8064616F06BFD77A3D3E9002374
:1086D0008046894616F0CAFD02460B4620462946CA
:1086E00016F010FC72A3D3E90023CDE90001404647
:1086F000494616F0BBFD82468B4652465B46DDE995
:10870000000116F0FFFB04460D4622462B4620468C
:10871000294616F0ABFD68A3D3E9002380468946BD
:1087200016F0A4FD66A3D3E9002316F0EBFB424646
:108730004B4616F09BFD64A3D3E9002316F0E4FB3F
:1087400042464B4616F092FD61A3D3E9002316F092
:10875000D9FB42464B4616F089FD5FA3D3E90023BF
:1087600016F0D2FB42464B4616F080FD02460B4601
:108770002046294616F0C6FB80468946002E58D072
:108780002046294642464B4616F070FD42460446B6
:108790000D464B4600204FF0804116F0B3FB0246D9
:1087A0000B462046294616F08BFE02460B465046E5
:1087B000594616F0A7FBDDE9002316F0A3FB0B4694
:1087C00002464B49002016F09DFB6FF47F739E42DA
:1087D00051DA06F57A7601EB065100224FF0B873B4
:1087E00016F044FD03B0BDE8F08F434B9A423FF6CC
:1087F00059AF424BFC002344D3E9002316F082FB1F
:108800003F4BC7F101062344CDE90001D3E900AB9A
:10881000F61B72E7002678E702460B4616F074FB5B
:1088200011E719A3D3E900231046194616F01EFDDF
:1088300009E702460B462046294616F017FD00229E
:1088400006460F464FF080434046494616F05AFB15
:1088500002460B463046394616F032FE22462B467B
:1088600016F050FB02460B460020214916F04AFB49
:1088700003B0BDE8F08F01EB065103B0BDE8F08F07
:10888000064642E7AFF300809C7500883CE4377EE3
:10889000EF39FAFE422E864051302DD5104987C05F
:1088A000FE822B654715F73F0000E0FE422EE63FB3
:1088B000763C7935EF39EA3DD0A4BE726937663E21
:1088C000F16BD2C541BDBB3E2CDE25AF6A56113FD0
:1088D00093BDBE166CC1663F3E5555555555C53FB7
:1088E000412E8640FFFFEF7F422ED63FFFFF2F3EF7
:1088F0000000F03F00050400B1A2F03F10050400A5
:1089000020050400000000002DE9F04FB1F5801FA4
:1089100085B006460F460B465ADA024621F000445F
:10892000224300F0F8800029C0F27A810022D64B61
:1089300016F09CFCD54A0B46934206460F466FF054
:10894000350C4ADCC3F3130505F5152E0EF6647ECF
:108950000EF4801E8EF07F5282F440121C1542EA03
:108960000507A4F2FF3464440022C94B304639465F
:1089700004EB1E5416F0C6FAAB1CC3F31303022B10
:1089800082468B464FF0000230DC002316F0D6FE04
:10899000002800F0C980002C00F04B81204616F022
:1089A000FFFBA5A3D3E9002306460F4616F05EFCA5
:1089B000A3A3D3E9002304460D463046394616F0FA
:1089C00055FC02460B462046294616F09DFA0AE061
:1089D000AE4A93424FF0000CB4DD32463B4630467F
:1089E000394616F091FA05B0BDE8F08F4FF080439C
:1089F00016F08AFA02460B465046594616F060FDBC
:108A0000064620460F4616F0CBFB3246CDE9000164
:108A10003B4630463946CDE9026716F027FC024650
:108A20000B468046894616F021FC87A3D3E9002334
:108A300006460F4616F01AFC85A3D3E9002316F06C
:108A400063FA32463B4616F011FC83A3D3E90023B8
:108A500016F05AFA32463B4616F008FC80A3D3E9DA
:108A6000002316F051FA42464B4616F0FFFB7EA358
:108A7000D3E90023804689463046394616F0F6FB96
:108A80007BA3D3E9002316F03FFA32463B4616F0AB
:108A9000EDFB79A3D3E9002316F036FA32463B46C4
:108AA00016F0E4FB0B4602464946404616F02CFA07
:108AB000A5F5C223C5F5D725A3F27A4351351D4349
:108AC000002D8046894656DD0022724B504659469D
:108AD00016F0CCFB52465B4616F0C8FB06460F4626
:108AE000002C68D132463B464046494616F00CFA07
:108AF000DDE9022316F0BAFB02460B463046394642
:108B000016F000FA02460B465046594616F0FAF99E
:108B100005B0BDE8F08F0022002300205E4916F06A
:108B2000CFFC05B0BDE8F08F55A3D3E90023504634
:108B3000594616F09BFB02460B460020554916F09D
:108B4000E1F9524606460F465B465046594616F036
:108B50008DFB02460B463046394616F087FB06462B
:108B60000F46002C40F09A8002460B46504659466C
:108B700016F0C8F937E7002C00F0A4802EA3D3E943
:108B80000023DDE9000116F071FB42464B46044626
:108B90000D465046594616F0B5F9DDE9022316F0A8
:108BA00065FB27A3D3E9002306460F46DDE9000154
:108BB00016F05CFB21E020A3D3E90023DDE90001EE
:108BC00016F054FB32463B4604460D4640464946A5
:108BD00016F09AF9DDE9022316F048FB18A3D3E951
:108BE000002380468946DDE9000116F03FFB02467E
:108BF0000B464046494616F087F902460B4630467A
:108C0000394616F07FF952465B4616F07BF902466C
:108C10000B462046294616F075F905B0BDE8F08FE1
:108C200002460B4616F06EF90022002316F048FCAF
:108C3000D9E600200021D6E60000E0FE422EE63F05
:108C4000763C7935EF39EA3D44523EDF12F1C23FBE
:108C5000DE03CB966446C73F599322942449D23F02
:108C6000935555555555E53F9FC678D0099AC33F52
:108C7000AF788E1DC571CC3F04FA97999999D93F69
:108C8000555555555555D53F00005043FFFFEF7FD3
:108C90000000F03F0000E03F000050C3204616F007
:108CA0007FFA0FA3D3E900238046894616F0DEFA47
:108CB0000DA3D3E9002304460D464046494616F06D
:108CC000D5FA9AE702460B465046594616F01AF96D
:108CD000DDE9022316F0CAFA14E700BFAFF3008003
:108CE0000000E0FE422EE63F763C7935EF39EA3D62
:108CF000B1F5801F2DE9F84304460D460B461ADAFC
:108D0000024621F00046324359D000295FDB0022A1
:108D10003B4B16F0ABFA3B4A0D462B4693420446BA
:108D20006FF035010CDD22462B462046294616F011
:108D3000EBF8BDE8F883334A93424FF00001F2DCD0
:108D40001815A0F2FF3008444FEAD0794844C3F325
:108D5000130816F025FAC9F57F73033348EA035563
:108D600006460F4620462946FFF7CEFD1EA3D3E94F
:108D70000023804689463046394616F077FA1CA310
:108D8000D3E9002304460D464046494616F06EFAE4
:108D900002460B462046294616F0B6F816A3D3E93C
:108DA000002304460D463046394616F05FFA024667
:108DB0000B462046294616F0A7F8BDE8F8830022A6
:108DC00000230020104916F07BFBBDE8F883024623
:108DD0000B4616F097F80022002316F071FBBDE851
:108DE000F88300BFAFF30080362BF111F3FE593D3D
:108DF0000EE526157BCBDB3F00609F501344D33F2D
:108E000000005043FFFFEF7F000050C30000000050
:108E10002DE9F04F23F0004757EA020493B037D012
:108E2000674C21F00046A64283460D4629DC9A464F
:108E3000964625D0A74224DC614CA74279D0002D6C
:108E400080468946CDE9002377DB0024BEF1000F80
:108E50002CD15B4B9F4200F08B805A4B9F4261D0DC
:108E6000BAF1804F00F0C383574B9A451ED1002DB5
:108E70001CDB4046494613B0BDE8F04F14F0A0BEDD
:108E800058B106F1404606F5801656EA0B0306D1A6
:108E90004C49002013B0BDE8F08FB742CCDD4B4801
:108EA00013B0BDE8F04F15F031BE002440464946EE
:108EB00013F048FFBBF1000F19D126B1414B25F04B
:108EC00040429A4213D1BAF1000FC0F2CA83002D7A
:108ED000E0DA06F1404606F5801656EA040300F093
:108EE000A584012CD6D101F100431946D2E7ED0F3C
:108EF000013D54EA05034ED0354B9F426EDD03F130
:108F000004739F4240F3FE83324B9E424EDDBAF122
:108F1000000F4EDD28A3D3E900231046194616F0B2
:108F2000A5F9B7E7BAF1000FC0F2528440464946AE
:108F3000B0E7BEF1000F82D0A3E7274B9F4228DCA9
:108F4000A3F154739F4280DD3B15A3F2FF33142B32
:108F500040F35484C3F134032EFA03F202FA03F30C
:108F60009E457FF472AF02F00102C2F102046DE788
:108F700006F1404303F5801353EA0B0388D0154BE9
:108F80009E4240F33B83BAF1000F12DBDDE90001A2
:108F900080E702245AE742464B461046194615F030
:108FA000B1FF02460B4616F08BFA73E7BAF1000FD9
:108FB000B0DB002000216DE79C7500883CE4377E23
:108FC0000000F07F0000F03F0000E03F100D0400C3
:108FD0000000E041FFFFEF3FFFFF3F43B6F5801F7A
:108FE0004FF0000205DAD84B16F040F96FF034026A
:108FF0000E463315D54FC6F31306A3F2FF331344C1
:1090000046F07F5ABE421A460D934AF4401A40F386
:109010002F83CF4B9E4240F30D849FEDB57B8DEDAA
:10902000087B8DED0E7B9FEDB47B13468DED067BAB
:1090300001330D93AAF5801A0027DDE90623514676
:10904000CDE90A0115F05EFFDDE906238046894679
:10905000DDE90A0115F058FF02460B460020BD4924
:1090600016F02EFA0A460146CDE91012134649467B
:109070000246404616F0FAF84FEA6A0343F00053FE
:109080008C46834603F50023CDE904BCDA468B46C3
:10909000D9190023CDE902AB0293DDE902AB002030
:1090A00006460F4602460B465046594616F0DEF875
:1090B00002460B464046494615F024FFDDE90623EB
:1090C000804689463046394615F01CFF02460B465D
:1090D000DDE90A0115F016FF52465B4616F0C6F8A8
:1090E00002460B464046494615F00CFFDDE91023C9
:1090F00016F0BCF8DDE90467CDE9060132463B46CF
:109100003046394616F0B2F87DA3D3E9002306466F
:109110000F4616F0ABF87CA3D3E9002315F0F4FE5C
:1091200032463B4616F0A2F879A3D3E9002315F0A6
:10913000EBFE32463B4616F099F877A3D3E90023BD
:1091400015F0E2FE32463B4616F090F874A3D3E9E0
:10915000002315F0D9FE32463B4616F087F872A37D
:10916000D3E9002315F0D0FE3246804689463B46BF
:109170003046394616F07AF802460B4640464946D4
:1091800016F074F8524606460F465B46DDE90401C8
:1091900015F0BAFEDDE9062316F068F832463B46C4
:1091A00015F0B2FE5246804689465B465046594607
:1091B00016F05CF80022684BCDE90A0115F0A4FE18
:1091C00042464B4615F0A0FE02980F460646324630
:1091D0003B465046594616F049F8002282468B46D7
:1091E0005D4B3046394615F08DFEDDE90A2315F05A
:1091F00089FE02460B464046494615F083FEDDE9EE
:10920000042316F033F83246804689463B46DDE9B2
:10921000060116F02BF802460B464046494615F06B
:1092200073FE8046894602460B4650465946CDE9B4
:1092300004AB15F069FEDDE902AB3DA3D3E90023E1
:1092400050460F4616F012F8DDE90423CDE902017D
:109250003946504615F056FE02460B4640464946F2
:1092600015F050FE34A3D3E9002315F0FFFF34A31B
:10927000D3E90023804689465046394615F0F6FF6B
:1092800002460B464046494615F03EFEDDE90E23F8
:1092900015F03AFE80460D98894615F081FF42464A
:1092A00006460F464B46DDE9020115F02DFEDDE9CD
:1092B000082315F029FE32463B4615F025FE3246BE
:1092C0003B4650468B4615F01DFEDDE9082315F0A0
:1092D00019FEDDE9022315F015FE02460B46404655
:1092E000494615F00FFE8046894637E0AFF300800F
:1092F0000000000000000000000000000000F03F3F
:10930000EF4E454A287ECA3F65DBC9934A86CD3F6A
:1093100001411DA96074D13F4D268F515555D53F50
:10932000FFAB6FDBB66DDB3F033333333333E33FE8
:10933000000000E009C7EE3FFD033ADC09C7EE3F3D
:10934000F5015B14E02F3EBE000040438E98030001
:1093500079B60B000000F03F00000840013C54EAE1
:10936000050300F079819FEDC87B8DED047BDDE97D
:1093700000120B461446CDE9023400230293DDE9C6
:10938000024508462B461146224615F0BBFD5246C3
:109390005B4615F06BFFDDE9002306460F464046AD
:1093A000494615F063FF02460B463046394615F034
:1093B000ABFD2246804689462B4650465946CDE9AC
:1093C000008915F053FF0B46024606460F464046FD
:1093D000494615F099FDC64B994204460D468A460A
:1093E00040F3168101F13F4303F5E003034340F0EE
:1093F000F781A7A3D3E90023DDE9000115F084FD7F
:109400003246804689463B462046294615F07AFD7D
:1094100002460B464046494616F0B8F9002840F08F
:10942000DF81A8464FEA28534FF48012A3F2FE339F
:1094300042FA03F35344C3F30A52AE4DA2F2FF3291
:109440001541C3F3130423EA05010020C2F1140BF4
:1094500044F48014BAF1000F02460B4644FA0BFBA9
:1094600030463946B8BFCBF1000B15F04BFD024634
:109470000B4606460F46DDE9000115F045FD4FEAB3
:109480000B5A0D46002484A3D3E900232046294625
:1094900015F0ECFE3246804689463B46204629467A
:1094A00015F030FD02460B46DDE9000115F02AFDFE
:1094B0007BA3D3E9002315F0D9FE7BA3D3E90023D6
:1094C00006460F462046294615F0D0FE02460B46BA
:1094D0003046394615F018FD06460F4602460B4643
:1094E0004046494615F010FD42464B4604460D469F
:1094F00015F008FD02460B463046394615F002FDD0
:109500002246804689462B462046294615F0AEFE67
:1095100067A3D3E9002306460F4615F0A7FE66A30E
:10952000D3E9002315F0EEFC32463B4615F09EFED3
:1095300063A3D3E9002315F0E7FC32463B4615F060
:1095400095FE61A3D3E9002315F0DCFC32463B46CF
:1095500015F08CFE5EA3D3E9002315F0D5FC32464E
:109560003B4615F083FE02460B462046294615F081
:10957000C9FC06460F4602460B462046294615F012
:1095800075FE0022CDE900014FF080433046394698
:1095900015F0B8FC02460B46DDE9000115F090FF1E
:1095A000424606460F464B462046294615F05EFECB
:1095B00042464B4615F0A8FC02460B46304639465B
:1095C00015F0A0FC22462B4615F09CFC02460B46EB
:1095D0000020494915F096FC8A44BAF5801FC0F274
:1095E00039815146DDE9042315F040FE52E442463C
:1095F0004B464046494615F039FE4BE4BAF1000FA0
:10960000BFF6D7ACDDE90034184604F1004141E46F
:109610003A4B21F00048984540F3FF80384B0B440B
:1096200003430CD132463B4615F06CFC02460B4618
:10963000DDE9000116F096F800283FF4F3AEDDE90D
:10964000040125A3D3E9002315F010FE22A3D3E9DA
:10965000002315F00BFE1DE49FED217B8DED047BB7
:1096600085E602460B460020234915F029FF2EE42B
:109670009FED1D7B8DED087B8DED0E7B9FED027BBD
:1096800000278DED067BD8E4000000000000F03FCD
:10969000FE822B654715973C00000000432EE63FF5
:1096A000EF39FAFE422EE63F396CA80C615C20BE11
:1096B000D0A4BE726937663EF16BD2C541BDBB3ED8
:1096C0002CDE25AF6A56113F93BDBE166CC1663FB6
:1096D0003E5555555555C53F59F3F8C21F6EA50166
:1096E000000000000000F0BF0000000000000000CB
:1096F000FFFF8F40FFFF0F000000F03FFFCB9040C7
:1097000000346F3F684B9E427FF750AC674B9E42E0
:109710003FF7FDAB0022654B15F0F4FB52A3D3E9F4
:10972000002306460F4615F0A1FD51A3D3E90023FF
:10973000804689463046394615F098FD002282461B
:109740008B465B4B3046394615F090FD02460B4682
:1097500049A1D1E9000115F0D5FB32463B4615F091
:1097600085FD02460B460020524915F0CBFB3246E0
:10977000CDE902013B463046394615F077FD0246F9
:109780000B46DDE9020115F071FD3DA3D3E900238D
:1097900015F06CFD02460B465046594615F0B2FBDB
:1097A00002460B4606460F464046494615F0ACFBBE
:1097B00042464B46002082468B4615F0A3FB0246EC
:1097C0000B463046394615F09DFB80468946C5E577
:1097D00042464B460020354915F072FEFFF75ABB52
:1097E000DDE9040128A3D3E9002315F03FFD26A3FA
:1097F000D3E9002315F03AFDFFF74CBBBEF1000F93
:109800007FF453ABC3F1140347FA03F202FA03F3F4
:109810009F4223D07446FFF720BB264B98453FF765
:1098200001AEDDE90223924693462BE602460B4643
:10983000FFF7B3BB9FED167B8DED087B9FED167B8D
:109840008DED0E7B9FED167B4FF480278DED067B13
:10985000FFF7F3BB5A4601F04FFDC3E602F00102E9
:10986000C2F10204FFF7F9BA000000604715F73FA4
:1098700044DF5DF80BAE543E555555555555D53F13
:10988000FE822B654715F73F9C7500883CE4377EC8
:109890000000004003B8E23F06D0CF43EBFD4C3E52
:1098A000000000000000F83FFEFFEF3F0000F03F27
:1098B0000000D03F0000E03F2DE9F0479C4B21F035
:1098C00000479F4290B08046894640F38E80994B76
:1098D0009F420C46924626DC00298BA3D3E9002345
:1098E00040F3B08115F00EFB934B9F4204460D46AA
:1098F00000F0908086A3D3E9002315F003FB024615
:109900000B46CAE900232046294615F0FBFA80A33E
:10991000D3E9002315F0F6FA0125CAE90201284629
:1099200010B0BDE8F087854B9F4240F39080844B98
:109930009F4265DC3D15A5F21645A7EB0553194678
:109940001F46064615F042FF15F02AFC8046894660
:1099500042464B4630463946CDE90A8915F0D2FADF
:109960000022784B15F082FC8946804615F02EFFC8
:1099700015F016FC06460F4632463B464046494621
:10998000CDE90C6715F0BEFA00226E4B15F06EFCA7
:1099900000220023CDE90E0115F0D0FE002800F0D2
:1099A0006F81002330463946002215F0C7FE00289B
:1099B00014BF01230223644A019202212A46009126
:1099C0000AA8514600F08CFB002C054614DADAF8A0
:1099D0000420DAF80C3002F1004203F10043454262
:1099E000CAF80420CAF80C3006E000200021C2E9C1
:1099F0000089C2E902010025284610B0BDE8F087C1
:109A000002460B4615F07EFA0025CAE90201CAE9B2
:109A10000001F1E740A3D3E9002315F073FA40A356
:109A2000D3E900230D46044615F06CFA02460B46B6
:109A3000CAE900232946204615F064FA38A3D3E981
:109A4000002315F05FFA0125CAE90201D4E713F0FB
:109A500079F935A3D3E900238046894615F006FC41
:109A600000223A4B15F050FA15F0B0FE054615F0FD
:109A700097FB25A3D3E90023CDE9060115F0F6FBFA
:109A800002460B464046494615F03CFA20A3D3E96E
:109A90000023CDE90201DDE9060115F0E7FB1F2DEA
:109AA00080468946CDE9048954DC294B6A1E53F867
:109AB00022309F424ED002460B46DDE9020115F0EE
:109AC00021FA80468946CAE9008942464B46DDE9CB
:109AD000020115F017FADDE9042315F013FA002C42
:109AE000CAE9020188DA09F1004401F100436D423C
:109AF000CAF80080CAF80440CAF80800CAF80C3056
:109B00007AE700BFAFF3008000004054FB21F93F2B
:109B10003163621A61B4D03D0000601A61B4D03D77
:109B20007370032E8A19A33B83C8C96D305FE43F6D
:109B3000FB21E93F7BD90240FB21F93FFB21394161
:109B4000FFFFEF7F00007041681704000000E03F56
:109B5000E8160400DDE90423DDE9020115F0D2F97D
:109B60003F15C1F30A53FB1A80468946102BCAE9F8
:109B70000089AADD58A3D3E90023DDE9060115F029
:109B800075FB8046894602460B46DDE9020115F069
:109B9000B9F902460B46DDE90201CDE9082315F0CB
:109BA000B1F942464B4615F0ADF94DA3D3E9002378
:109BB00080468946DDE9060115F058FB42464B46D2
:109BC00015F0A0F90B46CDE904010246DDE90801D4
:109BD00015F098F9C1F30A53FF1A80468946312FD0
:109BE000CAE900896CDD41A3D3E90023DDE9060160
:109BF00015F03CFBDDE9088906460F4602460B4698
:109C00004046494615F07EF902460B464046494615
:109C1000CDE9022315F076F932463B4615F072F98C
:109C200034A3D3E9002306460F46DDE9060115F00B
:109C30001DFB32463B4615F065F902460B46CDE961
:109C400004233AE715F060F9274B9F4204460D467E
:109C500018D01FA3D3E9002315F056F902460B468E
:109C6000CAE900232946204615F04CF918A3D3E988
:109C7000002315F049F94FF0FF35CAE90201BBE6B0
:109C8000032398E614A3D3E9002315F03DF914A3A8
:109C9000D3E900230D46044615F036F902460B467B
:109CA000CAE900232946204615F02CF90CA3D3E974
:109CB000002315F029F94FF0FF35CAE902019BE6B0
:109CC0009DED087B8DED027BFFE600BFAFF30080CA
:109CD0003163621A61B4D03D0000601A61B4D03DB6
:109CE0007370032E8A19A33BFB21F93F0000002E5D
:109CF0008A19A33BC14920259A837B3900000000C3
:109D0000594A2DE9F84F21F00048904506460F4684
:109D10002BDC564B0029B4BF554D564D98454FF09E
:109D2000000410DC544B984570DC4DA3D3E90023AC
:109D300015F0EAF80022514B15F028FDD8B1304655
:109D40003946BDE8F88F4E4B98457CDD4D4B984524
:109D500044DD013398453ED03046394640A3D3E92F
:109D6000002315F083FABDE8F88F02460B4615F084
:109D7000CBF8BDE8F88F3046394612F0E3FF01F02A
:109D80007FF806460F4632463B463046394615F0C8
:109D9000BBF8324682468B463B463046394615F084
:109DA00065FA002280468946344B3046394615F024
:109DB000ABF802460B464046494615F081FB024689
:109DC0000B465046594615F09DF822462B4615F095
:109DD0004DFABDE8F88F2C4B9842BDD83046394635
:109DE00012F0B0FF0022234B15F040FAFEF714FCEE
:109DF00006460F4602460B462046294615F036FA1F
:109E000032463B4615F032FABDE8F88F12F09AFF61
:109E100001F036F81D4B984506460F46B3DD00228B
:109E2000164B15F071F802460B463046394615F0D0
:109E300047FB32463B4615F067F822462B4615F0A5
:109E400015FABDE8F88F12F07DFFFEF7E5FB02463C
:109E50000B462046294615F009FABDE8F88F00BFE9
:109E60003374AC3C1F7BAC7FFFFFEF7FFFFF3540BF
:109E70000000E0BF0000E03FFFFF2F3E0000F03F8A
:109E8000412E8640CD3386407DF8B98FFFFFEF3FEE
:109E90002DE9F04F21F00048B8F1795F85B0064612
:109EA0000F4692469B466BDA15F090FC002800F0B6
:109EB000EA8032463B463046394615F0D7F974A35E
:109EC000D3E9002304460D4615F0D0F972A3D3E977
:109ED000002315F019F822462B4615F0C7F970A398
:109EE000D3E9002315F00EF822462B4615F0BEF9F3
:109EF0006DA3D3E9002315F007F822462B4615F091
:109F0000B5F96BA3D3E9002314F0FCFF22462B46DE
:109F100015F0ACF968A3D3E9002314F0F5FF22464D
:109F20002B4615F0A3F9CDE900010022664B20462F
:109F3000294615F09BF9DDE9002380468946204635
:109F4000294615F093F9524604460D465B463046C5
:109F5000394615F08BF902460B462046294614F087
:109F6000D1FF02460B464046494614F0CBFF02465D
:109F70000B460020554914F0C5FF05B0BDE8F08F31
:109F800002460B4615F072F941A3D3E900230446BB
:109F90000D4615F06BF940A3D3E9002314F0B4FF8C
:109FA00022462B4615F062F93DA3D3E9002314F0B5
:109FB000A9FF22462B4615F059F93BA3D3E900230C
:109FC00014F0A2FF22462B4615F050F938A3D3E92E
:109FD000002314F097FF22462B4615F047F936A3CD
:109FE000D3E9002314F090FF2B46224615F03EF9EA
:109FF000374B9845CDE9000197DD364B984539DC64
:10A00000A8F500130022002030499046994614F02C
:10A0100079FFCDE9020100222B4B2046294615F09D
:10A0200025F942464B4614F06DFFDDE900238046DA
:10A0300089462046294615F019F9524604460D4630
:10A040005B463046394615F011F902460B4620466C
:10A05000294614F057FF02460B464046494614F085
:10A0600051FF02460B46DDE9020114F04BFF05B03B
:10A07000BDE8F08F9FED127B4FF000088DED027B65
:10A08000DFF85490C7E71149002005B0BDE8F08F14
:10A09000D43888BEE9FAA8BDC4B1B4BD9EEE213E55
:10A0A000AD529C804F7E923E9015CB19A001FA3E96
:10A0B0007751C1166CC1563F4C5555555555A53F66
:10A0C000000000000000E73F0000E03F0000F03F1C
:10A0D0003233D33F0000E93F0000D23F00000000D0
:10A0E0002DE9F04FADF51B7D9F4CA49E9F4D54F87C
:10A0F000264007942646D41E85FB0475E417C4EB5E
:10A10000A50424EAE4741D460A93631CA3EB8303AD
:10A11000013D02EBC30306932B460B940395651B8D
:10A12000F418049008911AD42C4400260027013416
:10A130000DF18808DDF8949208E059F8250015F033
:10A140002FF80135A542E8E8020108D0002DF4DA25
:10A15000013530463946A542E8E80201F6D1079BB1
:10A16000002BC0F2DF83079B03F1010B0A9B22A99E
:10A17000DB001A4601EB03090093049B0DF5E47A1A
:10A1800019460AEBCB0B01EB0208039B002BC0F234
:10A19000F582049C4D460026002775E90223F4E869
:10A1A000020115F063F802460B463046394614F0BA
:10A1B000ABFE444506460F46EFD1EAE80267DA45B2
:10A1C00009F10809E1D107990098049C009101F177
:10A1D0008043013B9B0020441A1F83460EA8024483
:10A1E00003440C920D93009A9AA901EBC203002A32
:10A1F00053E9284529DD0DF5E47A0AEBC2080DF193
:10A20000340900225A4B2046294615F02FF815F044
:10A21000DDFA14F0C5FF0022564B06460F4615F036
:10A2200025F802460B462046294614F06BFE15F031
:10A23000CDFA78E9022349F8040F3946304614F084
:10A2400063FED04504460D46DBD1DDF8189020466C
:10A2500029464A4601F050F800224FF07F53044649
:10A260000D4615F003F8FCF75FFD0022424B14F099
:10A27000FDFF02460B462046294614F043FE0D46DC
:10A28000044615F0A3FA804614F08AFF0B460246F6
:10A290002946204614F036FE4B46002B06460F4654
:10A2A00040F3F980009A0EA9013AC9F1180351F858
:10A2B000225045FA03F101FA03F30EA8EB1A40F815
:10A2C0002230C9F11705884443FA05F5002D6DDDEC
:10A2D000009B002B08F1010840F36F820E9C002CBC
:10A2E00040F01683009B012B40F38F820EAA0123BE
:10A2F00052F8044F002C00F08382581C0EAAC4F1BF
:10A30000807442F82340009A824219DD0EAA0EACF6
:10A3100052F820106FF07F42511A44F82010009933
:10A32000023399420CDD1046009A0EA901EB83031B
:10A3300001EB82011A68821A43F8042B8B42F9D18F
:10A34000069B002B1ADD069B012B4FF0010440F009
:10A350003C82009B5A1E0EAB0EA953F82230C3F369
:10A36000160341F822303CE2081C0400ABAAAA2ADA
:10A370000000703E0000704100002040022D15D109
:10A3800032463B460020924914F0BCFD06460F467B
:10A39000069A8F49002000F0AFFF02460B46304678
:10A3A000394614F0AFFD022506460F460022002371
:10A3B0003046394615F0C2F9002800F03782009A7D
:10A3C000079B501E83420FDC02F18043013B0EAA23
:10A3D0000D9C02EB8303002253F80419A34242EAC6
:10A3E0000102F9D1002A67D1079B0EAA013B52F85E
:10A3F0002330002B40F018820C9A012352F80419E4
:10A4000001330029FAD0009AD31802F1010A9A45C3
:10A4100009933DDC009B0A990B9A0B4409990AEBBE
:10A420000208994622AB08F1804803EBC9098B1852
:10A43000A59A08F1FF3802EB880872AA02EBCA0A53
:10A44000A59A02EB8303009358F8040F14F0A8FEBA
:10A45000039B002BE9E802014FF000064FF00007D4
:10A4600011DB049C4D4675E90223F4E8020114F067
:10A47000FDFE02460B463046394614F045FD5C456C
:10A4800006460F46EFD1009B9845EAE80267DBD10C
:10A49000099B0093A7E606D1009B0EAA013B52F848
:10A4A0002350ED1512E700224A4B15F065F90028FC
:10A4B00040F06E81054679E70EA9039551F82030EA
:10A4C0000699CDF8248018390246009006916BB9A0
:10A4D00000F18043013B0EA800EB830353F804090D
:10A4E000013A18390028F9D000920691069A3849A5
:10A4F000002000F001FF009B002B04460D46C0F237
:10A50000F781DA0072A901EB020B06920EAA02EBA8
:10A510008306DFF8C4904FF000080BF108070436FB
:10A5200056F8040D14F03CFE22462B4614F09EFE15
:10A530004B4667E9020142462046294614F096FE42
:10A540000EAB9E4204460D46EAD14AACDDF81C90A3
:10A5500004944FF0000AB9F1000FC0F22B81DFF82C
:10A560007C805D4618A1D1E9000100260027002467
:10A5700003E0544510DCF8E80201F5E8022314F08A
:10A5800075FE02460B463046394614F0BDFC0134D8
:10A59000A14506460F46ECDA049B03EBCA03ABF178
:10A5A000080BC3E9006770AB9B450AF1010AD2D1E1
:10A5B000A49B049C032B00F28980DFE803F0C58E86
:10A5C0008E1100BFAFF3008000000040FB21F93F77
:10A5D0000000F03F0000E03F0000703E480504002E
:10A5E000009B002B40F38181069A04EB020ADAE912
:10A5F000008902F1080525440DF5987B1AED027BD0
:10A6000042464B4651EC170B8DED047B14F07CFC5D
:10A6100006460F4602460B46DDE9040114F072FCC3
:10A6200042464B4614F070FC65E902015D45B046B8
:10A63000B9466AE90267E1D1009B012B40F35581DD
:10A64000069BE518D5E9008903F1080B04EB0B0A1A
:10A6500015ED027B42464B4651EC170B8DED007B0E
:10A6600014F052FC06460F4602460B46DDE9000197
:10A6700014F048FC4B46424614F046FC6AE90201DD
:10A680004EAB5345B046B94665E90267E0D10020BC
:10A69000002104EB0B0575E9022314F035FCAA45F3
:10A6A000F9D1039B002B00F00A816268E368089FE0
:10A6B0002568A4683D6002F1004203F1004301F106
:10A6C00000417A60FB60BC6038617961099B03F0EE
:10A6D00007000DF51B7DBDE8F08F069D083525446C
:10A6E0000020002175E9022314F00EFCA542F9D1E7
:10A6F000039B002B00F0D280089E024601F100432C
:10A7000086E80C000B460246D4E9000114F0FAFB7F
:10A71000009B002B0BDD4CAD0124F5E8022314F067
:10A72000F3FB009B0134A342F7DA039B13B101F161
:10A7300000431946089BC3E90201099B03F0070087
:10A740000DF51B7DBDE8F08F069D0835002000212A
:10A75000254475E9022314F0D7FBAC42F9D1039BE1
:10A7600013B101F100431946089BC3E90001099B9D
:10A7700003F007000DF51B7DBDE8F08F00260027D4
:10A78000EAE80267DA4509F108097FF4FEAC1AE548
:10A79000009B002B08F10108C8BF02253FF79EADC2
:10A7A00032463B460020614914F0ACFB02250646C8
:10A7B0000F46FBE500260027EEE6069B002B27DD73
:10A7C0000024069B012B3FF4C4AD022B09D1009B52
:10A7D0005A1E0EAB0EA953F82230C3F3150341F8ED
:10A7E0002230022D7FF4E2AD32463B4600204F4935
:10A7F00014F088FB06460F46002C3FF4D7ADC7E5A2
:10A800000099013399427FF473AD069B002BD8DC8D
:10A81000022D7FF4CBAD32463B460020434914F075
:10A8200071FB06460F46C1E50123ECE53946069F5C
:10A8300003957A423046CDF8248000F05DFD002279
:10A840003B4B04460D4614F097FF002843D00022EE
:10A85000384B2046294614F009FD14F0B7FF064690
:10A8600014F09EFC0022324B14F000FD02460B4611
:10A870002046294614F046FB14F0A8FF00990B4629
:10A8800001331A4600933B46183306930B460EA934
:10A8900041F82300134641F8236027E6089B02464F
:10A8A000C3E900010B46D4E9000114F02BFB009B27
:10A8B000002B3FF730AF089BC3E902013DE7D4E925
:10A8C0000067D4E90223089DC5E90401C5E90067D2
:10A8D000C5E90223FAE62946204614F077FF009ADC
:10A8E0000EA941F8220001E64AAC00200021D8E67A
:10A8F000A49B032B3FF6EAAE01A252F823F000BF5F
:10A900001FA9020017A9020017A90200E9A8020066
:10A9100001200023F2E4002000214AACE8E60020F8
:10A9200000211CE70A9BDB0000934CE40000F03F91
:10A93000000070410000703E2DE9F04F21F000460C
:10A94000B6F1795F85B004460D469046994604DA23
:10A9500014F03CFF002800F0858022462B4620465C
:10A96000294614F083FC06460F4602460B46204655
:10A97000294614F07BFC41A3D3E9002382468B4691
:10A980003046394614F072FC3EA3D3E9002314F09C
:10A99000B9FA32463B4614F069FC3CA3D3E90023E4
:10A9A00014F0B2FA32463B4614F060FC39A3D3E906
:10A9B000002314F0A7FA32463B4614F057FC37A3A5
:10A9C000D3E9002314F0A0FA0E9BCDE900019BB35C
:10A9D0000022294B4046494614F048FCDDE900239B
:10A9E000CDE902015046594614F040FC02460B46A0
:10A9F000DDE9020114F086FA32463B4614F036FCDB
:10AA000042464B4614F07EFA19A3D3E900230646CA
:10AA10000F465046594614F029FC02460B46304674
:10AA2000394614F071FA02460B462046294614F0C6
:10AA300069FA05B0BDE8F08F02460B46304639464C
:10AA400014F014FC0AA3D3E9002314F05BFA524675
:10AA50005B4614F00BFC22462B4614F055FA05B069
:10AA6000BDE8F08F2046294605B0BDE8F08F00BF55
:10AA7000495555555555C53F0000E03F7CD5CF5A47
:10AA80003AD9E53DEB9C2B8AE6E55A3E7DFEB1576F
:10AA9000E31DC73ED561C119A0012A3FA6F81011D8
:10AAA0001111813F000000002DE9F04FBE4C21F054
:10AAB000004687B0A64282468B460F46CDE900236A
:10AAC0001BDC14F083FE002837D153461E43109B35
:10AAD0000133334300F0B381109B012B00F0C88198
:10AAE00052465B460020B14914F0EAFC04460D468C
:10AAF0002046294607B0BDE8F08FAD4B9E421CDDD5
:10AB00000029C0F2A98152465B4687A1D1E9000124
:10AB100014F0F8F9DDE9002304460D4684A1D1E9DB
:10AB2000000114F0EFF99FED847B22462B468DED5A
:10AB3000007B14F0E9F982468B4652465B4650464C
:10AB4000594614F093FB02460B468046894614F0A2
:10AB50008DFB424604460D464B465046594614F07E
:10AB600085FB77A3D3E90023CDE9020120462946DE
:10AB700014F07CFB74A3D3E9002314F0C5F922463A
:10AB80002B4614F073FB72A3D3E9002314F0BCF935
:10AB900022462B4614F06AFB6FA3D3E9002314F07E
:10ABA000B3F922462B4614F061FB6DA3D3E90023D1
:10ABB00014F0AAF922462B4614F058FB6AA3D3E9F5
:10ABC000002314F0A1F942464B4614F04FFB68A352
:10ABD000D3E90023CDE904012046294614F046FBC1
:10ABE00065A3D3E9002314F08FF922462B4614F015
:10ABF0003DFB63A3D3E9002314F086F922462B46DC
:10AC000014F034FB60A3D3E9002314F07DF922464D
:10AC10002B4614F02BFB5EA3D3E9002314F074F948
:10AC200022462B4614F022FB5BA3D3E9002314F049
:10AC30006BF902460B46DDE9040114F065F9DDE924
:10AC4000022314F013FBDDE9004522462B4614F0E5
:10AC50005BF942464B4614F009FB02460B46204680
:10AC6000294614F051F94EA3D3E9002304460D46BA
:10AC7000DDE9020114F0FAFA22462B4614F044F9F9
:10AC80000B460246804689465046594614F03CF928
:10AC9000474B9E4204460D4600F38E80109B012BCD
:10ACA0003BD002460B460020404914F009FC00242A
:10ACB00006460F462046294652465B46CDE90067C8
:10ACC000CDE90201009414F01DF9DDE900AB024664
:10ACD0000B464046494614F015F952465B4614F0BF
:10ACE000C5FA524604460D465B46DDE9020114F002
:10ACF000BDFA00222F4B14F007F902460B462046FE
:10AD0000294614F001F932463B4614F0AFFA524698
:10AD10005B4614F0F9F804460D462046294607B074
:10AD2000BDE8F08FAFF30080182D4454FB21E93FBC
:10AD3000075C143326A6813C0000000000000000E0
:10AD4000D47ABF74702AFB3EE9A7F0320FB8123FE5
:10AD500068108D1AF726303F1583E0FEC8DB573F99
:10AD600093846EE9E326823FFE41B31BBAA1AB3F59
:10AD7000735360DBCB75F3BEA69237A0887E143F79
:10AD80000165F2F2D844433F280356C9226D6D3F56
:10AD900037D60684F464963F7AFE10111111C13F34
:10ADA000635555555555D53FFFFF2F3E0000F0BF69
:10ADB0002794E53F0000F03F109814F0F1F9224687
:10ADC000CDE900012B462046294614F04FFADDE973
:10ADD0000023CDE902012046294614F095F80246E9
:10ADE0000B46DDE9020114F06BFB42464B4614F0C2
:10ADF00089F802460B465046594614F083F802463D
:10AE00000B4614F081F802460B46DDE9000114F010
:10AE100079F80446B81700F00200C0F101000D46B1
:10AE200014F0BEF902460B462046294614F01EFADD
:10AE300004460D462046294607B0BDE8F08F50462F
:10AE4000594611F07FFF02460B4600200A4914F0D4
:10AE500037FB04460D4660E7DDE9004501F100419E
:10AE6000224605F1004382468B46CDE900234AE69F
:10AE700054465D4651E700BF0000F03F000000006F
:10AE80002DE9F04FD24A21F00043934285B082462B
:10AE90008B460C462DD9CF4A93421AD8002C80F20B
:10AEA0001681B5A3D3E900235046594614F02CF877
:10AEB0000022002314F04CFCC0B9B1A3D3E9002355
:10AEC0005046594614F0D2F902460B460020C249BA
:10AED00008E1C24A934240F2D0800346C1F3130214
:10AEE000134340F0F481002980F2C4800020BC4963
:10AEF000C0E0BC4A934200F22981BB4A934240F22F
:10AF0000DE80002301930022B84B5046594614F0CE
:10AF1000ADF906460F4602460B465046594614F018
:10AF2000A5F999A3D3E9002304460D4614F09EF930
:10AF300097A3D3E9002313F0E7FF22462B4614F032
:10AF400095F995A3D3E9002313F0DCFF22462B46A5
:10AF500014F08CF992A3D3E9002313F0D5FF224615
:10AF60002B4614F083F990A3D3E9002313F0CAFF12
:10AF700022462B4614F07AF900229D4B13F0C4FFB1
:10AF80008046894602460B463046394614F06EF933
:10AF900002460B460020974913F0B4FF06460246CE
:10AFA0000B460F464046494613F0ACFF32468046FA
:10AFB00089463B465046594614F058F902460B461E
:10AFC00000208D4913F09EFF02460B46404649463D
:10AFD00014F076FA22462B4614F048F9019E0246F8
:10AFE0000B46002E38D0DDE9026732463B4613F0AF
:10AFF00089FF52465B4614F039F932463B4613F05E
:10B0000081FF2B46224613F07DFF019B013306464C
:10B010000F4600F00F81019B012B00F0F180019B96
:10B020000133392B39D8019B132B40F31281019C3A
:10B03000C4F57F75033500222B0513F065FF02462A
:10B040000B465046594613F05DFF0022684B13F043
:10B050005BFF01EB04510DE05046594614F006F930
:10B0600022462B4613F04EFF02460B4650465946E9
:10B0700013F048FF05B0BDE8F08F4DA3D3E90023DE
:10B0800014F084FB00283FF409AF4BA3D3E900235D
:10B090001046194614F0EAF8ECE752465B4613F006
:10B0A00031FF02460B460020514913F02BFF019A55
:10B0B0004F4B01EB0251002213F024FFDAE73EA3CD
:10B0C000D3E9002313F020FF02460B46CAE72CA366
:10B0D000D3E900235046594614F0C8F80B464349BB
:10B0E0000246002013F010FF14F070FB019014F0E2
:10B0F00057F833A3D3E9002306460F4614F0B6F8F9
:10B1000002460B465046594613F0FCFE2EA3D3E9E7
:10B110000023804689463046394614F0A7F8064693
:10B120000F4632463B464046494613F0EBFE024688
:10B130000B4682468B464046494613F0E3FE3246B4
:10B140003B4613F0DFFECDE90201DCE62B4A9342D9
:10B1500000F2958000291AA3D3E90023C0F2AC8045
:10B1600013F0D0FE012380468946019316A7D7E944
:10B170000067D6E7AFF3008059F3F8C21F6EA50150
:10B18000FE822B654715F73F2DC3096EB7FD8ABEBA
:10B190003952E686CACFD03EB7DBAA9E19CE143FFD
:10B1A0008555FE19A0015A3FF41011111111A13F4C
:10B1B000EF39FAFE422E86409C7500883CE4377ECB
:10B1C0000000E0FE422EE63F763C7935EF39EA3D5D
:10B1D00079684340412E86400000E0BFFFFFEF7FCB
:10B1E0000000F0BF422ED63FFFFF8F3C0000E03F43
:10B1F0000000F03F0000084000001840B1A2F03FFE
:10B200000022394B5046594614F0A2FA002844D087
:10B21000504659460022354B13F076FE02460B4647
:10B220003046394613F06EFE00224FF0404314F0D2
:10B230001DF81FE702460B465046594613F062FEC2
:10B2400000222A4B14F012F80022284B13F05AFE69
:10B2500010E7019C4FF400132341C3F17F5752467E
:10B260005B4613F04FFE002607F5401702460B46DB
:10B270003046394613F046FE01EB0451FAE616A3B8
:10B28000D3E9002313F0F2FF002C02460B464FF0E7
:10B290000000FFF61CAE154924E732463B465046F7
:10B2A000594613F02FFE02460B4613F02DFE0022E6
:10B2B0000F4B13F029FEDDE613F026FE4FF0FF33AF
:10B2C00080468946019306A7D7E9006729E7024629
:10B2D0000B4613F019FECDE6FE822B654715F73FAE
:10B2E000763C7935EF39EABD0000D0BF0000E03F81
:10B2F0000000F03F00000000F8B5C1F30A56044614
:10B300000D460B4617460EBB21F00043034386460D
:10B3100025D00022344B13F0A9FF344A974204464B
:10B320000D460B462ADBC1F30A56363E3E4440F238
:10B33000FE72964228DC002E12DD23F0FF4323F438
:10B34000E00343EA065520462946F8BD40F2FF7265
:10B350009642EBD102460B4613F0D6FDF8BDF8BD80
:10B3600016F1350F1DDA4CF250339F4222462B4620
:10B3700025DC19A1D1E9000113F036FD16A3D3E9AC
:10B38000002313F073FFF8BD22462B4614A1D1E928
:10B39000000113F029FD12A3D3E9002313F066FF87
:10B3A000F8BD23F0FF4323F4E003363643EA0655A5
:10B3B0002046294600220E4B13F058FFF8BD08A185
:10B3C000D1E9000113F010FD05A3D3E9002313F028
:10B3D0004DFFF8BDAFF3008059F3F8C21F6EA50111
:10B3E0009C7500883CE4377E00005043B03CFFFF72
:10B3F0000000903C10B5054C237833B9044B13B1D1
:10B400000448AFF300800123237010BD1085002095
:10B4100000000000601D04000C4B43B10C480D49B6
:10B4200010B5AFF300800C48036823B910BD0A487B
:10B43000036833B97047094B002BF7D0BDE81040C3
:10B440001847064B002BF5D0184700BF000000003E
:10B45000601D0400148500201882002000000000F8
:10B46000154B002B08BF134B9D46A3F5803A0021D6
:10B470008B460F461348144A121A07F0C7FF0F4BAA
:10B48000002B00D098470E4B002B00D0984700208F
:10B49000002104000D000D48002802D00C48AFF335
:10B4A000008013F0D7FC2000290005F049F913F0C3
:10B4B000BDFC00BF000008000000042000000000E8
:10B4C0000000000000840020B08C0020000000007C
:10B4D0000000000070B504460E4600F0D1F888B1B7
:10B4E0000368DB6A05469847082C0CD0A4F10903D1
:10B4F000012B14D93246214610230D20BDE870409F
:10B5000004F0D4B970BD2B6828465B6A98470228BE
:10B51000F0DC2B6828461B6A04219847EAE72B6871
:10B5200028465B6A98470528E4DC2B6828461B6A96
:10B5300008219847DEE700BF30B52DED028B83B0C0
:10B54000054600F09DF8044640B10368DB6A984761
:10B55000032D50D8DFE805F0373F470801900198E8
:10B5600003B0BDEC028B30BD20460AF017FE07EE9B
:10B57000900A2046F8EEE78A0AF01EFE07EE900ACF
:10B580002046B8EEE78A0AF025FE68EE087A07EE54
:10B59000100AE8EEA87AB8EEC77AE7EE077AF5EE79
:10B5A000407AF1EE10FAB1EEE78A03D517EE900A71
:10B5B00012F08EF9FDEEC87ACDED017A019803B054
:10B5C000BDEC028B30BD204603B0BDEC028BBDE864
:10B5D00030400AF0E3BD204603B0BDEC028BBDE86D
:10B5E00030400AF0E9BD204603B0BDEC028BBDE857
:10B5F00030400AF0EFBD00230193B0E738B50546AF
:10B6000000F03EF858B10368DB6A0446984745B13C
:10B61000012D04D12046BDE83840FBF79DB800203D
:10B6200038BD2046BDE83840FBF776B810B5044673
:10B6300000F026F828B1036821461B6ABDE81040D7
:10B64000184710BD0048704716FCFFFF704700BF49
:10B6500010B5034B036004460AF09CFB204610BD66
:10B66000F811040010B5054B036004460AF092FB84
:10B67000204614F03DFB204610BD00BFF811040029
:10B680002DE9F043C14C236885B01BB1986805B023
:10B69000BDE8F0834FF0FF31012001F045FDC0B25D
:10B6A00004F0F6FB002800F006810C2014F022FBC9
:10B6B00003210646512001F037FDDFF8F4E2B44BD8
:10B6C000054605F00F07C5F3031815F4807518BF7C
:10B6D0007346B0483946424609F0E2FC2A1C18BFBE
:10B6E00001223946434630460DF00AFE0023AA489F
:10B6F000B36009F0D5FC4FF0FF31032001F014FDD9
:10B70000C0B204F0C5FB4FF0FF310546022001F046
:10B710000BFDC0B204F0BCFB002D59D0002857D05F
:10B720000146284604F0A4F90746002800F0BF802F
:10B730004FF0FF31462001F0F7FC382880465CD0FE
:10B7400029DD3A2800F09B80682870D14FF0FF3146
:10B75000012001F0E9FCC0B204F09AFB81465C20B4
:10B7600014F0C8FA0523054601934A46CDF8008037
:10B77000394633460CF002FB2846B06003689B6AEA
:10B780009847B0680368DB6A9847844809F088FCEA
:10B790002660B0687BE7302801D0322847D14FF0CF
:10B7A000FF31012001F0C0FCC0B204F071FB814602
:10B7B000542014F09FFA1FFA88F1054605234A46E3
:10B7C00000910193394633460CF0AAF82846D4E795
:10B7D000734809F065FC4FF0FF31192001F0A4FC1B
:10B7E000C0B204F055FB4FF0FF310546182001F0C0
:10B7F0009BFCC0B204F04CFB92E74FF0FF310120FC
:10B8000001F092FCC0B204F043FB8146502014F0DA
:10B8100071FA052305464A46CDF800803946019362
:10B8200033460CF087F95F4B2B602846A5E73A6852
:10B830000125002301950095D2F82480B3600F22E2
:10B840000DF10F0332213846C04700283FD14FF099
:10B8500032084146544809F023FC4FF0FF310120E3
:10B8600001F062FCC0B204F013FB8146542014F0D6
:10B8700041FA052305464A46CDF80080A1E74FF07E
:10B88000FF31012001F050FCC0B204F001FB814601
:10B89000502014F02FFA0523054601934A46CDF8AF
:10B8A0000080394633460CF045F9284665E73F48A5
:10B8B00009F0F6FB6CE74FF0FF31032001F034FC98
:10B8C000C0B204F0E5FA00287FF4EFAEDFE63B6893
:10B8D00001950095D3F824800F220DF10F0330213C
:10B8E0003846C04718B94FF030084146B2E73B68C8
:10B8F00001950095D3F824800D220DF10F03382116
:10B900003846C047C0B93821274809F0C9FB4FF075
:10B91000FF31284601F008FCC0B204F0B9FA8046B5
:10B92000502014F0E7F94FF0050E38230546424643
:10B9300039468DE8084073E73B6801950095D3F8D8
:10B9400024800D220DF10F033A213846C04788BBF1
:10B950003A21154809F0A4FB4FF0FF31284601F0C9
:10B96000E3FBC0B204F094FA8046502014F0C2F910
:10B970004FF0050E3A2305468DE808404246394609
:10B9800033460CF0D7F82846F7E600BF2C85002098
:10B99000D4050400DC050400FC0504009406040042
:10B9A0000C06040098050400B806040020060400F4
:10B9B000CC0504003A6801950095D2F824800DF179
:10B9C0000F03752268213846C047E0B968211A483C
:10B9D00009F066FB4FF0FF31284601F0A5FBC0B22D
:10B9E00004F056FA80465C2014F084F94FF0050EFE
:10B9F000682305468DE808404246394633460CF038
:10BA0000BDF92846B9E60D4809F04AFBB0680028A0
:10BA10007FF4B4AE4FF0FF31032001F085FBC0B2DC
:10BA200004F036FA18B1064809F03AFBB0E60548CA
:10BA300009F036FBACE600BFB8060400A40604001B
:10BA4000380604007406040008B501F095FCFBF705
:10BA500027FCBDE8084001F0FDB900BF08B501F0C2
:10BA60008BFCFBF78DFCBDE8084001F0F3B900BF8B
:10BA700008B501F081FC11F0DBF9BDE8084001F0E8
:10BA8000E9B900BF08B501F077FC11F0E3FDBDE8AE
:10BA9000084001F0DFB900BF08B501F06DFCFBF70D
:10BAA0000FFCBDE8084001F0D5B900BF08B501F0B2
:10BAB00063FC11F0FBFBBDE8084001F0CBB900BF0F
:10BAC00008B501F059FCFAF767FEBDE8084001F03F
:10BAD000C1B900BF08B501F04FFC11F03BFBBDE858
