:020000040002F8
:1060000000000420F9A9030021AA030023AA030029
:1060100025AA030027AA030029AA03000000000004
:106020000000000000000000000000002BAA030098
:106030002DAA0300000000002FAA030031AA0300CC
:1060400033AA030033AA030099A803005DA8030044
:1060500071A8030033AA0300CD99030051AF0300D8
:1060600081A4030089A4030091A4030033AA0300C0
:1060700033AA030033AA030033AA030033AA0300A0
:1060800033AA030033AA030033AA030033AA030090
:1060900033AA030033AA030033AA030033AA030080
:1060A00033AA030033AA030099A40300A1A40300A8
:1060B00033AA030033AA0300000000000000000020
:1060C00033AA030033AA030033AA030085A8030000
:1060D00033AA030033AA030033AA030033AA030040
:1060E000C1A8030033AA030033AA03000000000084
:1060F0000000000033AA030000000000ADA8030068
:10610000000000000000000000000000000000008F
:10611000000000000000000000000000000000007F
:10612000000000000000000000000000000000006F
:10613000000000000000000000000000000000005F
:10614000000000000000000000000000000000004F
:10615000000000000000000000000000000000003F
:10616000000000000000000000000000000000002F
:10617000000000000000000000000000000000001F
:10618000000000000000000000000000000000000F
:1061900000000000000000000000000000000000FF
:1061A00000000000000000000000000000000000EF
:1061B00000000000000000000000000000000000DF
:1061C00000000000000000000000000000000000CF
:1061D00000000000000000000000000000000000BF
:1061E00000000000000000000000000000000000AF
:1061F000000000000000000000000000000000009F
:106200007CB0EE877CB0EE87FF00FF00FF00FF0050
:10621000FF00FF00FF00FF00FF00FF00FF00FF0086
:10622000FF00FF00FF00FF00FF00FF00FF00FF0076
:10623000FF00FF00FF00FF002DE9F04F85B0039144
:106240000778A7F10903042B044607F07F0200F149
:106250000100F5D9202AF3D02B2F04BF677804461C
:106260002D2F72D09FED427B8DED007B4FF000080B
:106270004FF000098FB34FF0000E4FF0000ADFF827
:1062800000B1754619E017F0A3FE804689463046F6
:1062900017F038FE42464B4617F0E8FC524680465F
:1062A00089465B46DDE9000135B317F0BBFFCDE958
:1062B0000001AE4614F8017F7FB1A7F13006092E28
:1062C00052465B4640464946DDD9C5B92E2F16D108
:1062D00014F8017F0125002FEFD142464B46DDE93E
:1062E000000117F075FE80468946039B40464946EB
:1062F0001C6005B0BDE8F08F4FF0010EDAE7BEF18B
:10630000000F29D042464B46DDE9000117F060FE40
:1063100007F0DF07452F80468946E6D10399601CC8
:106320000A2217F087FC16490246002018F0B0F93F
:1063300002460B464046494617F04AFE80468946CB
:106340004046494605B0BDE8F08F9FED0B7B67786E
:106350008DED007B013489E7DFF828904FF00008CD
:106360004046494605B0BDE8F08F00BFAFF300805E
:10637000000000000000F03F000000000000F0BF3F
:10638000000024400000F87F2DE9F84F1646002356
:10639000002204460D4618F08DF8002840F09D803C
:1063A000002200232046294618F07AF828B130222E
:1063B000002332707370BDE8F88F2046294615F02F
:1063C00079FF18F0B5F87BA3D3E90023814629466D
:1063D000204618F06FF8002800F08680B9F1000F11
:1063E000C0F2BE804A4600206F4918F051F90246BB
:1063F0000B462046294617F015FF04460D4666A1B8
:10640000D1E9000101274FF0000822462B4617F082
:10641000DFFD0022654B17F029FC18F075F9002FFD
:10642000CC464FF0FF3AC1464FF0000840F385805C
:10643000DFF888E15E4C0122AEF1700945F6F325E4
:106440004FF02E0BA94208BFA0424FF0300309D3F2
:10645000001B61EB0501A94208BFA04203F1010343
:10646000F6D2DBB2337050EA010306F1010409D120
:10647000BA4210DACE4502F101020CD026467EE87F
:106480000245DFE7BA4204BF86F801B0B41CCE452E
:1064900002F10102F2D1B8F1000F0DD022463021F5
:1064A00002F8011BC2F1010353442344002BF7DC23
:1064B0002AEAEA7301331C44BCF1010F4CD0652376
:1064C000BCF1000F2370C5BF2B236370611CA11C9E
:1064D0006046BDE8F84F0EF0FDBA05F100431D46D9
:1064E0002D23337001365BE72DA3D3E9002320462B
:1064F000294617F0FDFF00287FF470AFB9F10E0FA9
:1065000009F101073DDDA9F10E08424600202649A8
:1065100018F0BEF802460B462046294617F082FEC8
:106520000022224B17F0A2FB18F0EEF8002FA9F181
:106530000F0A4FF0010C3FF77BAF334630222E2479
:1065400003F8022B74707FEA090618D01E4403F882
:10655000012BB342FBD16BE700232370BDE8F88F1A
:10656000C9F100020020104918F092F802460B46CB
:106570002046294617F02CFD04460D463FE71E46EF
:1065800056E7C9F10E0200200749C84618F080F806
:106590004FF0010939E700BF0000901EC4BCD6428D
:1065A00050EFE2D6E41A4B44000024400000E03FE4
:1065B00000407A108DEDB5A0F7C6B03EE8F10300BB
:1065C00070B54FF0FF3006F07BFA04466FF07F4065
:1065D00006F076FA0646204617F084FC00220C4BA3
:1065E00017F0F6FC044630460D4617F07BFC06A378
:1065F000D3E9002317F016FE02460B462046294633
:1066000017F034FB70BD00BF0000E0DFFFFF6F43F9
:106610000000F03D000000002DE9F04F2DED028B51
:10662000044683B0C06817F06DFC80462069894637
:1066300017F068FC824660698B4617F063FC0246DF
:1066400001F1004306460F464046494615F0DEFC80
:1066500017F0B6FFE062054615F08CFB0190284666
:1066600015F03CFB019B0546184617F05DFC4246C1
:106670004B4617F0ADFC80462846894617F054FC7F
:1066800032463B4617F0A4FC02460B4640464946BC
:1066900017F0EAFA02460B465046594615F0B6FC8A
:1066A00017F08EFF002208EE100A0023304639460C
:1066B00017F01EFF28B3B5EEC08AF1EE10FA1CDD0C
:1066C00011A7D7E9006718EE100A17F02DFC024653
:1066D0000B463046394617F0C7FA32463B4617F0AC
:1066E000C5FA17F06DFFA062E38843F00203E38070
:1066F00003B0BDEC028BBDE8F08F05A7D7E90067BA
:10670000E1E784ED0A8AEFE7EA2E4454FB21F93FE2
:10671000EA2E4454FB21F9BF08B50FF08BFCDFEDE6
:106720000C7A07EE100A67EE277A17EE900A17F038
:10673000FBFB05A3D3E9002317F074FD17F0F8FE67
:1067400008BD00BFAFF30080EA2E4454FB2119407E
:106750000000B4430000000008B50FF07FFCDFED3F
:106760000C7A07EE100A67EE277A17EE900A17F0F8
:10677000DBFB05A3D3E9002317F054FD17F0D8FE87
:1067800008BD00BFAFF30080EA2E4454FB2119403E
:106790000000B44300000000494A21F00043934246
:1067A0002DE9704304460D464BDC464A93420E46A3
:1067B0000EDC3FA3D3E9002317F058FA0022424B26
:1067C00017F096FE00284CD020462946BDE870837D
:1067D0003E4A93423BDCB3F1804F42DD15F064F951
:1067E0002246804689462B462046294617F0F0FB74
:1067F0000022354B17F03AFA16F094F802460B4691
:106800004046494617F032FA02460B4600202E4910
:1068100017F008FD424604460D464B4640464946A1
:1068200017F024FA02460B462046294617F01EFAB6
:1068300002F06AF8002EC9DC01F100431946BDE8F8
:10684000708302460B4617F011FABDE8708315F00D
:106850002BF902F059F818A3D3E9002317F006FA30
:10686000E8E722462B462046294617F0B1FB804632
:1068700089462046294615F017F9002204460D46A0
:10688000114B4046494617F0F1F916F04BF800223B
:106890000D4B17F0EBF902460B464046494617F000
:1068A000C1FC22462B4617F0E1F900F0C5FAC1E71A
:1068B0009C7500883CE4377EEF39FAFE422EE63FB5
:1068C000FFFFEF7FFFFF2F3E0000F03F0000B041D1
:1068D0002DE9F84FC44B21F000469E4204460D4678
:1068E0008A460EDDC14B9E4200F3AC8000F0A780CB
:1068F000BAF1000F40F3EA809FA1D1E90001BDE8A1
:10690000F88FBB4B9E4200F3B580A3F1DE739E422D
:1069100040F3A0804FF0FF3B22462B4620462946FD
:1069200017F056FB02460B468046894617F050FB8F
:1069300093A3D3E9002306460F4617F049FB92A321
:10694000D3E9002317F092F932463B4617F040FB9B
:106950008FA3D3E9002317F089F932463B4617F09D
:1069600037FB8DA3D3E9002317F080F932463B466D
:1069700017F02EFB8AA3D3E9002317F077F93246EC
:106980003B4617F025FB88A3D3E9002317F06EF9E7
:1069900042464B4617F01CFB85A3D3E900238046F3
:1069A00089463046394617F013FB83A3D3E9002309
:1069B00017F05AF932463B4617F00AFB80A3D3E999
:1069C000002317F051F932463B4617F001FB7EA336
:1069D000D3E9002317F048F932463B4617F0F8FA9E
:1069E0007BA3D3E9002317F03FF932463B4617F06B
:1069F000EFFABBF1FF3F02460B466CD040464946DA
:106A000017F034F922462B4617F0E2FA794E7A4B0A
:106A10004FEACB0B5E449B44DBE9002317F024F9DB
:106A200022462B4617F020F902460B46D6E9000114
:106A300017F01AF9BAF1000F43DBBDE8F88F002810
:106A40003FF456AF22462B462046294617F00EF952
:106A5000BDE8F88F60A3D3E9002317F007F90022FF
:106A6000664B17F045FD00283FF454AF20462946F9
:106A7000BDE8F88F15F018F8614B9E4204460D46AC
:106A800039DCA3F550239E425EDC02460B4617F02C
:106A9000EDF80022594B17F0E7F8002206460F46A2
:106AA0004FF080432046294617F0E0F802460B4697
:106AB0003046394617F0B6FB4FF0000B04460D4642
:106AC0002AE701F100431946BDE8F88F44A1D1E956
:106AD0000001BDE8F88F4046494617F0C7F8224646
:106AE0002B4617F075FA02460B462046294617F04A
:106AF000BBF8BDE8F88F434B9E421ADC0022424BA4
:106B000017F0B2F8002206460F463F4B20462946B2
:106B100017F05EFA0022394B17F0A8F802460B4630
:106B20003046394617F07EFB4FF0020B04460D4607
:106B3000F2E602460B460020344917F073FB4FF093
:106B4000030B04460D46E7E600222C4B17F08CF8A9
:106B5000002206460F46294B2046294617F086F8A4
:106B600002460B463046394617F05CFB4FF0010BEE
:106B700004460D46D0E600BF182D4454FB21F93FD2
:106B800011DA22E33AAD903FEB0D76244B7BA93F1F
:106B9000513DD0A0660DB13F6E204CC5CD45B73FED
:106BA000FF8300922449C23F0D5555555555D53F99
:106BB0002F6C6A2C44B4A2BF9AFDDE522DDEAD3F8D
:106BC0006D9A74AFF2B0B33F711623FEC671BC3F2D
:106BD000C4EB98999999C93F9C7500883CE4377E2D
:106BE000182D4454FB21F9BFFFFF0F440000F07F34
:106BF000FFFFDB3FF8F1030018F203000000F03F55
:106C0000FFFFF23FFF7F03400000F83F0000F0BFAE
:106C10002DE9F843C1F30A59A9F2FF35132D0246B5
:106C20000B460C4606468846074622DC002D50DB04
:106C3000DFF8F09049FA05F901EA090E5EEA060666
:106C40001CD036A3D3E9002317F010F8002200234C
:106C500017F04EFC48B1002C04DD4FF4801343FACA
:106C600005F5A84428EA0904002721463846BDE86E
:106C7000F883332D06DDB5F5806F3DD010461946FB
:106C8000BDE8F883A9F213494FF0FF3E2EFA09F947
:106C900010EA090FF2D021A3D3E9002316F0E6FF92
:106CA0000022002317F024FC0028DED0002C09DD90
:106CB000142D2BD00127C5F1340507FA05F5AE19BF
:106CC00028BFB844444626EA090721463846BDE8AD
:106CD000F88312A3D3E9002316F0C8FF0022002393
:106CE00017F006FC0028C0D0002C0BDB54EA060786
:106CF00006D00027084CB8E716F0B8FFBDE8F883C7
:106D00003C46B2E700274FF00044AEE704F101082B
:106D1000D8E700BFAFF300800000F03F9C7500880B
:106D20003CE4377EFFFF0F002DE9F041C1F30A5725
:106D3000A7F2FF35132D02460B460C468846064641
:106D40001CDC002D3FDB3A4F2F41864601EA070C41
:106D50005CEA0E0E17D034A3D3E9002316F086FFA9
:106D60000022002317F0C4FB20B1002C3FDB28EAEF
:106D70000704002621463046BDE8F081332D06DDAC
:106D8000B5F5806F2FD010461946BDE8F081A7F207
:106D900013474FF0FF3E2EFA07F73842F3D022A3F5
:106DA000D3E9002316F062FF0022002317F0A0FBB6
:106DB0000028DFD0002C20DB444626EA07062146C7
:106DC0003046BDE8F08118A3D3E9002316F04EFF4A
:106DD0000022002317F08CFB0028CBD0002C17DBFF
:106DE00000263446C6E716F041FFBDE8F0814FF4B7
:106DF000801343FA05F5A844B9E7142D10D00123F8
:106E0000C5F1340503FA05F5AE1928BF9844D3E758
:106E100024F00042074B324318BF1C460026A9E766
:106E200004F10108C8E700BF9C7500883CE4377E88
:106E3000FFFF0F000000F0BF2DE9F04FD84B994243
:106E400087B0804689460E4613DCD64B21F00044BD
:106E50009C4218DD0022D44B17F022FB002879D089
:106E6000002200230020D14917F0DCF907B0BDE86B
:106E7000F08FCF4B99422FDD42464B4616F0F6FE7F
:106E800007B0BDE8F08FCB4B9C4270DDCA4B1E446F
:106E90009E427ED80022C94B4046494616F0E6FE87
:106EA0004FEA215AAAF2FF3ABAF1000F04460D4602
:106EB0000E4640F3DE8142464B4616F0D5FE0246B2
:106EC0000B460020BD4916F0CFFE22462B4617F098
:106ED000A9F9CDE902010BE0B94B9E42DADD9FED45
:106EE0009A7B8DED027B4FEA265A4446AAF2FF3A7E
:106EF000B44BC6F313069E4246F07F5500F3E7807D
:106F000045F44015204629460022AC4B16F0ACFE55
:106F1000002204460D46AC4B17F05AF822462B4689
:106F200017F056F8A046CDE90401A946CDE90001C5
:106F3000002E3AD1002200232046294617F0B0FA4D
:106F4000002800F0CE80BAF1000F40F074810020DC
:106F5000002195E742464B464046314616F084FEF6
:106F600002460B4617F05EF907B0BDE8F08F00222D
:106F7000964B16F07BFE0022002317F0B9FA00288A
:106F800000F0CC80924B9C4200F3C88040464946BA
:106F900076E700228C4B17F01BF842464B4617F061
:106FA00017F8CDE900014FF0000A00224FF08043AE
:106FB0004046494616F05AFE02460B4640464946B0
:106FC00017F030F902460B4606460F4617F000F858
:106FD0005FA3D3E9002304460D4616F0F9FF5EA334
:106FE000D3E9002316F042FE22462B4616F0F0FFAE
:106FF0005BA3D3E9002316F039FE22462B4616F098
:10700000E7FF59A3D3E9002316F030FE22462B46B2
:1070100016F0DEFF56A3D3E9002316F027FE224622
:107020002B4616F0D5FF54A3D3E9002316F01EFE1D
:1070300022462B4616F0CCFF51A3D3E9002316F0CD
:1070400015FE22462B4616F0C3FF04460D46BAF144
:10705000000F00F0BF80504616F054FF4AA3D3E95A
:10706000002382468B4616F0B3FFDDE90023CDE90D
:1070700004012046294616F0F9FD32463B4616F03B
:10708000A7FF43A3D3E9002304460D4650465946C3
:1070900016F09EFFDDE9022316F0E8FD02460B46DE
:1070A0002046294616F0E2FD02460B46DDE90001C6
:1070B00016F0DAFD42464B4616F0D6FD02460B4668
:1070C000DDE9040116F0D0FD07B0BDE8F08F45F40E
:1070D0000015C6F5801620462946B6100AF1010AA9
:1070E00012E72DA3D3E900232046294616F070FFAE
:1070F00002460B460020314916F0B6FDDDE90423B7
:1071000016F066FF06460F46BAF1000F73D102462D
:107110000B462046294616F0A7FDB1E642464B46EF
:107120004046494616F054FF0022274B16F050FF08
:1071300002460B464046494616F096FD07B0BDE8AC
:10714000F08F00BFAFF300800000000000000000DF
:1071500044523EDF12F1C23F9FC678D0099AC33F26
:10716000DE03CB966446C73FAF788E1DC571CC3F1A
:10717000599322942449D23F04FA97999999D93F77
:10718000935555555555E53F0000E0FE422EE63F2C
:10719000763C7935EF39EA3D555555555555E53F1E
:1071A0007982DA3FFFFFEF3F0000F0BF000050C3DD
:1071B000FFFFEF7FFFFF1F3E3C412D400000F03FEF
:1071C000FFFF3F439DA006000000E03F000050434A
:1071D000FFFF8F3CDDE9004522462B4616F046FDB9
:1071E00032463B4616F0F4FE02460B462046294640
:1071F00016F03AFD9CE7504616F084FE23A3D3E92F
:10720000002382468B4616F0E3FE22A3D3E9002337
:10721000804689465046594616F0DAFEDDE90223DB
:1072200016F024FD02460B463046394616F01CFD8A
:1072300022462B46DCE7504616F064FE15A3D3E940
:10724000002306460F4616F0C3FEDDE9022316F0C2
:107250000DFD0EA3D3E9002304460D463046394602
:1072600016F0B6FE02460B462046294616F0FEFCF6
:1072700006E60022044B16F0F7FC02460B46404699
:10728000494616F0F1FC20E60000F03F0000E0FE69
:10729000422EE63F763C7935EF39EA3D00000000AA
:1072A00008B514F087FF04A3D3E9002316F0BAFF52
:1072B00008BD00BFAFF30080EF39FAFE422EE63F73
:1072C0002DE9F043DFF8B4808BB004460D4601F0A1
:1072D000F3F898F90030013306460F462BD02246CA
:1072E0002B462046294617F00DF9814618BB20464B
:1072F000294614F0D9FB1FA3D3E9002317F0F8F8AF
:10730000C8B1194A98F90030CDF820900321CDE991
:107310000445CDE902458DE806008BB9134B4FF0CB
:107320006042CDE90623684616F0A0FA70B1089BCA
:107330009BB9DDE90667304639460BB0BDE8F083FE
:107340000B490020022BCDE90601ECD116F01AFC06
:1073500022230360089B002BEBD016F013FC089B44
:107360000360E6E7AFF3008058030400FFFFEF4738
:107370000000F07F7DF8B98FCE338640FF8100207A
:107380002DE9F043DFF8E4808BB004460D4601F0B0
:1073900043F998F90030013306460F4633D02046B2
:1073A000294616F05DFA70B32CA3D3E900232046DA
:1073B000294617F09DF8814650BB2AA3D3E9002344
:1073C0002046294617F076F8E8B198F90030204AAF
:1073D000CDF82090002600270421022BCDE904459A
:1073E000CDE90245CDE906678DE8060029D068465B
:1073F00016F03CFA28B3089B1BB116F0C3FB089BA0
:107400000360DDE90667304639460BB0BDE8F0831E
:107410000F4A98F90030019203210022CDE904457A
:10742000CDE90245009108922BB90A4B4FF060421A
:10743000CDE90623DBE708490020022BCDE9060150
:10744000D5D116F09FFB22230360D4E7AFF3008071
:1074500060030400FFFFEF470000F07FEF39FAFE02
:10746000422E864051302DD5104987C0FF81002023
:107470002DE9F04FDFF80C938DB006460F46144609
:107480001D4601F0C5FC99F90080B8F1FF3FCDE938
:10749000000136D022462B462046294617F032F806
:1074A000834670BB32463B463046394617F02AF8D1
:1074B0008246002840F0A280304639460022002350
:1074C00016F0EEFF10B3002200232046294616F0E6
:1074D000E7FF834600286AD09FEDA17B0122A44BE1
:1074E000CDF828A00292CDE90467CDE906458DEDDF
:1074F000087B0393B8F1000F45D09FED9B7B8DED8A
:10750000007BDDE900010DB0BDE8F08FDDE9000191
:1075100016F0A6F98046002800F08D804FF0000A92
:107520004FF0000BDDE9000152465B4616F0B8FF54
:107530000028E6D03046394616F092F90028E0D00F
:107540002046294616F08CF90028DAD099F9003047
:10755000874A039204210022022BCDE90467CDE97A
:107560000645CDE908AB02910A9203D002A816F0B5
:107570007DF968B916F006FB2223036008E09FED51
:10758000787B8DED087B02A816F070F9002830D0CA
:107590000A9B1BB116F0F6FA0A9B03609DED087B6F
:1075A0008DED007BDDE900010DB0BDE8F08F2046D8
:1075B000294616F055F90028A3D0002200232046C2
:1075C000294616F077FF00289BD099F90030684AC9
:1075D000CDF828B00121CDE90467CDE90645029137
:1075E0000392002BCBD063490020022BCDE9080188
:1075F000C9D116F0C7FA21230360C9E7002200238E
:107600002046294616F04CFF00283FF47AAF5A4B2B
:107610005749CDF828B000220120B8F1020FCDE97A
:1076200004670290CDE90645CDE908230391AAD16C
:10763000CDE9002365E73046394616F011F90028F8
:107640003FF46CAF2046294616F00AF900283FF4B3
:1076500065AFDDE900231046194616F053FF0028F8
:107660005FD1032399F900800293414B0A90CDE941
:107670000467CDE906450393B8F1000F2BD1DFF87D
:1076800008B14FF0604A0022002330463946CDE968
:1076900008AB16F00FFF00283FF468AF0022374B0D
:1076A0002046294616F094FC04460D4616F0E6F8EE
:1076B00002460B462046294616F0F2FE70BB304BC0
:1076C00099F900804FF06042CDE90823B8F1020F2C
:1076D0007FF44CAF4EE7DFF8B4B04FF0000A002261
:1076E000002330463946CDE908AB16F0E3FE00280A
:1076F000ECD00022214B2046294616F069FC0446B6
:107700000D4616F0BBF802460B462046294616F0F9
:10771000C7FE18B9174B0022CDE9082399F900805C
:10772000D4E799F90090124BCDF828800122CDE9D9
:107730000467CDE9064502920393B9F1000F3FF4C7
:107740001EAF002200231046194616F06BFDB9F15A
:10775000020FCDE908013FF44CAF14E7AFF300800E
:107760000000000000000000000000000000F03FEA
:10777000780304000000F0FF0000F03F0000E03F4D
:10778000FFFFEFC7FF810020FFFFEF470000F07F02
:107790002DE9F84FC44E21F00043B34204460D4694
:1077A0000DDD03F1404303F58013034340F0B9803E
:1077B000002940F3408100200021BDE8F88FBB4E36
:1077C000B34240F3A6800029C0F2788102460B46FE
:1077D0000020B74916F048FA0022B64B16F0F8FB25
:1077E00004460D4615F09EF895A3D3E9002389467B
:1077F00080462946204616F0EBFB93A3D3E90023ED
:1078000016F034FA22462B4616F0E2FB90A3D3E999
:10781000002316F029FA22462B4616F0D9FB8EA338
:10782000D3E9002316F022FA22462B4616F0D0FBAD
:107830008BA3D3E9002316F017FA22462B4616F045
:10784000C7FB89A3D3E9002316F010FA22462B4682
:1078500016F0BEFB86A3D3E9002382468B46204662
:10786000294616F0B5FB84A3D3E9002316F0FCF9F2
:1078700022462B4616F0ACFB81A3D3E9002316F079
:10788000F5F922462B4616F0A3FB7FA3D3E900238C
:1078900016F0EAF922462B4616F09AFB0022844B9A
:1078A00016F0E4F902460B465046594616F0BAFC6B
:1078B00042464B4616F08CFB002682468B463246EB
:1078C0004B463046494616F083FB02460B4620469F
:1078D000294616F0C9F9324604460D464B46404645
:1078E000494616F0C3F902460B462046294616F0D3
:1078F00099FC02460B465046594616F0B7F93246F7
:107900004B4616F0B3F902460B4616F0AFF9BDE848
:10791000F88F694A93420EDC5DA1D1E90001BDE810
:10792000F88F02460B4616F09FF902460B4616F0FA
:1079300079FCBDE8F88F02460B4616F049FB40A3E0
:10794000D3E9002306460F4616F042FB3EA3D3E9D7
:10795000002316F08BF932463B4616F039FB3CA368
:10796000D3E9002316F080F932463B4616F030FB8F
:1079700039A3D3E9002316F079F932463B4616F0D5
:1079800027FB37A3D3E9002316F06EF932463B46B6
:1079900016F01EFB34A3D3E9002316F067F9324634
:1079A0003B4616F015FB32A3D3E9002380468946F7
:1079B0003046394616F00CFB2FA3D3E9002316F00E
:1079C00053F932463B4616F003FB2DA3D3E90023BF
:1079D00016F04CF932463B4616F0FAFA2AA3D3E9E0
:1079E000002316F041F932463B4616F0F1FA002228
:1079F0002F4B16F03BF902460B464046494616F01F
:107A000011FC22462B4616F0E3FA02460B4622A151
:107A1000D1E9000116F028F902460B462046294616
:107A200016F022F902460B4619A1D1E9000116F021
:107A30001BF9BDE8F88F1AA1D1E90001BDE8F88F64
:107A400009F7FD0DE13D023F88B20175E0EF493FC6
:107A50003B8F68B52882A43F5544880E55C1C93F65
:107A60007D6FEB0312D6D43F555555555555C53F3F
:107A700082922EB1C5B8B33F59018D1B6C06E63F0B
:107A8000C88A599CE52A00404B2D8A1C273A03409E
:107A9000182D4454FB21F93F075C143326A6913C72
:107AA000182D4454FB210940FFFFEF3FFFFFDF3F4C
:107AB0000000F03F0000E03F0000603C00225C4B13
:107AC00016F0D4F800225B4B16F082FA40A3D3E9FB
:107AD000002304460D4616F07BFA3FA3D3E90023AA
:107AE00016F0C4F822462B4616F072FA3CA3D3E9EE
:107AF000002316F0B9F822462B4616F069FA3AA38D
:107B0000D3E9002316F0B2F822462B4616F060FAAD
:107B100037A3D3E9002316F0A7F822462B4616F028
:107B200057FA35A3D3E9002316F0A0F822462B46D6
:107B300016F04EFA804689462046294614F0F2FE99
:107B40002FA3D3E9002306460F462046294616F008
:107B50003FFA2DA3D3E9002316F086F822462B46E0
:107B600016F036FA2AA3D3E9002316F07FF822464E
:107B70002B4616F02DFA28A3D3E9002316F074F84B
:107B800022462B4616F024FA0022294B16F06EF8F6
:107B900002460B464046494616F044FB32463B46F9
:107BA00016F016FA1EA3D3E9002316F05DF832464C
:107BB0003B4616F05BF802460B4616F057F80246B5
:107BC0000B4619A1D1E9000116F04EF8BDE8F88F77
:107BD00009F7FD0DE13D023F88B20175E0EF493F35
:107BE0003B8F68B52882A43F5544880E55C1C93FD4
:107BF0007D6FEB0312D6D43F555555555555C53FAE
:107C000082922EB1C5B8B33F59018D1B6C06E63F79
:107C1000C88A599CE52A00404B2D8A1C273A03400C
:107C2000075C143326A6913C182D4454FB210940CF
:107C30000000F03F0000E03F434A91422DE9F84345
:107C400004460D4639DD414A914209DD02F179527F
:107C5000914240DD02460B4616F008F8BDE8F88375
:107C600001F1404202F58012024330D0B1F1804F61
:107C70003ADC0022364B15F0F7FF02460B4604466D
:107C80000D4615F0F3FF224606460F462B462046CA
:107C9000294616F09DF902460B463046394615F046
:107CA000E5FF14F03FFE0B4602462946204615F03C
:107CB000DDFFBDE8F843FFF7BFB802460B4615F0FD
:107CC000D3FF02460B4616F0ADFABDE8F88300205C
:107CD0000021BDE8F88300F017FE19A3D3E90023C3
:107CE00015F0C4FFBDE8F88302460B4616F070F9A4
:107CF0000022174B15F0B8FF14F014FE2246804600
:107D000089462B462046294615F0B0FF42460646D6
:107D10000F464B462046294615F0A8FF02460B4663
:107D200000200B4916F07EFA0B46024639463046D3
:107D300015F09AFFBDE8F84300F0E6BDAFF3008010
:107D4000EF39FAFE422EE63FFFFFEF3FFFFFAF4164
:107D50000000F03F000000002DE9F047BE4B21F08D
:107D60000048984584B004460D4612DD08F14048AD
:107D700008F58018034658EA030321D002460B4653
:107D800015F072FF02460B4616F04CFA04B0BDE83F
:107D9000F087B24B98458A4629DCB8F1795F80F2CA
:107DA000658191A3D3E9002315F060FF0022AC4B5D
:107DB00016F09EFBD8B12046294604B0BDE8F087F6
:107DC0008BA3D3E9002316F003F98BA3D3E9002397
:107DD00006460F462046294616F0FAF802460B469C
:107DE0003046394615F042FF04B0BDE8F087204622
:107DF000294613F059FE02460B460020984915F01B
:107E000033FF0022974B16F0E3F87DA3D3E900235C
:107E100004460D4616F0DCF87BA3D3E9002315F0E9
:107E200025FF22462B4616F0D3F879A3D3E9002389
:107E300015F01AFF22462B4616F0CAF876A3D3E9AE
:107E4000002315F013FF22462B4616F0C1F874A349
:107E5000D3E9002315F008FF22462B4616F0B8F8A8
:107E600071A3D3E9002315F001FF22462B4616F03B
:107E7000AFF86FA3D3E90023CDE9000120462946DE
:107E800016F0A6F86CA3D3E9002315F0EDFE224608
:107E90002B4616F09DF86AA3D3E9002315F0E6FE01
:107EA00022462B4616F094F867A3D3E9002315F079
:107EB000DBFE22462B4616F08BF8694B002215F0AC
:107EC000D5FECDE902012046294614F02BFD664B74
:107ED000984506460F4666DCDDE90223DDE9000130
:107EE00016F0A0F93246CDE900013B46304639464E
:107EF00015F0BCFE02460B46DDE9000116F068F8FD
:107F00004FF00008CDE9000142463B464046394665
:107F100016F05EF802460B462046294615F0A4FEF0
:107F2000424604460D463B463046394615F09EFE15
:107F300002460B462046294616F074F902460B46C7
:107F400015F094FE02460B462BA1D1E9000115F075
:107F50008BFE02460B46DDE9000115F085FE424628
:107F600004460D463B464046394615F07FFE024624
:107F70000B4637A1D1E9000115F076FE02460B460B
:107F80002046294615F070FE02460B4630A1D1E985
:107F9000000115F069FEBAF1000F3FF7F7AE01F1ED
:107FA00000431946F2E6DDE90223DDE9000116F09F
:107FB00039F932463B4616F00BF832463B4615F08F
:107FC00055FE02460B4615F051FE0BA3D3E90023E4
:107FD00015F04AFE02460B4605A1D1E9000115F055
:107FE00043FED8E7AFF300809C7500883CE4377E01
:107FF000182D4454FB21F93F075C143326A6913C0D
:1080000009F7FD0DE13D023F88B20175E0EF493F00
:108010003B8F68B52882A43F5544880E55C1C93F9F
:108020007D6FEB0312D6D43F555555555555C53F79
:1080300082922EB1C5B8B33F59018D1B6C06E63F45
:10804000C88A599CE52A00404B2D8A1C273A0340D8
:10805000182D4454FB21E93FFFFFEF3FFFFFDF3FB7
:108060000000F03F0000E03F3233EF3F02460B4696
:1080700015F0AEFF37A3D3E9002306460F4615F0EF
:10808000A7FF36A3D3E9002315F0F0FD32463B46A7
:1080900015F09EFF33A3D3E9002315F0E5FD32462A
:1080A0003B4615F095FF31A3D3E9002315F0DEFD23
:1080B00032463B4615F08CFF2EA3D3E9002315F082
:1080C000D3FD32463B4615F083FF2CA3D3E90023B2
:1080D00015F0CCFD32463B4615F07AFF29A3D3E9D3
:1080E0000023804689463046394615F071FF27A3A4
:1080F000D3E9002315F0B8FD32463B4615F068FF82
:1081000024A3D3E9002315F0B1FD32463B4615F018
:108110005FFF22A3D3E9002315F0A6FD32463B46BC
:1081200015F056FF00220A4B15F0A0FD02460B4643
:108130004046494616F076F822462B4615F048FF91
:1081400022462B4615F092FD04B0BDE8F08700BF33
:108150000000F03F09F7FD0DE13D023F88B20175D7
:10816000E0EF493F3B8F68B52882A43F5544880E15
:1081700055C1C93F7D6FEB0312D6D43F55555555B8
:108180005555C53F82922EB1C5B8B33F59018D1BDD
:108190006C06E63FC88A599CE52A00404B2D8A1C94
:1081A000273A0340000000002DE9F84F1D465342D6
:1081B000134325F0004ADFF8E0E14AEAD373734540
:1081C000144606460F4647D8C0F1000848EA0008A2
:1081D00021F0004343EAD878F0458B463CD805F1BE
:1081E000404808F5801858EA020850D04FEAA578B0
:1081F00008F0020848EAD17850EA030134D052EA84
:108200000A023CD0F24557D0734538D0A3EB0A039D
:108210001B153C2B42DC002D70DB22462B463046E2
:10822000394615F0FFFF13F03FFCFEF751FBB8F1A4
:10823000010F5FD0B8F1020F4ED0B8F1000F62D03D
:1082400043A3D3E9002315F00FFD43A3D3E9002393
:1082500015F00AFDBDE8F88F32463B462046294618
:1082600015F004FDBDE8F88FB8F1020F1AD0B8F18F
:10827000030F10D13AA1D1E90001BDE8F88FBBF19D
:10828000000F14DB38A1D1E90001BDE8F88FBDE88B
:10829000F84FFEF71DBB3946BDE8F88F32A1D1E992
:1082A0000001C4E72CA1D1E90001BDE8F88F30A19D
:1082B000D1E90001BDE8F88F534526D0B8F1020F8F
:1082C000F0D0B8F1030FD5D0B8F1010F4FF0000096
:1082D00029D00021BDE8F88F1DA3D3E9002315F0B4
:1082E000C3FC02460B461CA1D1E9000115F0BCFC01
:1082F000BDE8F88F01F10041BDE8F88F3C338CDA1E
:108300000020002193E7BDE8F88FB8F1020F18D0E4
:10831000B8F1030F10D0B8F1010F08D016A1D1E9C0
:108320000001BDE8F88F4FF00041BDE8F88F14A1BF
:10833000D1E90001BDE8F88F13A1D1E90001BDE842
:10834000F88F13A1D1E90001BDE8F88FAFF30080E9
:10835000075C143326A6A13C182D4454FB21094088
:10836000182D4454FB2109C0182D4454FB21F93F1A
:10837000182D4454FB21F9BF182D4454FB21E93F2B
:10838000182D4454FB21E9BFD221337F7CD902C090
:10839000D221337F7CD902400000F07F0000000032
:1083A00043422DE9F047034321F000463E4A46EAA6
:1083B000D373934204460D4613D896423DD03B4BAF
:1083C0009E428A4617DC36A3D3E9002315F04EFC03
:1083D0000022002316F08CF8A8B320462946BDE8F9
:1083E000F08702460B4615F03FFC02460B4615F09F
:1083F00019FFBDE8F0872E4B9E42354624DD3346FB
:108400000246314615F032FC224606460F462B4600
:108410000020254915F028FC02460B463046394617
:1084200015F000FFFEF708FD0022224B15F0D0FDED
:10843000BAF1000F2FDBBDE8F0870022002315F012
:10844000F1FEBDE8F087354622462B4620462946F8
:1084500015F00CFC22462B4606460F4615F0B8FDDB
:108460002246804689462B4600200F4915F0FCFB2A
:1084700002460B464046494615F0D4FE32463B467E
:1084800015F0F4FBFEF7D8FC00220A4B15F0A0FD16
:10849000BAF1000FCFDA01F100431946BDE8F087C9
:1084A0009C7500883CE4377E0000F03FFFFF2F3EC4
:1084B000FFFFDF3F0000E03F2DE9F8434E4B21F086
:1084C00000449C4206460F461BDC4C4B9C4222DD7E
:1084D0004B4B9C4263DD4B4B9C427BDD4A4B9C42A9
:1084E00046DD01339C4240D041A3D3E9002310462E
:1084F000194615F06DFD06460F4630463946BDE873
:10850000F88302460B4615F063FD06460F463046DB
:108510003946BDE8F88313F0C7FA02F0B1FC002237
:108520003A4B8046894615F0A1FBB4F1725F0646CE
:108530000F46ECDB42464B464046494615F048FDA7
:1085400032463B4604460D463046394615F08EFB12
:1085500002460B462046294615F064FE00222B4BAE
:1085600015F084FB06460F46D1E7294B9842BBD84D
:108570003046394613F098FA0022264B15F028FDB4
:1085800000F04AF8002204460D46224B15F020FD6B
:1085900022462B4615F01CFD06460F46B7E713F0A2
:1085A00083FA00F039F800221A4B06460F4615F000
:1085B0000FFD32463B4604460D460020154915F096
:1085C00031FE02460B462046294615F04FFB064673
:1085D0000F469CE713F068FA00F01EF800220D4BDE
:1085E00015F0F6FC06460F4691E700BFAFF300809A
:1085F0009C7500883CE4377EFFFFEF7F422ED63F1C
:10860000FFFF3540412E8640CD3386400000F03FCD
:108610007DF8B98F0000E03F2DE9F04FB04E21F01A
:108620000042B24283B004460D464FEAD1770DD9DD
:10863000AC4EB24225D9C1F31303034340F0EC80A2
:108640000FB10020002103B0BDE8F08FA64B9A4285
:1086500000F2CB80A54B9A4200F2DC808AA3D3E9DA
:10866000002315F003FB0022A14B15F041FF002869
:1086700000F006812046294600229D4B15F0F6FAAF
:10868000E1E783A3D3E9002315F032FF002840F08F
:10869000C88081A3D3E900232046294615F00AFFAC
:1086A0000028CED1934E7EA3D3E9002306EBC70664
:1086B0002046294615F08CFCD6E9002315F0D6FAA1
:1086C00015F036FF064615F01DFC77A3D3E900230D
:1086D0008046894615F07CFC02460B46204629461A
:1086E00015F0C2FA72A3D3E90023CDE90001404698
:1086F000494615F06DFC82468B4652465B46DDE9E5
:10870000000115F0B1FA04460D4622462B462046DC
:10871000294615F05DFC68A3D3E90023804689460D
:1087200015F056FC66A3D3E9002315F09DFA4246E6
:108730004B4615F04DFC64A3D3E9002315F096FADF
:1087400042464B4615F044FC61A3D3E9002315F0E3
:108750008BFA42464B4615F03BFC5FA3D3E900235E
:1087600015F084FA42464B4615F032FC02460B46A1
:108770002046294615F078FA80468946002E58D0C2
:108780002046294642464B4615F022FC4246044606
:108790000D464B4600204FF0804115F065FA024629
:1087A0000B462046294615F03DFD02460B46504635
:1087B000594615F059FADDE9002315F055FA0B4634
:1087C00002464B49002015F04FFA6FF47F739E422A
:1087D00051DA06F57A7601EB065100224FF0B873B4
:1087E00015F0F6FB03B0BDE8F08F434B9A423FF61D
:1087F00059AF424BFC002344D3E9002315F034FA6F
:108800003F4BC7F101062344CDE90001D3E900AB9A
:10881000F61B72E7002678E702460B4615F026FAAB
:1088200011E719A3D3E900231046194615F0D0FB30
:1088300009E702460B462046294615F0C9FB0022EF
:1088400006460F464FF080434046494615F00CFA65
:1088500002460B463046394615F0E4FC22462B46CC
:1088600015F002FA02460B460020214915F0FCF9EA
:1088700003B0BDE8F08F01EB065103B0BDE8F08F07
:10888000064642E7AFF300809C7500883CE4377EE3
:10889000EF39FAFE422E864051302DD5104987C05F
:1088A000FE822B654715F73F0000E0FE422EE63FB3
:1088B000763C7935EF39EA3DD0A4BE726937663E21
:1088C000F16BD2C541BDBB3E2CDE25AF6A56113FD0
:1088D00093BDBE166CC1663F3E5555555555C53FB7
:1088E000412E8640FFFFEF7F422ED63FFFFF2F3EF7
:1088F0000000F03F38F20300B1A2F03F48F203005D
:1089000058F20300000000002DE9F04FB1F5801F80
:1089100085B006460F460B465ADA024621F000445F
:10892000224300F0F8800029C0F27A810022D64B61
:1089300015F04EFBD54A0B46934206460F466FF0A4
:10894000350C4ADCC3F3130505F5152E0EF6647ECF
:108950000EF4801E8EF07F5282F440121C1542EA03
:108960000507A4F2FF3464440022C94B304639465F
:1089700004EB1E5415F078F9AB1CC3F31303022B60
:1089800082468B464FF0000230DC002315F088FD54
:10899000002800F0C980002C00F04B81204615F023
:1089A000B1FAA5A3D3E9002306460F4615F010FB44
:1089B000A3A3D3E9002304460D463046394615F0FB
:1089C00007FB02460B462046294615F04FF90AE000
:1089D000AE4A93424FF0000CB4DD32463B4630467F
:1089E000394615F043F905B0BDE8F08F4FF08043EC
:1089F00015F03CF902460B465046594615F012FC5C
:108A0000064620460F4615F07DFA3246CDE90001B4
:108A10003B4630463946CDE9026715F0D9FA0246A1
:108A20000B468046894615F0D3FA87A3D3E9002385
:108A300006460F4615F0CCFA85A3D3E9002315F0BE
:108A400015F932463B4615F0C3FA83A3D3E9002358
:108A500015F00CF932463B4615F0BAFA80A3D3E97B
:108A6000002315F003F942464B4615F0B1FA7EA3F8
:108A7000D3E90023804689463046394615F0A8FAE6
:108A80007BA3D3E9002315F0F1F832463B4615F0FD
:108A90009FFA79A3D3E9002315F0E8F832463B4664
:108AA00015F096FA0B4602464946404615F0DEF8A8
:108AB000A5F5C223C5F5D725A3F27A4351351D4349
:108AC000002D8046894656DD0022724B504659469D
:108AD00015F07EFA52465B4615F07AFA06460F46C6
:108AE000002C68D132463B464046494615F0BEF858
:108AF000DDE9022315F06CFA02460B463046394692
:108B000015F0B2F802460B465046594615F0ACF83F
:108B100005B0BDE8F08F0022002300205E4915F06B
:108B200081FB05B0BDE8F08F55A3D3E90023504683
:108B3000594615F04DFA02460B460020554915F0EE
:108B400093F8524606460F465B465046594615F086
:108B50003FFA02460B463046394615F039FA0646CA
:108B60000F46002C40F09A8002460B46504659466C
:108B700015F07AF837E7002C00F0A4802EA3D3E993
:108B80000023DDE9000115F023FA42464B46044676
:108B90000D465046594615F067F8DDE9022315F0F9
:108BA00017FA27A3D3E9002306460F46DDE90001A3
:108BB00015F00EFA21E020A3D3E90023DDE900013E
:108BC00015F006FA32463B4604460D4640464946F5
:108BD00015F04CF8DDE9022315F0FAF918A3D3E9F2
:108BE000002380468946DDE9000115F0F1F90246CF
:108BF0000B464046494615F039F802460B463046CA
:108C0000394615F031F852465B4615F02DF802460C
:108C10000B462046294615F027F805B0BDE8F08F31
:108C200002460B4615F020F80022002315F0FAFA50
:108C3000D9E600200021D6E60000E0FE422EE63F05
:108C4000763C7935EF39EA3D44523EDF12F1C23FBE
:108C5000DE03CB966446C73F599322942449D23F02
:108C6000935555555555E53F9FC678D0099AC33F52
:108C7000AF788E1DC571CC3F04FA97999999D93F69
:108C8000555555555555D53F00005043FFFFEF7FD3
:108C90000000F03F0000E03F000050C3204615F008
:108CA00031F90FA3D3E900238046894615F090F9E6
:108CB0000DA3D3E9002304460D464046494615F06E
:108CC00087F99AE702460B465046594614F0CCFF06
:108CD000DDE9022315F07CF914E700BFAFF3008053
:108CE0000000E0FE422EE63F763C7935EF39EA3D62
:108CF000B1F5801F2DE9F84304460D460B461ADAFC
:108D0000024621F00046324359D000295FDB0022A1
:108D10003B4B15F05DF93B4A0D462B46934204460A
:108D20006FF035010CDD22462B462046294614F013
:108D30009DFFBDE8F883334A93424FF00001F2DC17
:108D40001815A0F2FF3008444FEAD0794844C3F325
:108D5000130815F0D7F8C9F57F73033348EA0355B4
:108D600006460F4620462946FFF7CEFD1EA3D3E94F
:108D70000023804689463046394615F029F91CA360
:108D8000D3E9002304460D464046494615F020F934
:108D900002460B462046294614F068FF16A3D3E985
:108DA000002304460D463046394615F011F90246B7
:108DB0000B462046294614F059FFBDE8F8830022EF
:108DC00000230020104915F02DFABDE8F883024673
:108DD0000B4614F049FF0022002315F023FABDE8EA
:108DE000F88300BFAFF30080362BF111F3FE593D3D
:108DF0000EE526157BCBDB3F00609F501344D33F2D
:108E000000005043FFFFEF7F000050C30000000050
:108E10002DE9F04F23F0004757EA020493B037D012
:108E2000674C21F00046A64283460D4629DC9A464F
:108E3000964625D0A74224DC614CA74279D0002D6C
:108E400080468946CDE9002377DB0024BEF1000F80
:108E50002CD15B4B9F4200F08B805A4B9F4261D0DC
:108E6000BAF1804F00F0C383574B9A451ED1002DB5
:108E70001CDB4046494613B0BDE8F04F13F052BD2D
:108E800058B106F1404606F5801656EA0B0306D1A6
:108E90004C49002013B0BDE8F08FB742CCDD4B4801
:108EA00013B0BDE8F04F14F0E3BC0024404649463F
:108EB00012F0FAFDBBF1000F19D126B1414B25F09C
:108EC00040429A4213D1BAF1000FC0F2CA83002D7A
:108ED000E0DA06F1404606F5801656EA040300F093
:108EE000A584012CD6D101F100431946D2E7ED0F3C
:108EF000013D54EA05034ED0354B9F426EDD03F130
:108F000004739F4240F3FE83324B9E424EDDBAF122
:108F1000000F4EDD28A3D3E900231046194615F0B3
:108F200057F8B7E7BAF1000FC0F2528440464946FD
:108F3000B0E7BEF1000F82D0A3E7274B9F4228DCA9
:108F4000A3F154739F4280DD3B15A3F2FF33142B32
:108F500040F35484C3F134032EFA03F202FA03F30C
:108F60009E457FF472AF02F00102C2F102046DE788
:108F700006F1404303F5801353EA0B0388D0154BE9
:108F80009E4240F33B83BAF1000F12DBDDE90001A2
:108F900080E702245AE742464B461046194614F031
:108FA00063FE02460B4615F03DF973E7BAF1000F78
:108FB000B0DB002000216DE79C7500883CE4377E23
:108FC0000000F07F0000F03F0000E03F48FA03009F
:108FD0000000E041FFFFEF3FFFFF3F43B6F5801F7A
:108FE0004FF0000205DAD84B14F0F2FF6FF03402B4
:108FF0000E463315D54FC6F31306A3F2FF331344C1
:1090000046F07F5ABE421A460D934AF4401A40F386
:109010002F83CF4B9E4240F30D849FEDB57B8DEDAA
:10902000087B8DED0E7B9FEDB47B13468DED067BAB
:1090300001330D93AAF5801A0027DDE90623514676
:10904000CDE90A0114F010FEDDE9062380468946C9
:10905000DDE90A0114F00AFE02460B460020BD4974
:1090600015F0E0F80A460146CDE9101213464946CC
:109070000246404614F0ACFF4FEA6A0343F0005347
:109080008C46834603F50023CDE904BCDA468B46C3
:10909000D9190023CDE902AB0293DDE902AB002030
:1090A00006460F4602460B465046594614F090FFBE
:1090B00002460B464046494614F0D6FDDDE906233C
:1090C000804689463046394614F0CEFD02460B46AE
:1090D000DDE90A0114F0C8FD52465B4614F078FF42
:1090E00002460B464046494614F0BEFDDDE910231A
:1090F00014F06EFFDDE90467CDE9060132463B4618
:109100003046394614F064FF7DA3D3E900230646B8
:109110000F4614F05DFF7CA3D3E9002314F0A6FDF5
:1091200032463B4614F054FF79A3D3E9002314F0F0
:109130009DFD32463B4614F04BFF77A3D3E9002355
:1091400014F094FD32463B4614F042FF74A3D3E979
:10915000002314F08BFD32463B4614F039FF72A316
:10916000D3E9002314F082FD3246804689463B460F
:109170003046394614F02CFF02460B46404649461D
:1091800014F026FF524606460F465B46DDE9040111
:1091900014F06CFDDDE9062314F01AFF32463B465D
:1091A00014F064FD5246804689465B465046594657
:1091B00014F00EFF0022684BCDE90A0114F056FDB1
:1091C00042464B4614F052FD02980F460646324680
:1091D0003B465046594614F0FBFE002282468B4621
:1091E0005D4B3046394614F03FFDDDE90A2314F0AB
:1091F0003BFD02460B464046494614F035FDDDE98D
:10920000042314F0E5FE3246804689463B46DDE9FC
:10921000060114F0DDFE02460B464046494614F0B6
:1092200025FD8046894602460B4650465946CDE903
:1092300004AB14F01BFDDDE902AB3DA3D3E9002331
:1092400050460F4614F0C4FEDDE90423CDE90201C7
:109250003946504614F008FD02460B464046494642
:1092600014F002FD34A3D3E9002314F0B1FE34A3BB
:10927000D3E90023804689465046394614F0A8FEBB
:1092800002460B464046494614F0F0FCDDE90E2349
:1092900014F0ECFC80460D98894614F033FE4246EB
:1092A00006460F464B46DDE9020114F0DFFCDDE91E
:1092B000082314F0DBFC32463B4614F0D7FC324660
:1092C0003B4650468B4614F0CFFCDDE9082314F0F2
:1092D000CBFCDDE9022314F0C7FC02460B464046F6
:1092E000494614F0C1FC8046894637E0AFF3008060
:1092F0000000000000000000000000000000F03F3F
:10930000EF4E454A287ECA3F65DBC9934A86CD3F6A
:1093100001411DA96074D13F4D268F515555D53F50
:10932000FFAB6FDBB66DDB3F033333333333E33FE8
:10933000000000E009C7EE3FFD033ADC09C7EE3F3D
:10934000F5015B14E02F3EBE000040438E98030001
:1093500079B60B000000F03F00000840013C54EAE1
:10936000050300F079819FEDC87B8DED047BDDE97D
:1093700000120B461446CDE9023400230293DDE9C6
:10938000024508462B461146224614F06DFC524613
:109390005B4614F01DFEDDE9002306460F464046FD
:1093A000494614F015FE02460B463046394614F085
:1093B0005DFC2246804689462B4650465946CDE9FB
:1093C000008914F005FE0B46024606460F4640464D
:1093D000494614F04BFCC64B994204460D468A465A
:1093E00040F3168101F13F4303F5E003034340F0EE
:1093F000F781A7A3D3E90023DDE9000114F036FCCF
:109400003246804689463B462046294614F02CFCCD
:1094100002460B464046494615F06AF8002840F0DF
:10942000DF81A8464FEA28534FF48012A3F2FE339F
:1094300042FA03F35344C3F30A52AE4DA2F2FF3291
:109440001541C3F3130423EA05010020C2F1140BF4
:1094500044F48014BAF1000F02460B4644FA0BFBA9
:1094600030463946B8BFCBF1000B14F0FDFB024685
:109470000B4606460F46DDE9000114F0F7FB4FEA04
:109480000B5A0D46002484A3D3E900232046294625
:1094900014F09EFD3246804689463B4620462946CA
:1094A00014F0E2FB02460B46DDE9000114F0DCFBA0
:1094B0007BA3D3E9002314F08BFD7BA3D3E9002326
:1094C00006460F462046294614F082FD02460B460A
:1094D0003046394614F0CAFB06460F4602460B4694
:1094E0004046494614F0C2FB42464B4604460D46F0
:1094F00014F0BAFB02460B463046394614F0B4FB72
:109500002246804689462B462046294614F060FDB7
:1095100067A3D3E9002306460F4614F059FD66A35E
:10952000D3E9002314F0A0FB32463B4614F050FD73
:1095300063A3D3E9002314F099FB32463B4614F0B1
:1095400047FD61A3D3E9002314F08EFB32463B466E
:1095500014F03EFD5EA3D3E9002314F087FB3246EE
:109560003B4614F035FD02460B462046294614F0D2
:109570007BFB06460F4602460B462046294614F062
:1095800027FD0022CDE900014FF0804330463946E7
:1095900014F06AFB02460B46DDE9000114F042FEBE
:1095A000424606460F464B462046294614F010FD1B
:1095B00042464B4614F05AFB02460B4630463946AB
:1095C00014F052FB22462B4614F04EFB02460B468B
:1095D0000020494914F048FB8A44BAF5801FC0F2C4
:1095E00039815146DDE9042314F0F2FC52E442468D
:1095F0004B464046494614F0EBFC4BE4BAF1000FF1
:10960000BFF6D7ACDDE90034184604F1004141E46F
:109610003A4B21F00048984540F3FF80384B0B440B
:1096200003430CD132463B4614F01EFB02460B4668
:10963000DDE9000114F048FF00283FF4F3AEDDE956
:10964000040125A3D3E9002314F0C2FC22A3D3E92B
:10965000002314F0BDFC1DE49FED217B8DED047B08
:1096600085E602460B460020234914F0DBFD2EE47C
:109670009FED1D7B8DED087B8DED0E7B9FED027BBD
:1096800000278DED067BD8E4000000000000F03FCD
:10969000FE822B654715973C00000000432EE63FF5
:1096A000EF39FAFE422EE63F396CA80C615C20BE11
:1096B000D0A4BE726937663EF16BD2C541BDBB3ED8
:1096C0002CDE25AF6A56113F93BDBE166CC1663FB6
:1096D0003E5555555555C53F59F3F8C21F6EA50166
:1096E000000000000000F0BF0000000000000000CB
:1096F000FFFF8F40FFFF0F000000F03FFFCB9040C7
:1097000000346F3F684B9E427FF750AC674B9E42E0
:109710003FF7FDAB0022654B14F0A6FA52A3D3E944
:10972000002306460F4614F053FC51A3D3E900234F
:10973000804689463046394614F04AFC002282466B
:109740008B465B4B3046394614F042FC02460B46D2
:1097500049A1D1E9000114F087FA32463B4614F0E2
:1097600037FC02460B460020524914F07DFA32467F
:10977000CDE902013B463046394614F029FC024649
:109780000B46DDE9020114F023FC3DA3D3E90023DD
:1097900014F01EFC02460B465046594614F064FA7B
:1097A00002460B4606460F464046494614F05EFA0E
:1097B00042464B46002082468B4614F055FA02463C
:1097C0000B463046394614F04FFA80468946C5E5C7
:1097D00042464B460020354914F024FDFFF75ABBA2
:1097E000DDE9040128A3D3E9002314F0F1FB26A34B
:1097F000D3E9002314F0ECFBFFF74CBBBEF1000FE4
:109800007FF453ABC3F1140347FA03F202FA03F3F4
:109810009F4223D07446FFF720BB264B98453FF765
:1098200001AEDDE90223924693462BE602460B4643
:10983000FFF7B3BB9FED167B8DED087B9FED167B8D
:109840008DED0E7B9FED167B4FF480278DED067B13
:10985000FFF7F3BB5A4601F04FFDC3E602F00102E9
:10986000C2F10204FFF7F9BA000000604715F73FA4
:1098700044DF5DF80BAE543E555555555555D53F13
:10988000FE822B654715F73F9C7500883CE4377EC8
:109890000000004003B8E23F06D0CF43EBFD4C3E52
:1098A000000000000000F83FFEFFEF3F0000F03F27
:1098B0000000D03F0000E03F2DE9F0479C4B21F035
:1098C00000479F4290B08046894640F38E80994B76
:1098D0009F420C46924626DC00298BA3D3E9002345
:1098E00040F3B08114F0C0F9934B9F4204460D46FB
:1098F00000F0908086A3D3E9002314F0B5F9024666
:109900000B46CAE900232046294614F0ADF980A38E
:10991000D3E9002314F0A8F90125CAE90201284679
:1099200010B0BDE8F087854B9F4240F39080844B98
:109930009F4265DC3D15A5F21645A7EB0553194678
:109940001F46064614F0F4FD14F0DCFA8046894602
:1099500042464B4630463946CDE90A8914F084F92F
:109960000022784B14F034FB8946804614F0E0FD69
:1099700014F0C8FA06460F4632463B464046494672
:10998000CDE90C6714F070F900226E4B14F020FB47
:1099900000220023CDE90E0114F082FD002800F022
:1099A0006F81002330463946002214F079FD0028EB
:1099B00014BF01230223644A019202212A46009126
:1099C0000AA8514600F08CFB002C054614DADAF8A0
:1099D0000420DAF80C3002F1004203F10043454262
:1099E000CAF80420CAF80C3006E000200021C2E9C1
:1099F0000089C2E902010025284610B0BDE8F087C1
:109A000002460B4614F030F90025CAE90201CAE902
:109A10000001F1E740A3D3E9002314F025F940A3A6
:109A2000D3E900230D46044614F01EF902460B4606
:109A3000CAE900232946204614F016F938A3D3E9D1
:109A4000002314F011F90125CAE90201D4E712F04C
:109A50002BF835A3D3E900238046894614F0B8FAE1
:109A600000223A4B14F002F914F062FD054614F09E
:109A700049FA25A3D3E90023CDE9060114F0A8FA99
:109A800002460B464046494614F0EEF820A3D3E9BF
:109A90000023CDE90201DDE9060114F099FA1F2D3A
:109AA00080468946CDE9048954DC294B6A1E53F867
:109AB00022309F424ED002460B46DDE9020114F0EF
:109AC000D3F880468946CAE9008942464B46DDE91B
:109AD000020114F0C9F8DDE9042314F0C5F8002CE4
:109AE000CAE9020188DA09F1004401F100436D423C
:109AF000CAF80080CAF80440CAF80800CAF80C3056
:109B00007AE700BFAFF3008000004054FB21F93F2B
:109B10003163621A61B4D03D0000601A61B4D03D77
:109B20007370032E8A19A33B83C8C96D305FE43F6D
:109B3000FB21E93F7BD90240FB21F93FFB21394161
:109B4000FFFFEF7F000070411C0404000000E03FB5
:109B50009C030400DDE90423DDE9020114F084F82C
:109B60003F15C1F30A53FB1A80468946102BCAE9F8
:109B70000089AADD58A3D3E90023DDE9060114F02A
:109B800027FA8046894602460B46DDE9020114F0B9
:109B90006BF802460B46DDE90201CDE9082314F01B
:109BA00063F842464B4614F05FF84DA3D3E9002317
:109BB00080468946DDE9060114F00AFA42464B4622
:109BC00014F052F80B46CDE904010246DDE9080124
:109BD00014F04AF8C1F30A53FF1A80468946312F20
:109BE000CAE900896CDD41A3D3E90023DDE9060160
:109BF00014F0EEF9DDE9088906460F4602460B46E9
:109C00004046494614F030F802460B464046494665
:109C1000CDE9022314F028F832463B4614F024F82C
:109C200034A3D3E9002306460F46DDE9060114F00C
:109C3000CFF932463B4614F017F802460B46CDE901
:109C400004233AE714F012F8274B9F4204460D46CE
:109C500018D01FA3D3E9002314F008F802460B46DE
:109C6000CAE900232946204613F0FEFF18A3D3E9D2
:109C7000002313F0FBFF4FF0FF35CAE90201BBE6FA
:109C8000032398E614A3D3E9002313F0EFFF14A3F2
:109C9000D3E900230D46044613F0E8FF02460B46C5
:109CA000CAE900232946204613F0DEFF0CA3D3E9BE
:109CB000002313F0DBFF4FF0FF35CAE902019BE6FA
:109CC0009DED087B8DED027BFFE600BFAFF30080CA
:109CD0003163621A61B4D03D0000601A61B4D03DB6
:109CE0007370032E8A19A33BFB21F93F0000002E5D
:109CF0008A19A33BC14920259A837B3900000000C3
:109D0000594A2DE9F84F21F00048904506460F4684
:109D10002BDC564B0029B4BF554D564D98454FF09E
:109D2000000410DC544B984570DC4DA3D3E90023AC
:109D300013F09CFF0022514B14F0DAFBD8B13046EF
:109D40003946BDE8F88F4E4B98457CDD4D4B984524
:109D500044DD013398453ED03046394640A3D3E92F
:109D6000002314F035F9BDE8F88F02460B4613F0D6
:109D70007DFFBDE8F88F3046394611F095FE01F0C1
:109D80007FF806460F4632463B463046394613F0CA
:109D90006DFF324682468B463B463046394614F0CC
:109DA00017F9002280468946344B3046394613F075
:109DB0005DFF02460B464046494614F033FA024620
:109DC0000B465046594613F04FFF22462B4614F0DF
:109DD000FFF8BDE8F88F2C4B9842BDD83046394685
:109DE00011F062FE0022234B14F0F2F8FEF714FC8F
:109DF00006460F4602460B462046294614F0E8F870
:109E000032463B4614F0E4F8BDE8F88F11F04CFE02
:109E100001F036F81D4B984506460F46B3DD00228B
:109E2000164B13F023FF02460B463046394614F01A
:109E3000F9F932463B4613F019FF22462B4614F03F
:109E4000C7F8BDE8F88F11F02FFEFEF7E5FB0246DC
:109E50000B462046294614F0BBF8BDE8F88F00BF3A
:109E60003374AC3C1F7BAC7FFFFFEF7FFFFF3540BF
:109E70000000E0BF0000E03FFFFF2F3E0000F03F8A
:109E8000412E8640CD3386407DF8B98FFFFFEF3FEE
:109E90002DE9F04F21F00048B8F1795F85B0064612
:109EA0000F4692469B466BDA14F042FB002800F006
:109EB000EA8032463B463046394614F089F874A3AE
:109EC000D3E9002304460D4614F082F872A3D3E9C7
:109ED000002313F0CBFE22462B4614F079F870A332
:109EE000D3E9002313F0C0FE22462B4614F070F88D
:109EF0006DA3D3E9002313F0B9FE22462B4614F0DC
:109F000067F86BA3D3E9002313F0AEFE22462B467D
:109F100014F05EF868A3D3E9002313F0A7FE2246ED
:109F20002B4614F055F8CDE900010022664B20467F
:109F3000294614F04DF8DDE9002380468946204685
:109F4000294614F045F8524604460D465B46304615
:109F5000394614F03DF802460B462046294613F0D8
:109F600083FE02460B464046494613F07DFE0246FC
:109F70000B460020554913F077FE05B0BDE8F08F81
:109F800002460B4614F024F841A3D3E9002304460B
:109F90000D4614F01DF840A3D3E9002313F066FE2C
:109FA00022462B4614F014F83DA3D3E9002313F006
:109FB0005BFE22462B4614F00BF83BA3D3E90023AB
:109FC00013F054FE22462B4614F002F838A3D3E9CE
:109FD000002313F049FE22462B4613F0F9FF36A367
:109FE000D3E9002313F042FE2B46224613F0F0FF84
:109FF000374B9845CDE9000197DD364B984539DC64
:10A00000A8F500130022002030499046994613F02D
:10A010002BFECDE9020100222B4B2046294613F0EE
:10A02000D7FF42464B4613F01FFEDDE90023804672
:10A0300089462046294613F0CBFF524604460D467A
:10A040005B463046394613F0C3FF02460B462046B6
:10A05000294613F009FE02460B464046494613F0D6
:10A0600003FE02460B46DDE9020113F0FDFD05B0DB
:10A07000BDE8F08F9FED127B4FF000088DED027B65
:10A08000DFF85490C7E71149002005B0BDE8F08F14
:10A09000D43888BEE9FAA8BDC4B1B4BD9EEE213E55
:10A0A000AD529C804F7E923E9015CB19A001FA3E96
:10A0B0007751C1166CC1563F4C5555555555A53F66
:10A0C000000000000000E73F0000E03F0000F03F1C
:10A0D0003233D33F0000E93F0000D23F00000000D0
:10A0E0002DE9F04FADF51B7D9F4CA49E9F4D54F87C
:10A0F000264007942646D41E85FB0475E417C4EB5E
:10A10000A50424EAE4741D460A93631CA3EB8303AD
:10A11000013D02EBC30306932B460B940395651B8D
:10A12000F418049008911AD42C4400260027013416
:10A130000DF18808DDF8949208E059F8250013F035
:10A14000E1FE0135A542E8E8020108D0002DF4DA6D
:10A15000013530463946A542E8E80201F6D1079BB1
:10A16000002BC0F2DF83079B03F1010B0A9B22A99E
:10A17000DB001A4601EB03090093049B0DF5E47A1A
:10A1800019460AEBCB0B01EB0208039B002BC0F234
:10A19000F582049C4D460026002775E90223F4E869
:10A1A000020113F015FF02460B463046394613F004
:10A1B0005DFD444506460F46EFD1EAE80267DA4501
:10A1C00009F10809E1D107990098049C009101F177
:10A1D0008043013B9B0020441A1F83460EA8024483
:10A1E00003440C920D93009A9AA901EBC203002A32
:10A1F00053E9284529DD0DF5E47A0AEBC2080DF193
:10A20000340900225A4B2046294613F0E1FE14F08F
:10A210008FF913F077FE0022564B06460F4613F0D7
:10A22000D7FE02460B462046294613F01DFD14F0CA
:10A230007FF978E9022349F8040F3946304613F0D4
:10A2400015FDD04504460D46DBD1DDF818902046BB
:10A2500029464A4601F050F800224FF07F53044649
:10A260000D4613F0B5FEFCF75FFD0022424B13F0E4
:10A27000AFFE02460B462046294613F0F5FC0D467C
:10A28000044614F055F9804613F03CFE0B46024696
:10A290002946204613F0E8FC4B46002B06460F46A5
:10A2A00040F3F980009A0EA9013AC9F1180351F858
:10A2B000225045FA03F101FA03F30EA8EB1A40F815
:10A2C0002230C9F11705884443FA05F5002D6DDDEC
:10A2D000009B002B08F1010840F36F820E9C002CBC
:10A2E00040F01683009B012B40F38F820EAA0123BE
:10A2F00052F8044F002C00F08382581C0EAAC4F1BF
:10A30000807442F82340009A824219DD0EAA0EACF6
:10A3100052F820106FF07F42511A44F82010009933
:10A32000023399420CDD1046009A0EA901EB83031B
:10A3300001EB82011A68821A43F8042B8B42F9D18F
:10A34000069B002B1ADD069B012B4FF0010440F009
:10A350003C82009B5A1E0EAB0EA953F82230C3F369
:10A36000160341F822303CE2BC080400ABAAAA2A3A
:10A370000000703E0000704100002040022D15D109
:10A3800032463B460020924913F06EFC06460F46CB
:10A39000069A8F49002000F0AFFF02460B46304678
:10A3A000394613F061FC022506460F4600220023C1
:10A3B0003046394614F074F8002800F03782009ACD
:10A3C000079B501E83420FDC02F18043013B0EAA23
:10A3D0000D9C02EB8303002253F80419A34242EAC6
:10A3E0000102F9D1002A67D1079B0EAA013B52F85E
:10A3F0002330002B40F018820C9A012352F80419E4
:10A4000001330029FAD0009AD31802F1010A9A45C3
:10A4100009933DDC009B0A990B9A0B4409990AEBBE
:10A420000208994622AB08F1804803EBC9098B1852
:10A43000A59A08F1FF3802EB880872AA02EBCA0A53
:10A44000A59A02EB8303009358F8040F13F05AFD0A
:10A45000039B002BE9E802014FF000064FF00007D4
:10A4600011DB049C4D4675E90223F4E8020113F068
:10A47000AFFD02460B463046394613F0F7FB5C450C
:10A4800006460F46EFD1009B9845EAE80267DBD10C
:10A49000099B0093A7E606D1009B0EAA013B52F848
:10A4A0002350ED1512E700224A4B14F017F800284C
:10A4B00040F06E81054679E70EA9039551F82030EA
:10A4C0000699CDF8248018390246009006916BB9A0
:10A4D00000F18043013B0EA800EB830353F804090D
:10A4E000013A18390028F9D000920691069A3849A5
:10A4F000002000F001FF009B002B04460D46C0F237
:10A50000F781DA0072A901EB020B06920EAA02EBA8
:10A510008306DFF8C4904FF000080BF108070436FB
:10A5200056F8040D13F0EEFC22462B4613F050FDB6
:10A530004B4667E9020142462046294613F048FD92
:10A540000EAB9E4204460D46EAD14AACDDF81C90A3
:10A5500004944FF0000AB9F1000FC0F22B81DFF82C
:10A560007C805D4618A1D1E9000100260027002467
:10A5700003E0544510DCF8E80201F5E8022313F08B
:10A5800027FD02460B463046394613F06FFB013477
:10A59000A14506460F46ECDA049B03EBCA03ABF178
:10A5A000080BC3E9006770AB9B450AF1010AD2D1E1
:10A5B000A49B049C032B00F28980DFE803F0C58E86
:10A5C0008E1100BFAFF3008000000040FB21F93F77
:10A5D0000000F03F0000E03F0000703E80F203000A
:10A5E000009B002B40F38181069A04EB020ADAE912
:10A5F000008902F1080525440DF5987B1AED027BD0
:10A6000042464B4651EC170B8DED047B13F02EFBAD
:10A6100006460F4602460B46DDE9040113F024FB13
:10A6200042464B4613F022FB65E902015D45B04608
:10A63000B9466AE90267E1D1009B012B40F35581DD
:10A64000069BE518D5E9008903F1080B04EB0B0A1A
:10A6500015ED027B42464B4651EC170B8DED007B0E
:10A6600013F004FB06460F4602460B46DDE90001E7
:10A6700013F0FAFA4B46424613F0F8FA6AE902017F
:10A680004EAB5345B046B94665E90267E0D10020BC
:10A69000002104EB0B0575E9022313F0E7FAAA4544
:10A6A000F9D1039B002B00F00A816268E368089FE0
:10A6B0002568A4683D6002F1004203F1004301F106
:10A6C00000417A60FB60BC6038617961099B03F0EE
:10A6D00007000DF51B7DBDE8F08F069D083525446C
:10A6E0000020002175E9022313F0C0FAA542F9D138
:10A6F000039B002B00F0D280089E024601F100432C
:10A7000086E80C000B460246D4E9000113F0ACFACF
:10A71000009B002B0BDD4CAD0124F5E8022313F068
:10A72000A5FA009B0134A342F7DA039B13B101F1B0
:10A7300000431946089BC3E90201099B03F0070087
:10A740000DF51B7DBDE8F08F069D0835002000212A
:10A75000254475E9022313F089FAAC42F9D1039B31
:10A7600013B101F100431946089BC3E90001099B9D
:10A7700003F007000DF51B7DBDE8F08F00260027D4
:10A78000EAE80267DA4509F108097FF4FEAC1AE548
:10A79000009B002B08F10108C8BF02253FF79EADC2
:10A7A00032463B460020614913F05EFA0225064618
:10A7B0000F46FBE500260027EEE6069B002B27DD73
:10A7C0000024069B012B3FF4C4AD022B09D1009B52
:10A7D0005A1E0EAB0EA953F82230C3F3150341F8ED
:10A7E0002230022D7FF4E2AD32463B4600204F4935
:10A7F00013F03AFA06460F46002C3FF4D7ADC7E5F2
:10A800000099013399427FF473AD069B002BD8DC8D
:10A81000022D7FF4CBAD32463B460020434913F076
:10A8200023FA06460F46C1E50123ECE53946069FAB
:10A8300003957A423046CDF8248000F05DFD002279
:10A840003B4B04460D4613F049FE002843D000223E
:10A85000384B2046294613F0BBFB13F069FE064631
:10A8600013F050FB0022324B13F0B2FB02460B46B2
:10A870002046294613F0F8F913F05AFE00990B46CA
:10A8800001331A4600933B46183306930B460EA934
:10A8900041F82300134641F8236027E6089B02464F
:10A8A000C3E900010B46D4E9000113F0DDF9009B78
:10A8B000002B3FF730AF089BC3E902013DE7D4E925
:10A8C0000067D4E90223089DC5E90401C5E90067D2
:10A8D000C5E90223FAE62946204613F029FE009A2C
:10A8E0000EA941F8220001E64AAC00200021D8E67A
:10A8F000A49B032B3FF6EAAE01A252F823F000BF5F
:10A900001FA9020017A9020017A90200E9A8020066
:10A9100001200023F2E4002000214AACE8E60020F8
:10A9200000211CE70A9BDB0000934CE40000F03F91
:10A93000000070410000703E2DE9F04F21F000460C
:10A94000B6F1795F85B004460D469046994604DA23
:10A9500013F0EEFD002800F0858022462B462046AD
:10A96000294613F035FB06460F4602460B462046A5
:10A97000294613F02DFB41A3D3E9002382468B46E1
:10A980003046394613F024FB3EA3D3E9002313F0ED
:10A990006BF932463B4613F01BFB3CA3D3E9002383
:10A9A00013F064F932463B4613F012FB39A3D3E9A6
:10A9B000002313F059F932463B4613F009FB37A345
:10A9C000D3E9002313F052F90E9BCDE900019BB3AC
:10A9D0000022294B4046494613F0FAFADDE90023EC
:10A9E000CDE902015046594613F0F2FA02460B46F1
:10A9F000DDE9020113F038F932463B4613F0E8FA7C
:10AA000042464B4613F030F919A3D3E9002306461A
:10AA10000F465046594613F0DBFA02460B463046C5
:10AA2000394613F023F902460B462046294613F017
:10AA30001BF905B0BDE8F08F02460B46304639469B
:10AA400013F0C6FA0AA3D3E9002313F00DF9524616
:10AA50005B4613F0BDFA22462B4613F007F905B00A
:10AA6000BDE8F08F2046294605B0BDE8F08F00BF55
:10AA7000495555555555C53F0000E03F7CD5CF5A47
:10AA80003AD9E53DEB9C2B8AE6E55A3E7DFEB1576F
:10AA9000E31DC73ED561C119A0012A3FA6F81011D8
:10AAA0001111813F000000002DE9F04FBE4C21F054
:10AAB000004687B0A64282468B460F46CDE900236A
:10AAC0001BDC13F035FD002837D153461E43109B85
:10AAD0000133334300F0B381109B012B00F0C88198
:10AAE00052465B460020B14913F09CFB04460D46DC
:10AAF0002046294607B0BDE8F08FAD4B9E421CDDD5
:10AB00000029C0F2A98152465B4687A1D1E9000124
:10AB100013F0AAF8DDE9002304460D4684A1D1E92B
:10AB2000000113F0A1F89FED847B22462B468DEDAA
:10AB3000007B13F09BF882468B4652465B4650469C
:10AB4000594613F045FA02460B468046894613F0F3
:10AB50003FFA424604460D464B465046594613F0CE
:10AB600037FA77A3D3E90023CDE90201204629462D
:10AB700013F02EFA74A3D3E9002313F077F82246DA
:10AB80002B4613F025FA72A3D3E9002313F06EF8D5
:10AB900022462B4613F01CFA6FA3D3E9002313F0CF
:10ABA00065F822462B4613F013FA6DA3D3E9002370
:10ABB00013F05CF822462B4613F00AFA6AA3D3E995
:10ABC000002313F053F842464B4613F001FA68A3F2
:10ABD000D3E90023CDE904012046294613F0F8F912
:10ABE00065A3D3E9002313F041F822462B4613F066
:10ABF000EFF963A3D3E9002313F038F822462B467C
:10AC000013F0E6F960A3D3E9002313F02FF82246EE
:10AC10002B4613F0DDF95EA3D3E9002313F026F8E9
:10AC200022462B4613F0D4F95BA3D3E9002313F09B
:10AC30001DF802460B46DDE9040113F017F8DDE9C3
:10AC4000022313F0C5F9DDE9004522462B4613F037
:10AC50000DF842464B4613F0BBF902460B46204620
:10AC6000294613F003F84EA3D3E9002304460D460A
:10AC7000DDE9020113F0ACF922462B4612F0F6FF93
:10AC80000B460246804689465046594612F0EEFF72
:10AC9000474B9E4204460D4600F38E80109B012BCD
:10ACA0003BD002460B460020404913F0BBFA00247B
:10ACB00006460F462046294652465B46CDE90067C8
:10ACC000CDE90201009412F0CFFFDDE900AB0246AE
:10ACD0000B464046494612F0C7FF52465B4613F00A
:10ACE00077F9524604460D465B46DDE9020113F052
:10ACF0006FF900222F4B12F0B9FF02460B46204697
:10AD0000294612F0B3FF32463B4613F061F9524632
:10AD10005B4612F0ABFF04460D462046294607B0BD
:10AD2000BDE8F08FAFF30080182D4454FB21E93FBC
:10AD3000075C143326A6813C0000000000000000E0
:10AD4000D47ABF74702AFB3EE9A7F0320FB8123FE5
:10AD500068108D1AF726303F1583E0FEC8DB573F99
:10AD600093846EE9E326823FFE41B31BBAA1AB3F59
:10AD7000735360DBCB75F3BEA69237A0887E143F79
:10AD80000165F2F2D844433F280356C9226D6D3F56
:10AD900037D60684F464963F7AFE10111111C13F34
:10ADA000635555555555D53FFFFF2F3E0000F0BF69
:10ADB0002794E53F0000F03F109813F0A3F82246D7
:10ADC000CDE900012B462046294613F001F9DDE9C3
:10ADD0000023CDE902012046294612F047FF024632
:10ADE0000B46DDE9020113F01DFA42464B4612F014
:10ADF0003BFF02460B465046594612F035FF0246CD
:10AE00000B4612F033FF02460B46DDE9000112F05B
:10AE10002BFF0446B81700F00200C0F101000D46F8
:10AE200013F070F802460B462046294613F0D0F87E
:10AE300004460D462046294607B0BDE8F08F50462F
:10AE4000594610F031FE02460B4600200A4913F025
:10AE5000E9F904460D4660E7DDE9004501F10041EE
:10AE6000224605F1004382468B46CDE900234AE69F
:10AE700054465D4651E700BF0000F03F000000006F
:10AE80002DE9F04FD24A21F00043934285B082462B
:10AE90008B460C462DD9CF4A93421AD8002C80F20B
:10AEA0001681B5A3D3E900235046594612F0DEFEC1
:10AEB0000022002313F0FEFAC0B9B1A3D3E90023A6
:10AEC0005046594613F084F802460B460020C2490A
:10AED00008E1C24A934240F2D0800346C1F3130214
:10AEE000134340F0F481002980F2C4800020BC4963
:10AEF000C0E0BC4A934200F22981BB4A934240F22F
:10AF0000DE80002301930022B84B5046594613F0CF
:10AF10005FF806460F4602460B465046594613F068
:10AF200057F899A3D3E9002304460D4613F050F8CF
:10AF300097A3D3E9002312F099FE22462B4613F083
:10AF400047F895A3D3E9002312F08EFE22462B4644
:10AF500013F03EF892A3D3E9002312F087FE2246B5
:10AF60002B4613F035F890A3D3E9002312F07CFEB2
:10AF700022462B4613F02CF800229D4B12F076FE51
:10AF80008046894602460B463046394613F020F883
:10AF900002460B460020974912F066FE064602461E
:10AFA0000B460F464046494612F05EFE324680464A
:10AFB00089463B465046594613F00AF802460B466E
:10AFC00000208D4912F050FE02460B46404649468D
:10AFD00013F028F922462B4612F0FAFF019E024692
:10AFE0000B46002E38D0DDE9026732463B4612F0B0
:10AFF0003BFE52465B4612F0EBFF32463B4612F0F8
:10B0000033FE2B46224612F02FFE019B01330646EB
:10B010000F4600F00F81019B012B00F0F180019B96
:10B020000133392B39D8019B132B40F31281019C3A
:10B03000C4F57F75033500222B0512F017FE02467A
:10B040000B465046594612F00FFE0022684B12F094
:10B050000DFE01EB04510DE05046594612F0B8FFC9
:10B0600022462B4612F000FE02460B465046594639
:10B0700012F0FAFD05B0BDE8F08F4DA3D3E900232F
:10B0800013F036FA00283FF409AF4BA3D3E90023AD
:10B090001046194612F09CFFECE752465B4612F050
:10B0A000E3FD02460B460020514912F0DDFD019AF6
:10B0B0004F4B01EB0251002212F0D6FDDAE73EA31E
:10B0C000D3E9002312F0D2FD02460B46CAE72CA3B7
:10B0D000D3E900235046594612F07AFF0B46434904
:10B0E0000246002012F0C2FD13F022FA019012F085
:10B0F00009FF33A3D3E9002306460F4612F068FF89
:10B1000002460B465046594612F0AEFD2EA3D3E937
:10B110000023804689463046394612F059FF0646DC
:10B120000F4632463B464046494612F09DFD0246D8
:10B130000B4682468B464046494612F095FD324604
:10B140003B4612F091FDCDE90201DCE62B4A934229
:10B1500000F2958000291AA3D3E90023C0F2AC8045
:10B1600012F082FD012380468946019316A7D7E994
:10B170000067D6E7AFF3008059F3F8C21F6EA50150
:10B18000FE822B654715F73F2DC3096EB7FD8ABEBA
:10B190003952E686CACFD03EB7DBAA9E19CE143FFD
:10B1A0008555FE19A0015A3FF41011111111A13F4C
:10B1B000EF39FAFE422E86409C7500883CE4377ECB
:10B1C0000000E0FE422EE63F763C7935EF39EA3D5D
:10B1D00079684340412E86400000E0BFFFFFEF7FCB
:10B1E0000000F0BF422ED63FFFFF8F3C0000E03F43
:10B1F0000000F03F0000084000001840B1A2F03FFE
:10B200000022394B5046594613F054F9002844D0D7
:10B21000504659460022354B12F028FD02460B4697
:10B220003046394612F020FD00224FF0404312F024
:10B23000CFFE1FE702460B465046594612F014FD5A
:10B2400000222A4B12F0C4FE0022284B12F00CFD03
:10B2500010E7019C4FF400132341C3F17F5752467E
:10B260005B4612F001FD002607F5401702460B462B
:10B270003046394612F0F8FC01EB0451FAE616A309
:10B28000D3E9002312F0A4FE002C02460B464FF037
:10B290000000FFF61CAE154924E732463B465046F7
:10B2A000594612F0E1FC02460B4612F0DFFC002288
:10B2B0000F4B12F0DBFCDDE612F0D8FC4FF0FF3351
:10B2C00080468946019306A7D7E9006729E7024629
:10B2D0000B4612F0CBFCCDE6FE822B654715F73FFF
:10B2E000763C7935EF39EABD0000D0BF0000E03F81
:10B2F0000000F03F00000000F8B5C1F30A56044614
:10B300000D460B4617460EBB21F00043034386460D
:10B3100025D00022344B12F05BFE344A974204469B
:10B320000D460B462ADBC1F30A56363E3E4440F238
:10B33000FE72964228DC002E12DD23F0FF4323F438
:10B34000E00343EA065520462946F8BD40F2FF7265
:10B350009642EBD102460B4612F088FCF8BDF8BDD0
:10B3600016F1350F1DDA4CF250339F4222462B4620
:10B3700025DC19A1D1E9000112F0E8FB16A3D3E9FD
:10B38000002312F025FEF8BD22462B4614A1D1E978
:10B39000000112F0DBFB12A3D3E9002312F018FE28
:10B3A000F8BD23F0FF4323F4E003363643EA0655A5
:10B3B0002046294600220E4B12F00AFEF8BD08A1D5
:10B3C000D1E9000112F0C2FB05A3D3E9002312F07A
:10B3D000FFFDF8BDAFF3008059F3F8C21F6EA50161
:10B3E0009C7500883CE4377E00005043B03CFFFF72
:10B3F0000000903C10B5054C237833B9044B13B1D1
:10B400000448AFF300800123237010BD1085002095
:10B4100000000000140A04000C4B43B10C480D4915
:10B4200010B5AFF300800C48036823B910BD0A487B
:10B43000036833B97047094B002BF7D0BDE81040C3
:10B440001847064B002BF5D0184700BF000000003E
:10B45000140A04001485002014820020000000005B
:10B46000154B002B08BF134B9D46A3F5803A0021D6
:10B470008B460F461348144A121A07F0CBFF0F4BA6
:10B48000002B00D098470E4B002B00D0984700208F
:10B49000002104000D000D48002802D00C48AFF335
:10B4A000008012F089FB2000290005F049F912F014
:10B4B0006FFB00BF00000800000004200000000037
:10B4C0000000000000840020A88C00200000000084
:10B4D0000000000070B504460E4600F0D1F888B1B7
:10B4E0000368DB6A05469847082C0CD0A4F10903D1
:10B4F000012B14D93246214610230D20BDE870409F
:10B5000004F0D4B970BD2B6828465B6A98470228BE
:10B51000F0DC2B6828461B6A04219847EAE72B6871
:10B5200028465B6A98470528E4DC2B6828461B6A96
:10B5300008219847DEE700BF30B52DED028B83B0C0
:10B54000054600F09DF8044640B10368DB6A984761
:10B55000032D50D8DFE805F0373F470801900198E8
:10B5600003B0BDEC028B30BD20460AF039FD07EE7A
:10B57000900A2046F8EEE78A0AF040FD07EE900AAE
:10B580002046B8EEE78A0AF047FD68EE087A07EE33
:10B59000100AE8EEA87AB8EEC77AE7EE077AF5EE79
:10B5A000407AF1EE10FAB1EEE78A03D517EE900A71
:10B5B00011F040F8FDEEC87ACDED017A019803B0A4
:10B5C000BDEC028B30BD204603B0BDEC028BBDE864
:10B5D00030400AF005BD204603B0BDEC028BBDE84B
:10B5E00030400AF00BBD204603B0BDEC028BBDE835
:10B5F00030400AF011BD00230193B0E738B505468D
:10B6000000F03EF858B10368DB6A0446984745B13C
:10B61000012D04D12046BDE83840FBF79DB800203D
:10B6200038BD2046BDE83840FBF776B810B5044673
:10B6300000F026F828B1036821461B6ABDE81040D7
:10B64000184710BD0048704716FCFFFF704700BF49
:10B6500010B5034B036004460AF0BEFA204610BD45
:10B66000F0FE030010B5054B036004460AF0B4FA7F
:10B67000204613F0EFF9204610BD00BFF0FE030096
:10B680002DE9F043C14C236885B01BB1986805B023
:10B69000BDE8F0834FF0FF31012001F045FDC0B25D
:10B6A00004F0F6FB002800F006810C2013F0D4F91A
:10B6B00003210646512001F037FDDFF8F4E2B44BD8
:10B6C000054605F00F07C5F3031815F4807518BF7C
:10B6D0007346B0483946424609F004FC2A1C18BF9C
:10B6E00001223946434630460DF070F80023AA483F
:10B6F000B36009F0F7FB4FF0FF31032001F014FDB8
:10B70000C0B204F0C5FB4FF0FF310546022001F046
:10B710000BFDC0B204F0BCFB002D59D0002857D05F
:10B720000146284604F0A4F90746002800F0BF802F
:10B730004FF0FF31462001F0F7FC382880465CD0FE
:10B7400029DD3A2800F09B80682870D14FF0FF3146
:10B75000012001F0E9FCC0B204F09AFB81465C20B4
:10B7600013F07AF90523054601934A46CDF8008087
:10B77000394633460BF068FD2846B06003689B6A83
:10B780009847B0680368DB6A9847844809F0AAFBC9
:10B790002660B0687BE7302801D0322847D14FF0CF
:10B7A000FF31012001F0C0FCC0B204F071FB814602
:10B7B000542013F051F91FFA88F1054605234A4633
:10B7C00000910193394633460BF010FB2846D4E72D
:10B7D000734809F087FB4FF0FF31192001F0A4FCFA
:10B7E000C0B204F055FB4FF0FF310546182001F0C0
:10B7F0009BFCC0B204F04CFB92E74FF0FF310120FC
:10B8000001F092FCC0B204F043FB8146502013F0DB
:10B8100023F9052305464A46CDF8008039460193B1
:10B8200033460BF0EDFB5F4B2B602846A5E73A68EB
:10B830000125002301950095D2F82480B3600F22E2
:10B840000DF10F0332213846C04700283FD14FF099
:10B8500032084146544809F045FB4FF0FF310120C2
:10B8600001F062FCC0B204F013FB8146542013F0D7
:10B87000F3F8052305464A46CDF80080A1E74FF0CE
:10B88000FF31012001F050FCC0B204F001FB814601
:10B89000502013F0E1F80523054601934A46CDF800
:10B8A0000080394633460BF0ABFB284665E73F483E
:10B8B00009F018FB6CE74FF0FF31032001F034FC76
:10B8C000C0B204F0E5FA00287FF4EFAEDFE63B6893
:10B8D00001950095D3F824800F220DF10F0330213C
:10B8E0003846C04718B94FF030084146B2E73B68C8
:10B8F00001950095D3F824800D220DF10F03382116
:10B900003846C047C0B93821274809F0EBFA4FF054
:10B91000FF31284601F008FCC0B204F0B9FA8046B5
:10B92000502013F099F84FF0050E38230546424693
:10B9300039468DE8084073E73B6801950095D3F8D8
:10B9400024800D220DF10F033A213846C04788BBF1
:10B950003A21154809F0C6FA4FF0FF31284601F0A8
:10B96000E3FBC0B204F094FA8046502013F074F860
:10B970004FF0050E3A2305468DE808404246394609
:10B9800033460BF03DFB2846F7E600BF2C85002030
:10B990000CF3030014F3030034F30300CCF30300AF
:10B9A00044F30300D0F20300F0F3030058F3030064
:10B9B00004F303003A6801950095D2F824800DF154
:10B9C0000F03752268213846C047E0B968211A483C
:10B9D00009F088FA4FF0FF31284601F0A5FBC0B20C
:10B9E00004F056FA80465C2013F036F84FF0050E4E
:10B9F000682305468DE808404246394633460BF039
:10BA000023FC2846B9E60D4809F06CFAB068002816
:10BA10007FF4B4AE4FF0FF31032001F085FBC0B2DC
:10BA200004F036FA18B1064809F05CFAB0E60548A9
:10BA300009F058FAACE600BFF0F30300DCF30300B2
:10BA400070F30300ACF3030008B501F095FCFBF7BD
:10BA500027FCBDE8084001F0FDB900BF08B501F0C2
:10BA60008BFCFBF78DFCBDE8084001F0F3B900BF8B
:10BA700008B501F081FC10F08DF8BDE8084001F038
:10BA8000E9B900BF08B501F077FC10F095FCBDE8FE
:10BA9000084001F0DFB900BF08B501F06DFCFBF70D
:10BAA0000FFCBDE8084001F0D5B900BF08B501F0B2
:10BAB00063FC10F0ADFABDE8084001F0CBB900BF5F
:10BAC00008B501F059FCFAF767FEBDE8084001F03F
:10BAD000C1B900BF08B501F04FFC10F0EDF9BDE8A9
