:020000040002F8
:106000000000042025B703004DB703004FB703007D
:1060100051B7030053B7030055B703000000000059
:1060200000000000000000000000000057B703005F
:1060300059B70300000000005BB703005DB7030021
:106040005FB703005FB70300C5B5030089B5030060
:106050009DB503005FB70300F9A603007DBC0300F4
:10606000ADB10300B5B10300BDB103005FB70300DC
:106070005FB703005FB703005FB703005FB70300BC
:106080005FB703005FB703005FB703005FB70300AC
:106090005FB703005FB703005FB703005FB703009C
:1060A0005FB703005FB70300C5B10300CDB10300C4
:1060B0005FB703005FB703000000000000000000AE
:1060C0005FB703005FB703005FB70300B1B503001C
:1060D0005FB703005FB703005FB703005FB703005C
:1060E000EDB503005FB703005FB7030000000000D9
:1060F000000000005FB7030000000000D9B50300F6
:10610000000000000000000000000000000000008F
:10611000000000000000000000000000000000007F
:10612000000000000000000000000000000000006F
:10613000000000000000000000000000000000005F
:10614000000000000000000000000000000000004F
:10615000000000000000000000000000000000003F
:10616000000000000000000000000000000000002F
:10617000000000000000000000000000000000001F
:10618000000000000000000000000000000000000F
:1061900000000000000000000000000000000000FF
:1061A00000000000000000000000000000000000EF
:1061B00000000000000000000000000000000000DF
:1061C00000000000000000000000000000000000CF
:1061D00000000000000000000000000000000000BF
:1061E00000000000000000000000000000000000AF
:1061F000000000000000000000000000000000009F
:106200007CB0EE877CB0EE87FF00FF00FF00FF0050
:10621000FF00FF00FF00FF00FF00FF00FF00FF0086
:10622000FF00FF00FF00FF00FF00FF00FF00FF0076
:10623000FF00FF00FF00FF002DE9F04F85B0039144
:106240000778A7F10903042B044607F07F0200F149
:106250000100F5D9202AF3D02B2F04BF677804461C
:106260002D2F72D09FED427B8DED007B4FF000080B
:106270004FF000098FB34FF0000E4FF0000ADFF827
:1062800000B1754619E018F039FD80468946304660
:1062900018F0CEFC42464B4618F07EFB5246804634
:1062A00089465B46DDE9000135B318F051FECDE9C2
:1062B0000001AE4614F8017F7FB1A7F13006092E28
:1062C00052465B4640464946DDD9C5B92E2F16D108
:1062D00014F8017F0125002FEFD142464B46DDE93E
:1062E000000118F00BFD80468946039B4046494655
:1062F0001C6005B0BDE8F08F4FF0010EDAE7BEF18B
:10630000000F29D042464B46DDE9000118F0F6FCAB
:1063100007F0DF07452F80468946E6D10399601CC8
:106320000A2218F01DFB16490246002019F046F813
:1063300002460B464046494618F0E0FC8046894636
:106340004046494605B0BDE8F08F9FED0B7B67786E
:106350008DED007B013489E7DFF828904FF00008CD
:106360004046494605B0BDE8F08F00BFAFF300805E
:10637000000000000000F03F000000000000F0BF3F
:10638000000024400000F87F2DE9F84F1646002356
:10639000002204460D4618F023FF002840F09D809F
:1063A000002200232046294618F010FF28B1302291
:1063B000002332707370BDE8F88F2046294616F02E
:1063C0000FFE18F04BFF7BA3D3E90023814629463B
:1063D000204618F005FF002800F08680B9F1000F74
:1063E000C0F2BE804A4600206F4918F0E7FF02461F
:1063F0000B462046294618F0ABFD04460D4666A123
:10640000D1E9000101274FF0000822462B4618F081
:1064100075FC0022654B18F0BFFA19F00BF8002F3D
:10642000CC464FF0FF3AC1464FF0000840F385805C
:10643000DFF888E15E4C0122AEF1700945F6F325E4
:106440004FF02E0BA94208BFA0424FF0300309D3F2
:10645000001B61EB0501A94208BFA04203F1010343
:10646000F6D2DBB2337050EA010306F1010409D120
:10647000BA4210DACE4502F101020CD026467EE87F
:106480000245DFE7BA4204BF86F801B0B41CCE452E
:1064900002F10102F2D1B8F1000F0DD022463021F5
:1064A00002F8011BC2F1010353442344002BF7DC23
:1064B0002AEAEA7301331C44BCF1010F4CD0652376
:1064C000BCF1000F2370C5BF2B236370611CA11C9E
:1064D0006046BDE8F84F0FF08FB905F100431D4647
:1064E0002D23337001365BE72DA3D3E9002320462B
:1064F000294618F093FE00287FF470AFB9F10E0F13
:1065000009F101073DDDA9F10E08424600202649A8
:1065100018F054FF02460B462046294618F018FD95
:106520000022224B18F038FA18F084FF002FA9F14E
:106530000F0A4FF0010C3FF77BAF334630222E2479
:1065400003F8022B74707FEA090618D01E4403F882
:10655000012BB342FBD16BE700232370BDE8F88F1A
:10656000C9F100020020104918F028FF02460B462E
:106570002046294618F0C2FB04460D463FE71E465A
:1065800056E7C9F10E0200200749C84618F016FF69
:106590004FF0010939E700BF0000901EC4BCD6428D
:1065A00050EFE2D6E41A4B44000024400000E03FE4
:1065B00000407A108DEDB5A0F7C6B03E40FF030055
:1065C00070B54FF0FF3006F07BFA04466FF07F4065
:1065D00006F076FA0646204618F01AFB00220C4B0D
:1065E00018F08CFB044630460D4618F011FB06A34C
:1065F000D3E9002318F0ACFC02460B46204629469E
:1066000018F0CAF970BD00BF0000E0DFFFFF6F4364
:106610000000F03D000000002DE9F04F2DED028B51
:10662000044683B0C06818F003FB804620698946A1
:1066300018F0FEFA824660698B4618F0F9FA0246B5
:1066400001F1004306460F464046494616F074FBEA
:1066500018F04CFEE062054616F022FA019028463A
:1066600016F0D2F9019B0546184618F0F3FA424697
:106670004B4618F043FB80462846894618F0EAFA54
:1066800032463B4618F03AFB02460B464046494626
:1066900018F080F902460B465046594616F04CFB5E
:1066A00018F024FE002208EE100A00233046394676
:1066B00018F0B4FD28B3B5EEC08AF1EE10FA1CDD77
:1066C00011A7D7E9006718EE100A18F0C3FA0246BE
:1066D0000B463046394618F05DF932463B4618F015
:1066E0005BF918F003FEA062E38843F00203E38045
:1066F00003B0BDEC028BBDE8F08F05A7D7E90067BA
:10670000E1E784ED0A8AEFE7EA2E4454FB21F93FE2
:10671000EA2E4454FB21F9BF08B510F01DFBDFED54
:106720000C7A07EE100A67EE277A17EE900A18F037
:1067300091FA05A3D3E9002318F00AFC18F08EFDA6
:1067400008BD00BFAFF30080EA2E4454FB2119407E
:106750000000B4430000000008B510F011FBDFEDAD
:106760000C7A07EE100A67EE277A17EE900A18F0F7
:1067700071FA05A3D3E9002318F0EAFB18F06EFDC7
:1067800008BD00BFAFF30080EA2E4454FB2119403E
:106790000000B44300000000494A21F00043934246
:1067A0002DE9704304460D464BDC464A93420E46A3
:1067B0000EDC3FA3D3E9002318F0EEF80022424B91
:1067C00018F02CFD00284CD020462946BDE87083E7
:1067D0003E4A93423BDCB3F1804F42DD15F0FAFFB5
:1067E0002246804689462B462046294618F086FADE
:1067F0000022354B18F0D0F816F02AFF02460B465F
:106800004046494618F0C8F802460B4600202E497B
:1068100018F09EFB424604460D464B46404649460C
:1068200018F0BAF802460B462046294618F0B4F88C
:1068300002F06AF8002EC9DC01F100431946BDE8F8
:10684000708302460B4618F0A7F8BDE8708315F078
:10685000C1FF02F059F818A3D3E9002318F09CF8FF
:10686000E8E722462B462046294618F047FA80469C
:1068700089462046294615F0ADFF002204460D4604
:10688000114B4046494618F087F816F0E1FE002209
:106890000D4B18F081F802460B464046494618F069
:1068A00057FB22462B4618F077F800F0C5FAC1E7EF
:1068B0009C7500883CE4377EEF39FAFE422EE63FB5
:1068C000FFFFEF7FFFFF2F3E0000F03F0000B041D1
:1068D0002DE9F84FC44B21F000469E4204460D4678
:1068E0008A460EDDC14B9E4200F3AC8000F0A780CB
:1068F000BAF1000F40F3EA809FA1D1E90001BDE8A1
:10690000F88FBB4B9E4200F3B580A3F1DE739E422D
:1069100040F3A0804FF0FF3B22462B4620462946FD
:1069200018F0ECF902460B468046894618F0E6F965
:1069300093A3D3E9002306460F4618F0DFF992A38C
:10694000D3E9002318F028F832463B4618F0D6F970
:106950008FA3D3E9002318F01FF832463B4618F006
:10696000CDF98DA3D3E9002318F016F832463B4643
:1069700018F0C4F98AA3D3E9002318F00DF83246C1
:106980003B4618F0BBF988A3D3E9002318F004F8BC
:1069900042464B4618F0B2F985A3D3E9002380465E
:1069A00089463046394618F0A9F983A3D3E9002374
:1069B00017F0F0FF32463B4618F0A0F980A3D3E968
:1069C000002317F0E7FF32463B4618F097F97EA305
:1069D000D3E9002317F0DEFF32463B4618F08EF96C
:1069E0007BA3D3E9002317F0D5FF32463B4618F0CE
:1069F00085F9BBF1FF3F02460B466CD04046494645
:106A000017F0CAFF22462B4618F078F9794E7A4BD8
:106A10004FEACB0B5E449B44DBE9002317F0BAFF3F
:106A200022462B4617F0B6FF02460B46D6E9000178
:106A300017F0B0FFBAF1000F43DBBDE8F88F002874
:106A40003FF456AF22462B462046294617F0A4FFB6
:106A5000BDE8F88F60A3D3E9002317F09DFF002263
:106A6000664B18F0DBFB00283FF454AF2046294664
:106A7000BDE8F88F15F0AEFE614B9E4204460D4610
:106A800039DCA3F550239E425EDC02460B4617F02C
:106A900083FF0022594B17F07DFF002206460F4668
:106AA0004FF080432046294617F076FF02460B46FA
:106AB0003046394618F04CFA4FF0000B04460D46AC
:106AC0002AE701F100431946BDE8F88F44A1D1E956
:106AD0000001BDE8F88F4046494617F05DFF2246A9
:106AE0002B4618F00BF902460B462046294617F0B4
:106AF00051FFBDE8F88F434B9E421ADC0022424B07
:106B000017F048FF002206460F463F4B2046294615
:106B100018F0F4F80022394B17F03EFF02460B46FE
:106B20003046394618F014FA4FF0020B04460D4671
:106B3000F2E602460B460020344918F009FA4FF0FD
:106B4000030B04460D46E7E600222C4B17F022FF0C
:106B5000002206460F46294B2046294617F01CFF07
:106B600002460B463046394618F0F2F94FF0010B59
:106B700004460D46D0E600BF182D4454FB21F93FD2
:106B800011DA22E33AAD903FEB0D76244B7BA93F1F
:106B9000513DD0A0660DB13F6E204CC5CD45B73FED
:106BA000FF8300922449C23F0D5555555555D53F99
:106BB0002F6C6A2C44B4A2BF9AFDDE522DDEAD3F8D
:106BC0006D9A74AFF2B0B33F711623FEC671BC3F2D
:106BD000C4EB98999999C93F9C7500883CE4377E2D
:106BE000182D4454FB21F9BFFFFF0F440000F07F34
:106BF000FFFFDB3F50FF030070FF03000000F03F8A
:106C0000FFFFF23FFF7F03400000F83F0000F0BFAE
:106C10002DE9F843C1F30A59A9F2FF35132D0246B5
:106C20000B460C4606468846074622DC002D50DB04
:106C3000DFF8F09049FA05F901EA090E5EEA060666
:106C40001CD036A3D3E9002317F0A6FE00220023B0
:106C500018F0E4FA48B1002C04DD4FF4801343FA35
:106C600005F5A84428EA0904002721463846BDE86E
:106C7000F883332D06DDB5F5806F3DD010461946FB
:106C8000BDE8F883A9F213494FF0FF3E2EFA09F947
:106C900010EA090FF2D021A3D3E9002317F07CFEFC
:106CA0000022002318F0BAFA0028DED0002C09DDFB
:106CB000142D2BD00127C5F1340507FA05F5AE19BF
:106CC00028BFB844444626EA090721463846BDE8AD
:106CD000F88312A3D3E9002317F05EFE00220023FD
:106CE00018F09CFA0028C0D0002C0BDB54EA0607F1
:106CF00006D00027084CB8E717F04EFEBDE8F88331
:106D00003C46B2E700274FF00044AEE704F101082B
:106D1000D8E700BFAFF300800000F03F9C7500880B
:106D20003CE4377EFFFF0F002DE9F041C1F30A5725
:106D3000A7F2FF35132D02460B460C468846064641
:106D40001CDC002D3FDB3A4F2F41864601EA070C41
:106D50005CEA0E0E17D034A3D3E9002317F01CFE13
:106D60000022002318F05AFA20B1002C3FDB28EA59
:106D70000704002621463046BDE8F081332D06DDAC
:106D8000B5F5806F2FD010461946BDE8F081A7F207
:106D900013474FF0FF3E2EFA07F73842F3D022A3F5
:106DA000D3E9002317F0F8FD0022002318F036FA8B
:106DB0000028DFD0002C20DB444626EA07062146C7
:106DC0003046BDE8F08118A3D3E9002317F0E4FDB5
:106DD0000022002318F022FA0028CBD0002C17DB69
:106DE00000263446C6E717F0D7FDBDE8F0814FF422
:106DF000801343FA05F5A844B9E7142D10D00123F8
:106E0000C5F1340503FA05F5AE1928BF9844D3E758
:106E100024F00042074B324318BF1C460026A9E766
:106E200004F10108C8E700BF9C7500883CE4377E88
:106E3000FFFF0F000000F0BF2DE9F04FD84B994243
:106E400087B0804689460E4613DCD64B21F00044BD
:106E50009C4218DD0022D44B18F0B8F9002879D0F4
:106E6000002200230020D14918F072F807B0BDE8D5
:106E7000F08FCF4B99422FDD42464B4617F08CFDE9
:106E800007B0BDE8F08FCB4B9C4270DDCA4B1E446F
:106E90009E427ED80022C94B4046494617F07CFDF1
:106EA0004FEA215AAAF2FF3ABAF1000F04460D4602
:106EB0000E4640F3DE8142464B4617F06BFD02461C
:106EC0000B460020BD4917F065FD22462B4618F001
:106ED0003FF8CDE902010BE0B94B9E42DADD9FEDB0
:106EE0009A7B8DED027B4FEA265A4446AAF2FF3A7E
:106EF000B44BC6F313069E4246F07F5500F3E7807D
:106F000045F44015204629460022AC4B17F042FDBF
:106F1000002204460D46AC4B17F0F0FE22462B46ED
:106F200017F0ECFEA046CDE90401A946CDE9000129
:106F3000002E3AD1002200232046294618F046F9B7
:106F4000002800F0CE80BAF1000F40F074810020DC
:106F5000002195E742464B464046314617F01AFD60
:106F600002460B4617F0F4FF07B0BDE8F08F002291
:106F7000964B17F011FD0022002318F04FF900285E
:106F800000F0CC80924B9C4200F3C88040464946BA
:106F900076E700228C4B17F0B1FE42464B4617F0C5
:106FA000ADFECDE900014FF0000A00224FF0804312
:106FB0004046494617F0F0FC02460B46404649461B
:106FC00017F0C6FF02460B4606460F4617F096FE20
:106FD0005FA3D3E9002304460D4617F08FFE5EA39E
:106FE000D3E9002317F0D8FC22462B4617F086FE83
:106FF0005BA3D3E9002317F0CFFC22462B4617F002
:107000007DFE59A3D3E9002317F0C6FC22462B4688
:1070100017F074FE56A3D3E9002317F0BDFC2246F7
:107020002B4617F06BFE54A3D3E9002317F0B4FCF2
:1070300022462B4617F062FE51A3D3E9002317F036
:10704000ABFC22462B4617F059FE04460D46BAF11A
:10705000000F00F0BF80504617F0EAFD4AA3D3E9C5
:10706000002382468B4617F049FEDDE90023CDE977
:1070700004012046294617F08FFC32463B4617F0A4
:107080003DFE43A3D3E9002304460D46504659462E
:1070900017F034FEDDE9022317F07EFC02460B46B2
:1070A0002046294617F078FC02460B46DDE9000130
:1070B00017F070FC42464B4617F06CFC02460B463C
:1070C000DDE9040117F066FC07B0BDE8F08F45F478
:1070D0000015C6F5801620462946B6100AF1010AA9
:1070E00012E72DA3D3E900232046294617F006FE18
:1070F00002460B460020314917F04CFCDDE9042321
:1071000017F0FCFD06460F46BAF1000F73D1024698
:107110000B462046294617F03DFCB1E642464B4659
:107120004046494617F0EAFD0022274B17F0E6FDDE
:1071300002460B464046494617F02CFC07B0BDE816
:10714000F08F00BFAFF300800000000000000000DF
:1071500044523EDF12F1C23F9FC678D0099AC33F26
:10716000DE03CB966446C73FAF788E1DC571CC3F1A
:10717000599322942449D23F04FA97999999D93F77
:10718000935555555555E53F0000E0FE422EE63F2C
:10719000763C7935EF39EA3D555555555555E53F1E
:1071A0007982DA3FFFFFEF3F0000F0BF000050C3DD
:1071B000FFFFEF7FFFFF1F3E3C412D400000F03FEF
:1071C000FFFF3F439DA006000000E03F000050434A
:1071D000FFFF8F3CDDE9004522462B4617F0DCFB24
:1071E00032463B4617F08AFD02460B4620462946AA
:1071F00017F0D0FB9CE7504617F01AFD23A3D3E904
:10720000002382468B4617F079FD22A3D3E90023A1
:10721000804689465046594617F070FDDDE9022345
:1072200017F0BAFB02460B463046394617F0B2FB60
:1072300022462B46DCE7504617F0FAFC15A3D3E9AB
:10724000002306460F4617F059FDDDE9022317F02B
:10725000A3FB0EA3D3E9002304460D46304639466E
:1072600017F04CFD02460B462046294617F094FBCA
:1072700006E60022044B17F08DFB02460B46404603
:10728000494617F087FB20E60000F03F0000E0FED3
:10729000422EE63F763C7935EF39EA3D00000000AA
:1072A00008B515F01DFE04A3D3E9002317F050FE26
:1072B00008BD00BFAFF30080EF39FAFE422EE63F73
:1072C0002DE9F043DFF8B4808BB004460D4601F0A1
:1072D000F3F898F90030013306460F462BD02246CA
:1072E0002B462046294617F0A3FF814618BB2046AF
:1072F000294615F06FFA1FA3D3E9002317F08EFF7C
:10730000C8B1194A98F90030CDF820900321CDE991
:107310000445CDE902458DE806008BB9134B4FF0CB
:107320006042CDE90623684617F036F970B1089B34
:107330009BB9DDE90667304639460BB0BDE8F083FE
:107340000B490020022BCDE90601ECD117F0B0FA71
:1073500022230360089B002BEBD017F0A9FA089BAF
:107360000360E6E7AFF3008068110400FFFFEF471A
:107370000000F07F7DF8B98FCE338640FF8100207A
:107380002DE9F043DFF8E4808BB004460D4601F0B0
:1073900043F998F90030013306460F4633D02046B2
:1073A000294617F0F3F870B32CA3D3E90023204645
:1073B000294617F033FF814650BB2AA3D3E90023A7
:1073C0002046294617F00CFFE8B198F90030204A12
:1073D000CDF82090002600270421022BCDE904459A
:1073E000CDE90245CDE906678DE8060029D068465B
:1073F00017F0D2F828B3089B1BB117F059FA089B75
:107400000360DDE90667304639460BB0BDE8F0831E
:107410000F4A98F90030019203210022CDE904457A
:10742000CDE90245009108922BB90A4B4FF060421A
:10743000CDE90623DBE708490020022BCDE9060150
:10744000D5D117F035FA22230360D4E7AFF30080DB
:1074500070110400FFFFEF470000F07FEF39FAFEE4
:10746000422E864051302DD5104987C0FF81002023
:107470002DE9F04FDFF80C938DB006460F46144609
:107480001D4601F0C5FC99F90080B8F1FF3FCDE938
:10749000000136D022462B462046294617F0C8FE6A
:1074A000834670BB32463B463046394617F0C0FE35
:1074B0008246002840F0A280304639460022002350
:1074C00017F084FE10B3002200232046294617F04F
:1074D0007DFE834600286AD09FEDA17B0122A44B4C
:1074E000CDF828A00292CDE90467CDE906458DEDDF
:1074F000087B0393B8F1000F45D09FED9B7B8DED8A
:10750000007BDDE900010DB0BDE8F08FDDE9000191
:1075100017F03CF88046002800F08D804FF0000AFC
:107520004FF0000BDDE9000152465B4617F04EFEBE
:107530000028E6D03046394617F028F80028E0D079
:107540002046294617F022F80028DAD099F90030B1
:10755000874A039204210022022BCDE90467CDE97A
:107560000645CDE908AB02910A9203D002A817F0B4
:1075700013F868B917F09CF92223036008E09FED27
:10758000787B8DED087B02A817F006F8002830D034
:107590000A9B1BB117F08CF90A9B03609DED087BD9
:1075A0008DED007BDDE900010DB0BDE8F08F2046D8
:1075B000294616F0EBFF0028A3D000220023204626
:1075C000294617F00DFE00289BD099F90030684A33
:1075D000CDF828B00121CDE90467CDE90645029137
:1075E0000392002BCBD063490020022BCDE9080188
:1075F000C9D117F05DF921230360C9E700220023F8
:107600002046294617F0E2FD00283FF47AAF5A4B96
:107610005749CDF828B000220120B8F1020FCDE97A
:1076200004670290CDE90645CDE908230391AAD16C
:10763000CDE9002365E73046394616F0A7FF00285C
:107640003FF46CAF2046294616F0A0FF00283FF417
:1076500065AFDDE900231046194617F0E9FD002863
:107660005FD1032399F900800293414B0A90CDE941
:107670000467CDE906450393B8F1000F2BD1DFF87D
:1076800008B14FF0604A0022002330463946CDE968
:1076900008AB17F0A5FD00283FF468AF0022374B78
:1076A0002046294617F02AFB04460D4616F07CFFBB
:1076B00002460B462046294617F088FD70BB304B2A
:1076C00099F900804FF06042CDE90823B8F1020F2C
:1076D0007FF44CAF4EE7DFF8B4B04FF0000A002261
:1076E000002330463946CDE908AB17F079FD002874
:1076F000ECD00022214B2046294617F0FFFA044621
:107700000D4616F051FF02460B462046294617F05B
:107710005DFD18B9174B0022CDE9082399F90080C7
:10772000D4E799F90090124BCDF828800122CDE9D9
:107730000467CDE9064502920393B9F1000F3FF4C7
:107740001EAF002200231046194617F001FCB9F1C4
:10775000020FCDE908013FF44CAF14E7AFF300800E
:107760000000000000000000000000000000F03FEA
:10777000881104000000F0FF0000F03F0000E03F2F
:10778000FFFFEFC7FF810020FFFFEF470000F07F02
:107790002DE9F84FC44E21F00043B34204460D4694
:1077A0000DDD03F1404303F58013034340F0B9803E
:1077B000002940F3408100200021BDE8F88FBB4E36
:1077C000B34240F3A6800029C0F2788102460B46FE
:1077D0000020B74917F0DEF80022B64B17F08EFAFA
:1077E00004460D4615F034FF95A3D3E900238946DE
:1077F00080462946204617F081FA93A3D3E9002357
:1078000017F0CAF822462B4617F078FA90A3D3E96E
:10781000002317F0BFF822462B4617F06FFA8EA30D
:10782000D3E9002317F0B8F822462B4617F066FA82
:107830008BA3D3E9002317F0ADF822462B4617F0AF
:107840005DFA89A3D3E9002317F0A6F822462B4658
:1078500017F054FA86A3D3E9002382468B462046CC
:10786000294617F04BFA84A3D3E9002317F092F8C6
:1078700022462B4617F042FA81A3D3E9002317F0E2
:107880008BF822462B4617F039FA7FA3D3E9002361
:1078900017F080F822462B4617F030FA0022844B6E
:1078A00017F07AF802460B465046594617F050FB3F
:1078B00042464B4617F022FA002682468B46324655
:1078C0004B463046494617F019FA02460B46204609
:1078D000294617F05FF8324604460D464B464046AF
:1078E000494617F059F802460B462046294617F03C
:1078F0002FFB02460B465046594617F04DF83246CC
:107900004B4617F049F802460B4617F045F8BDE81C
:10791000F88F694A93420EDC5DA1D1E90001BDE810
:10792000F88F02460B4617F035F802460B4617F063
:107930000FFBBDE8F88F02460B4617F0DFF940A3B6
:10794000D3E9002306460F4617F0D8F93EA3D3E942
:10795000002317F021F832463B4617F0CFF93CA33D
:10796000D3E9002317F016F832463B4617F0C6F964
:1079700039A3D3E9002317F00FF832463B4617F03E
:10798000BDF937A3D3E9002317F004F832463B468C
:1079900017F0B4F934A3D3E9002316F0FDFF324603
:1079A0003B4617F0ABF932A3D3E900238046894662
:1079B0003046394617F0A2F92FA3D3E9002316F079
:1079C000E9FF32463B4617F099F92DA3D3E900238E
:1079D00016F0E2FF32463B4617F090F92AA3D3E9AE
:1079E000002316F0D7FF32463B4617F087F90022F6
:1079F0002F4B16F0D1FF02460B464046494617F082
:107A0000A7FA22462B4617F079F902460B4622A127
:107A1000D1E9000116F0BEFF02460B46204629467A
:107A200016F0B8FF02460B4619A1D1E9000116F085
:107A3000B1FFBDE8F88F1AA1D1E90001BDE8F88FC8
:107A400009F7FD0DE13D023F88B20175E0EF493FC6
:107A50003B8F68B52882A43F5544880E55C1C93F65
:107A60007D6FEB0312D6D43F555555555555C53F3F
:107A700082922EB1C5B8B33F59018D1B6C06E63F0B
:107A8000C88A599CE52A00404B2D8A1C273A03409E
:107A9000182D4454FB21F93F075C143326A6913C72
:107AA000182D4454FB210940FFFFEF3FFFFFDF3F4C
:107AB0000000F03F0000E03F0000603C00225C4B13
:107AC00016F06AFF00225B4B17F018F940A3D3E9C8
:107AD000002304460D4617F011F93FA3D3E9002314
:107AE00016F05AFF22462B4617F008F93CA3D3E9BB
:107AF000002316F04FFF22462B4617F0FFF83AA35B
:107B0000D3E9002316F048FF22462B4617F0F6F87B
:107B100037A3D3E9002316F03DFF22462B4617F08A
:107B2000EDF835A3D3E9002316F036FF22462B46A5
:107B300017F0E4F8804689462046294615F088FD6E
:107B40002FA3D3E9002306460F462046294617F007
:107B5000D5F82DA3D3E9002316F01CFF22462B46AF
:107B600017F0CCF82AA3D3E9002316F015FF22461C
:107B70002B4617F0C3F828A3D3E9002316F00AFF19
:107B800022462B4617F0BAF80022294B16F004FFC4
:107B900002460B464046494617F0DAF932463B4664
:107BA00017F0ACF81EA3D3E9002316F0F3FE32461B
:107BB0003B4616F0F1FE02460B4616F0EDFE02467D
:107BC0000B4619A1D1E9000116F0E4FEBDE8F88FDB
:107BD00009F7FD0DE13D023F88B20175E0EF493F35
:107BE0003B8F68B52882A43F5544880E55C1C93FD4
:107BF0007D6FEB0312D6D43F555555555555C53FAE
:107C000082922EB1C5B8B33F59018D1B6C06E63F79
:107C1000C88A599CE52A00404B2D8A1C273A03400C
:107C2000075C143326A6913C182D4454FB210940CF
:107C30000000F03F0000E03F434A91422DE9F84345
:107C400004460D4639DD414A914209DD02F179527F
:107C5000914240DD02460B4616F09EFEBDE8F883D9
:107C600001F1404202F58012024330D0B1F1804F61
:107C70003ADC0022364B16F08DFE02460B460446D7
:107C80000D4616F089FE224606460F462B46204634
:107C9000294617F033F802460B463046394616F0AF
:107CA0007BFE15F0D5FC0B4602462946204616F011
:107CB00073FEBDE8F843FFF7BFB802460B4616F067
:107CC00069FE02460B4617F043F9BDE8F883002031
:107CD0000021BDE8F88300F017FE19A3D3E90023C3
:107CE00016F05AFEBDE8F88302460B4617F006F878
:107CF0000022174B16F04EFE15F0AAFC22468046D5
:107D000089462B462046294616F046FE4246064640
:107D10000F464B462046294616F03EFE02460B46CD
:107D200000200B4917F014F90B460246394630463D
:107D300016F030FEBDE8F84300F0E6BDAFF300807A
:107D4000EF39FAFE422EE63FFFFFEF3FFFFFAF4164
:107D50000000F03F000000002DE9F047BE4B21F08D
:107D60000048984584B004460D4612DD08F14048AD
:107D700008F58018034658EA030321D002460B4653
:107D800016F008FE02460B4617F0E2F804B0BDE814
:107D9000F087B24B98458A4629DCB8F1795F80F2CA
:107DA000658191A3D3E9002316F0F6FD0022AC4BC8
:107DB00017F034FAD8B12046294604B0BDE8F08760
:107DC0008BA3D3E9002316F099FF8BA3D3E90023FB
:107DD00006460F462046294616F090FF02460B46FF
:107DE0003046394616F0D8FD04B0BDE8F08720468D
:107DF000294614F0EFFC02460B460020984916F085
:107E0000C9FD0022974B16F079FF7DA3D3E900232B
:107E100004460D4616F072FF7BA3D3E9002316F04B
:107E2000BBFD22462B4616F069FF79A3D3E9002358
:107E300016F0B0FD22462B4616F060FF76A3D3E97C
:107E4000002316F0A9FD22462B4616F057FF74A317
:107E5000D3E9002316F09EFD22462B4616F04EFF76
:107E600071A3D3E9002316F097FD22462B4616F0A6
:107E700045FF6FA3D3E90023CDE900012046294641
:107E800016F03CFF6CA3D3E9002316F083FD2246D5
:107E90002B4616F033FF6AA3D3E9002316F07CFDCE
:107EA00022462B4616F02AFF67A3D3E9002316F0DB
:107EB00071FD22462B4616F021FF694B002216F079
:107EC0006BFDCDE902012046294615F0C1FB664B4A
:107ED000984506460F4666DCDDE90223DDE9000130
:107EE00017F036F83246CDE900013B4630463946B8
:107EF00016F052FD02460B46DDE9000116F0FEFECB
:107F00004FF00008CDE9000142463B464046394665
:107F100016F0F4FE02460B462046294616F03AFDBE
:107F2000424604460D463B463046394616F034FD7F
:107F300002460B462046294617F00AF802460B4631
:107F400016F02AFD02460B462BA1D1E9000116F0DE
:107F500021FD02460B46DDE9000116F01BFD4246FD
:107F600004460D463B464046394616F015FD02468E
:107F70000B4637A1D1E9000116F00CFD02460B4675
:107F80002046294616F006FD02460B4630A1D1E9EF
:107F9000000116F0FFFCBAF1000F3FF7F7AE01F158
:107FA00000431946F2E6DDE90223DDE9000116F09F
:107FB000CFFF32463B4616F0A1FE32463B4616F056
:107FC000EBFC02460B4616F0E7FC0BA3D3E90023BB
:107FD00016F0E0FC02460B4605A1D1E9000116F0BF
:107FE000D9FCD8E7AFF300809C7500883CE4377E6D
:107FF000182D4454FB21F93F075C143326A6913C0D
:1080000009F7FD0DE13D023F88B20175E0EF493F00
:108010003B8F68B52882A43F5544880E55C1C93F9F
:108020007D6FEB0312D6D43F555555555555C53F79
:1080300082922EB1C5B8B33F59018D1B6C06E63F45
:10804000C88A599CE52A00404B2D8A1C273A0340D8
:10805000182D4454FB21E93FFFFFEF3FFFFFDF3FB7
:108060000000F03F0000E03F3233EF3F02460B4696
:1080700016F044FE37A3D3E9002306460F4616F058
:108080003DFE36A3D3E9002316F086FC32463B467C
:1080900016F034FE33A3D3E9002316F07BFC3246FE
:1080A0003B4616F02BFE31A3D3E9002316F074FCF7
:1080B00032463B4616F022FE2EA3D3E9002316F0EB
:1080C00069FC32463B4616F019FE2CA3D3E9002387
:1080D00016F062FC32463B4616F010FE29A3D3E9A7
:1080E0000023804689463046394616F007FE27A30E
:1080F000D3E9002316F04EFC32463B4616F0FEFD57
:1081000024A3D3E9002316F047FC32463B4616F081
:10811000F5FD22A3D3E9002316F03CFC32463B4692
:1081200016F0ECFD00220A4B16F036FC02460B4618
:108130004046494616F00CFF22462B4616F0DEFD5F
:1081400022462B4616F028FC04B0BDE8F08700BF9D
:108150000000F03F09F7FD0DE13D023F88B20175D7
:10816000E0EF493F3B8F68B52882A43F5544880E15
:1081700055C1C93F7D6FEB0312D6D43F55555555B8
:108180005555C53F82922EB1C5B8B33F59018D1BDD
:108190006C06E63FC88A599CE52A00404B2D8A1C94
:1081A000273A0340000000002DE9F84F1D465342D6
:1081B000134325F0004ADFF8E0E14AEAD373734540
:1081C000144606460F4647D8C0F1000848EA0008A2
:1081D00021F0004343EAD878F0458B463CD805F1BE
:1081E000404808F5801858EA020850D04FEAA578B0
:1081F00008F0020848EAD17850EA030134D052EA84
:108200000A023CD0F24557D0734538D0A3EB0A039D
:108210001B153C2B42DC002D70DB22462B463046E2
:10822000394616F095FE14F0D5FAFEF751FBB8F179
:10823000010F5FD0B8F1020F4ED0B8F1000F62D03D
:1082400043A3D3E9002316F0A5FB43A3D3E90023FE
:1082500016F0A0FBBDE8F88F32463B462046294683
:1082600016F09AFBBDE8F88FB8F1020F1AD0B8F1FA
:10827000030F10D13AA1D1E90001BDE8F88FBBF19D
:10828000000F14DB38A1D1E90001BDE8F88FBDE88B
:10829000F84FFEF71DBB3946BDE8F88F32A1D1E992
:1082A0000001C4E72CA1D1E90001BDE8F88F30A19D
:1082B000D1E90001BDE8F88F534526D0B8F1020F8F
:1082C000F0D0B8F1030FD5D0B8F1010F4FF0000096
:1082D00029D00021BDE8F88F1DA3D3E9002316F0B3
:1082E00059FB02460B461CA1D1E9000116F052FBD6
:1082F000BDE8F88F01F10041BDE8F88F3C338CDA1E
:108300000020002193E7BDE8F88FB8F1020F18D0E4
:10831000B8F1030F10D0B8F1010F08D016A1D1E9C0
:108320000001BDE8F88F4FF00041BDE8F88F14A1BF
:10833000D1E90001BDE8F88F13A1D1E90001BDE842
:10834000F88F13A1D1E90001BDE8F88FAFF30080E9
:10835000075C143326A6A13C182D4454FB21094088
:10836000182D4454FB2109C0182D4454FB21F93F1A
:10837000182D4454FB21F9BF182D4454FB21E93F2B
:10838000182D4454FB21E9BFD221337F7CD902C090
:10839000D221337F7CD902400000F07F0000000032
:1083A00043422DE9F047034321F000463E4A46EAA6
:1083B000D373934204460D4613D896423DD03B4BAF
:1083C0009E428A4617DC36A3D3E9002316F0E4FA6E
:1083D0000022002316F022FFA8B320462946BDE85C
:1083E000F08702460B4616F0D5FA02460B4616F009
:1083F000AFFDBDE8F0872E4B9E42354624DD334667
:108400000246314616F0C8FA224606460F462B466B
:108410000020254916F0BEFA02460B463046394682
:1084200016F096FDFEF708FD0022224B16F066FCC2
:10843000BAF1000F2FDBBDE8F0870022002316F011
:1084400087FDBDE8F087354622462B462046294663
:1084500016F0A2FA22462B4606460F4616F04EFCB0
:108460002246804689462B4600200F4916F092FA94
:1084700002460B464046494616F06AFD32463B46E8
:1084800016F08AFAFEF7D8FC00220A4B16F036FCEA
:10849000BAF1000FCFDA01F100431946BDE8F087C9
:1084A0009C7500883CE4377E0000F03FFFFF2F3EC4
:1084B000FFFFDF3F0000E03F2DE9F8434E4B21F086
:1084C00000449C4206460F461BDC4C4B9C4222DD7E
:1084D0004B4B9C4263DD4B4B9C427BDD4A4B9C42A9
:1084E00046DD01339C4240D041A3D3E9002310462E
:1084F000194616F003FC06460F4630463946BDE8DD
:10850000F88302460B4616F0F9FB06460F46304646
:108510003946BDE8F88314F05DF902F0B1FC0022A1
:108520003A4B8046894616F037FAB4F1725F064638
:108530000F46ECDB42464B464046494616F0DEFB12
:1085400032463B4604460D463046394616F024FA7C
:1085500002460B462046294616F0FAFC00222B4B19
:1085600016F01AFA06460F46D1E7294B9842BBD8B7
:108570003046394614F02EF90022264B16F0BEFB89
:1085800000F04AF8002204460D46224B16F0B6FBD6
:1085900022462B4616F0B2FB06460F46B7E714F00C
:1085A00019F900F039F800221A4B06460F4616F06A
:1085B000A5FB32463B4604460D460020154916F001
:1085C000C7FC02460B462046294616F0E5F906464A
:1085D0000F469CE714F0FEF800F01EF800220D4B49
:1085E00016F08CFB06460F4691E700BFAFF3008004
:1085F0009C7500883CE4377EFFFFEF7F422ED63F1C
:10860000FFFF3540412E8640CD3386400000F03FCD
:108610007DF8B98F0000E03F2DE9F04FB04E21F01A
:108620000042B24283B004460D464FEAD1770DD9DD
:10863000AC4EB24225D9C1F31303034340F0EC80A2
:108640000FB10020002103B0BDE8F08FA64B9A4285
:1086500000F2CB80A54B9A4200F2DC808AA3D3E9DA
:10866000002316F099F90022A14B16F0D7FD00283F
:1086700000F006812046294600229D4B16F08CF919
:10868000E1E783A3D3E9002316F0C8FD002840F0FA
:10869000C88081A3D3E900232046294616F0A0FD17
:1086A0000028CED1934E7EA3D3E9002306EBC70664
:1086B0002046294616F022FBD6E9002316F06CF975
:1086C00016F0CCFD064616F0B3FA77A3D3E90023E3
:1086D0008046894616F012FB02460B462046294684
:1086E00016F058F972A3D3E90023CDE90001404602
:1086F000494616F003FB82468B4652465B46DDE94F
:10870000000116F047F904460D4622462B46204646
:10871000294616F0F3FA68A3D3E900238046894678
:1087200016F0ECFA66A3D3E9002316F033F94246BB
:108730004B4616F0E3FA64A3D3E9002316F02CF9B4
:1087400042464B4616F0DAFA61A3D3E9002316F04D
:1087500021F942464B4616F0D1FA5FA3D3E9002334
:1087600016F01AF942464B4616F0C8FA02460B4676
:108770002046294616F00EF980468946002E58D02C
:108780002046294642464B4616F0B8FA4246044671
:108790000D464B4600204FF0804116F0FBF8024694
:1087A0000B462046294616F0D3FB02460B465046A0
:1087B000594616F0EFF8DDE9002316F0EBF80B460A
:1087C00002464B49002016F0E5F86FF47F739E4295
:1087D00051DA06F57A7601EB065100224FF0B873B4
:1087E00016F08CFA03B0BDE8F08F434B9A423FF687
:1087F00059AF424BFC002344D3E9002316F0CAF8DA
:108800003F4BC7F101062344CDE90001D3E900AB9A
:10881000F61B72E7002678E702460B4616F0BCF816
:1088200011E719A3D3E900231046194616F066FA9A
:1088300009E702460B462046294616F05FFA002259
:1088400006460F464FF080434046494616F0A2F8D0
:1088500002460B463046394616F07AFB22462B4636
:1088600016F098F802460B460020214916F092F8BF
:1088700003B0BDE8F08F01EB065103B0BDE8F08F07
:10888000064642E7AFF300809C7500883CE4377EE3
:10889000EF39FAFE422E864051302DD5104987C05F
:1088A000FE822B654715F73F0000E0FE422EE63FB3
:1088B000763C7935EF39EA3DD0A4BE726937663E21
:1088C000F16BD2C541BDBB3E2CDE25AF6A56113FD0
:1088D00093BDBE166CC1663F3E5555555555C53FB7
:1088E000412E8640FFFFEF7F422ED63FFFFF2F3EF7
:1088F0000000F03F90FF0300B1A2F03FA0FF030093
:10890000B0FF0300000000002DE9F04FB1F5801F1B
:1089100085B006460F460B465ADA024621F000445F
:10892000224300F0F8800029C0F27A810022D64B61
:1089300016F0E4F9D54A0B46934206460F466FF00F
:10894000350C4ADCC3F3130505F5152E0EF6647ECF
:108950000EF4801E8EF07F5282F440121C1542EA03
:108960000507A4F2FF3464440022C94B304639465F
:1089700004EB1E5416F00EF8AB1CC3F31303022BCA
:1089800082468B464FF0000230DC002316F01EFCBE
:10899000002800F0C980002C00F04B81204616F022
:1089A00047F9A5A3D3E9002306460F4616F0A6F91A
:1089B000A3A3D3E9002304460D463046394616F0FA
:1089C0009DF902460B462046294615F0E5FF0AE0D0
:1089D000AE4A93424FF0000CB4DD32463B4630467F
:1089E000394615F0D9FF05B0BDE8F08F4FF0804350
:1089F00015F0D2FF02460B465046594616F0A8FA2B
:108A0000064620460F4616F013F93246CDE900011E
:108A10003B4630463946CDE9026716F06FF902460B
:108A20000B468046894616F069F987A3D3E90023EF
:108A300006460F4616F062F985A3D3E9002315F028
:108A4000ABFF32463B4616F059F983A3D3E9002326
:108A500015F0A2FF32463B4616F050F980A3D3E949
:108A6000002315F099FF42464B4616F047F97EA3C6
:108A7000D3E90023804689463046394616F03EF950
:108A80007BA3D3E9002315F087FF32463B4616F05F
:108A900035F979A3D3E9002315F07EFF32463B4632
:108AA00016F02CF90B4602464946404615F074FF75
:108AB000A5F5C223C5F5D725A3F27A4351351D4349
:108AC000002D8046894656DD0022724B504659469D
:108AD00016F014F952465B4616F010F906460F469A
:108AE000002C68D132463B464046494615F054FFBB
:108AF000DDE9022316F002F902460B4630463946FC
:108B000015F048FF02460B465046594615F042FF05
:108B100005B0BDE8F08F0022002300205E4916F06A
:108B200017FA05B0BDE8F08F55A3D3E900235046EE
:108B3000594616F0E3F802460B460020554915F059
:108B400029FF524606460F465B465046594616F0E8
:108B5000D5F802460B463046394616F0CFF80646A1
:108B60000F46002C40F09A8002460B46504659466C
:108B700015F010FF37E7002C00F0A4802EA3D3E9F6
:108B80000023DDE9000116F0B9F842464B460446E1
:108B90000D465046594615F0FDFEDDE9022316F05C
:108BA000ADF827A3D3E9002306460F46DDE900010F
:108BB00016F0A4F821E020A3D3E90023DDE90001A9
:108BC00016F09CF832463B4604460D464046494660
:108BD00015F0E2FEDDE9022316F090F818A3D3E9C0
:108BE000002380468946DDE9000116F087F8024639
:108BF0000B464046494615F0CFFE02460B4630462E
:108C0000394615F0C7FE52465B4615F0C3FE0246D4
:108C10000B462046294615F0BDFE05B0BDE8F08F95
:108C200002460B4615F0B6FE0022002316F090F91E
:108C3000D9E600200021D6E60000E0FE422EE63F05
:108C4000763C7935EF39EA3D44523EDF12F1C23FBE
:108C5000DE03CB966446C73F599322942449D23F02
:108C6000935555555555E53F9FC678D0099AC33F52
:108C7000AF788E1DC571CC3F04FA97999999D93F69
:108C8000555555555555D53F00005043FFFFEF7FD3
:108C90000000F03F0000E03F000050C3204615F008
:108CA000C7FF0FA3D3E900238046894616F026F8B4
:108CB0000DA3D3E9002304460D464046494616F06D
:108CC0001DF89AE702460B465046594615F062FEDB
:108CD000DDE9022316F012F814E700BFAFF30080BD
:108CE0000000E0FE422EE63F763C7935EF39EA3D62
:108CF000B1F5801F2DE9F84304460D460B461ADAFC
:108D0000024621F00046324359D000295FDB0022A1
:108D10003B4B15F0F3FF3B4A0D462B46934204466E
:108D20006FF035010CDD22462B462046294615F012
:108D300033FEBDE8F883334A93424FF00001F2DC82
:108D40001815A0F2FF3008444FEAD0794844C3F325
:108D5000130815F06DFFC9F57F73033348EA035517
:108D600006460F4620462946FFF7CEFD1EA3D3E94F
:108D70000023804689463046394615F0BFFF1CA3C4
:108D8000D3E9002304460D464046494615F0B6FF98
:108D900002460B462046294615F0FEFD16A3D3E9F0
:108DA000002304460D463046394615F0A7FF02461B
:108DB0000B462046294615F0EFFDBDE8F88300225A
:108DC00000230020104916F0C3F8BDE8F8830246DE
:108DD0000B4615F0DFFD0022002316F0B9F8BDE8C0
:108DE000F88300BFAFF30080362BF111F3FE593D3D
:108DF0000EE526157BCBDB3F00609F501344D33F2D
:108E000000005043FFFFEF7F000050C30000000050
:108E10002DE9F04F23F0004757EA020493B037D012
:108E2000674C21F00046A64283460D4629DC9A464F
:108E3000964625D0A74224DC614CA74279D0002D6C
:108E400080468946CDE9002377DB0024BEF1000F80
:108E50002CD15B4B9F4200F08B805A4B9F4261D0DC
:108E6000BAF1804F00F0C383574B9A451ED1002DB5
:108E70001CDB4046494613B0BDE8F04F14F0E8BB98
:108E800058B106F1404606F5801656EA0B0306D1A6
:108E90004C49002013B0BDE8F08FB742CCDD4B4801
:108EA00013B0BDE8F04F15F079BB002440464946A9
:108EB00013F090FCBBF1000F19D126B1414B25F006
:108EC00040429A4213D1BAF1000FC0F2CA83002D7A
:108ED000E0DA06F1404606F5801656EA040300F093
:108EE000A584012CD6D101F100431946D2E7ED0F3C
:108EF000013D54EA05034ED0354B9F426EDD03F130
:108F000004739F4240F3FE83324B9E424EDDBAF122
:108F1000000F4EDD28A3D3E900231046194615F0B3
:108F2000EDFEB7E7BAF1000FC0F252844046494661
:108F3000B0E7BEF1000F82D0A3E7274B9F4228DCA9
:108F4000A3F154739F4280DD3B15A3F2FF33142B32
:108F500040F35484C3F134032EFA03F202FA03F30C
:108F60009E457FF472AF02F00102C2F102046DE788
:108F700006F1404303F5801353EA0B0388D0154BE9
:108F80009E4240F33B83BAF1000F12DBDDE90001A2
:108F900080E702245AE742464B461046194615F030
:108FA000F9FC02460B4615F0D3FF73E7BAF1000F48
:108FB000B0DB002000216DE79C7500883CE4377E23
:108FC0000000F07F0000F03F0000E03FA007040039
:108FD0000000E041FFFFEF3FFFFF3F43B6F5801F7A
:108FE0004FF0000205DAD84B15F088FE6FF034021E
:108FF0000E463315D54FC6F31306A3F2FF331344C1
:1090000046F07F5ABE421A460D934AF4401A40F386
:109010002F83CF4B9E4240F30D849FEDB57B8DEDAA
:10902000087B8DED0E7B9FEDB47B13468DED067BAB
:1090300001330D93AAF5801A0027DDE90623514676
:10904000CDE90A0115F0A6FCDDE906238046894634
:10905000DDE90A0115F0A0FC02460B460020BD49DF
:1090600015F076FF0A460146CDE91012134649462F
:109070000246404615F042FE4FEA6A0343F00053B1
:109080008C46834603F50023CDE904BCDA468B46C3
:10909000D9190023CDE902AB0293DDE902AB002030
:1090A00006460F4602460B465046594615F026FE28
:1090B00002460B464046494615F06CFCDDE90623A6
:1090C000804689463046394615F064FC02460B4618
:1090D000DDE90A0115F05EFC52465B4615F00EFE16
:1090E00002460B464046494615F054FCDDE9102384
:1090F00015F004FEDDE90467CDE9060132463B4682
:109100003046394615F0FAFD7DA3D3E90023064623
:109110000F4615F0F3FD7CA3D3E9002315F03CFCCA
:1091200032463B4615F0EAFD79A3D3E9002315F05A
:1091300033FC32463B4615F0E1FD77A3D3E900232B
:1091400015F02AFC32463B4615F0D8FD74A3D3E94E
:10915000002315F021FC32463B4615F0CFFD72A3EB
:10916000D3E9002315F018FC3246804689463B4679
:109170003046394615F0C2FD02460B464046494688
:1091800015F0BCFD524606460F465B46DDE904017C
:1091900015F002FCDDE9062315F0B0FD32463B4632
:1091A00015F0FAFB5246804689465B4650465946C2
:1091B00015F0A4FD0022684BCDE90A0115F0ECFB87
:1091C00042464B4615F0E8FB02980F4606463246EB
:1091D0003B465046594615F091FD002282468B468B
:1091E0005D4B3046394615F0D5FBDDE90A2315F015
:1091F000D1FB02460B464046494615F0CBFBDDE964
:10920000042315F07BFD3246804689463B46DDE966
:10921000060115F073FD02460B464046494615F01F
:10922000BBFB8046894602460B4650465946CDE96F
:1092300004AB15F0B1FBDDE902AB3DA3D3E900239C
:1092400050460F4615F05AFDDDE90423CDE9020131
:109250003946504615F09EFB02460B4640464946AD
:1092600015F098FB34A3D3E9002315F047FD34A390
:10927000D3E90023804689465046394615F03EFD25
:1092800002460B464046494615F086FBDDE90E23B3
:1092900015F082FB80460D98894615F0C9FC4246C0
:1092A00006460F464B46DDE9020115F075FBDDE988
:1092B000082315F071FB32463B4615F06DFB324634
:1092C0003B4650468B4615F065FBDDE9082315F05B
:1092D00061FBDDE9022315F05DFB02460B464046CB
:1092E000494615F057FB8046894637E0AFF30080CA
:1092F0000000000000000000000000000000F03F3F
:10930000EF4E454A287ECA3F65DBC9934A86CD3F6A
:1093100001411DA96074D13F4D268F515555D53F50
:10932000FFAB6FDBB66DDB3F033333333333E33FE8
:10933000000000E009C7EE3FFD033ADC09C7EE3F3D
:10934000F5015B14E02F3EBE000040438E98030001
:1093500079B60B000000F03F00000840013C54EAE1
:10936000050300F079819FEDC87B8DED047BDDE97D
:1093700000120B461446CDE9023400230293DDE9C6
:10938000024508462B461146224615F003FB52467D
:109390005B4615F0B3FCDDE9002306460F46404668
:1093A000494615F0ABFC02460B463046394615F0EF
:1093B000F3FA2246804689462B4650465946CDE967
:1093C000008915F09BFC0B46024606460F464046B8
:1093D000494615F0E1FAC64B994204460D468A46C5
:1093E00040F3168101F13F4303F5E003034340F0EE
:1093F000F781A7A3D3E90023DDE9000115F0CCFA3A
:109400003246804689463B462046294615F0C2FA38
:1094100002460B464046494615F000FF002840F042
:10942000DF81A8464FEA28534FF48012A3F2FE339F
:1094300042FA03F35344C3F30A52AE4DA2F2FF3291
:109440001541C3F3130423EA05010020C2F1140BF4
:1094500044F48014BAF1000F02460B4644FA0BFBA9
:1094600030463946B8BFCBF1000B15F093FA0246EF
:109470000B4606460F46DDE9000115F08DFA4FEA6E
:109480000B5A0D46002484A3D3E900232046294625
:1094900015F034FC3246804689463B462046294634
:1094A00015F078FA02460B46DDE9000115F072FA74
:1094B0007BA3D3E9002315F021FC7BA3D3E9002390
:1094C00006460F462046294615F018FC02460B4674
:1094D0003046394615F060FA06460F4602460B46FE
:1094E0004046494615F058FA42464B4604460D465A
:1094F00015F050FA02460B463046394615F04AFA46
:109500002246804689462B462046294615F0F6FB22
:1095100067A3D3E9002306460F4615F0EFFB66A3C9
:10952000D3E9002315F036FA32463B4615F0E6FB48
:1095300063A3D3E9002315F02FFA32463B4615F01A
:10954000DDFB61A3D3E9002315F024FA32463B4644
:1095500015F0D4FB5EA3D3E9002315F01DFA3246C3
:109560003B4615F0CBFB02460B462046294615F03C
:1095700011FA06460F4602460B462046294615F0CC
:10958000BDFB0022CDE900014FF080433046394653
:1095900015F000FA02460B46DDE9000115F0D8FC93
:1095A000424606460F464B462046294615F0A6FB86
:1095B00042464B4615F0F0F902460B463046394616
:1095C00015F0E8F922462B4615F0E4F902460B4661
:1095D0000020494915F0DEF98A44BAF5801FC0F22F
:1095E00039815146DDE9042315F088FB52E44246F7
:1095F0004B464046494615F081FB4BE4BAF1000F5B
:10960000BFF6D7ACDDE90034184604F1004141E46F
:109610003A4B21F00048984540F3FF80384B0B440B
:1096200003430CD132463B4615F0B4F902460B46D3
:10963000DDE9000115F0DEFD00283FF4F3AEDDE9C1
:10964000040125A3D3E9002315F058FB22A3D3E995
:10965000002315F053FB1DE49FED217B8DED047B72
:1096600085E602460B460020234915F071FC2EE4E6
:109670009FED1D7B8DED087B8DED0E7B9FED027BBD
:1096800000278DED067BD8E4000000000000F03FCD
:10969000FE822B654715973C00000000432EE63FF5
:1096A000EF39FAFE422EE63F396CA80C615C20BE11
:1096B000D0A4BE726937663EF16BD2C541BDBB3ED8
:1096C0002CDE25AF6A56113F93BDBE166CC1663FB6
:1096D0003E5555555555C53F59F3F8C21F6EA50166
:1096E000000000000000F0BF0000000000000000CB
:1096F000FFFF8F40FFFF0F000000F03FFFCB9040C7
:1097000000346F3F684B9E427FF750AC674B9E42E0
:109710003FF7FDAB0022654B15F03CF952A3D3E9AE
:10972000002306460F4615F0E9FA51A3D3E90023BA
:10973000804689463046394615F0E0FA00228246D6
:109740008B465B4B3046394615F0D8FA02460B463D
:1097500049A1D1E9000115F01DF932463B4615F04B
:10976000CDFA02460B460020524915F013F9324655
:10977000CDE902013B463046394615F0BFFA0246B4
:109780000B46DDE9020115F0B9FA3DA3D3E9002348
:1097900015F0B4FA02460B465046594615F0FAF851
:1097A00002460B4606460F464046494615F0F4F879
:1097B00042464B46002082468B4615F0EBF80246A7
:1097C0000B463046394615F0E5F880468946C5E532
:1097D00042464B460020354915F0BAFBFFF75ABB0D
:1097E000DDE9040128A3D3E9002315F087FA26A3B5
:1097F000D3E9002315F082FAFFF74CBBBEF1000F4E
:109800007FF453ABC3F1140347FA03F202FA03F3F4
:109810009F4223D07446FFF720BB264B98453FF765
:1098200001AEDDE90223924693462BE602460B4643
:10983000FFF7B3BB9FED167B8DED087B9FED167B8D
:109840008DED0E7B9FED167B4FF480278DED067B13
:10985000FFF7F3BB5A4601F04FFDC3E602F00102E9
:10986000C2F10204FFF7F9BA000000604715F73FA4
:1098700044DF5DF80BAE543E555555555555D53F13
:10988000FE822B654715F73F9C7500883CE4377EC8
:109890000000004003B8E23F06D0CF43EBFD4C3E52
:1098A000000000000000F83FFEFFEF3F0000F03F27
:1098B0000000D03F0000E03F2DE9F0479C4B21F035
:1098C00000479F4290B08046894640F38E80994B76
:1098D0009F420C46924626DC00298BA3D3E9002345
:1098E00040F3B08115F056F8934B9F4204460D4665
:1098F00000F0908086A3D3E9002315F04BF80246D0
:109900000B46CAE900232046294615F043F880A3F8
:10991000D3E9002315F03EF80125CAE902012846E3
:1099200010B0BDE8F087854B9F4240F39080844B98
:109930009F4265DC3D15A5F21645A7EB0553194678
:109940001F46064615F08AFC15F072F980468946D6
:1099500042464B4630463946CDE90A8915F01AF899
:109960000022784B15F0CAF98946804615F076FC3E
:1099700015F05EF906460F4632463B4640464946DC
:10998000CDE90C6715F006F800226E4B15F0B6F91C
:1099900000220023CDE90E0115F018FC002800F08C
:1099A0006F81002330463946002215F00FFC002855
:1099B00014BF01230223644A019202212A46009126
:1099C0000AA8514600F08CFB002C054614DADAF8A0
:1099D0000420DAF80C3002F1004203F10043454262
:1099E000CAF80420CAF80C3006E000200021C2E9C1
:1099F0000089C2E902010025284610B0BDE8F087C1
:109A000002460B4614F0C6FF0025CAE90201CAE966
:109A10000001F1E740A3D3E9002314F0BBFF40A30A
:109A2000D3E900230D46044614F0B4FF02460B466A
:109A3000CAE900232946204614F0ACFF38A3D3E935
:109A4000002314F0A7FF0125CAE90201D4E712F0B0
:109A5000C1FE35A3D3E900238046894615F04EF9AF
:109A600000223A4B14F098FF15F0F8FB054615F06C
:109A7000DFF825A3D3E90023CDE9060115F03EF96F
:109A800002460B464046494614F084FF20A3D3E922
:109A90000023CDE90201DDE9060115F02FF91F2DA4
:109AA00080468946CDE9048954DC294B6A1E53F867
:109AB00022309F424ED002460B46DDE9020114F0EF
:109AC00069FF80468946CAE9008942464B46DDE97E
:109AD000020114F05FFFDDE9042314F05BFF002CAA
:109AE000CAE9020188DA09F1004401F100436D423C
:109AF000CAF80080CAF80440CAF80800CAF80C3056
:109B00007AE700BFAFF3008000004054FB21F93F2B
:109B10003163621A61B4D03D0000601A61B4D03D77
:109B20007370032E8A19A33B83C8C96D305FE43F6D
:109B3000FB21E93F7BD90240FB21F93FFB21394161
:109B4000FFFFEF7F000070412C1204000000E03F97
:109B5000AC110400DDE90423DDE9020114F01AFF71
:109B60003F15C1F30A53FB1A80468946102BCAE9F8
:109B70000089AADD58A3D3E90023DDE9060115F029
:109B8000BDF88046894602460B46DDE9020114F025
:109B900001FF02460B46DDE90201CDE9082314F07E
:109BA000F9FE42464B4614F0F5FE4DA3D3E90023DF
:109BB00080468946DDE9060115F0A0F842464B468D
:109BC00014F0E8FE0B46CDE904010246DDE9080188
:109BD00014F0E0FEC1F30A53FF1A80468946312F84
:109BE000CAE900896CDD41A3D3E90023DDE9060160
:109BF00015F084F8DDE9088906460F4602460B4653
:109C00004046494614F0C6FE02460B4640464946C9
:109C1000CDE9022314F0BEFE32463B4614F0BAFEF4
:109C200034A3D3E9002306460F46DDE9060115F00B
:109C300065F832463B4614F0ADFE02460B46CDE9D0
:109C400004233AE714F0A8FE274B9F4204460D4632
:109C500018D01FA3D3E9002314F09EFE02460B4642
:109C6000CAE900232946204614F094FE18A3D3E93C
:109C7000002314F091FE4FF0FF35CAE90201BBE664
:109C8000032398E614A3D3E9002314F085FE14A35C
:109C9000D3E900230D46044614F07EFE02460B462F
:109CA000CAE900232946204614F074FE0CA3D3E928
:109CB000002314F071FE4FF0FF35CAE902019BE664
:109CC0009DED087B8DED027BFFE600BFAFF30080CA
:109CD0003163621A61B4D03D0000601A61B4D03DB6
:109CE0007370032E8A19A33BFB21F93F0000002E5D
:109CF0008A19A33BC14920259A837B3900000000C3
:109D0000594A2DE9F84F21F00048904506460F4684
:109D10002BDC564B0029B4BF554D564D98454FF09E
:109D2000000410DC544B984570DC4DA3D3E90023AC
:109D300014F032FE0022514B15F070FAD8B13046C3
:109D40003946BDE8F88F4E4B98457CDD4D4B984524
:109D500044DD013398453ED03046394640A3D3E92F
:109D6000002314F0CBFFBDE8F88F02460B4614F039
:109D700013FEBDE8F88F3046394612F02BFD01F096
:109D80007FF806460F4632463B463046394614F0C9
:109D900003FE324682468B463B463046394614F037
:109DA000ADFF002280468946344B3046394614F0D8
:109DB000F3FD02460B464046494615F0C9F80246F7
:109DC0000B465046594614F0E5FD22462B4614F04A
:109DD00095FFBDE8F88F2C4B9842BDD830463946E8
:109DE00012F0F8FC0022234B14F088FFFEF714FC5D
:109DF00006460F4602460B462046294614F07EFFD3
:109E000032463B4614F07AFFBDE8F88F12F0E2FCD0
:109E100001F036F81D4B984506460F46B3DD00228B
:109E2000164B14F0B9FD02460B463046394615F084
:109E30008FF832463B4614F0AFFD22462B4614F015
:109E40005DFFBDE8F88F12F0C5FCFEF7E5FB0246AA
:109E50000B462046294614F051FFBDE8F88F00BF9D
:109E60003374AC3C1F7BAC7FFFFFEF7FFFFF3540BF
:109E70000000E0BF0000E03FFFFF2F3E0000F03F8A
:109E8000412E8640CD3386407DF8B98FFFFFEF3FEE
:109E90002DE9F04F21F00048B8F1795F85B0064612
:109EA0000F4692469B466BDA15F0D8F9002800F071
:109EB000EA8032463B463046394614F01FFF74A311
:109EC000D3E9002304460D4614F018FF72A3D3E92A
:109ED000002314F061FD22462B4614F00FFF70A3FF
:109EE000D3E9002314F056FD22462B4614F006FF5A
:109EF0006DA3D3E9002314F04FFD22462B4614F046
:109F0000FDFE6BA3D3E9002314F044FD22462B464B
:109F100014F0F4FE68A3D3E9002314F03DFD2246BB
:109F20002B4614F0EBFECDE900010022664B2046E3
:109F3000294614F0E3FEDDE90023804689462046E9
:109F4000294614F0DBFE524604460D465B46304679
:109F5000394614F0D3FE02460B462046294614F03B
:109F600019FD02460B464046494614F013FD0246D1
:109F70000B460020554914F00DFD05B0BDE8F08FEB
:109F800002460B4614F0BAFE41A3D3E9002304466F
:109F90000D4614F0B3FE40A3D3E9002314F0FCFCFB
:109FA00022462B4614F0AAFE3DA3D3E9002314F069
:109FB000F1FC22462B4614F0A1FE3BA3D3E900237B
:109FC00014F0EAFC22462B4614F098FE38A3D3E99D
:109FD000002314F0DFFC22462B4614F08FFE36A33C
:109FE000D3E9002314F0D8FC2B46224614F086FE59
:109FF000374B9845CDE9000197DD364B984539DC64
:10A00000A8F500130022002030499046994614F02C
:10A01000C1FCCDE9020100222B4B2046294614F059
:10A020006DFE42464B4614F0B5FCDDE90023804648
:10A0300089462046294614F061FE524604460D46E4
:10A040005B463046394614F059FE02460B46204620
:10A05000294614F09FFC02460B464046494614F040
:10A0600099FC02460B46DDE9020114F093FC05B0B1
:10A07000BDE8F08F9FED127B4FF000088DED027B65
:10A08000DFF85490C7E71149002005B0BDE8F08F14
:10A09000D43888BEE9FAA8BDC4B1B4BD9EEE213E55
:10A0A000AD529C804F7E923E9015CB19A001FA3E96
:10A0B0007751C1166CC1563F4C5555555555A53F66
:10A0C000000000000000E73F0000E03F0000F03F1C
:10A0D0003233D33F0000E93F0000D23F00000000D0
:10A0E0002DE9F04FADF51B7D9F4CA49E9F4D54F87C
:10A0F000264007942646D41E85FB0475E417C4EB5E
:10A10000A50424EAE4741D460A93631CA3EB8303AD
:10A11000013D02EBC30306932B460B940395651B8D
:10A12000F418049008911AD42C4400260027013416
:10A130000DF18808DDF8949208E059F8250014F034
:10A1400077FD0135A542E8E8020108D0002DF4DAD8
:10A15000013530463946A542E8E80201F6D1079BB1
:10A16000002BC0F2DF83079B03F1010B0A9B22A99E
:10A17000DB001A4601EB03090093049B0DF5E47A1A
:10A1800019460AEBCB0B01EB0208039B002BC0F234
:10A19000F582049C4D460026002775E90223F4E869
:10A1A000020114F0ABFD02460B463046394614F06E
:10A1B000F3FB444506460F46EFD1EAE80267DA456D
:10A1C00009F10809E1D107990098049C009101F177
:10A1D0008043013B9B0020441A1F83460EA8024483
:10A1E00003440C920D93009A9AA901EBC203002A32
:10A1F00053E9284529DD0DF5E47A0AEBC2080DF193
:10A20000340900225A4B2046294614F077FD15F0F8
:10A2100025F814F00DFD0022564B06460F4614F0AB
:10A220006DFD02460B462046294614F0B3FB15F09F
:10A2300015F878E9022349F8040F3946304614F03E
:10A24000ABFBD04504460D46DBD1DDF81890204627
:10A2500029464A4601F050F800224FF07F53044649
:10A260000D4614F04BFDFCF75FFD0022424B14F04D
:10A2700045FD02460B462046294614F08BFB0D4651
:10A28000044614F0EBFF804614F0D2FC0B46024665
:10A290002946204614F07EFB4B46002B06460F460F
:10A2A00040F3F980009A0EA9013AC9F1180351F858
:10A2B000225045FA03F101FA03F30EA8EB1A40F815
:10A2C0002230C9F11705884443FA05F5002D6DDDEC
:10A2D000009B002B08F1010840F36F820E9C002CBC
:10A2E00040F01683009B012B40F38F820EAA0123BE
:10A2F00052F8044F002C00F08382581C0EAAC4F1BF
:10A30000807442F82340009A824219DD0EAA0EACF6
:10A3100052F820106FF07F42511A44F82010009933
:10A32000023399420CDD1046009A0EA901EB83031B
:10A3300001EB82011A68821A43F8042B8B42F9D18F
:10A34000069B002B1ADD069B012B4FF0010440F009
:10A350003C82009B5A1E0EAB0EA953F82230C3F369
:10A36000160341F822303CE2CC160400ABAAAA2A1C
:10A370000000703E0000704100002040022D15D109
:10A3800032463B460020924914F004FB06460F4635
:10A39000069A8F49002000F0AFFF02460B46304678
:10A3A000394614F0F7FA022506460F46002200232C
:10A3B0003046394614F00AFF002800F03782009A30
:10A3C000079B501E83420FDC02F18043013B0EAA23
:10A3D0000D9C02EB8303002253F80419A34242EAC6
:10A3E0000102F9D1002A67D1079B0EAA013B52F85E
:10A3F0002330002B40F018820C9A012352F80419E4
:10A4000001330029FAD0009AD31802F1010A9A45C3
:10A4100009933DDC009B0A990B9A0B4409990AEBBE
:10A420000208994622AB08F1804803EBC9098B1852
:10A43000A59A08F1FF3802EB880872AA02EBCA0A53
:10A44000A59A02EB8303009358F8040F14F0F0FB75
:10A45000039B002BE9E802014FF000064FF00007D4
:10A4600011DB049C4D4675E90223F4E8020114F067
:10A4700045FC02460B463046394614F08DFA5C45E1
:10A4800006460F46EFD1009B9845EAE80267DBD10C
:10A49000099B0093A7E606D1009B0EAA013B52F848
:10A4A0002350ED1512E700224A4B14F0ADFE0028B0
:10A4B00040F06E81054679E70EA9039551F82030EA
:10A4C0000699CDF8248018390246009006916BB9A0
:10A4D00000F18043013B0EA800EB830353F804090D
:10A4E000013A18390028F9D000920691069A3849A5
:10A4F000002000F001FF009B002B04460D46C0F237
:10A50000F781DA0072A901EB020B06920EAA02EBA8
:10A510008306DFF8C4904FF000080BF108070436FB
:10A5200056F8040D14F084FB22462B4614F0E6FB8B
:10A530004B4667E9020142462046294614F0DEFBFD
:10A540000EAB9E4204460D46EAD14AACDDF81C90A3
:10A5500004944FF0000AB9F1000FC0F22B81DFF82C
:10A560007C805D4618A1D1E9000100260027002467
:10A5700003E0544510DCF8E80201F5E8022314F08A
:10A58000BDFB02460B463046394614F005FA01344D
:10A59000A14506460F46ECDA049B03EBCA03ABF178
:10A5A000080BC3E9006770AB9B450AF1010AD2D1E1
:10A5B000A49B049C032B00F28980DFE803F0C58E86
:10A5C0008E1100BFAFF3008000000040FB21F93F77
:10A5D0000000F03F0000E03F0000703ED8FF0300A5
:10A5E000009B002B40F38181069A04EB020ADAE912
:10A5F000008902F1080525440DF5987B1AED027BD0
:10A6000042464B4651EC170B8DED047B14F0C4F918
:10A6100006460F4602460B46DDE9040114F0BAF97E
:10A6200042464B4614F0B8F965E902015D45B04673
:10A63000B9466AE90267E1D1009B012B40F35581DD
:10A64000069BE518D5E9008903F1080B04EB0B0A1A
:10A6500015ED027B42464B4651EC170B8DED007B0E
:10A6600014F09AF906460F4602460B46DDE9000152
:10A6700014F090F94B46424614F08EF96AE9020153
:10A680004EAB5345B046B94665E90267E0D10020BC
:10A69000002104EB0B0575E9022314F07DF9AA45AE
:10A6A000F9D1039B002B00F00A816268E368089FE0
:10A6B0002568A4683D6002F1004203F1004301F106
:10A6C00000417A60FB60BC6038617961099B03F0EE
:10A6D00007000DF51B7DBDE8F08F069D083525446C
:10A6E0000020002175E9022314F056F9A542F9D1A2
:10A6F000039B002B00F0D280089E024601F100432C
:10A7000086E80C000B460246D4E9000114F042F939
:10A71000009B002B0BDD4CAD0124F5E8022314F067
:10A720003BF9009B0134A342F7DA039B13B101F11B
:10A7300000431946089BC3E90201099B03F0070087
:10A740000DF51B7DBDE8F08F069D0835002000212A
:10A75000254475E9022314F01FF9AC42F9D1039B9B
:10A7600013B101F100431946089BC3E90001099B9D
:10A7700003F007000DF51B7DBDE8F08F00260027D4
:10A78000EAE80267DA4509F108097FF4FEAC1AE548
:10A79000009B002B08F10108C8BF02253FF79EADC2
:10A7A00032463B460020614914F0F4F80225064683
:10A7B0000F46FBE500260027EEE6069B002B27DD73
:10A7C0000024069B012B3FF4C4AD022B09D1009B52
:10A7D0005A1E0EAB0EA953F82230C3F3150341F8ED
:10A7E0002230022D7FF4E2AD32463B4600204F4935
:10A7F00014F0D0F806460F46002C3FF4D7ADC7E55D
:10A800000099013399427FF473AD069B002BD8DC8D
:10A81000022D7FF4CBAD32463B460020434914F075
:10A82000B9F806460F46C1E50123ECE53946069F17
:10A8300003957A423046CDF8248000F05DFD002279
:10A840003B4B04460D4614F0DFFC002843D00022A9
:10A85000384B2046294614F051FA14F0FFFC064606
:10A8600014F0E6F90022324B14F048FA02460B4687
:10A870002046294614F08EF814F0F0FC00990B469F
:10A8800001331A4600933B46183306930B460EA934
:10A8900041F82300134641F8236027E6089B02464F
:10A8A000C3E900010B46D4E9000114F073F8009BE2
:10A8B000002B3FF730AF089BC3E902013DE7D4E925
:10A8C0000067D4E90223089DC5E90401C5E90067D2
:10A8D000C5E90223FAE62946204614F0BFFC009A97
:10A8E0000EA941F8220001E64AAC00200021D8E67A
:10A8F000A49B032B3FF6EAAE01A252F823F000BF5F
:10A900001FA9020017A9020017A90200E9A8020066
:10A9100001200023F2E4002000214AACE8E60020F8
:10A9200000211CE70A9BDB0000934CE40000F03F91
:10A93000000070410000703E2DE9F04F21F000460C
:10A94000B6F1795F85B004460D469046994604DA23
:10A9500014F084FC002800F0858022462B46204617
:10A96000294614F0CBF906460F4602460B46204610
:10A97000294614F0C3F941A3D3E9002382468B464C
:10A980003046394614F0BAF93EA3D3E9002314F057
:10A9900001F832463B4614F0B1F93CA3D3E9002359
:10A9A00013F0FAFF32463B4614F0A8F939A3D3E975
:10A9B000002313F0EFFF32463B4614F09FF937A314
:10A9C000D3E9002313F0E8FF0E9BCDE900019BB310
:10A9D0000022294B4046494614F090F9DDE9002356
:10A9E000CDE902015046594614F088F902460B465B
:10A9F000DDE9020113F0CEFF32463B4614F07EF94A
:10AA000042464B4613F0C6FF19A3D3E9002306467E
:10AA10000F465046594614F071F902460B4630462F
:10AA2000394613F0B9FF02460B462046294613F07B
:10AA3000B1FF05B0BDE8F08F02460B4630463946FF
:10AA400014F05CF90AA3D3E9002313F0A3FF5246E4
:10AA50005B4614F053F922462B4613F09DFF05B0D8
:10AA6000BDE8F08F2046294605B0BDE8F08F00BF55
:10AA7000495555555555C53F0000E03F7CD5CF5A47
:10AA80003AD9E53DEB9C2B8AE6E55A3E7DFEB1576F
:10AA9000E31DC73ED561C119A0012A3FA6F81011D8
:10AAA0001111813F000000002DE9F04FBE4C21F054
:10AAB000004687B0A64282468B460F46CDE900236A
:10AAC0001BDC14F0CBFB002837D153461E43109BF0
:10AAD0000133334300F0B381109B012B00F0C88198
:10AAE00052465B460020B14914F032FA04460D4646
:10AAF0002046294607B0BDE8F08FAD4B9E421CDDD5
:10AB00000029C0F2A98152465B4687A1D1E9000124
:10AB100013F040FFDDE9002304460D4684A1D1E98E
:10AB2000000113F037FF9FED847B22462B468DED0D
:10AB3000007B13F031FF82468B4652465B465046FF
:10AB4000594614F0DBF802460B468046894614F05D
:10AB5000D5F8424604460D464B465046594614F039
:10AB6000CDF877A3D3E90023CDE902012046294699
:10AB700014F0C4F874A3D3E9002313F00DFF2246A8
:10AB80002B4614F0BBF872A3D3E9002313F004FFA3
:10AB900022462B4614F0B2F86FA3D3E9002313F03A
:10ABA000FBFE22462B4614F0A9F86DA3D3E900233F
:10ABB00013F0F2FE22462B4614F0A0F86AA3D3E964
:10ABC000002313F0E9FE42464B4614F097F868A3C1
:10ABD000D3E90023CDE904012046294614F08EF87C
:10ABE00065A3D3E9002313F0D7FE22462B4614F0C9
:10ABF00085F863A3D3E9002313F0CEFE22462B464B
:10AC000014F07CF860A3D3E9002313F0C5FE2246BC
:10AC10002B4614F073F85EA3D3E9002313F0BCFEB7
:10AC200022462B4614F06AF85BA3D3E9002313F005
:10AC3000B3FE02460B46DDE9040113F0ADFEDDE98B
:10AC4000022314F05BF8DDE9004522462B4613F0A1
:10AC5000A3FE42464B4614F051F802460B462046EE
:10AC6000294613F099FE4EA3D3E9002304460D466E
:10AC7000DDE9020114F042F822462B4613F08CFE67
:10AC80000B460246804689465046594613F084FEDC
:10AC9000474B9E4204460D4600F38E80109B012BCD
:10ACA0003BD002460B460020404914F051F90024E5
:10ACB00006460F462046294652465B46CDE90067C8
:10ACC000CDE90201009413F065FEDDE900AB024618
:10ACD0000B464046494613F05DFE52465B4614F073
:10ACE0000DF8524604460D465B46DDE9020114F0BC
:10ACF00005F800222F4B13F04FFE02460B4620466C
:10AD0000294613F049FE32463B4613F0F7FF524600
:10AD10005B4613F041FE04460D462046294607B027
:10AD2000BDE8F08FAFF30080182D4454FB21E93FBC
:10AD3000075C143326A6813C0000000000000000E0
:10AD4000D47ABF74702AFB3EE9A7F0320FB8123FE5
:10AD500068108D1AF726303F1583E0FEC8DB573F99
:10AD600093846EE9E326823FFE41B31BBAA1AB3F59
:10AD7000735360DBCB75F3BEA69237A0887E143F79
:10AD80000165F2F2D844433F280356C9226D6D3F56
:10AD900037D60684F464963F7AFE10111111C13F34
:10ADA000635555555555D53FFFFF2F3E0000F0BF69
:10ADB0002794E53F0000F03F109813F039FF22463A
:10ADC000CDE900012B462046294613F097FFDDE927
:10ADD0000023CDE902012046294613F0DDFD02469D
:10ADE0000B46DDE9020114F0B3F842464B4613F07E
:10ADF000D1FD02460B465046594613F0CBFD0246A4
:10AE00000B4613F0C9FD02460B46DDE9000113F0C5
:10AE1000C1FD0446B81700F00200C0F101000D4664
:10AE200013F006FF02460B462046294613F066FF44
:10AE300004460D462046294607B0BDE8F08F50462F
:10AE4000594611F0C7FC02460B4600200A4914F08F
:10AE50007FF804460D4660E7DDE9004501F1004159
:10AE6000224605F1004382468B46CDE900234AE69F
:10AE700054465D4651E700BF0000F03F000000006F
:10AE80002DE9F04FD24A21F00043934285B082462B
:10AE90008B460C462DD9CF4A93421AD8002C80F20B
:10AEA0001681B5A3D3E900235046594613F074FD2B
:10AEB0000022002314F094F9C0B9B1A3D3E9002310
:10AEC0005046594613F01AFF02460B460020C2496D
:10AED00008E1C24A934240F2D0800346C1F3130214
:10AEE000134340F0F481002980F2C4800020BC4963
:10AEF000C0E0BC4A934200F22981BB4A934240F22F
:10AF0000DE80002301930022B84B5046594613F0CF
:10AF1000F5FE06460F4602460B465046594613F0CC
:10AF2000EDFE99A3D3E9002304460D4613F0E6FE97
:10AF300097A3D3E9002313F02FFD22462B4613F0ED
:10AF4000DDFE95A3D3E9002313F024FD22462B4612
:10AF500013F0D4FE92A3D3E9002313F01DFD224683
:10AF60002B4613F0CBFE90A3D3E9002313F012FD80
:10AF700022462B4613F0C2FE00229D4B13F00CFD1F
:10AF80008046894602460B463046394613F0B6FEE7
:10AF900002460B460020974913F0FCFC0646024689
:10AFA0000B460F464046494613F0F4FC32468046B5
:10AFB00089463B465046594613F0A0FE02460B46D2
:10AFC00000208D4913F0E6FC02460B4640464946F8
:10AFD00013F0BEFF22462B4613F090FE019E024660
:10AFE0000B46002E38D0DDE9026732463B4613F0AF
:10AFF000D1FC52465B4613F081FE32463B4613F0CD
:10B00000C9FC2B46224613F0C5FC019B01330646C2
:10B010000F4600F00F81019B012B00F0F180019B96
:10B020000133392B39D8019B132B40F31281019C3A
:10B03000C4F57F75033500222B0513F0ADFC0246E5
:10B040000B465046594613F0A5FC0022684B13F0FE
:10B05000A3FC01EB04510DE05046594613F04EFE9F
:10B0600022462B4613F096FC02460B4650465946A4
:10B0700013F090FC05B0BDE8F08F4DA3D3E9002399
:10B0800014F0CCF800283FF409AF4BA3D3E9002318
:10B090001046194613F032FEECE752465B4613F0B9
:10B0A00079FC02460B460020514913F073FC019ACB
:10B0B0004F4B01EB0251002213F06CFCDAE73EA388
:10B0C000D3E9002313F068FC02460B46CAE72CA321
:10B0D000D3E900235046594613F010FE0B4643496E
:10B0E0000246002013F058FC14F0B8F8019013F059
:10B0F0009FFD33A3D3E9002306460F4613F0FEFD60
:10B1000002460B465046594613F044FC2EA3D3E9A1
:10B110000023804689463046394613F0EFFD064647
:10B120000F4632463B464046494613F033FC024642
:10B130000B4682468B464046494613F02BFC32466E
:10B140003B4613F027FCCDE90201DCE62B4A934293
:10B1500000F2958000291AA3D3E90023C0F2AC8045
:10B1600013F018FC012380468946019316A7D7E9FE
:10B170000067D6E7AFF3008059F3F8C21F6EA50150
:10B18000FE822B654715F73F2DC3096EB7FD8ABEBA
:10B190003952E686CACFD03EB7DBAA9E19CE143FFD
:10B1A0008555FE19A0015A3FF41011111111A13F4C
:10B1B000EF39FAFE422E86409C7500883CE4377ECB
:10B1C0000000E0FE422EE63F763C7935EF39EA3D5D
:10B1D00079684340412E86400000E0BFFFFFEF7FCB
:10B1E0000000F0BF422ED63FFFFF8F3C0000E03F43
:10B1F0000000F03F0000084000001840B1A2F03FFE
:10B200000022394B5046594613F0EAFF002844D03B
:10B21000504659460022354B13F0BEFB02460B4602
:10B220003046394613F0B6FB00224FF0404313F08E
:10B2300065FD1FE702460B465046594613F0AAFB30
:10B2400000222A4B13F05AFD0022284B13F0A2FBD8
:10B2500010E7019C4FF400132341C3F17F5752467E
:10B260005B4613F097FB002607F5401702460B4696
:10B270003046394613F08EFB01EB0451FAE616A373
:10B28000D3E9002313F03AFD002C02460B464FF0A1
:10B290000000FFF61CAE154924E732463B465046F7
:10B2A000594613F077FB02460B4613F075FB00225C
:10B2B0000F4B13F071FBDDE613F06EFB4FF0FF3325
:10B2C00080468946019306A7D7E9006729E7024629
:10B2D0000B4613F061FBCDE6FE822B654715F73F69
:10B2E000763C7935EF39EABD0000D0BF0000E03F81
:10B2F0000000F03F00000000F8B5C1F30A56044614
:10B300000D460B4617460EBB21F00043034386460D
:10B3100025D00022344B13F0F1FC344A9742044606
:10B320000D460B462ADBC1F30A56363E3E4440F238
:10B33000FE72964228DC002E12DD23F0FF4323F438
:10B34000E00343EA065520462946F8BD40F2FF7265
:10B350009642EBD102460B4613F01EFBF8BDF8BD3A
:10B3600016F1350F1DDA4CF250339F4222462B4620
:10B3700025DC19A1D1E9000113F07EFA16A3D3E967
:10B38000002313F0BBFCF8BD22462B4614A1D1E9E3
:10B39000000113F071FA12A3D3E9002313F0AEFCFD
:10B3A000F8BD23F0FF4323F4E003363643EA0655A5
:10B3B0002046294600220E4B13F0A0FCF8BD08A140
:10B3C000D1E9000113F058FA05A3D3E9002313F0E3
:10B3D00095FCF8BDAFF3008059F3F8C21F6EA501CC
:10B3E0009C7500883CE4377E00005043B03CFFFF72
:10B3F0000000903C10B5054C237833B9044B13B1D1
:10B400000448AFF300800123237010BD1085002095
:10B4100000000000241804000C4B43B10C480D49F7
:10B4200010B5AFF300800C48036823B910BD0A487B
:10B43000036833B97047094B002BF7D0BDE81040C3
:10B440001847064B002BF5D0184700BF000000003E
:10B45000241804001485002014820020000000003D
:10B46000154B002B08BF134B9D46A3F5803A0021D6
:10B470008B460F461348144A121A07F0C7FF0F4BAA
:10B48000002B00D098470E4B002B00D0984700208F
:10B49000002104000D000D48002802D00C48AFF335
:10B4A000008013F01FFA2000290005F049F913F07D
:10B4B00005FA00BF000008000000042000000000A2
:10B4C0000000000000840020B08C0020000000007C
:10B4D0000000000070B504460E4600F0D1F888B1B7
:10B4E0000368DB6A05469847082C0CD0A4F10903D1
:10B4F000012B14D93246214610230D20BDE870409F
:10B5000004F0D4B970BD2B6828465B6A98470228BE
:10B51000F0DC2B6828461B6A04219847EAE72B6871
:10B5200028465B6A98470528E4DC2B6828461B6A96
:10B5300008219847DEE700BF30B52DED028B83B0C0
:10B54000054600F09DF8044640B10368DB6A984761
:10B55000032D50D8DFE805F0373F470801900198E8
:10B5600003B0BDEC028B30BD20460BF0CBFB07EEE9
:10B57000900A2046F8EEE78A0BF0D2FB07EE900A1D
:10B580002046B8EEE78A0BF0D9FB68EE087A07EEA2
:10B59000100AE8EEA87AB8EEC77AE7EE077AF5EE79
:10B5A000407AF1EE10FAB1EEE78A03D517EE900A71
:10B5B00011F0D6FEFDEEC87ACDED017A019803B008
:10B5C000BDEC028B30BD204603B0BDEC028BBDE864
:10B5D00030400BF097BB204603B0BDEC028BBDE8BA
:10B5E00030400BF09DBB204603B0BDEC028BBDE8A4
:10B5F00030400BF0A3BB00230193B0E738B50546FC
:10B6000000F03EF858B10368DB6A0446984745B13C
:10B61000012D04D12046BDE83840FBF79DB800203D
:10B6200038BD2046BDE83840FBF776B810B5044673
:10B6300000F026F828B1036821461B6ABDE81040D7
:10B64000184710BD0048704716FCFFFF704700BF49
:10B6500010B5034B036004460BF050F9204610BDB3
:10B66000000D040010B5054B036004460BF046F9CD
:10B67000204614F085F8204610BD00BF000D0400E0
:10B680002DE9F043C14C236885B01BB1986805B023
:10B69000BDE8F0834FF0FF31012001F045FDC0B25D
:10B6A00004F0F6FB002800F006810C2014F06AF884
:10B6B00003210646512001F037FDDFF8F4E2B44BD8
:10B6C000054605F00F07C5F3031815F4807518BF7C
:10B6D0007346B048394642460AF096FA2A1C18BF0B
:10B6E00001223946434630460DF006FF0023AA48A2
:10B6F000B3600AF089FA4FF0FF31032001F014FD26
:10B70000C0B204F0C5FB4FF0FF310546022001F046
:10B710000BFDC0B204F0BCFB002D59D0002857D05F
:10B720000146284604F0A4F90746002800F0BF802F
:10B730004FF0FF31462001F0F7FC382880465CD0FE
:10B7400029DD3A2800F09B80682870D14FF0FF3146
:10B75000012001F0E9FCC0B204F09AFB81465C20B4
:10B7600014F010F80523054601934A46CDF80080F1
:10B77000394633460CF0FEFB2846B06003689B6AEE
:10B780009847B0680368DB6A984784480AF03CFA37
:10B790002660B0687BE7302801D0322847D14FF0CF
:10B7A000FF31012001F0C0FCC0B204F071FB814602
:10B7B000542013F0E7FF1FFA88F1054605234A4697
:10B7C00000910193394633460CF0A6F92846D4E798
:10B7D00073480AF019FA4FF0FF31192001F0A4FC68
:10B7E000C0B204F055FB4FF0FF310546182001F0C0
:10B7F0009BFCC0B204F04CFB92E74FF0FF310120FC
:10B8000001F092FCC0B204F043FB8146502013F0DB
:10B81000B9FF052305464A46CDF800803946019315
:10B8200033460CF083FA5F4B2B602846A5E73A6855
:10B830000125002301950095D2F82480B3600F22E2
:10B840000DF10F0332213846C04700283FD14FF099
:10B850003208414654480AF0D7F94FF0FF31012031
:10B8600001F062FCC0B204F013FB8146542013F0D7
:10B8700089FF052305464A46CDF80080A1E74FF031
:10B88000FF31012001F050FCC0B204F001FB814601
:10B89000502013F077FF0523054601934A46CDF863
:10B8A0000080394633460CF041FA284665E73F48A8
:10B8B0000AF0AAF96CE74FF0FF31032001F034FCE5
:10B8C000C0B204F0E5FA00287FF4EFAEDFE63B6893
:10B8D00001950095D3F824800F220DF10F0330213C
:10B8E0003846C04718B94FF030084146B2E73B68C8
:10B8F00001950095D3F824800D220DF10F03382116
:10B900003846C047C0B9382127480AF07DF94FF0C2
:10B91000FF31284601F008FCC0B204F0B9FA8046B5
:10B92000502013F02FFF4FF0050E382305464246F6
:10B9300039468DE8084073E73B6801950095D3F8D8
:10B9400024800D220DF10F033A213846C04788BBF1
:10B950003A2115480AF058F94FF0FF31284601F016
:10B96000E3FBC0B204F094FA8046502013F00AFFC3
:10B970004FF0050E3A2305468DE808404246394609
:10B9800033460CF0D3F92846F7E600BF2C8500209B
:10B99000640004006C0004008C0004002401040016
:10B9A0009C0004002800040048010400B0000400CA
:10B9B0005C0004003A6801950095D2F824800DF1EE
:10B9C0000F03752268213846C047E0B968211A483C
:10B9D0000AF01AF94FF0FF31284601F0A5FBC0B27A
:10B9E00004F056FA80465C2013F0CCFE4FF0050EB2
:10B9F000682305468DE808404246394633460CF038
:10BA0000B9FA2846B9E60D480AF0FEF8B0680028F1
:10BA10007FF4B4AE4FF0FF31032001F085FBC0B2DC
:10BA200004F036FA18B106480AF0EEF8B0E6054818
:10BA30000AF0EAF8ACE600BF480104003401040053
:10BA4000C80004000401040008B501F095FCFBF7F0
:10BA500027FCBDE8084001F0FDB900BF08B501F0C2
:10BA60008BFCFBF78DFCBDE8084001F0F3B900BF8B
:10BA700008B501F081FC10F023FFBDE8084001F09B
:10BA8000E9B900BF08B501F077FC11F02BFBBDE868
:10BA9000084001F0DFB900BF08B501F06DFCFBF70D
:10BAA0000FFCBDE8084001F0D5B900BF08B501F0B2
:10BAB00063FC11F043F9BDE8084001F0CBB900BFC9
:10BAC00008B501F059FCFAF767FEBDE8084001F03F
:10BAD000C1B900BF08B501F04FFC11F083F8BDE813
