:020000040002F8
:1060000000000420E53303000D3403000F340300C7
:1060100011340300133403001534030000000000A2
:106020000000000000000000000000001734030022
:1060300019340300000000001B3403001D3403006A
:106040001F3403001F34030085320300493203006C
:106050005D3203001F340300B92303003D39030000
:106060006D2E0300752E03007D2E03001F340300E8
:106070001F3403001F3403001F3403001F340300C8
:106080001F3403001F3403001F3403001F340300B8
:106090001F3403001F3403001F3403001F340300A8
:1060A0001F3403001F340300852E03008D2E0300D0
:1060B0001F3403001F340300000000000000000034
:1060C0001F3403001F3403001F3403007132030028
:1060D0001F3403001F3403001F3403001F34030068
:1060E000AD3203001F3403001F3403000000000022
:1060F000000000001F34030000000000993203007C
:10610000000000000000000000000000000000008F
:10611000000000000000000000000000000000007F
:10612000000000000000000000000000000000006F
:10613000000000000000000000000000000000005F
:10614000000000000000000000000000000000004F
:10615000000000000000000000000000000000003F
:10616000000000000000000000000000000000002F
:10617000000000000000000000000000000000001F
:10618000000000000000000000000000000000000F
:1061900000000000000000000000000000000000FF
:1061A00000000000000000000000000000000000EF
:1061B00000000000000000000000000000000000DF
:1061C00000000000000000000000000000000000CF
:1061D00000000000000000000000000000000000BF
:1061E00000000000000000000000000000000000AF
:1061F000000000000000000000000000000000009F
:106200007CB0EE877CB0EE87FF00FF00FF00FF0050
:10621000FF00FF00FF00FF00FF00FF00FF00FF0086
:10622000FF00FF00FF00FF00FF00FF00FF00FF0076
:10623000FF00FF00FF00FF002DE9F04F85B0039144
:106240000778A7F10903042B044607F07F0200F149
:106250000100F5D9202AF3D02B2F04BF677804461C
:106260002D2F72D09FED427B8DED007B4FF000080B
:106270004FF000098FB34FF0000E4FF0000ADFF827
:1062800000B1754619E00FF017FF80468946304689
:106290000FF0ACFE42464B460FF05CFD5246804686
:1062A00089465B46DDE9000135B310F02FF8CDE9F2
:1062B0000001AE4614F8017F7FB1A7F13006092E28
:1062C00052465B4640464946DDD9C5B92E2F16D108
:1062D00014F8017F0125002FEFD142464B46DDE93E
:1062E00000010FF0E9FE80468946039B404649467F
:1062F0001C6005B0BDE8F08F4FF0010EDAE7BEF18B
:10630000000F29D042464B46DDE900010FF0D4FED4
:1063100007F0DF07452F80468946E6D10399601CC8
:106320000A220FF0FBFC16490246002010F024FA66
:1063300002460B46404649460FF0BEFE804689465F
:106340004046494605B0BDE8F08F9FED0B7B67786E
:106350008DED007B013489E7DFF828904FF00008CD
:106360004046494605B0BDE8F08F00BFAFF300805E
:10637000000000000000F03F000000000000F0BF3F
:10638000000024400000F87F2DE9F84F1646002356
:10639000002204460D4610F001F9002840F09D80CF
:1063A000002200232046294610F0EEF828B13022C2
:1063B000002332707370BDE8F88F204629460FF035
:1063C00081F810F029F97BA3D3E9002381462946FF
:1063D000204610F0E3F8002800F08680B9F1000FA5
:1063E000C0F2BE804A4600206F4910F0C5F902464F
:1063F0000B46204629460FF089FF04460D4666A14C
:10640000D1E9000101274FF0000822462B460FF08A
:1064100053FE0022654B0FF09DFC10F0E9F9002FB0
:10642000CC464FF0FF3AC1464FF0000840F385805C
:10643000DFF888E15E4C0122AEF1700945F6F325E4
:106440004FF02E0BA94208BFA0424FF0300309D3F2
:10645000001B61EB0501A94208BFA04203F1010343
:10646000F6D2DBB2337050EA010306F1010409D120
:10647000BA4210DACE4502F101020CD026467EE87F
:106480000245DFE7BA4204BF86F801B0B41CCE452E
:1064900002F10102F2D1B8F1000F0DD022463021F5
:1064A00002F8011BC2F1010353442344002BF7DC23
:1064B0002AEAEA7301331C44BCF1010F4CD0652376
:1064C000BCF1000F2370C5BF2B236370611CA11C9E
:1064D0006046BDE8F84F09F0F7BB05F100431D46E3
:1064E0002D23337001365BE72DA3D3E9002320462B
:1064F000294610F071F800287FF470AFB9F10E0F43
:1065000009F101073DDDA9F10E08424600202649A8
:1065100010F032F902460B46204629460FF0F6FEEF
:106520000022224B0FF016FC10F062F9002FA9F1A7
:106530000F0A4FF0010C3FF77BAF334630222E2479
:1065400003F8022B74707FEA090618D01E4403F882
:10655000012BB342FBD16BE700232370BDE8F88F1A
:10656000C9F100020020104910F006F902460B465E
:10657000204629460FF0A0FD04460D463FE71E4683
:1065800056E7C9F10E0200200749C84610F0F4F89A
:106590004FF0010939E700BF0000901EC4BCD6428D
:1065A00050EFE2D6E41A4B44000024400000E03FE4
:1065B00000407A108DEDB5A0F7C6B03EF071030033
:1065C00070B54FF0FF3005F001FF04466FF07F40DB
:1065D00005F0FCFE064620460FF0F8FC00220C4BAE
:1065E0000FF06AFD044630460D460FF0EFFC06A39F
:1065F000D3E900230FF08AFE02460B4620462946C7
:106600000FF0A8FB70BD00BF0000E0DFFFFF6F438D
:106610000000F03D00000000494A21F00043934291
:106620002DE9704304460D464BDC464A93420E4624
:106630000EDC3FA3D3E900230FF08CFB0022424B7A
:106640000FF0CAFF00284CD020462946BDE87083D1
:106650003E4A93423BDCB3F1804F42DD0EF0C6FB75
:106660002246804689462B46204629460FF024FDC7
:106670000022354B0FF06EFB0FF08EF902460B46F1
:10668000404649460FF066FB02460B4600202E4965
:106690000FF03CFE424604460D464B4640464946F6
:1066A0000FF058FB02460B46204629460FF052FBDE
:1066B00002F06AF8002EC9DC01F100431946BDE87A
:1066C000708302460B460FF045FBBDE870830EF069
:1066D0008DFB02F059F818A3D3E900230FF03AFB21
:1066E000E8E722462B46204629460FF0E5FC804687
:1066F0008946204629460EF079FB002204460D46C5
:10670000114B404649460FF025FB0FF045F900229A
:106710000D4B0FF01FFB02460B46404649460FF05B
:10672000F5FD22462B460FF015FB00F0C5FAC1E738
:106730009C7500883CE4377EEF39FAFE422EE63F36
:10674000FFFFEF7FFFFF2F3E0000F03F0000B04152
:106750002DE9F84FC44B21F000469E4204460D46F9
:106760008A460EDDC14B9E4200F3AC8000F0A7804C
:10677000BAF1000F40F3EA809FA1D1E90001BDE822
:10678000F88FBB4B9E4200F3B580A3F1DE739E42AF
:1067900040F3A0804FF0FF3B22462B46204629467F
:1067A0000FF08AFC02460B46804689460FF084FCB7
:1067B00093A3D3E9002306460F460FF07DFC92A376
:1067C000D3E900230FF0C6FA32463B460FF074FCC3
:1067D0008FA3D3E900230FF0BDFA32463B460FF0FA
:1067E0006BFC8DA3D3E900230FF0B4FA32463B468D
:1067F0000FF062FC8AA3D3E900230FF0ABFA324614
:106800003B460FF059FC88A3D3E900230FF0A2FA0E
:1068100042464B460FF050FC85A3D3E90023804647
:106820008946304639460FF047FC83A3D3E900235D
:106830000FF08EFA32463B460FF03EFC80A3D3E9C0
:1068400000230FF085FA32463B460FF035FC7EA35D
:10685000D3E900230FF07CFA32463B460FF02CFCC4
:106860007BA3D3E900230FF073FA32463B460FF0C7
:1068700023FCBBF1FF3F02460B466CD04046494625
:106880000FF068FA22462B460FF016FC794E7A4B31
:106890004FEACB0B5E449B44DBE900230FF058FA30
:1068A00022462B460FF054FA02460B46D6E9000169
:1068B0000FF04EFABAF1000F43DBBDE8F88F002865
:1068C0003FF456AF22462B46204629460FF042FAA7
:1068D000BDE8F88F60A3D3E900230FF03BFA002254
:1068E000664B0FF079FE00283FF454AF204629464E
:1068F000BDE8F88F0EF07AFA614B9E4204460D46D1
:1069000039DCA3F550239E425EDC02460B460FF0B5
:1069100021FA0022594B0FF01BFA002206460F46BF
:106920004FF08043204629460FF014FA02460B46EA
:10693000304639460FF0EAFC4FF0000B04460D4696
:106940002AE701F100431946BDE8F88F44A1D1E9D7
:106950000001BDE8F88F404649460FF0FBF922469A
:106960002B460FF0A9FB02460B46204629460FF0A6
:10697000EFF9BDE8F88F434B9E421ADC0022424BF0
:106980000FF0E6F9002206460F463F4B2046294607
:106990000FF092FB0022394B0FF0DCF902460B4658
:1069A000304639460FF0B2FC4FF0020B04460D465C
:1069B000F2E602460B46002034490FF0A7FC4FF0E8
:1069C000030B04460D46E7E600222C4B0FF0C0F9FE
:1069D000002206460F46294B204629460FF0BAF9F9
:1069E00002460B46304639460FF090FC4FF0010B43
:1069F00004460D46D0E600BF182D4454FB21F93F54
:106A000011DA22E33AAD903FEB0D76244B7BA93FA0
:106A1000513DD0A0660DB13F6E204CC5CD45B73F6E
:106A2000FF8300922449C23F0D5555555555D53F1A
:106A30002F6C6A2C44B4A2BF9AFDDE522DDEAD3F0E
:106A40006D9A74AFF2B0B33F711623FEC671BC3FAE
:106A5000C4EB98999999C93F9C7500883CE4377EAE
:106A6000182D4454FB21F9BFFFFF0F440000F07FB5
:106A7000FFFFDB3F00720300207203000000F03FC5
:106A8000FFFFF23FFF7F03400000F83F0000F0BF30
:106A90002DE9F843C1F30A59A9F2FF35132D024637
:106AA0000B460C4606468846074622DC002D50DB86
:106AB000DFF8F09049FA05F901EA090E5EEA0606E8
:106AC0001CD036A3D3E900230FF044F900220023A1
:106AD0000FF082FD48B1002C04DD4FF4801343FA1F
:106AE00005F5A84428EA0904002721463846BDE8F0
:106AF000F883332D06DDB5F5806F3DD0104619467D
:106B0000BDE8F883A9F213494FF0FF3E2EFA09F9C8
:106B100010EA090FF2D021A3D3E900230FF01AF9EC
:106B2000002200230FF058FD0028DED0002C09DDE4
:106B3000142D2BD00127C5F1340507FA05F5AE1940
:106B400028BFB844444626EA090721463846BDE82E
:106B5000F88312A3D3E900230FF0FCF800220023EE
:106B60000FF03AFD0028C0D0002C0BDB54EA0607DA
:106B700006D00027084CB8E70FF0ECF8BDE8F88322
:106B80003C46B2E700274FF00044AEE704F10108AD
:106B9000D8E700BFAFF300800000F03F9C7500888D
:106BA0003CE4377EFFFF0F002DE9F041C1F30A57A7
:106BB000A7F2FF35132D02460B460C4688460646C3
:106BC0001CDC002D3FDB3A4F2F41864601EA070CC3
:106BD0005CEA0E0E17D034A3D3E900230FF0BAF805
:106BE000002200230FF0F8FC20B1002C3FDB28EA44
:106BF0000704002621463046BDE8F081332D06DD2E
:106C0000B5F5806F2FD010461946BDE8F081A7F288
:106C100013474FF0FF3E2EFA07F73842F3D022A376
:106C2000D3E900230FF096F8002200230FF0D4FCE4
:106C30000028DFD0002C20DB444626EA0706214648
:106C40003046BDE8F08118A3D3E900230FF082F8A5
:106C5000002200230FF0C0FC0028CBD0002C17DB53
:106C600000263446C6E70FF075F8BDE8F0814FF412
:106C7000801343FA05F5A844B9E7142D10D0012379
:106C8000C5F1340503FA05F5AE1928BF9844D3E7DA
:106C900024F00042074B324318BF1C460026A9E7E8
:106CA00004F10108C8E700BF9C7500883CE4377E0A
:106CB000FFFF0F000000F0BF2DE9F04FD84B9942C5
:106CC00087B0804689460E4613DCD64B21F000443F
:106CD0009C4218DD0022D44B0FF056FC002879D0DE
:106CE000002200230020D1490FF010FB07B0BDE8BF
:106CF000F08FCF4B99422FDD42464B460FF02AF8DA
:106D000007B0BDE8F08FCB4B9C4270DDCA4B1E44F0
:106D10009E427ED80022C94B404649460FF01AF8E1
:106D20004FEA215AAAF2FF3ABAF1000F04460D4683
:106D30000E4640F3DE8142464B460FF009F802460C
:106D40000B460020BD490FF003F822462B460FF0FA
:106D5000DDFACDE902010BE0B94B9E42DADD9FED91
:106D60009A7B8DED027B4FEA265A4446AAF2FF3AFF
:106D7000B44BC6F313069E4246F07F5500F3E780FE
:106D800045F44015204629460022AC4B0EF0E0FFAA
:106D9000002204460D46AC4B0FF08EF922462B46DE
:106DA0000FF08AF9A046CDE90401A946CDE900011A
:106DB000002E3AD100220023204629460FF0E4FBA2
:106DC000002800F0CE80BAF1000F40F0748100205E
:106DD000002195E742464B46404631460EF0B8FF4B
:106DE00002460B460FF092FA07B0BDE8F08F002282
:106DF000964B0EF0AFFF002200230FF0EDFB0028B2
:106E000000F0CC80924B9C4200F3C880404649463B
:106E100076E700228C4B0FF04FF942464B460FF0BD
:106E20004BF9CDE900014FF0000A00224FF08043FA
:106E3000404649460EF08EFF02460B464046494604
:106E40000FF064FA02460B4606460F460FF034F97F
:106E50005FA3D3E9002304460D460FF02DF95EA38E
:106E6000D3E900230EF076FF22462B460FF024F9DB
:106E70005BA3D3E900230EF06DFF22462B460FF0F3
:106E80001BF959A3D3E900230EF064FF22462B46D9
:106E90000FF012F956A3D3E900230EF05BFF224650
:106EA0002B460FF009F954A3D3E900230EF052FF4B
:106EB00022462B460FF000F951A3D3E900230EF030
:106EC00049FF22462B460FF0F7F804460D46BAF16B
:106ED000000F00F0BF8050460FF088F84AA3D3E9B6
:106EE000002382468B460FF0E7F8DDE90023CDE969
:106EF0000401204629460EF02DFF32463B460FF096
:106F0000DBF843A3D3E9002304460D465046594617
:106F10000FF0D2F8DDE902230EF01CFF02460B460B
:106F2000204629460EF016FF02460B46DDE9000119
:106F30000EF00EFF42464B460EF00AFF02460B468D
:106F4000DDE904010EF004FF07B0BDE8F08F45F461
:106F50000015C6F5801620462946B6100AF1010A2A
:106F600012E72DA3D3E90023204629460FF0A4F809
:106F700002460B46002031490EF0EAFEDDE904230B
:106F80000FF09AF806460F46BAF1000F73D1024689
:106F90000B46204629460EF0DBFEB1E642464B4644
:106FA000404649460FF088F80022274B0FF084F83E
:106FB00002460B46404649460EF0CAFE07B0BDE801
:106FC000F08F00BFAFF30080000000000000000061
:106FD00044523EDF12F1C23F9FC678D0099AC33FA8
:106FE000DE03CB966446C73FAF788E1DC571CC3F9C
:106FF000599322942449D23F04FA97999999D93FF9
:10700000935555555555E53F0000E0FE422EE63FAD
:10701000763C7935EF39EA3D555555555555E53F9F
:107020007982DA3FFFFFEF3F0000F0BF000050C35E
:10703000FFFFEF7FFFFF1F3E3C412D400000F03F70
:10704000FFFF3F439DA006000000E03F00005043CB
:10705000FFFF8F3CDDE9004522462B460EF07AFE0D
:1070600032463B460FF028F802460B46204629469A
:107070000EF06EFE9CE750460EF0B8FF23A3D3E956
:10708000002382468B460FF017F822A3D3E9002392
:1070900080468946504659460FF00EF8DDE9022336
:1070A0000EF058FE02460B46304639460EF050FEB2
:1070B00022462B46DCE750460EF098FF15A3D3E995
:1070C000002306460F460EF0F7FFDDE902230EF01F
:1070D00041FE0EA3D3E9002304460D46304639464F
:1070E0000EF0EAFF02460B46204629460EF032FE1D
:1070F00006E60022044B0EF02BFE02460B464046ED
:1071000049460EF025FE20E60000F03F0000E0FEBC
:10711000422EE63F763C7935EF39EA3D000000002B
:1071200008B50EF04FF904A3D3E900230FF0EEF8F1
:1071300008BD00BFAFF30080EF39FAFE422EE63FF4
:107140002DE9F043DFF8B4808BB004460D4601F022
:10715000F3F898F90030013306460F462BD022464B
:107160002B46204629460FF041FA814618BB20469F
:1071700029460DF03BFE1FA3D3E900230FF02CFAA4
:10718000C8B1194A98F90030CDF820900321CDE913
:107190000445CDE902458DE806008BB9134B4FF04D
:1071A0006042CDE9062368460EF0B8FC70B1089B3A
:1071B0009BB9DDE90667304639460BB0BDE8F08380
:1071C0000B490020022BCDE90601ECD10EF04EFD5B
:1071D00022230360089B002BEBD00EF047FD089B99
:1071E0000360E6E7AFF30080107D0300FFFFEF4789
:1071F0000000F07F7DF8B98FCE338640F381002008
:107200002DE9F043DFF8E4808BB004460D4601F031
:1072100043F998F90030013306460F4633D0204633
:1072200029460EF075FC70B32CA3D3E90023204649
:1072300029460FF0D1F9814650BB2AA3D3E9002398
:10724000204629460FF0AAF9E8B198F90030204A03
:10725000CDF82090002600270421022BCDE904451B
:10726000CDE90245CDE906678DE8060029D06846DC
:107270000EF054FC28B3089B1BB10EF0F7FC089BE2
:107280000360DDE90667304639460BB0BDE8F083A0
:107290000F4A98F90030019203210022CDE90445FC
:1072A000CDE90245009108922BB90A4B4FF060429C
:1072B000CDE90623DBE708490020022BCDE90601D2
:1072C000D5D10EF0D3FC22230360D4E7AFF30080C6
:1072D000187D0300FFFFEF470000F07FEF39FAFE53
:1072E000422E864051302DD5104987C0F3810020B1
:1072F0002DE9F04FDFF80C938DB006460F4614468B
:107300001D4601F0C5FC99F90080B8F1FF3FCDE9B9
:10731000000136D022462B46204629460FF066F95A
:10732000834670BB32463B46304639460FF05EF925
:107330008246002840F0A2803046394600220023D1
:107340000FF022F910B300220023204629460FF047
:107350001BF9834600286AD09FEDA17B0122A44B34
:10736000CDF828A00292CDE90467CDE906458DED60
:10737000087B0393B8F1000F45D09FED9B7B8DED0B
:10738000007BDDE900010DB0BDE8F08FDDE9000113
:107390000EF0BEFB8046002800F08D804FF0000A02
:1073A0004FF0000BDDE9000152465B460FF0ECF8B0
:1073B0000028E6D0304639460EF0AAFB0028E0D07F
:1073C000204629460EF0A4FB0028DAD099F90030B7
:1073D000874A039204210022022BCDE90467CDE9FC
:1073E0000645CDE908AB02910A9203D002A80EF03F
:1073F00095FB68B90EF03AFC2223036008E09FED8C
:10740000787B8DED087B02A80EF088FB002830D039
:107410000A9B1BB10EF02AFC0A9B03609DED087BC2
:107420008DED007BDDE900010DB0BDE8F08F204659
:1074300029460EF06DFB0028A3D000220023204631
:1074400029460FF0ABF800289BD099F90030684A24
:10745000CDF828B00121CDE90467CDE906450291B8
:107460000392002BCBD063490020022BCDE9080109
:10747000C9D10EF0FBFB21230360C9E700220023E2
:10748000204629460FF080F800283FF47AAF5A4B87
:107490005749CDF828B000220120B8F1020FCDE9FC
:1074A00004670290CDE90645CDE908230391AAD1EE
:1074B000CDE9002365E7304639460EF029FB002868
:1074C0003FF46CAF204629460EF022FB00283FF423
:1074D00065AFDDE90023104619460FF087F8002854
:1074E0005FD1032399F900800293414B0A90CDE9C3
:1074F0000467CDE906450393B8F1000F2BD1DFF8FF
:1075000008B14FF0604A0022002330463946CDE9E9
:1075100008AB0FF043F800283FF468AF0022374B68
:10752000204629460EF0C8FD04460D460EF0FEFA30
:1075300002460B46204629460FF026F870BB304B1A
:1075400099F900804FF06042CDE90823B8F1020FAD
:107550007FF44CAF4EE7DFF8B4B04FF0000A0022E2
:10756000002330463946CDE908AB0FF017F8002864
:10757000ECD00022214B204629460EF09DFD04460A
:107580000D460EF0D3FA02460B46204629460EF071
:10759000FBFF18B9174B0022CDE9082399F90080A9
:1075A000D4E799F90090124BCDF828800122CDE95B
:1075B0000467CDE9064502920393B9F1000F3FF449
:1075C0001EAF00220023104619460EF09FFEB9F1AF
:1075D000020FCDE908013FF44CAF14E7AFF3008090
:1075E0000000000000000000000000000000F03F6C
:1075F000307D03000000F0FF0000F03F0000E03F9E
:10760000FFFFEFC7F3810020FFFFEF470000F07F8F
:107610002DE9F84FC44E21F00043B34204460D4615
:107620000DDD03F1404303F58013034340F0B980BF
:10763000002940F3408100200021BDE8F88FBB4EB7
:10764000B34240F3A6800029C0F2788102460B467F
:107650000020B7490EF07CFB0022B64B0EF02CFD4B
:1076600004460D460EF098F995A3D3E90023894608
:107670008046294620460EF01FFD93A3D3E9002340
:107680000EF068FB22462B460EF016FD90A3D3E9C0
:1076900000230EF05DFB22462B460EF00DFD8EA35F
:1076A000D3E900230EF056FB22462B460EF004FDD4
:1076B0008BA3D3E900230EF04BFB22462B460EF0A2
:1076C000FBFC89A3D3E900230EF044FB22462B46A2
:1076D0000EF0F2FC86A3D3E9002382468B462046B7
:1076E00029460EF0E9FC84A3D3E900230EF030FB19
:1076F00022462B460EF0E0FC81A3D3E900230EF0D6
:1077000029FB22462B460EF0D7FC7FA3D3E90023AA
:107710000EF01EFB22462B460EF0CEFC0022844BC0
:107720000EF018FB02460B46504659460EF0EEFD91
:1077300042464B460EF0C0FC002682468B4632463F
:107740004B46304649460EF0B7FC02460B462046F3
:1077500029460EF0FDFA324604460D464B46404699
:1077600049460EF0F7FA02460B46204629460EF02F
:10777000CDFD02460B46504659460EF0EBFA324616
:107780004B460EF0E7FA02460B460EF0E3FABDE870
:10779000F88F694A93420EDC5DA1D1E90001BDE892
:1077A000F88F02460B460EF0D3FA02460B460EF057
:1077B000ADFDBDE8F88F02460B460EF07DFC40A300
:1077C000D3E9002306460F460EF076FC3EA3D3E92C
:1077D00000230EF0BFFA32463B460EF06DFC3CA390
:1077E000D3E900230EF0B4FA32463B460EF064FCB7
:1077F00039A3D3E900230EF0ADFA32463B460EF032
:107800005BFC37A3D3E900230EF0A2FA32463B46D5
:107810000EF052FC34A3D3E900230EF09BFA32465B
:107820003B460EF049FC32A3D3E90023804689464B
:10783000304639460EF040FC2FA3D3E900230EF06A
:1078400087FA32463B460EF037FC2DA3D3E90023DE
:107850000EF080FA32463B460EF02EFC2AA3D3E906
:1078600000230EF075FA32463B460EF025FC00224E
:107870002F4B0EF06FFA02460B46404649460EF07B
:1078800045FD22462B460EF017FC02460B4622A170
:10789000D1E900010EF05CFA02460B46204629466B
:1078A0000EF056FA02460B4619A1D1E900010EF07E
:1078B0004FFABDE8F88F1AA1D1E90001BDE8F88FB1
:1078C00009F7FD0DE13D023F88B20175E0EF493F48
:1078D0003B8F68B52882A43F5544880E55C1C93FE7
:1078E0007D6FEB0312D6D43F555555555555C53FC1
:1078F00082922EB1C5B8B33F59018D1B6C06E63F8D
:10790000C88A599CE52A00404B2D8A1C273A03401F
:10791000182D4454FB21F93F075C143326A6913CF3
:10792000182D4454FB210940FFFFEF3FFFFFDF3FCD
:107930000000F03F0000E03F0000603C00225C4B94
:107940000EF008FA00225B4B0EF0B6FB40A3D3E921
:10795000002304460D460EF0AFFB3FA3D3E90023FE
:107960000EF0F8F922462B460EF0A6FB3CA3D3E915
:1079700000230EF0EDF922462B460EF09DFB3AA3B4
:10798000D3E900230EF0E6F922462B460EF094FBD5
:1079900037A3D3E900230EF0DBF922462B460EF085
:1079A0008BFB35A3D3E900230EF0D4F922462B46F6
:1079B0000EF082FB80468946204629460DF0ECFFFA
:1079C0002FA3D3E9002306460F46204629460EF092
:1079D00073FB2DA3D3E900230EF0BAF922462B4600
:1079E0000EF06AFB2AA3D3E900230EF0B3F9224676
:1079F0002B460EF061FB28A3D3E900230EF0A8F973
:107A000022462B460EF058FB0022294B0EF0A2F91D
:107A100002460B46404649460EF078FC32463B464D
:107A20000EF04AFB1EA3D3E900230EF091F9324673
:107A30003B460EF08FF902460B460EF08BF90246DC
:107A40000B4619A1D1E900010EF082F9BDE8F88FCB
:107A500009F7FD0DE13D023F88B20175E0EF493FB6
:107A60003B8F68B52882A43F5544880E55C1C93F55
:107A70007D6FEB0312D6D43F555555555555C53F2F
:107A800082922EB1C5B8B33F59018D1B6C06E63FFB
:107A9000C88A599CE52A00404B2D8A1C273A03408E
:107AA000075C143326A6913C182D4454FB21094051
:107AB0000000F03F0000E03F434A91422DE9F843C7
:107AC00004460D4639DD414A914209DD02F1795201
:107AD000914240DD02460B460EF03CF9BDE8F883CA
:107AE00001F1404202F58012024330D0B1F1804FE3
:107AF0003ADC0022364B0EF02BF902460B460446C8
:107B00000D460EF027F9224606460F462B46204624
:107B100029460EF0D1FA02460B46304639460EF0A1
:107B200019F90DF039FF0B460246294620460EF0A2
:107B300011F9BDE8F843FFF7BFB802460B460EF057
:107B400007F902460B460EF0E1FBBDE8F883002082
:107B50000021BDE8F88300F017FE19A3D3E9002344
:107B60000EF0F8F8BDE8F88302460B460EF0A4FAD2
:107B70000022174B0EF0ECF80DF00EFF2246804667
:107B800089462B46204629460EF0E4F84246064632
:107B90000F464B46204629460EF0DCF802460B46BF
:107BA00000200B490EF0B2FB0B4602463946304628
:107BB0000EF0CEF8BDE8F84300F0E6BDAFF300806C
:107BC000EF39FAFE422EE63FFFFFEF3FFFFFAF41E6
:107BD0000000F03F000000002DE9F047BE4B21F00F
:107BE0000048984584B004460D4612DD08F140482F
:107BF00008F58018034658EA030321D002460B46D5
:107C00000EF0A6F802460B460EF080FB04B0BDE86D
:107C1000F087B24B98458A4629DCB8F1795F80F24B
:107C2000658191A3D3E900230EF094F80022AC4BB8
:107C30000EF0D2FCD8B12046294604B0BDE8F0874A
:107C40008BA3D3E900230EF037FA8BA3D3E90023EB
:107C500006460F46204629460EF02EFA02460B46EF
:107C6000304639460EF076F804B0BDE8F08720467D
:107C700029460DF0BBF802460B46002098490EF04D
:107C800067F80022974B0EF017FA7DA3D3E9002383
:107C900004460D460EF010FA7BA3D3E900230EF044
:107CA00059F822462B460EF007FA79A3D3E90023B0
:107CB0000EF04EF822462B460EF0FEF976A3D3E9DD
:107CC00000230EF047F822462B460EF0F5F974A378
:107CD000D3E900230EF03CF822462B460EF0ECF9D7
:107CE00071A3D3E900230EF035F822462B460EF09F
:107CF000E3F96FA3D3E90023CDE90001204629462B
:107D00000EF0DAF96CA3D3E900230EF021F8224635
:107D10002B460EF0D1F96AA3D3E900230EF01AF82E
:107D200022462B460EF0C8F967A3D3E900230EF0D4
:107D30000FF822462B460EF0BFF9694B00220EF0D9
:107D400009F8CDE90201204629460DF025FE664BD3
:107D5000984506460F4666DCDDE90223DDE90001B1
:107D60000EF0D4FA3246CDE900013B4630463946A2
:107D70000DF0F0FF02460B46DDE900010EF09CF924
:107D80004FF00008CDE9000142463B4640463946E7
:107D90000EF092F902460B46204629460DF0D8FF18
:107DA000424604460D463B46304639460DF0D2FF6A
:107DB00002460B46204629460EF0A8FA02460B461C
:107DC0000DF0C8FF02460B462BA1D1E900010DF0D2
:107DD000BFFF02460B46DDE900010DF0B9FF424648
:107DE00004460D463B46404639460DF0B3FF024679
:107DF0000B4637A1D1E900010DF0AAFF02460B4660
:107E0000204629460DF0A4FF02460B4630A1D1E9D9
:107E100000010DF09DFFBAF1000F3FF7F7AE01F141
:107E200000431946F2E6DDE90223DDE900010EF028
:107E30006DFA32463B460EF03FF932463B460DF0B6
:107E400089FF02460B460DF085FF0BA3D3E9002303
:107E50000DF07EFF02460B4605A1D1E900010DF0B1
:107E600077FFD8E7AFF300809C7500883CE4377E4D
:107E7000182D4454FB21F93F075C143326A6913C8E
:107E800009F7FD0DE13D023F88B20175E0EF493F82
:107E90003B8F68B52882A43F5544880E55C1C93F21
:107EA0007D6FEB0312D6D43F555555555555C53FFB
:107EB00082922EB1C5B8B33F59018D1B6C06E63FC7
:107EC000C88A599CE52A00404B2D8A1C273A03405A
:107ED000182D4454FB21E93FFFFFEF3FFFFFDF3F39
:107EE0000000F03F0000E03F3233EF3F02460B4618
:107EF0000EF0E2F837A3D3E9002306460F460EF052
:107F0000DBF836A3D3E900230DF024FF32463B46CD
:107F10000EF0D2F833A3D3E900230DF019FF324657
:107F20003B460EF0C9F831A3D3E900230DF012FF50
:107F300032463B460EF0C0F82EA3D3E900230DF0E5
:107F400007FF32463B460EF0B7F82CA3D3E90023D7
:107F50000DF000FF32463B460EF0AEF829A3D3E900
:107F6000002380468946304639460EF0A5F827A3FF
:107F7000D3E900230DF0ECFE32463B460EF09CF8B0
:107F800024A3D3E900230DF0E5FE32463B460EF074
:107F900093F822A3D3E900230DF0DAFE32463B46E4
:107FA0000EF08AF800220A4B0DF0D4FE02460B4672
:107FB000404649460EF0AAF922462B460EF07CF8C0
:107FC00022462B460DF0C6FE04B0BDE8F08700BF88
:107FD0000000F03F09F7FD0DE13D023F88B2017559
:107FE000E0EF493F3B8F68B52882A43F5544880E97
:107FF00055C1C93F7D6FEB0312D6D43F555555553A
:108000005555C53F82922EB1C5B8B33F59018D1B5E
:108010006C06E63FC88A599CE52A00404B2D8A1C15
:10802000273A0340000000002DE9F84F1D46534257
:10803000134325F0004ADFF8E0E14AEAD3737345C1
:10804000144606460F4647D8C0F1000848EA000823
:1080500021F0004343EAD878F0458B463CD805F13F
:10806000404808F5801858EA020850D04FEAA57831
:1080700008F0020848EAD17850EA030134D052EA05
:108080000A023CD0F24557D0734538D0A3EB0A031F
:108090001B153C2B42DC002D70DB22462B46304664
:1080A00039460EF033F90CF0A1FEFEF751FBB8F1A2
:1080B000010F5FD0B8F1020F4ED0B8F1000F62D0BF
:1080C00043A3D3E900230DF043FE43A3D3E90023E8
:1080D0000DF03EFEBDE8F88F32463B46204629466D
:1080E0000DF038FEBDE8F88FB8F1020F1AD0B8F1E4
:1080F000030F10D13AA1D1E90001BDE8F88FBBF11F
:10810000000F14DB38A1D1E90001BDE8F88FBDE80C
:10811000F84FFEF71DBB3946BDE8F88F32A1D1E913
:108120000001C4E72CA1D1E90001BDE8F88F30A11E
:10813000D1E90001BDE8F88F534526D0B8F1020F10
:10814000F0D0B8F1030FD5D0B8F1010F4FF0000017
:1081500029D00021BDE8F88F1DA3D3E900230DF03D
:10816000F7FD02460B461CA1D1E900010DF0F0FD20
:10817000BDE8F88F01F10041BDE8F88F3C338CDA9F
:108180000020002193E7BDE8F88FB8F1020F18D066
:10819000B8F1030F10D0B8F1010F08D016A1D1E942
:1081A0000001BDE8F88F4FF00041BDE8F88F14A141
:1081B000D1E90001BDE8F88F13A1D1E90001BDE8C4
:1081C000F88F13A1D1E90001BDE8F88FAFF300806B
:1081D000075C143326A6A13C182D4454FB2109400A
:1081E000182D4454FB2109C0182D4454FB21F93F9C
:1081F000182D4454FB21F9BF182D4454FB21E93FAD
:10820000182D4454FB21E9BFD221337F7CD902C011
:10821000D221337F7CD902400000F07F00000000B3
:1082200043422DE9F047034321F000463E4A46EA27
:10823000D373934204460D4613D896423DD03B4B30
:108240009E428A4617DC36A3D3E900230DF082FD57
:10825000002200230EF0C0F9A8B320462946BDE84D
:10826000F08702460B460DF073FD02460B460EF0FA
:108270004DF8BDE8F0872E4B9E42354624DD33464F
:10828000024631460DF066FD224606460F462B4655
:10829000002025490DF05CFD02460B46304639466C
:1082A0000EF034F8FEF708FD0022224B0DF004FF1B
:1082B000BAF1000F2FDBBDE8F087002200230EF09B
:1082C00025F8BDE8F087354622462B46204629464C
:1082D0000DF040FD22462B4606460F460DF0ECFE03
:1082E0002246804689462B4600200F490DF030FD7E
:1082F00002460B46404649460EF008F832463B46D9
:108300000DF028FDFEF7D8FC00220A4B0DF0D4FE3C
:10831000BAF1000FCFDA01F100431946BDE8F0874A
:108320009C7500883CE4377E0000F03FFFFF2F3E45
:10833000FFFFDF3F0000E03F2DE9F8434E4B21F007
:1083400000449C4206460F461BDC4C4B9C4222DDFF
:108350004B4B9C4263DD4B4B9C427BDD4A4B9C422A
:1083600046DD01339C4240D041A3D3E900231046AF
:1083700019460DF0A1FE06460F4630463946BDE8C7
:10838000F88302460B460DF097FE06460F46304630
:108390003946BDE8F8830CF029FD02F0B1FC00225B
:1083A0003A4B804689460DF0D5FCB4F1725F064623
:1083B0000F46ECDB42464B46404649460DF07CFEFC
:1083C00032463B4604460D46304639460DF0C2FC67
:1083D00002460B46204629460DF098FF00222B4B03
:1083E0000DF0B8FC06460F46D1E7294B9842BBD8A2
:1083F000304639460CF0FAFC0022264B0DF05CFEAC
:1084000000F04AF8002204460D46224B0DF054FEBF
:1084100022462B460DF050FE06460F46B7E70CF0FD
:10842000E5FC00F039F800221A4B06460F460DF025
:1084300043FE32463B4604460D46002015490DF0EA
:1084400065FF02460B46204629460DF083FC064692
:108450000F469CE70CF0CAFC00F01EF800220D4B02
:108460000DF02AFE06460F4691E700BFAFF30080ED
:108470009C7500883CE4377EFFFFEF7F422ED63F9D
:10848000FFFF3540412E8640CD3386400000F03F4F
:108490007DF8B98F0000E03F2DE9F04FB04E21F09C
:1084A0000042B24283B004460D464FEAD1770DD95F
:1084B000AC4EB24225D9C1F31303034340F0EC8024
:1084C0000FB10020002103B0BDE8F08FA64B9A4207
:1084D00000F2CB80A54B9A4200F2DC808AA3D3E95C
:1084E00000230DF037FC0022A14B0EF075F8002898
:1084F00000F006812046294600229D4B0DF02AFC03
:10850000E1E783A3D3E900230EF066F8002840F0EA
:10851000C88081A3D3E90023204629460EF03EF807
:108520000028CED1934E7EA3D3E9002306EBC706E5
:10853000204629460DF0C0FDD6E900230DF00AFCC7
:108540000EF06AF806460DF051FD77A3D3E900233B
:10855000804689460DF0B0FD02460B46204629466E
:108560000DF0F6FB72A3D3E90023CDE900014046EC
:1085700049460DF0A1FD82468B4652465B46DDE939
:1085800000010DF0E5FB04460D4622462B46204631
:1085900029460DF091FD68A3D3E900238046894662
:1085A0000DF08AFD66A3D3E900230DF0D1FB42460E
:1085B0004B460DF081FD64A3D3E900230DF0CAFB07
:1085C00042464B460DF078FD61A3D3E900230DF040
:1085D000BFFB42464B460DF06FFD5FA3D3E900237E
:1085E0000DF0B8FB42464B460DF066FD02460B46C9
:1085F000204629460DF0ACFB80468946002E58D017
:108600002046294642464B460DF056FD424604465A
:108610000D464B4600204FF080410DF099FB02467D
:108620000B46204629460DF071FE02460B46504689
:1086300059460DF08DFBDDE900230DF089FB0B465B
:1086400002464B4900200DF083FB6FF47F739E427E
:1086500051DA06F57A7601EB065100224FF0B87335
:108660000DF02AFD03B0BDE8F08F434B9A423FF670
:1086700059AF424BFC002344D3E900230DF068FBC3
:108680003F4BC7F101062344CDE90001D3E900AB1C
:10869000F61B72E7002678E702460B460DF05AFB00
:1086A00011E719A3D3E90023104619460DF004FD84
:1086B00009E702460B46204629460DF0FDFC002244
:1086C00006460F464FF08043404649460DF040FBBA
:1086D00002460B46304639460DF018FE22462B4620
:1086E0000DF036FB02460B46002021490DF030FB11
:1086F00003B0BDE8F08F01EB065103B0BDE8F08F89
:10870000064642E7AFF300809C7500883CE4377E64
:10871000EF39FAFE422E864051302DD5104987C0E0
:10872000FE822B654715F73F0000E0FE422EE63F34
:10873000763C7935EF39EA3DD0A4BE726937663EA2
:10874000F16BD2C541BDBB3E2CDE25AF6A56113F51
:1087500093BDBE166CC1663F3E5555555555C53F38
:10876000412E8640FFFFEF7F422ED63FFFFF2F3E78
:108770000000F03F40720300B1A2F03F50720300CE
:1087800060720300000000002DE9F04FB1F5801F7A
:1087900085B006460F460B465ADA024621F00044E1
:1087A000224300F0F8800029C0F27A810022D64BE3
:1087B0000DF082FCD54A0B46934206460F466FF0F9
:1087C000350C4ADCC3F3130505F5152E0EF6647E51
:1087D0000EF4801E8EF07F5282F440121C1542EA85
:1087E0000507A4F2FF3464440022C94B30463946E1
:1087F00004EB1E540DF0ACFAAB1CC3F31303022BB5
:1088000082468B464FF0000230DC00230DF0BCFEA8
:10881000002800F0C980002C00F04B8120460DF0AC
:10882000E5FBA5A3D3E9002306460F460DF044FC63
:10883000A3A3D3E9002304460D46304639460DF084
:108840003BFC02460B46204629460DF083FA0AE01F
:10885000AE4A93424FF0000CB4DD32463B46304600
:1088600039460DF077FA05B0BDE8F08F4FF0804340
:108870000DF070FA02460B46504659460DF046FD83
:10888000064620460F460DF0B1FB3246CDE9000109
:108890003B4630463946CDE902670DF00DFC0246F5
:1088A0000B46804689460DF007FC87A3D3E90023D9
:1088B00006460F460DF000FC85A3D3E900230DF01A
:1088C00049FA32463B460DF0F7FB83A3D3E9002378
:1088D0000DF040FA32463B460DF0EEFB80A3D3E9A3
:1088E00000230DF037FA42464B460DF0E5FB7EA320
:1088F000D3E9002380468946304639460DF0DCFB3B
:108900007BA3D3E900230DF025FA32463B460DF058
:10891000D3FB79A3D3E900230DF01CFA32463B4682
:108920000DF0CAFB0B460246494640460DF012FACE
:10893000A5F5C223C5F5D725A3F27A4351351D43CA
:10894000002D8046894656DD0022724B504659461E
:108950000DF0B2FB52465B460DF0AEFB06460F46ED
:10896000002C68D132463B46404649460DF0F2F9AC
:10897000DDE902230DF0A0FB02460B4630463946E6
:108980000DF0E6F902460B46504659460DF0E0F967
:1089900005B0BDE8F08F0022002300205E490DF0F5
:1089A000B5FC05B0BDE8F08F55A3D3E900235046D0
:1089B00059460DF081FB02460B46002055490DF04B
:1089C000C7F9524606460F465B46504659460DF0DB
:1089D00073FB02460B46304639460DF06DFB0646EA
:1089E0000F46002C40F09A8002460B4650465946EE
:1089F0000DF0AEF937E7002C00F0A4802EA3D3E9E8
:108A00000023DDE900010DF057FB42464B460446CA
:108A10000D46504659460DF09BF9DDE902230DF055
:108A20004BFB27A3D3E9002306460F46DDE90001EF
:108A30000DF042FB21E020A3D3E90023DDE9000192
:108A40000DF03AFB32463B4604460D464046494649
:108A50000DF080F9DDE902230DF02EFB18A3D3E918
:108A6000002380468946DDE900010DF025FB024622
:108A70000B46404649460DF06DF902460B4630461E
:108A800039460DF065F952465B460DF061F9024634
:108A90000B46204629460DF05BF905B0BDE8F08F86
:108AA00002460B460DF054F9002200230DF02EFC77
:108AB000D9E600200021D6E60000E0FE422EE63F87
:108AC000763C7935EF39EA3D44523EDF12F1C23F40
:108AD000DE03CB966446C73F599322942449D23F84
:108AE000935555555555E53F9FC678D0099AC33FD4
:108AF000AF788E1DC571CC3F04FA97999999D93FEB
:108B0000555555555555D53F00005043FFFFEF7F54
:108B10000000F03F0000E03F000050C320460DF091
:108B200065FA0FA3D3E90023804689460DF0C4FA05
:108B30000DA3D3E9002304460D46404649460DF0F7
:108B4000BBFA9AE702460B46504659460DF000F92B
:108B5000DDE902230DF0B0FA14E700BFAFF30080A7
:108B60000000E0FE422EE63F763C7935EF39EA3DE3
:108B7000B1F5801F2DE9F84304460D460B461ADA7D
:108B8000024621F00046324359D000295FDB002223
:108B90003B4B0DF091FA3B4A0D462B46934204465F
:108BA0006FF035010CDD22462B46204629460DF09C
:108BB000D1F8BDE8F883334A93424FF00001F2DC6C
:108BC0001815A0F2FF3008444FEAD0794844C3F3A7
:108BD00013080DF00BFAC9F57F73033348EA035508
:108BE00006460F4620462946FFF7CEFD1EA3D3E9D1
:108BF000002380468946304639460DF05DFA1CA3B5
:108C0000D3E9002304460D46404649460DF054FA88
:108C100002460B46204629460DF09CF816A3D3E9E0
:108C2000002304460D46304639460DF045FA02460B
:108C30000B46204629460DF08DF8BDE8F88300224A
:108C40000023002010490DF061FBBDE8F8830246C7
:108C50000B460DF07DF8002200230DF057FBBDE818
:108C6000F88300BFAFF30080362BF111F3FE593DBE
:108C70000EE526157BCBDB3F00609F501344D33FAE
:108C800000005043FFFFEF7F000050C300000000D2
:108C90002DE9F04F23F0004757EA020493B037D094
:108CA000674C21F00046A64283460D4629DC9A46D1
:108CB000964625D0A74224DC614CA74279D0002DEE
:108CC00080468946CDE9002377DB0024BEF1000F02
:108CD0002CD15B4B9F4200F08B805A4B9F4261D05E
:108CE000BAF1804F00F0C383574B9A451ED1002D37
:108CF0001CDB4046494613B0BDE8F04F0CF04CBEBB
:108D000058B106F1404606F5801656EA0B0306D127
:108D10004C49002013B0BDE8F08FB742CCDD4B4882
:108D200013B0BDE8F04F0CF0FBBE002440464946AE
:108D30000CF05CF8BBF1000F19D126B1414B25F0C6
:108D400040429A4213D1BAF1000FC0F2CA83002DFB
:108D5000E0DA06F1404606F5801656EA040300F014
:108D6000A584012CD6D101F100431946D2E7ED0FBD
:108D7000013D54EA05034ED0354B9F426EDD03F1B1
:108D800004739F4240F3FE83324B9E424EDDBAF1A4
:108D9000000F4EDD28A3D3E90023104619460DF03D
:108DA0008BF9B7E7BAF1000FC0F25284404649464A
:108DB000B0E7BEF1000F82D0A3E7274B9F4228DC2B
:108DC000A3F154739F4280DD3B15A3F2FF33142BB4
:108DD00040F35484C3F134032EFA03F202FA03F38E
:108DE0009E457FF472AF02F00102C2F102046DE70A
:108DF00006F1404303F5801353EA0B0388D0154B6B
:108E00009E4240F33B83BAF1000F12DBDDE9000123
:108E100080E702245AE742464B46104619460CF0BA
:108E200097FF02460B460DF071FA73E7BAF1000F97
:108E3000B0DB002000216DE79C7500883CE4377EA4
:108E40000000F07F0000F03F0000E03F14790300D5
:108E50000000E041FFFFEF3FFFFF3F43B6F5801FFB
:108E60004FF0000205DAD84B0DF026F96FF034020E
:108E70000E463315D54FC6F31306A3F2FF33134442
:108E800046F07F5ABE421A460D934AF4401A40F308
:108E90002F83CF4B9E4240F30D849FEDB57B8DED2C
:108EA000087B8DED0E7B9FEDB47B13468DED067B2D
:108EB00001330D93AAF5801A0027DDE906235146F8
:108EC000CDE90A010CF044FFDDE90623804689461E
:108ED000DDE90A010CF03EFF02460B460020BD49C9
:108EE0000DF014FA0A460146CDE910121346494620
:108EF000024640460DF0E0F84FEA6A0343F00053A3
:108F00008C46834603F50023CDE904BCDA468B4644
:108F1000D9190023CDE902AB0293DDE902AB0020B1
:108F200006460F4602460B46504659460DF0C4F819
:108F300002460B46404649460CF00AFFDDE906238F
:108F400080468946304639460CF002FF02460B4601
:108F5000DDE90A010CF0FCFE52465B460DF0ACF870
:108F600002460B46404649460CF0F2FEDDE910236E
:108F70000DF0A2F8DDE90467CDE9060132463B4673
:108F8000304639460DF098F87DA3D3E90023064614
:108F90000F460DF091F87CA3D3E900230CF0DAFE24
:108FA00032463B460DF088F879A3D3E900230CF054
:108FB000D1FE32463B460DF07FF877A3D3E900237C
:108FC0000CF0C8FE32463B460DF076F874A3D3E9A8
:108FD00000230CF0BFFE32463B460DF06DF872A345
:108FE000D3E900230CF0B6FE3246804689463B4664
:108FF000304639460DF060F802460B464046494679
:109000000DF05AF8524606460F465B46DDE904016C
:109010000CF0A0FEDDE906230DF04EF832463B468B
:109020000CF098FE5246804689465B4650465946AB
:109030000DF042F80022684BCDE90A010CF08AFEDF
:1090400042464B460CF086FE02980F4606463246D4
:109050003B46504659460DF02FF8002282468B467B
:109060005D4B304639460CF073FEDDE90A230CF007
:109070006FFE02460B46404649460CF069FEDDE9AC
:1090800004230DF019F83246804689463B46DDE957
:1090900006010DF011F802460B46404649460CF019
:1090A00059FE8046894602460B4650465946CDE950
:1090B00004AB0CF04FFEDDE902AB3DA3D3E9002386
:1090C00050460F460CF0F8FFDDE90423CDE902011C
:1090D000394650460CF03CFE02460B464046494697
:1090E0000CF036FE34A3D3E900230CF0E5FF34A3E3
:1090F000D3E9002380468946504639460CF0DCFF10
:1091000002460B46404649460CF024FEDDE90E239C
:109110000CF020FE80460D9889460CF067FF424611
:1091200006460F464B46DDE902010CF013FEDDE971
:1091300008230CF00FFE32463B460CF00BFE324685
:109140003B4650468B460CF003FEDDE908230CF04D
:10915000FFFDDDE902230CF0FBFD02460B46404615
:1091600049460CF0F5FD8046894637E0AFF30080B4
:109170000000000000000000000000000000F03FC0
:10918000EF4E454A287ECA3F65DBC9934A86CD3FEC
:1091900001411DA96074D13F4D268F515555D53FD2
:1091A000FFAB6FDBB66DDB3F033333333333E33F6A
:1091B000000000E009C7EE3FFD033ADC09C7EE3FBF
:1091C000F5015B14E02F3EBE000040438E98030083
:1091D00079B60B000000F03F00000840013C54EA63
:1091E000050300F079819FEDC87B8DED047BDDE9FF
:1091F00000120B461446CDE9023400230293DDE948
:10920000024508462B46114622460CF0A1FD524667
:109210005B460CF051FFDDE9002306460F46404651
:1092200049460CF049FF02460B46304639460CF0E1
:1092300091FD2246804689462B4650465946CDE947
:1092400000890CF039FF0B46024606460F464046A1
:1092500049460CF07FFDC64B994204460D468A46AE
:1092600040F3168101F13F4303F5E003034340F06F
:10927000F781A7A3D3E90023DDE900010CF06AFD23
:109280003246804689463B46204629460CF060FD22
:1092900002460B46404649460DF09EF9002840F034
:1092A000DF81A8464FEA28534FF48012A3F2FE3321
:1092B00042FA03F35344C3F30A52AE4DA2F2FF3213
:1092C0001541C3F3130423EA05010020C2F1140B76
:1092D00044F48014BAF1000F02460B4644FA0BFB2B
:1092E00030463946B8BFCBF1000B0CF031FD0246D9
:1092F0000B4606460F46DDE900010CF02BFD4FEA58
:109300000B5A0D46002484A3D3E9002320462946A6
:109310000CF0D2FE3246804689463B46204629461E
:109320000CF016FD02460B46DDE900010CF010FDC5
:109330007BA3D3E900230CF0BFFE7BA3D3E900237A
:1093400006460F46204629460CF0B6FE02460B465E
:10935000304639460CF0FEFC06460F4602460B46E8
:10936000404649460CF0F6FC42464B4604460D4644
:109370000CF0EEFC02460B46304639460CF0E8FC99
:109380002246804689462B46204629460CF094FE0C
:1093900067A3D3E9002306460F460CF08DFE66A3B3
:1093A000D3E900230CF0D4FC32463B460CF084FE9B
:1093B00063A3D3E900230CF0CDFC32463B460CF00E
:1093C0007BFE61A3D3E900230CF0C2FC32463B468E
:1093D0000CF072FE5EA3D3E900230CF0BBFC324616
:1093E0003B460CF069FE02460B46204629460CF02F
:1093F000AFFC06460F4602460B46204629460CF0B7
:109400005BFE0022CDE900014FF080433046394633
:109410000CF09EFC02460B46DDE900010CF076FFE5
:10942000424606460F464B46204629460CF044FE6F
:1094300042464B460CF08EFC02460B4630463946FF
:109440000CF086FC22462B460CF082FC02460B46B2
:10945000002049490CF07CFC8A44BAF5801FC0F218
:1094600039815146DDE904230CF026FE52E44246E0
:109470004B46404649460CF01FFE4BE4BAF1000F44
:10948000BFF6D7ACDDE90034184604F1004141E4F1
:109490003A4B21F00048984540F3FF80384B0B448D
:1094A00003430CD132463B460CF052FC02460B46BD
:1094B000DDE900010DF07CF800283FF4F3AEDDE9B2
:1094C000040125A3D3E900230CF0F6FD22A3D3E980
:1094D00000230CF0F1FD1DE49FED217B8DED047B5D
:1094E00085E602460B46002023490CF00FFF2EE4D0
:1094F0009FED1D7B8DED087B8DED0E7B9FED027B3F
:1095000000278DED067BD8E4000000000000F03F4E
:10951000FE822B654715973C00000000432EE63F76
:10952000EF39FAFE422EE63F396CA80C615C20BE92
:10953000D0A4BE726937663EF16BD2C541BDBB3E59
:109540002CDE25AF6A56113F93BDBE166CC1663F37
:109550003E5555555555C53F59F3F8C21F6EA501E7
:10956000000000000000F0BF00000000000000004C
:10957000FFFF8F40FFFF0F000000F03FFFCB904048
:1095800000346F3F684B9E427FF750AC674B9E4262
:109590003FF7FDAB0022654B0CF0DAFB52A3D3E999
:1095A000002306460F460CF087FD51A3D3E90023A4
:1095B00080468946304639460CF07EFD00228246C0
:1095C0008B465B4B304639460CF076FD02460B4627
:1095D00049A1D1E900010CF0BBFB32463B460CF03F
:1095E0006BFD02460B46002052490CF0B1FB32469F
:1095F000CDE902013B46304639460CF05DFD02469E
:109600000B46DDE902010CF057FD3DA3D3E9002331
:109610000CF052FD02460B46504659460CF098FBA2
:1096200002460B4606460F46404649460CF092FB62
:1096300042464B46002082468B460CF089FB024690
:109640000B46304639460CF083FB80468946C5E51B
:1096500042464B46002035490CF058FEFFF75ABBF6
:10966000DDE9040128A3D3E900230CF025FD26A39E
:10967000D3E900230CF020FDFFF74CBBBEF1000F37
:109680007FF453ABC3F1140347FA03F202FA03F376
:109690009F4223D07446FFF720BB264B98453FF7E7
:1096A00001AEDDE90223924693462BE602460B46C5
:1096B000FFF7B3BB9FED167B8DED087B9FED167B0F
:1096C0008DED0E7B9FED167B4FF480278DED067B95
:1096D000FFF7F3BB5A4601F04FFDC3E602F001026B
:1096E000C2F10204FFF7F9BA000000604715F73F26
:1096F00044DF5DF80BAE543E555555555555D53F95
:10970000FE822B654715F73F9C7500883CE4377E49
:109710000000004003B8E23F06D0CF43EBFD4C3ED3
:10972000000000000000F83FFEFFEF3F0000F03FA8
:109730000000D03F0000E03F2DE9F0479C4B21F0B6
:1097400000479F4290B08046894640F38E80994BF7
:109750009F420C46924626DC00298BA3D3E90023C6
:1097600040F3B0810CF0F4FA934B9F4204460D464F
:1097700000F0908086A3D3E900230CF0E9FA0246BA
:109780000B46CAE90023204629460CF0E1FA80A3E3
:10979000D3E900230CF0DCFA0125CAE902012846CE
:1097A00010B0BDE8F087854B9F4240F39080844B1A
:1097B0009F4265DC3D15A5F21645A7EB05531946FA
:1097C0001F4606460CF028FF0CF010FC8046894628
:1097D00042464B4630463946CDE90A890CF0B8FA84
:1097E0000022784B0CF068FC894680460CF014FF90
:1097F0000CF0FCFB06460F4632463B4640464946C7
:10980000CDE90C670CF0A4FA00226E4B0CF054FC6E
:1098100000220023CDE90E010CF0B6FE002800F076
:109820006F8100233046394600220CF0ADFE00283F
:1098300014BF01230223644A019202212A460091A7
:109840000AA8514600F08CFB002C054614DADAF821
:109850000420DAF80C3002F1004203F100434542E3
:10986000CAF80420CAF80C3006E000200021C2E942
:109870000089C2E902010025284610B0BDE8F08742
:1098800002460B460CF064FA0025CAE90201CAE957
:109890000001F1E740A3D3E900230CF059FA40A3FB
:1098A000D3E900230D4604460CF052FA02460B465B
:1098B000CAE90023294620460CF04AFA38A3D3E926
:1098C00000230CF045FA0125CAE90201D4E70BF0A8
:1098D0008DFA35A3D3E90023804689460CF0ECFBD2
:1098E00000223A4B0CF036FA0CF096FE05460CF0CE
:1098F0007DFB25A3D3E90023CDE906010CF0DCFBB9
:1099000002460B46404649460CF022FA20A3D3E912
:109910000023CDE90201DDE906010CF0CDFB1F2D8E
:1099200080468946CDE9048954DC294B6A1E53F8E8
:1099300022309F424ED002460B46DDE902010CF078
:1099400007FA80468946CAE9008942464B46DDE966
:1099500002010CF0FDF9DDE904230CF0F9F9002C0B
:10996000CAE9020188DA09F1004401F100436D42BD
:10997000CAF80080CAF80440CAF80800CAF80C30D7
:109980007AE700BFAFF3008000004054FB21F93FAD
:109990003163621A61B4D03D0000601A61B4D03DF9
:1099A0007370032E8A19A33B83C8C96D305FE43FEF
:1099B000FB21E93F7BD90240FB21F93FFB213941E3
:1099C000FFFFEF7F00007041C47D03000000E03F17
:1099D000447D0300DDE90423DDE902010CF0B8F960
:1099E0003F15C1F30A53FB1A80468946102BCAE97A
:1099F0000089AADD58A3D3E90023DDE906010CF0B4
:109A00005BFB8046894602460B46DDE902010CF00D
:109A10009FF902460B46DDE90201CDE908230CF06F
:109A200097F942464B460CF093F94DA3D3E9002336
:109A300080468946DDE906010CF03EFB42464B4676
:109A40000CF086F90B46CDE904010246DDE9080178
:109A50000CF07EF9C1F30A53FF1A80468946312F74
:109A6000CAE900896CDD41A3D3E90023DDE90601E1
:109A70000CF022FBDDE9088906460F4602460B463C
:109A8000404649460CF064F902460B4640464946BA
:109A9000CDE902230CF05CF932463B460CF058F954
:109AA00034A3D3E9002306460F46DDE906010CF096
:109AB00003FB32463B460CF04BF902460B46CDE920
:109AC00004233AE70CF046F9274B9F4204460D4623
:109AD00018D01FA3D3E900230CF03CF902460B4633
:109AE000CAE90023294620460CF032F918A3D3E92D
:109AF00000230CF02FF94FF0FF35CAE90201BBE655
:109B0000032398E614A3D3E900230CF023F914A34C
:109B1000D3E900230D4604460CF01CF902460B461F
:109B2000CAE90023294620460CF012F90CA3D3E918
:109B300000230CF00FF94FF0FF35CAE902019BE654
:109B40009DED087B8DED027BFFE600BFAFF300804B
:109B50003163621A61B4D03D0000601A61B4D03D37
:109B60007370032E8A19A33BFB21F93F0000002EDE
:109B70008A19A33BC14920259A837B390000000044
:109B8000594A2DE9F84F21F00048904506460F4606
:109B90002BDC564B0029B4BF554D564D98454FF020
:109BA000000410DC544B984570DC4DA3D3E900232E
:109BB0000CF0D0F80022514B0CF00EFDD8B130461D
:109BC0003946BDE8F88F4E4B98457CDD4D4B9845A6
:109BD00044DD013398453ED03046394640A3D3E9B1
:109BE00000230CF069FABDE8F88F02460B460CF032
:109BF000B1F8BDE8F88F304639460BF0F7F801F0C0
:109C00007FF806460F4632463B46304639460CF052
:109C1000A1F8324682468B463B46304639460CF028
:109C20004BFA002280468946344B304639460CF0C8
:109C300091F802460B46404649460CF067FB024647
:109C40000B46504659460CF083F822462B460CF042
:109C500033FABDE8F88F2C4B9842BDD830463946D0
:109C60000BF0C4F80022234B0CF026FAFEF714FC8C
:109C700006460F4602460B46204629460CF01CFAC3
:109C800032463B460CF018FABDE8F88F0BF0AEF800
:109C900001F036F81D4B984506460F46B3DD00220D
:109CA000164B0CF057F802460B46304639460CF07E
:109CB0002DFB32463B460CF04DF822462B460CF06D
:109CC000FBF9BDE8F88F0BF091F8FEF7E5FB0246D3
:109CD0000B46204629460CF0EFF9BDE8F88F00BF8F
:109CE0003374AC3C1F7BAC7FFFFFEF7FFFFF354041
:109CF0000000E0BF0000E03FFFFF2F3E0000F03F0C
:109D0000412E8640CD3386407DF8B98FFFFFEF3F6F
:109D10002DE9F04F21F00048B8F1795F85B0064693
:109D20000F4692469B466BDA0CF076FC002800F05A
:109D3000EA8032463B46304639460CF0BDF974A302
:109D4000D3E9002304460D460CF0B6F972A3D3E91B
:109D500000230BF0FFFF22462B460CF0ADF970A359
:109D6000D3E900230BF0F4FF22462B460CF0A4F9B4
:109D70006DA3D3E900230BF0EDFF22462B460CF038
:109D80009BF96BA3D3E900230BF0E2FF22462B469D
:109D90000CF092F968A3D3E900230BF0DBFF224615
:109DA0002B460CF089F9CDE900010022664B2046D4
:109DB00029460CF081F9DDE90023804689462046DA
:109DC00029460CF079F9524604460D465B4630466A
:109DD00039460CF071F902460B46204629460BF035
:109DE000B7FF02460B46404649460BF0B1FF02461C
:109DF0000B46002055490BF0ABFF05B0BDE8F08FD6
:109E000002460B460CF058F941A3D3E9002304465F
:109E10000D460CF051F940A3D3E900230BF09AFF53
:109E200022462B460CF048F93DA3D3E900230BF062
:109E30008FFF22462B460CF03FF93BA3D3E90023CA
:109E40000BF088FF22462B460CF036F938A3D3E9F5
:109E500000230BF07DFF22462B460CF02DF936A394
:109E6000D3E900230BF076FF2B4622460CF024F9B1
:109E7000374B9845CDE9000197DD364B984539DCE5
:109E8000A8F50013002200203049904699460BF0B7
:109E90005FFFCDE9020100222B4B204629460CF042
:109EA0000BF942464B460BF053FFDDE90023804699
:109EB0008946204629460CF0FFF8524604460D46D6
:109EC0005B46304639460CF0F7F802460B46204612
:109ED00029460BF03DFF02460B46404649460BF033
:109EE00037FF02460B46DDE902010BF031FF05B0FA
:109EF000BDE8F08F9FED127B4FF000088DED027BE7
:109F0000DFF85490C7E71149002005B0BDE8F08F95
:109F1000D43888BEE9FAA8BDC4B1B4BD9EEE213ED6
:109F2000AD529C804F7E923E9015CB19A001FA3E17
:109F30007751C1166CC1563F4C5555555555A53FE7
:109F4000000000000000E73F0000E03F0000F03F9D
:109F50003233D33F0000E93F0000D23F0000000051
:109F60002DE9F04FADF51B7D9F4CA49E9F4D54F8FD
:109F7000264007942646D41E85FB0475E417C4EBDF
:109F8000A50424EAE4741D460A93631CA3EB83032F
:109F9000013D02EBC30306932B460B940395651B0F
:109FA000F418049008911AD42C4400260027013498
:109FB0000DF18808DDF8949208E059F825000CF0BE
:109FC00015F80135A542E8E8020108D0002DF4DAC1
:109FD000013530463946A542E8E80201F6D1079B33
:109FE000002BC0F2DF83079B03F1010B0A9B22A920
:109FF000DB001A4601EB03090093049B0DF5E47A9C
:10A0000019460AEBCB0B01EB0208039B002BC0F2B5
:10A01000F582049C4D460026002775E90223F4E8EA
:10A0200002010CF049F802460B46304639460BF067
:10A0300091FE444506460F46EFD1EAE80267DA454D
:10A0400009F10809E1D107990098049C009101F1F8
:10A050008043013B9B0020441A1F83460EA8024404
:10A0600003440C920D93009A9AA901EBC203002AB3
:10A0700053E9284529DD0DF5E47A0AEBC2080DF114
:10A08000340900225A4B204629460CF015F80CF0F2
:10A09000C3FA0BF0ABFF0022564B06460F460CF0FE
:10A0A0000BF802460B46204629460BF051FE0CF0F9
:10A0B000B3FA78E9022349F8040F394630460BF029
:10A0C00049FED04504460D46DBD1DDF81890204608
:10A0D00029464A4601F050F800224FF07F530446CB
:10A0E0000D460BF0E9FFFCF75FFD0022424B0BF041
:10A0F000E3FF02460B46204629460BF029FE0D469B
:10A1000004460CF089FA80460BF070FF0B460246BD
:10A11000294620460BF01CFE4B46002B06460F46F8
:10A1200040F3F980009A0EA9013AC9F1180351F8D9
:10A13000225045FA03F101FA03F30EA8EB1A40F896
:10A140002230C9F11705884443FA05F5002D6DDD6D
:10A15000009B002B08F1010840F36F820E9C002C3D
:10A1600040F01683009B012B40F38F820EAA01233F
:10A1700052F8044F002C00F08382581C0EAAC4F140
:10A18000807442F82340009A824219DD0EAA0EAC78
:10A1900052F820106FF07F42511A44F820100099B5
:10A1A000023399420CDD1046009A0EA901EB83039D
:10A1B00001EB82011A68821A43F8042B8B42F9D111
:10A1C000069B002B1ADD069B012B4FF0010440F08B
:10A1D0003C82009B5A1E0EAB0EA953F82230C3F3EB
:10A1E000160341F822303CE2CC7E0300ABAAAA2A37
:10A1F0000000703E0000704100002040022D15D18B
:10A2000032463B46002092490BF0A2FD06460F461F
:10A21000069A8F49002000F0AFFF02460B463046F9
:10A2200039460BF095FD022506460F460022002315
:10A23000304639460CF0A8F9002800F03782009A21
:10A24000079B501E83420FDC02F18043013B0EAAA4
:10A250000D9C02EB8303002253F80419A34242EA47
:10A260000102F9D1002A67D1079B0EAA013B52F8DF
:10A270002330002B40F018820C9A012352F8041965
:10A2800001330029FAD0009AD31802F1010A9A4545
:10A2900009933DDC009B0A990B9A0B4409990AEB40
:10A2A0000208994622AB08F1804803EBC9098B18D4
:10A2B000A59A08F1FF3802EB880872AA02EBCA0AD5
:10A2C000A59A02EB8303009358F8040F0BF08EFE5F
:10A2D000039B002BE9E802014FF000064FF0000756
:10A2E00011DB049C4D4675E90223F4E802010BF0F2
:10A2F000E3FE02460B46304639460BF02BFD5C452B
:10A3000006460F46EFD1009B9845EAE80267DBD18D
:10A31000099B0093A7E606D1009B0EAA013B52F8C9
:10A320002350ED1512E700224A4B0CF04BF90028A0
:10A3300040F06E81054679E70EA9039551F820306B
:10A340000699CDF8248018390246009006916BB921
:10A3500000F18043013B0EA800EB830353F804098E
:10A36000013A18390028F9D000920691069A384926
:10A37000002000F001FF009B002B04460D46C0F2B8
:10A38000F781DA0072A901EB020B06920EAA02EB2A
:10A390008306DFF8C4904FF000080BF1080704367D
:10A3A00056F8040D0BF022FE22462B460BF084FEDD
:10A3B0004B4667E902014246204629460BF07CFEE7
:10A3C0000EAB9E4204460D46EAD14AACDDF81C9025
:10A3D00004944FF0000AB9F1000FC0F22B81DFF8AE
:10A3E0007C805D4618A1D1E90001002600270024E9
:10A3F00003E0544510DCF8E80201F5E802230BF015
:10A400005BFE02460B46304639460BF0A3FC013496
:10A41000A14506460F46ECDA049B03EBCA03ABF1F9
:10A42000080BC3E9006770AB9B450AF1010AD2D162
:10A43000A49B049C032B00F28980DFE803F0C58E07
:10A440008E1100BFAFF3008000000040FB21F93FF8
:10A450000000F03F0000E03F0000703E8872030003
:10A46000009B002B40F38181069A04EB020ADAE993
:10A47000008902F1080525440DF5987B1AED027B51
:10A4800042464B4651EC170B8DED047B0BF062FC02
:10A4900006460F4602460B46DDE904010BF058FC68
:10A4A00042464B460BF056FC65E902015D45B0465D
:10A4B000B9466AE90267E1D1009B012B40F355815F
:10A4C000069BE518D5E9008903F1080B04EB0B0A9C
:10A4D00015ED027B42464B4651EC170B8DED007B90
:10A4E0000BF038FC06460F4602460B46DDE900013C
:10A4F0000BF02EFC4B4642460BF02CFC6AE90201A5
:10A500004EAB5345B046B94665E90267E0D100203D
:10A51000002104EB0B0575E902230BF01BFCAA4597
:10A52000F9D1039B002B00F00A816268E368089F61
:10A530002568A4683D6002F1004203F1004301F187
:10A5400000417A60FB60BC6038617961099B03F06F
:10A5500007000DF51B7DBDE8F08F069D08352544ED
:10A560000020002175E902230BF0F4FBA542F9D18C
:10A57000039B002B00F0D280089E024601F10043AD
:10A5800086E80C000B460246D4E900010BF0E0FB24
:10A59000009B002B0BDD4CAD0124F5E802230BF0F2
:10A5A000D9FB009B0134A342F7DA039B13B101F1FD
:10A5B00000431946089BC3E90201099B03F0070009
:10A5C0000DF51B7DBDE8F08F069D083500200021AC
:10A5D000254475E902230BF0BDFBAC42F9D1039B86
:10A5E00013B101F100431946089BC3E90001099B1F
:10A5F00003F007000DF51B7DBDE8F08F0026002756
:10A60000EAE80267DA4509F108097FF4FEAC1AE5C9
:10A61000009B002B08F10108C8BF02253FF79EAD43
:10A6200032463B46002061490BF092FB022506466C
:10A630000F46FBE500260027EEE6069B002B27DDF4
:10A640000024069B012B3FF4C4AD022B09D1009BD3
:10A650005A1E0EAB0EA953F82230C3F3150341F86E
:10A660002230022D7FF4E2AD32463B4600204F49B6
:10A670000BF06EFB06460F46002C3FF4D7ADC7E546
:10A680000099013399427FF473AD069B002BD8DC0F
:10A69000022D7FF4CBAD32463B46002043490BF000
:10A6A00057FB06460F46C1E50123ECE53946069FF8
:10A6B00003957A423046CDF8248000F05DFD0022FB
:10A6C0003B4B04460D460BF07DFF002843D0002293
:10A6D000384B204629460BF0EFFC0BF09DFF064659
:10A6E0000BF084FC0022324B0BF0E6FC02460B46DA
:10A6F000204629460BF02CFB0BF08EFF00990B46F1
:10A7000001331A4600933B46183306930B460EA9B5
:10A7100041F82300134641F8236027E6089B0246D0
:10A72000C3E900010B46D4E900010BF011FB009BCB
:10A73000002B3FF730AF089BC3E902013DE7D4E9A6
:10A740000067D4E90223089DC5E90401C5E9006753
:10A75000C5E90223FAE6294620460BF05DFF009A80
:10A760000EA941F8220001E64AAC00200021D8E6FB
:10A77000A49B032B3FF6EAAE01A252F823F000BFE0
:10A780009FA7020097A7020097A7020069A70200EF
:10A7900001200023F2E4002000214AACE8E600207A
:10A7A00000211CE70A9BDB0000934CE40000F03F13
:10A7B000000070410000703E2DE9F04F21F000468E
:10A7C000B6F1795F85B004460D469046994604DAA5
:10A7D0000BF022FF002800F0858022462B46204601
:10A7E00029460BF069FC06460F4602460B462046FA
:10A7F00029460BF061FC41A3D3E9002382468B4636
:10A80000304639460BF058FC3EA3D3E900230BF049
:10A810009FFA32463B460BF04FFC3CA3D3E90023A2
:10A820000BF098FA32463B460BF046FC39A3D3E9CD
:10A8300000230BF08DFA32463B460BF03DFC37A36C
:10A84000D3E900230BF086FA0E9BCDE900019BB300
:10A850000022294B404649460BF02EFCDDE900233F
:10A86000CDE90201504659460BF026FC02460B4644
:10A87000DDE902010BF06CFA32463B460BF01CFCA2
:10A8800042464B460BF064FA19A3D3E9002306466F
:10A890000F46504659460BF00FFC02460B46304619
:10A8A00039460BF057FA02460B46204629460BF074
:10A8B0004FFA05B0BDE8F08F02460B4630463946E8
:10A8C0000BF0FAFB0AA3D3E900230BF041FA52463E
:10A8D0005B460BF0F1FB22462B460BF03BFA05B032
:10A8E000BDE8F08F2046294605B0BDE8F08F00BFD7
:10A8F000495555555555C53F0000E03F7CD5CF5AC9
:10A900003AD9E53DEB9C2B8AE6E55A3E7DFEB157F0
:10A91000E31DC73ED561C119A0012A3FA6F8101159
:10A920001111813F000000002DE9F04FBE4C21F0D5
:10A93000004687B0A64282468B460F46CDE90023EB
:10A940001BDC0BF069FE002837D153461E43109BD9
:10A950000133334300F0B381109B012B00F0C88119
:10A9600052465B460020B1490BF0D0FC04460D4630
:10A970002046294607B0BDE8F08FAD4B9E421CDD56
:10A980000029C0F2A98152465B4687A1D1E90001A6
:10A990000BF0DEF9DDE9002304460D4684A1D1E980
:10A9A00000010BF0D5F99FED847B22462B468DEDFF
:10A9B000007B0BF0CFF982468B4652465B465046F1
:10A9C00059460BF079FB02460B46804689460BF050
:10A9D00073FB424604460D464B46504659460BF023
:10A9E0006BFB77A3D3E90023CDE90201204629467A
:10A9F0000BF062FB74A3D3E900230BF0ABF9224602
:10AA00002B460BF059FB72A3D3E900230BF0A2F9FC
:10AA100022462B460BF050FB6FA3D3E900230BF02B
:10AA200099F922462B460BF047FB6DA3D3E900238F
:10AA30000BF090F922462B460BF03EFB6AA3D3E9BC
:10AA400000230BF087F942464B460BF035FB68A319
:10AA5000D3E90023CDE90401204629460BF02CFB65
:10AA600065A3D3E900230BF075F922462B460BF0C2
:10AA700023FB63A3D3E900230BF06CF922462B469A
:10AA80000BF01AFB60A3D3E900230BF063F9224615
:10AA90002B460BF011FB5EA3D3E900230BF05AF910
:10AAA00022462B460BF008FB5BA3D3E900230BF0F7
:10AAB00051F902460B46DDE904010BF04BF9DDE9E3
:10AAC00002230BF0F9FADDE9004522462B460BF094
:10AAD00041F942464B460BF0EFFA02460B46204640
:10AAE00029460BF037F94EA3D3E9002304460D465F
:10AAF000DDE902010BF0E0FA22462B460BF02AF9C1
:10AB00000B46024680468946504659460BF022F9CC
:10AB1000474B9E4204460D4600F38E80109B012B4E
:10AB20003BD002460B46002040490BF0EFFB0024CF
:10AB300006460F462046294652465B46CDE9006749
:10AB4000CDE9020100940BF003F9DDE900AB024608
:10AB50000B46404649460BF0FBF852465B460BF06D
:10AB6000ABFA524604460D465B46DDE902010BF0A6
:10AB7000A3FA00222F4B0BF0EDF802460B462046BD
:10AB800029460BF0E7F832463B460BF095FA524661
:10AB90005B460BF0DFF804460D462046294607B019
:10ABA000BDE8F08FAFF30080182D4454FB21E93F3E
:10ABB000075C143326A6813C000000000000000062
:10ABC000D47ABF74702AFB3EE9A7F0320FB8123F67
:10ABD00068108D1AF726303F1583E0FEC8DB573F1B
:10ABE00093846EE9E326823FFE41B31BBAA1AB3FDB
:10ABF000735360DBCB75F3BEA69237A0887E143FFB
:10AC00000165F2F2D844433F280356C9226D6D3FD7
:10AC100037D60684F464963F7AFE10111111C13FB5
:10AC2000635555555555D53FFFFF2F3E0000F0BFEA
:10AC30002794E53F0000F03F10980BF0D7F922462B
:10AC4000CDE900012B46204629460BF035FADDE917
:10AC50000023CDE90201204629460BF07BF802468D
:10AC60000B46DDE902010BF051FB42464B460BF06F
:10AC70006FF802460B46504659460BF069F80246FB
:10AC80000B460BF067F802460B46DDE900010BF0BE
:10AC90005FF80446B81700F00200C0F101000D464D
:10ACA0000BF0A4F902460B46204629460BF004FAA5
:10ACB00004460D462046294607B0BDE8F08F5046B1
:10ACC00059460AF093F802460B4600200A490BF059
:10ACD0001DFB04460D4660E7DDE9004501F100413A
:10ACE000224605F1004382468B46CDE900234AE621
:10ACF00054465D4651E700BF0000F03F00000000F1
:10AD00002DE9F04FD24A21F00043934285B08246AC
:10AD10008B460C462DD9CF4A93421AD8002C80F28C
:10AD20001681B5A3D3E90023504659460BF012F81B
:10AD3000002200230BF032FCC0B9B1A3D3E90023F9
:10AD4000504659460BF0B8F902460B460020C2495E
:10AD500008E1C24A934240F2D0800346C1F3130295
:10AD6000134340F0F481002980F2C4800020BC49E4
:10AD7000C0E0BC4A934200F22981BB4A934240F2B0
:10AD8000DE80002301930022B84B504659460BF059
:10AD900093F906460F4602460B46504659460BF0BD
:10ADA0008BF999A3D3E9002304460D460BF084F9EF
:10ADB00097A3D3E900230AF0CDFF22462B460BF0E0
:10ADC0007BF995A3D3E900230AF0C2FF22462B4664
:10ADD0000BF072F992A3D3E900230AF0BBFF2246DD
:10ADE0002B460BF069F990A3D3E900230AF0B0FFDA
:10ADF00022462B460BF060F900229D4B0AF0AAFF79
:10AE00008046894602460B46304639460BF054F9D7
:10AE100002460B46002097490AF09AFF0646024672
:10AE20000B460F46404649460AF092FF324680469E
:10AE300089463B46504659460BF03EF902460B46C2
:10AE400000208D490AF084FF02460B4640464946E1
:10AE50000BF05CFA22462B460BF02EF9019E0246BF
:10AE60000B46002E38D0DDE9026732463B460AF039
:10AE70006FFF52465B460BF01FF932463B460AF025
:10AE800067FF2B4622460AF063FF019B013306460B
:10AE90000F4600F00F81019B012B00F0F180019B18
:10AEA0000133392B39D8019B132B40F31281019CBC
:10AEB000C4F57F75033500222B050AF04BFF0246CF
:10AEC0000B46504659460AF043FF0022684B0AF0F1
:10AED00041FF01EB04510DE0504659460BF0ECF8F0
:10AEE00022462B460AF034FF02460B46504659468E
:10AEF0000AF02EFF05B0BDE8F08F4DA3D3E9002383
:10AF00000BF06AFB00283FF409AF4BA3D3E9002301
:10AF1000104619460BF0D0F8ECE752465B460AF0B3
:10AF200017FF02460B46002051490AF011FF019A13
:10AF30004F4B01EB025100220AF00AFFDAE73EA371
:10AF4000D3E900230AF006FF02460B46CAE72CA30A
:10AF5000D3E90023504659460BF0AEF80B4643495F
:10AF6000024600200AF0F6FE0BF056FB01900BF0B3
:10AF70003DF833A3D3E9002306460F460BF09CF8B7
:10AF800002460B46504659460AF0E2FE2EA3D3E98C
:10AF9000002380468946304639460BF08DF8064638
:10AFA0000F4632463B46404649460AF0D1FE02462D
:10AFB0000B4682468B46404649460AF0C9FE324659
:10AFC0003B460AF0C5FECDE90201DCE62B4A93427E
:10AFD00000F2958000291AA3D3E90023C0F2AC80C7
:10AFE0000AF0B6FE012380468946019316A7D7E9E9
:10AFF0000067D6E7AFF3008059F3F8C21F6EA501D2
:10B00000FE822B654715F73F2DC3096EB7FD8ABE3B
:10B010003952E686CACFD03EB7DBAA9E19CE143F7E
:10B020008555FE19A0015A3FF41011111111A13FCD
:10B03000EF39FAFE422E86409C7500883CE4377E4C
:10B040000000E0FE422EE63F763C7935EF39EA3DDE
:10B0500079684340412E86400000E0BFFFFFEF7F4C
:10B060000000F0BF422ED63FFFFF8F3C0000E03FC4
:10B070000000F03F0000084000001840B1A2F03F7F
:10B080000022394B504659460BF088FA002844D02C
:10B09000504659460022354B0AF05CFE02460B46EC
:10B0A000304639460AF054FE00224FF040430BF080
:10B0B00003F81FE702460B46504659460AF048FE81
:10B0C00000222A4B0AF0F8FF0022284B0AF040FE2B
:10B0D00010E7019C4FF400132341C3F17F57524600
:10B0E0005B460AF035FE002607F5401702460B4680
:10B0F000304639460AF02CFE01EB0451FAE616A35D
:10B10000D3E900230AF0D8FF002C02460B464FF08B
:10B110000000FFF61CAE154924E732463B46504678
:10B1200059460AF015FE02460B460AF013FE0022AD
:10B130000F4B0AF00FFEDDE60AF00CFE4FF0FF3376
:10B1400080468946019306A7D7E9006729E70246AA
:10B150000B460AF0FFFDCDE6FE822B654715F73F53
:10B16000763C7935EF39EABD0000D0BF0000E03F02
:10B170000000F03F00000000F8B5C1F30A56044695
:10B180000D460B4617460EBB21F00043034386468F
:10B1900025D00022344B0AF08FFF344A97420446F0
:10B1A0000D460B462ADBC1F30A56363E3E4440F2BA
:10B1B000FE72964228DC002E12DD23F0FF4323F4BA
:10B1C000E00343EA065520462946F8BD40F2FF72E7
:10B1D0009642EBD102460B460AF0BCFDF8BDF8BD25
:10B1E00016F1350F1DDA4CF250339F4222462B46A2
:10B1F00025DC19A1D1E900010AF022FD16A3D3E94B
:10B2000000230AF059FFF8BD22462B4614A1D1E9CC
:10B2100000010AF015FD12A3D3E900230AF04CFF48
:10B22000F8BD23F0FF4323F4E003363643EA065526
:10B230002046294600220E4B0AF03EFFF8BD08A129
:10B24000D1E900010AF0FCFC05A3D3E900230AF0D0
:10B2500033FFF8BDAFF3008059F3F8C21F6EA501AC
:10B260009C7500883CE4377E00005043B03CFFFFF3
:10B270000000903C10B5054C237833B9044B13B152
:10B280000448AFF300800123237010BD1085002017
:10B2900000000000EC7F03000C4B43B10C480D494B
:10B2A00010B5AFF300800C48036823B910BD0A48FD
:10B2B000036833B97047094B002BF7D0BDE8104045
:10B2C0001847064B002BF5D0184700BF00000000C0
:10B2D000EC7F03001485002008820020000000009D
:10B2E000154B002B08BF134B9D46A3F5803A002158
:10B2F0008B460F461348144A121A0BF074FC0F4B7E
:10B30000002B00D098470E4B002B00D09847002010
:10B31000002104000D000D48002802D00C48AFF3B6
:10B3200000800AF0BDFC2000290004F09FFC0AF018
:10B33000A3FC00BF00000800000004200000000083
:10B340000000000000840020908C0020000000001D
:10B350000000000008B501F095FCFBF7E1FEBDE838
:10B36000084001F0FDB900BF08B501F08BFCFBF708
:10B3700047FFBDE8084001F0F3B900BF08B501F090
:10B3800081FC09F0A9FDBDE8084001F0E9B900BF62
:10B3900008B501F077FC0AF017F9BDE8084001F0A4
:10B3A000DFB900BF08B501F06DFCFBF7C9FEBDE8D1
:10B3B000084001F0D5B900BF08B501F063FC09F001
:10B3C0002FFFBDE8084001F0CBB900BF08B501F080
:10B3D00059FCFBF721F9BDE8084001F0C1B900BFF5
:10B3E00008B501F04FFC09F06FFEBDE8084001F020
:10B3F000B7B900BF70B5049E96420C4628DB1546CF
:10B400006BB1002A00EB020107DD2046A21811F8FB
:10B41000013D00F8013B9042F9D1002070BD042AA3
:10B420000FD0022A02D110F0010306D001462A46AD
:10B4300020460BF0B3FB002070BD02880A8018463E
:10B4400070BD10F00303F1D102680A60184670BDA8
:10B45000084600210BF0C7FB4FF0FF3070BD00BF66
:10B460000830704740B1002905DB4368994202DA91
:10B470000844007A70470020704700BF30B10029AF
:10B4800004DB43689942BCBF40180272704700BF9A
:10B4900040B1002905DB4368994202DA0844007A8A
:10B4A00070470020704700BF830705D120B1030F0C
:10B4B0000CBF0120002070470120704730B10029E7
:10B4C00004DB43689942BCBF40180272704700BF5A
:10B4D000002B23DB002921DB70B54668B1421ADC62
:10B4E0005568761A1446EA1AB242A8BF3246002AB4
:10B4F00011DB84420D4607D0083408300844E118B7
:10B500000BF04CFB002070BD0834E11860190BF003
:10B5100050FB002070BD4FF0FF3070BD4FF0FF308A
:10B52000704700BF4068704710B4141E10DB4268BB
:10B5300094420DDC33EA230328BF1346121B083064
:10B540009A422044A8BF1A465DF8044B0BF04BBB4F
:10B550005DF8044B704700BF43688B4210B400F1A4
:10B5600008041846A8BF084632EA220128BF194637
:10B570001B1A99422044A8BF19465DF8044B00F0FD
:10B58000F3BE00BF002BBCBF43689B1A002A70B5F6
:10B590000E4622DB44689918A1421EDC8A421CDC5C
:10B5A000DBB136F0004118D059428E4213DDB34270
:10B5B00011DD0830002E00EB020516DB9C1B224635
:10B5C000A91928460BF0F5FA324628190021BDE8E2
:10B5D00070400BF008BB002C00DA70BD224608302A
:10B5E0000021BDE870400BF0FEBA74429A1929465A
:10B5F00028190BF0DEFA224628460021BDE87040EB
:10B600000BF0F1BA03460830596800F02DBE00BFB8
:10B6100070B5044600206168490000F0A7FD666827
:10B62000002E11DD094D04F1080100EB460603462A
:10B6300011F8012B141102F00F022C5DAA5C9C7111
:10B64000DA7102339E42F3D170BD00BFD0720300A5
:10B65000002BBCBF43689B1A002A2FDB70B44568DF
:10B660009C18AC4229DCA24227DC33B331F0004401
:10B6700023D00029B8BF01EB032191FBF3F603FBB4
:10B680001616002E00F10800B8BFF6180244164442
:10B69000B242134411D0304604E0B24208460ED004
:10B6A00090420AD00146147811F8015B02F8015B60
:10B6B0008B420470F1D13046F2E770BC70470E4601
:10B6C000EEE700BF00B583B04FF0FF3300930023D7
:10B6D000FFF7FEFE03B05DF804FB00BF10B50C1EC3
:10B6E0000EDD4168083002F0F5F81F2C09DC01235B
:10B6F000A34020FA04F4013B444004EA030010BDD7
:10B70000002010BD0146002000F02EBE38B50021FB
:10B71000054600F0D7FD0146002000F025FE044656
:10B7200000F10801284600F0CDFD204638BD00BFDD
:10B7300030B5013A83B004460D460F2A16D8DFE82B
:10B7400002F01717838D94172E08081F424D5C36A0
:10B750007462184601F02AFB012DADF8000005DDEA
:10B760009DF800209DF801302370627003B030BD59
:10B77000184601F01BFB002DF8DD207003B030BD32
:10B78000184601F013FB032D0090EFDD6A46231DE0
:10B7900012F8011B03F8011D9C42F9D1E6E7184697
:10B7A00001F004FB002DC0B2E0DD2070E6E7184692
:10B7B00001F068FA072DCDE90001D7DD6B4603CB18
:10B7C00020606160D2E7184601F084FA032DCDDDD8
:10B7D000A3070CBF2060206003B030BD184601F005
:10B7E00079FA032D0090C1DD6A46231D12F8011B72
:10B7F00003F8011D9C42F9D1B8E7184601F06EFB31
:10B80000032DE5DCB2E7184601F03CFA072DCDE93F
:10B810000001ABDD0DF1FF3204F1080312F8011F46
:10B8200003F8011DA342F9D1A0E7184601F056FB29
:10B83000032D00909ADD6A46231D12F8011B03F8C0
:10B84000011DA342F9D191E7184601F0AFFA012D8D
:10B850008CDDE20754BF2080208087E7184601F086
:10B86000A5FA012D82DD80B2F3E7184601F09EFAB9
:10B87000032DADDC7AE700BF30B4141E07DB45684A
:10B8800008300A462044291B30BCFFF751BF30BCAA
:10B89000704700BF00B5013A85B00F2A00F28880DA
:10B8A000DFE802F01623303D4A56595C5F6265714D
:10B8B000748083080091012308220DEB0201FFF739
:10B8C00099FDDDE9020100F04BFF05B05DF804FBD6
:10B8D00000910023012202A9FFF78CFD9DF90800C9
:10B8E00001F044F805B05DF804FB0091002301224B
:10B8F00002A9FFF77FFD9DF8080001F037F805B0B9
:10B900005DF804FB00910023022202A9FFF772FDFB
:10B91000BDF9080001F02AF805B05DF804FB0091BC
:10B920000023022202A9FFF765FDBDF8080001F01F
:10B930001DF805B05DF804FB00910023042202A964
:10B94000FFF758FD029801F011F805B05DF804FB0F
:10B9500001230091BEE701230091C8E70091012374
:10B96000D2E700910123DCE700910123E6E7009193
:10B970000023042202A9FFF73DFD029801F000F820
:10B9800005B05DF804FB00910123F2E7009100236C
:10B99000042202A9FFF72EFD029800F0DFFF05B098
:10B9A0005DF804FB0091002386E700910123EFE797
:10B9B00000208AE7131E09DB10B4446808300A46E9
:10B9C0001844E11A5DF8044BFFF764BF002000F053
:10B9D000CDBF00BF03F0F2B908B503F0F3F920F0D2
:10B9E000404008BD03F008BB07F0E6BAC11703F0FA
:10B9F000A9B900BF03F0BAB903F0CAB900B583B062
:10BA000003F0DAF902AB63E902010821184601F0FC
:10BA100061FF20F0404003B05DF804FB00B583B047
:10BA200003F0CAF902AB63E902010821184600F0ED
:10BA30009BFC03B05DF804FB81B138B50B680C4684
:10BA400008461B6A9847236805465B6A2046984764
:10BA500001462846BDE8384004F0E2B8704700BF10
:10BA600001F05ABE012002F0FBB800BF08B5022069
:10BA700002F0F6F840F29330BDE8084005F064B9F2
:10BA8000014B1860704700BF2C850020704700BF35
:10BA900000207047002A2DE9F04340F3BB800024CA
:10BAA0002546ED27DFF8CCE109E07F2B04F1010406
:10BAB00015D8013508B103700130A24221DD0B5DBC
:10BAC0001E06F2D503F0E006C02E1DD003F0F006EE
:10BAD000E02E33D003F0F806F02E51D001340235B9
