:020000040002F8
:1060000000000420D5B20300FDB20300FFB203007C
:1060100001B3030003B3030005B303000000000055
:1060200000000000000000000000000007B30300B3
:1060300009B30300000000000BB303000DB303001D
:106040000FB303000FB3030075B1030039B10300B0
:106050004DB103000FB30300A9A203002DB8030044
:106060005DAD030065AD03006DAD03000FB303002C
:106070000FB303000FB303000FB303000FB303000C
:106080000FB303000FB303000FB303000FB30300FC
:106090000FB303000FB303000FB303000FB30300EC
:1060A0000FB303000FB3030075AD03007DAD030014
:1060B0000FB303000FB30300000000000000000056
:1060C0000FB303000FB303000FB3030061B103006C
:1060D0000FB303000FB303000FB303000FB30300AC
:1060E0009DB103000FB303000FB3030000000000D5
:1060F000000000000FB303000000000089B103009E
:10610000000000000000000000000000000000008F
:10611000000000000000000000000000000000007F
:10612000000000000000000000000000000000006F
:10613000000000000000000000000000000000005F
:10614000000000000000000000000000000000004F
:10615000000000000000000000000000000000003F
:10616000000000000000000000000000000000002F
:10617000000000000000000000000000000000001F
:10618000000000000000000000000000000000000F
:1061900000000000000000000000000000000000FF
:1061A00000000000000000000000000000000000EF
:1061B00000000000000000000000000000000000DF
:1061C00000000000000000000000000000000000CF
:1061D00000000000000000000000000000000000BF
:1061E00000000000000000000000000000000000AF
:1061F000000000000000000000000000000000009F
:106200007CB0EE877CB0EE87FF00FF00FF00FF0050
:10621000FF00FF00FF00FF00FF00FF00FF00FF0086
:10622000FF00FF00FF00FF00FF00FF00FF00FF0076
:10623000FF00FF00FF00FF002DE9F04F85B0039144
:106240000778A7F10903042B044607F07F0200F149
:106250000100F5D9202AF3D02B2F04BF677804461C
:106260002D2F72D09FED427B8DED007B4FF000080B
:106270004FF000098FB34FF0000E4FF0000ADFF827
:1062800000B1754619E018F001FC80468946304699
:1062900018F096FB42464B4618F046FA52468046A6
:1062A00089465B46DDE9000135B318F019FDCDE9FB
:1062B0000001AE4614F8017F7FB1A7F13006092E28
:1062C00052465B4640464946DDD9C5B92E2F16D108
:1062D00014F8017F0125002FEFD142464B46DDE93E
:1062E000000118F0D3FB80468946039B404649468F
:1062F0001C6005B0BDE8F08F4FF0010EDAE7BEF18B
:10630000000F29D042464B46DDE9000118F0BEFBE4
:1063100007F0DF07452F80468946E6D10399601CC8
:106320000A2218F0E5F916490246002018F00EFF7F
:1063300002460B464046494618F0A8FB804689466F
:106340004046494605B0BDE8F08F9FED0B7B67786E
:106350008DED007B013489E7DFF828904FF00008CD
:106360004046494605B0BDE8F08F00BFAFF300805E
:10637000000000000000F03F000000000000F0BF3F
:10638000000024400000F87F2DE9F84F1646002356
:10639000002204460D4618F0EBFD002840F09D80D9
:1063A000002200232046294618F0D8FD28B13022CB
:1063B000002332707370BDE8F88F2046294616F02E
:1063C000E7FB18F013FE7BA3D3E90023814629469F
:1063D000204618F0CDFD002800F08680B9F1000FAE
:1063E000C0F2BE804A4600206F4918F0AFFE024658
:1063F0000B462046294618F073FC04460D4666A15C
:10640000D1E9000101274FF0000822462B4618F081
:106410003DFB0022654B18F087F918F0D3FE002FE2
:10642000CC464FF0FF3AC1464FF0000840F385805C
:10643000DFF888E15E4C0122AEF1700945F6F325E4
:106440004FF02E0BA94208BFA0424FF0300309D3F2
:10645000001B61EB0501A94208BFA04203F1010343
:10646000F6D2DBB2337050EA010306F1010409D120
:10647000BA4210DACE4502F101020CD026467EE87F
:106480000245DFE7BA4204BF86F801B0B41CCE452E
:1064900002F10102F2D1B8F1000F0DD022463021F5
:1064A00002F8011BC2F1010353442344002BF7DC23
:1064B0002AEAEA7301331C44BCF1010F4CD0652376
:1064C000BCF1000F2370C5BF2B236370611CA11C9E
:1064D0006046BDE8F84F0EF0ADBB05F100431D4628
:1064E0002D23337001365BE72DA3D3E9002320462B
:1064F000294618F05BFD00287FF470AFB9F10E0F4C
:1065000009F101073DDDA9F10E08424600202649A8
:1065100018F01CFE02460B462046294618F0E0FB08
:106520000022224B18F000F918F04CFE002FA9F1C0
:106530000F0A4FF0010C3FF77BAF334630222E2479
:1065400003F8022B74707FEA090618D01E4403F882
:10655000012BB342FBD16BE700232370BDE8F88F1A
:10656000C9F100020020104918F0F0FD02460B4668
:106570002046294618F08AFA04460D463FE71E4693
:1065800056E7C9F10E0200200749C84618F0DEFDA3
:106590004FF0010939E700BF0000901EC4BCD6428D
:1065A00050EFE2D6E41A4B44000024400000E03FE4
:1065B00000407A108DEDB5A0F7C6B03EB8FC0300E0
:1065C00070B54FF0FF3006F07BFA04466FF07F4065
:1065D00006F076FA0646204618F0E2F900220C4B47
:1065E00018F054FA044630460D4618F0D9F906A3BF
:1065F000D3E9002318F074FB02460B4620462946D7
:1066000018F092F870BD00BF0000E0DFFFFF6F439D
:106610000000F03D000000002DE9F04F2DED028B51
:10662000044683B0C06818F0CBF9804620698946DB
:1066300018F0C6F9824660698B4618F0C1F9024627
:1066400001F1004306460F464046494616F04CF914
:1066500018F014FDE062054615F0FAFF0190284697
:1066600015F0AAFF019B0546184618F0BBF94246F3
:106670004B4618F00BFA80462846894618F0B2F9C6
:1066800032463B4618F002FA02460B46404649465F
:1066900018F048F802460B465046594616F024F9C1
:1066A00018F0ECFC002208EE100A002330463946B0
:1066B00018F07CFC28B3B5EEC08AF1EE10FA1CDDB0
:1066C00011A7D7E9006718EE100A18F08BF90246F7
:1066D0000B463046394618F025F832463B4618F04E
:1066E00023F818F0CBFCA062E38843F00203E380B8
:1066F00003B0BDEC028BBDE8F08F05A7D7E90067BA
:10670000E1E784ED0A8AEFE7EA2E4454FB21F93FE2
:10671000EA2E4454FB21F9BF08B50FF03BFDDFED35
:106720000C7A07EE100A67EE277A17EE900A18F037
:1067300059F905A3D3E9002318F0D2FA18F056FC52
:1067400008BD00BFAFF30080EA2E4454FB2119407E
:106750000000B4430000000008B50FF02FFDDFED8E
:106760000C7A07EE100A67EE277A17EE900A18F0F7
:1067700039F905A3D3E9002318F0B2FA18F036FC72
:1067800008BD00BFAFF30080EA2E4454FB2119403E
:106790000000B44300000000494A21F00043934246
:1067A0002DE9704304460D464BDC464A93420E46A3
:1067B0000EDC3FA3D3E9002317F0B6FF0022424BC3
:1067C00018F0F4FB00284CD020462946BDE8708321
:1067D0003E4A93423BDCB3F1804F42DD15F0D2FDDF
:1067E0002246804689462B462046294618F04EF917
:1067F0000022354B17F098FF16F07CFD02460B4641
:106800004046494617F090FF02460B4600202E49AD
:1068100018F066FA424604460D464B464046494645
:1068200017F082FF02460B462046294617F07CFFF0
:1068300002F06AF8002EC9DC01F100431946BDE8F8
:10684000708302460B4617F06FFFBDE8708315F0AA
:1068500099FD02F059F818A3D3E9002317F064FF5B
:10686000E8E722462B462046294618F00FF98046D5
:1068700089462046294615F085FD002204460D462E
:10688000114B4046494617F04FFF16F033FD0022EA
:106890000D4B17F049FF02460B464046494618F09B
:1068A0001FFA22462B4617F03FFF00F0C5FAC1E75A
:1068B0009C7500883CE4377EEF39FAFE422EE63FB5
:1068C000FFFFEF7FFFFF2F3E0000F03F0000B041D1
:1068D0002DE9F84FC44B21F000469E4204460D4678
:1068E0008A460EDDC14B9E4200F3AC8000F0A780CB
:1068F000BAF1000F40F3EA809FA1D1E90001BDE8A1
:10690000F88FBB4B9E4200F3B580A3F1DE739E422D
:1069100040F3A0804FF0FF3B22462B4620462946FD
:1069200018F0B4F802460B468046894618F0AEF8D7
:1069300093A3D3E9002306460F4618F0A7F892A3C5
:10694000D3E9002317F0F0FE32463B4618F09EF8DC
:106950008FA3D3E9002317F0E7FE32463B4618F039
:1069600095F88DA3D3E9002317F0DEFE32463B46AF
:1069700018F08CF88AA3D3E9002317F0D5FE32462D
:106980003B4618F083F888A3D3E9002317F0CCFE28
:1069900042464B4618F07AF885A3D3E90023804697
:1069A00089463046394618F071F883A3D3E90023AD
:1069B00017F0B8FE32463B4618F068F880A3D3E9DA
:1069C000002317F0AFFE32463B4618F05FF87EA377
:1069D000D3E9002317F0A6FE32463B4618F056F8DE
:1069E0007BA3D3E9002317F09DFE32463B4618F007
:1069F0004DF8BBF1FF3F02460B466CD0404649467E
:106A000017F092FE22462B4618F040F8794E7A4B4A
:106A10004FEACB0B5E449B44DBE9002317F082FE78
:106A200022462B4617F07EFE02460B46D6E90001B1
:106A300017F078FEBAF1000F43DBBDE8F88F0028AD
:106A40003FF456AF22462B462046294617F06CFEEF
:106A5000BDE8F88F60A3D3E9002317F065FE00229C
:106A6000664B18F0A3FA00283FF454AF204629469D
:106A7000BDE8F88F15F086FC614B9E4204460D463A
:106A800039DCA3F550239E425EDC02460B4617F02C
:106A90004BFE0022594B17F045FE002206460F46DA
:106AA0004FF080432046294617F03EFE02460B4633
:106AB0003046394618F014F94FF0000B04460D46E5
:106AC0002AE701F100431946BDE8F88F44A1D1E956
:106AD0000001BDE8F88F4046494617F025FE2246E2
:106AE0002B4617F0D3FF02460B462046294617F0E7
:106AF00019FEBDE8F88F434B9E421ADC0022424B40
:106B000017F010FE002206460F463F4B204629464E
:106B100017F0BCFF0022394B17F006FE02460B4669
:106B20003046394618F0DCF84FF0020B04460D46AB
:106B3000F2E602460B460020344918F0D1F84FF037
:106B4000030B04460D46E7E600222C4B17F0EAFD46
:106B5000002206460F46294B2046294617F0E4FD41
:106B600002460B463046394618F0BAF84FF0010B92
:106B700004460D46D0E600BF182D4454FB21F93FD2
:106B800011DA22E33AAD903FEB0D76244B7BA93F1F
:106B9000513DD0A0660DB13F6E204CC5CD45B73FED
:106BA000FF8300922449C23F0D5555555555D53F99
:106BB0002F6C6A2C44B4A2BF9AFDDE522DDEAD3F8D
:106BC0006D9A74AFF2B0B33F711623FEC671BC3F2D
:106BD000C4EB98999999C93F9C7500883CE4377E2D
:106BE000182D4454FB21F9BFFFFF0F440000F07F34
:106BF000FFFFDB3FC8FC0300E8FC03000000F03FA0
:106C0000FFFFF23FFF7F03400000F83F0000F0BFAE
:106C10002DE9F843C1F30A59A9F2FF35132D0246B5
:106C20000B460C4606468846074622DC002D50DB04
:106C3000DFF8F09049FA05F901EA090E5EEA060666
:106C40001CD036A3D3E9002317F06EFD00220023E9
:106C500018F0ACF948B1002C04DD4FF4801343FA6E
:106C600005F5A84428EA0904002721463846BDE86E
:106C7000F883332D06DDB5F5806F3DD010461946FB
:106C8000BDE8F883A9F213494FF0FF3E2EFA09F947
:106C900010EA090FF2D021A3D3E9002317F044FD35
:106CA0000022002318F082F90028DED0002C09DD34
:106CB000142D2BD00127C5F1340507FA05F5AE19BF
:106CC00028BFB844444626EA090721463846BDE8AD
:106CD000F88312A3D3E9002317F026FD0022002336
:106CE00018F064F90028C0D0002C0BDB54EA06072A
:106CF00006D00027084CB8E717F016FDBDE8F8836A
:106D00003C46B2E700274FF00044AEE704F101082B
:106D1000D8E700BFAFF300800000F03F9C7500880B
:106D20003CE4377EFFFF0F002DE9F041C1F30A5725
:106D3000A7F2FF35132D02460B460C468846064641
:106D40001CDC002D3FDB3A4F2F41864601EA070C41
:106D50005CEA0E0E17D034A3D3E9002317F0E4FC4D
:106D60000022002318F022F920B1002C3FDB28EA92
:106D70000704002621463046BDE8F081332D06DDAC
:106D8000B5F5806F2FD010461946BDE8F081A7F207
:106D900013474FF0FF3E2EFA07F73842F3D022A3F5
:106DA000D3E9002317F0C0FC0022002318F0FEF8FE
:106DB0000028DFD0002C20DB444626EA07062146C7
:106DC0003046BDE8F08118A3D3E9002317F0ACFCEE
:106DD0000022002318F0EAF80028CBD0002C17DBA3
:106DE00000263446C6E717F09FFCBDE8F0814FF45B
:106DF000801343FA05F5A844B9E7142D10D00123F8
:106E0000C5F1340503FA05F5AE1928BF9844D3E758
:106E100024F00042074B324318BF1C460026A9E766
:106E200004F10108C8E700BF9C7500883CE4377E88
:106E3000FFFF0F000000F0BF2DE9F04FD84B994243
:106E400087B0804689460E4613DCD64B21F00044BD
:106E50009C4218DD0022D44B18F080F8002879D02D
:106E6000002200230020D14917F03AFF07B0BDE807
:106E7000F08FCF4B99422FDD42464B4617F054FC22
:106E800007B0BDE8F08FCB4B9C4270DDCA4B1E446F
:106E90009E427ED80022C94B4046494617F044FC2A
:106EA0004FEA215AAAF2FF3ABAF1000F04460D4602
:106EB0000E4640F3DE8142464B4617F033FC024655
:106EC0000B460020BD4917F02DFC22462B4617F03B
:106ED00007FFCDE902010BE0B94B9E42DADD9FEDE1
:106EE0009A7B8DED027B4FEA265A4446AAF2FF3A7E
:106EF000B44BC6F313069E4246F07F5500F3E7807D
:106F000045F44015204629460022AC4B17F00AFCF8
:106F1000002204460D46AC4B17F0B8FD22462B4626
:106F200017F0B4FDA046CDE90401A946CDE9000162
:106F3000002E3AD1002200232046294618F00EF8F0
:106F4000002800F0CE80BAF1000F40F074810020DC
:106F5000002195E742464B464046314617F0E2FB9A
:106F600002460B4617F0BCFE07B0BDE8F08F0022CA
:106F7000964B17F0D9FB0022002318F017F80028D1
:106F800000F0CC80924B9C4200F3C88040464946BA
:106F900076E700228C4B17F079FD42464B4617F0FE
:106FA00075FDCDE900014FF0000A00224FF080434B
:106FB0004046494617F0B8FB02460B464046494654
:106FC00017F08EFE02460B4606460F4617F05EFD92
:106FD0005FA3D3E9002304460D4617F057FD5EA3D7
:106FE000D3E9002317F0A0FB22462B4617F04EFDF5
:106FF0005BA3D3E9002317F097FB22462B4617F03B
:1070000045FD59A3D3E9002317F08EFB22462B46FA
:1070100017F03CFD56A3D3E9002317F085FB224669
:107020002B4617F033FD54A3D3E9002317F07CFB64
:1070300022462B4617F02AFD51A3D3E9002317F06F
:1070400073FB22462B4617F021FD04460D46BAF18C
:10705000000F00F0BF80504617F0B2FC4AA3D3E9FE
:10706000002382468B4617F011FDDDE90023CDE9B0
:1070700004012046294617F057FB32463B4617F0DD
:1070800005FD43A3D3E9002304460D465046594667
:1070900017F0FCFCDDE9022317F046FB02460B4625
:1070A0002046294617F040FB02460B46DDE9000169
:1070B00017F038FB42464B4617F034FB02460B46AE
:1070C000DDE9040117F02EFB07B0BDE8F08F45F4B1
:1070D0000015C6F5801620462946B6100AF1010AA9
:1070E00012E72DA3D3E900232046294617F0CEFC52
:1070F00002460B460020314917F014FBDDE904235A
:1071000017F0C4FC06460F46BAF1000F73D10246D1
:107110000B462046294617F005FBB1E642464B4692
:107120004046494617F0B2FC0022274B17F0AEFC50
:1071300002460B464046494617F0F4FA07B0BDE850
:10714000F08F00BFAFF300800000000000000000DF
:1071500044523EDF12F1C23F9FC678D0099AC33F26
:10716000DE03CB966446C73FAF788E1DC571CC3F1A
:10717000599322942449D23F04FA97999999D93F77
:10718000935555555555E53F0000E0FE422EE63F2C
:10719000763C7935EF39EA3D555555555555E53F1E
:1071A0007982DA3FFFFFEF3F0000F0BF000050C3DD
:1071B000FFFFEF7FFFFF1F3E3C412D400000F03FEF
:1071C000FFFF3F439DA006000000E03F000050434A
:1071D000FFFF8F3CDDE9004522462B4617F0A4FA5D
:1071E00032463B4617F052FC02460B4620462946E3
:1071F00017F098FA9CE7504617F0E2FB23A3D3E977
:10720000002382468B4617F041FC22A3D3E90023DA
:10721000804689465046594617F038FCDDE902237E
:1072200017F082FA02460B463046394617F07AFAD2
:1072300022462B46DCE7504617F0C2FB15A3D3E9E4
:10724000002306460F4617F021FCDDE9022317F064
:107250006BFA0EA3D3E9002304460D4630463946A7
:1072600017F014FC02460B462046294617F05CFA3C
:1072700006E60022044B17F055FA02460B4640463C
:10728000494617F04FFA20E60000F03F0000E0FE0C
:10729000422EE63F763C7935EF39EA3D00000000AA
:1072A00008B515F0F5FB04A3D3E9002317F018FD8A
:1072B00008BD00BFAFF30080EF39FAFE422EE63F73
:1072C0002DE9F043DFF8B4808BB004460D4601F0A1
:1072D000F3F898F90030013306460F462BD02246CA
:1072E0002B462046294617F06BFE814618BB2046E8
:1072F000294615F047F81FA3D3E9002317F056FEDF
:10730000C8B1194A98F90030CDF820900321CDE991
:107310000445CDE902458DE806008BB9134B4FF0CB
:107320006042CDE90623684616F0FEFF70B1089B67
:107330009BB9DDE90667304639460BB0BDE8F083FE
:107340000B490020022BCDE90601ECD117F078F9AA
:1073500022230360089B002BEBD017F071F9089BE8
:107360000360E6E7AFF30080C80E0400FFFFEF47BD
:107370000000F07F7DF8B98FCE338640FF8100207A
:107380002DE9F043DFF8E4808BB004460D4601F0B0
:1073900043F998F90030013306460F4633D02046B2
:1073A000294616F0BBFF70B32CA3D3E90023204677
:1073B000294617F0FBFD814650BB2AA3D3E90023E1
:1073C0002046294617F0D4FDE8B198F90030204A4C
:1073D000CDF82090002600270421022BCDE904459A
:1073E000CDE90245CDE906678DE8060029D068465B
:1073F00016F09AFF28B3089B1BB117F021F9089BE0
:107400000360DDE90667304639460BB0BDE8F0831E
:107410000F4A98F90030019203210022CDE904457A
:10742000CDE90245009108922BB90A4B4FF060421A
:10743000CDE90623DBE708490020022BCDE9060150
:10744000D5D117F0FDF822230360D4E7AFF3008015
:10745000D00E0400FFFFEF470000F07FEF39FAFE87
:10746000422E864051302DD5104987C0FF81002023
:107470002DE9F04FDFF80C938DB006460F46144609
:107480001D4601F0C5FC99F90080B8F1FF3FCDE938
:10749000000136D022462B462046294617F090FDA3
:1074A000834670BB32463B463046394617F088FD6E
:1074B0008246002840F0A280304639460022002350
:1074C00017F04CFD10B3002200232046294617F088
:1074D00045FD834600286AD09FEDA17B0122A44B85
:1074E000CDF828A00292CDE90467CDE906458DEDDF
:1074F000087B0393B8F1000F45D09FED9B7B8DED8A
:10750000007BDDE900010DB0BDE8F08FDDE9000191
:1075100016F004FF8046002800F08D804FF0000A2E
:107520004FF0000BDDE9000152465B4617F016FDF7
:107530000028E6D03046394616F0F0FE0028E0D0AC
:107540002046294616F0EAFE0028DAD099F90030E4
:10755000874A039204210022022BCDE90467CDE97A
:107560000645CDE908AB02910A9203D002A816F0B5
:10757000DBFE68B917F064F82223036008E09FED92
:10758000787B8DED087B02A816F0CEFE002830D067
:107590000A9B1BB117F054F80A9B03609DED087B12
:1075A0008DED007BDDE900010DB0BDE8F08F2046D8
:1075B000294616F0B3FE0028A3D00022002320465F
:1075C000294617F0D5FC00289BD099F90030684A6D
:1075D000CDF828B00121CDE90467CDE90645029137
:1075E0000392002BCBD063490020022BCDE9080188
:1075F000C9D117F025F821230360C9E70022002331
:107600002046294617F0AAFC00283FF47AAF5A4BCF
:107610005749CDF828B000220120B8F1020FCDE97A
:1076200004670290CDE90645CDE908230391AAD16C
:10763000CDE9002365E73046394616F06FFE002895
:107640003FF46CAF2046294616F068FE00283FF450
:1076500065AFDDE900231046194617F0B1FC00289C
:107660005FD1032399F900800293414B0A90CDE941
:107670000467CDE906450393B8F1000F2BD1DFF87D
:1076800008B14FF0604A0022002330463946CDE968
:1076900008AB17F06DFC00283FF468AF0022374BB1
:1076A0002046294617F0F2F904460D4616F044FE2E
:1076B00002460B462046294617F050FC70BB304B63
:1076C00099F900804FF06042CDE90823B8F1020F2C
:1076D0007FF44CAF4EE7DFF8B4B04FF0000A002261
:1076E000002330463946CDE908AB17F041FC0028AD
:1076F000ECD00022214B2046294617F0C7F904465A
:107700000D4616F019FE02460B462046294617F094
:1077100025FC18B9174B0022CDE9082399F9008000
:10772000D4E799F90090124BCDF828800122CDE9D9
:107730000467CDE9064502920393B9F1000F3FF4C7
:107740001EAF002200231046194617F0C9FAB9F1FE
:10775000020FCDE908013FF44CAF14E7AFF300800E
:107760000000000000000000000000000000F03FEA
:10777000E80E04000000F0FF0000F03F0000E03FD2
:10778000FFFFEFC7FF810020FFFFEF470000F07F02
:107790002DE9F84FC44E21F00043B34204460D4694
:1077A0000DDD03F1404303F58013034340F0B9803E
:1077B000002940F3408100200021BDE8F88FBB4E36
:1077C000B34240F3A6800029C0F2788102460B46FE
:1077D0000020B74916F0A6FF0022B64B17F056F965
:1077E00004460D4615F086FD95A3D3E9002389468E
:1077F00080462946204617F049F993A3D3E9002390
:1078000016F092FF22462B4617F040F990A3D3E9D9
:10781000002316F087FF22462B4617F037F98EA378
:10782000D3E9002316F080FF22462B4617F02EF9ED
:107830008BA3D3E9002316F075FF22462B4617F0E1
:1078400025F989A3D3E9002316F06EFF22462B46C3
:1078500017F01CF986A3D3E9002382468B46204605
:10786000294617F013F984A3D3E9002316F05AFF31
:1078700022462B4617F00AF981A3D3E9002316F01C
:1078800053FF22462B4617F001F97FA3D3E90023CB
:1078900016F048FF22462B4617F0F8F80022844BDA
:1078A00016F042FF02460B465046594617F018FAAA
:1078B00042464B4617F0EAF8002682468B4632468F
:1078C0004B463046494617F0E1F802460B46204643
:1078D000294616F027FF324604460D464B464046E1
:1078E000494616F021FF02460B462046294617F06E
:1078F000F7F902460B465046594616F015FF324638
:107900004B4616F011FF02460B4616F00DFFBDE880
:10791000F88F694A93420EDC5DA1D1E90001BDE810
:10792000F88F02460B4616F0FDFE02460B4617F096
:10793000D7F9BDE8F88F02460B4617F0A7F840A329
:10794000D3E9002306460F4617F0A0F83EA3D3E97B
:10795000002316F0E9FE32463B4617F097F83CA3A9
:10796000D3E9002316F0DEFE32463B4617F08EF8D0
:1079700039A3D3E9002316F0D7FE32463B4617F071
:1079800085F837A3D3E9002316F0CCFE32463B46F8
:1079900017F07CF834A3D3E9002316F0C5FE324675
:1079A0003B4617F073F832A3D3E90023804689469B
:1079B0003046394617F06AF82FA3D3E9002316F0B2
:1079C000B1FE32463B4617F061F82DA3D3E9002300
:1079D00016F0AAFE32463B4617F058F82AA3D3E920
:1079E000002316F09FFE32463B4617F04FF8002268
:1079F0002F4B16F099FE02460B464046494617F0BB
:107A00006FF922462B4617F041F802460B4622A199
:107A1000D1E9000116F086FE02460B4620462946B3
:107A200016F080FE02460B4619A1D1E9000116F0BE
:107A300079FEBDE8F88F1AA1D1E90001BDE8F88F01
:107A400009F7FD0DE13D023F88B20175E0EF493FC6
:107A50003B8F68B52882A43F5544880E55C1C93F65
:107A60007D6FEB0312D6D43F555555555555C53F3F
:107A700082922EB1C5B8B33F59018D1B6C06E63F0B
:107A8000C88A599CE52A00404B2D8A1C273A03409E
:107A9000182D4454FB21F93F075C143326A6913C72
:107AA000182D4454FB210940FFFFEF3FFFFFDF3F4C
:107AB0000000F03F0000E03F0000603C00225C4B13
:107AC00016F032FE00225B4B16F0E0FF40A3D3E934
:107AD000002304460D4616F0D9FF3FA3D3E9002347
:107AE00016F022FE22462B4616F0D0FF3CA3D3E927
:107AF000002316F017FE22462B4616F0C7FF3AA3C6
:107B0000D3E9002316F010FE22462B4616F0BEFFE6
:107B100037A3D3E9002316F005FE22462B4616F0C4
:107B2000B5FF35A3D3E9002316F0FEFD22462B4610
:107B300016F0ACFF804689462046294615F0DAFB50
:107B40002FA3D3E9002306460F462046294616F008
:107B50009DFF2DA3D3E9002316F0E4FD22462B461A
:107B600016F094FF2AA3D3E9002316F0DDFD224688
:107B70002B4616F08BFF28A3D3E9002316F0D2FD85
:107B800022462B4616F082FF0022294B16F0CCFD30
:107B900002460B464046494617F0A2F832463B469D
:107BA00016F074FF1EA3D3E9002316F0BBFD324686
:107BB0003B4616F0B9FD02460B4616F0B5FD0246EF
:107BC0000B4619A1D1E9000116F0ACFDBDE8F88F14
:107BD00009F7FD0DE13D023F88B20175E0EF493F35
:107BE0003B8F68B52882A43F5544880E55C1C93FD4
:107BF0007D6FEB0312D6D43F555555555555C53FAE
:107C000082922EB1C5B8B33F59018D1B6C06E63F79
:107C1000C88A599CE52A00404B2D8A1C273A03400C
:107C2000075C143326A6913C182D4454FB210940CF
:107C30000000F03F0000E03F434A91422DE9F84345
:107C400004460D4639DD414A914209DD02F179527F
:107C5000914240DD02460B4616F066FDBDE8F88312
:107C600001F1404202F58012024330D0B1F1804F61
:107C70003ADC0022364B16F055FD02460B46044610
:107C80000D4616F051FD224606460F462B4620466D
:107C9000294616F0FBFE02460B463046394616F0E2
:107CA00043FD15F027FB0B4602462946204616F0F9
:107CB0003BFDBDE8F843FFF7BFB802460B4616F0A0
:107CC00031FD02460B4617F00BF8BDE8F8830020A3
:107CD0000021BDE8F88300F017FE19A3D3E90023C3
:107CE00016F022FDBDE8F88302460B4616F0CEFEE4
:107CF0000022174B16F016FD15F0FCFA22468046BE
:107D000089462B462046294616F00EFD4246064679
:107D10000F464B462046294616F006FD02460B4606
:107D200000200B4916F0DCFF0B4602463946304670
:107D300016F0F8FCBDE8F84300F0E6BDAFF30080B4
:107D4000EF39FAFE422EE63FFFFFEF3FFFFFAF4164
:107D50000000F03F000000002DE9F047BE4B21F08D
:107D60000048984584B004460D4612DD08F14048AD
:107D700008F58018034658EA030321D002460B4653
:107D800016F0D0FC02460B4616F0AAFF04B0BDE880
:107D9000F087B24B98458A4629DCB8F1795F80F2CA
:107DA000658191A3D3E9002316F0BEFC0022AC4B01
:107DB00017F0FCF8D8B12046294604B0BDE8F0879A
:107DC0008BA3D3E9002316F061FE8BA3D3E9002334
:107DD00006460F462046294616F058FE02460B4638
:107DE0003046394616F0A0FC04B0BDE8F0872046C6
:107DF000294614F0C7FA02460B460020984916F0AF
:107E000091FC0022974B16F041FE7DA3D3E900239D
:107E100004460D4616F03AFE7BA3D3E9002316F084
:107E200083FC22462B4616F031FE79A3D3E90023CA
:107E300016F078FC22462B4616F028FE76A3D3E9EE
:107E4000002316F071FC22462B4616F01FFE74A389
:107E5000D3E9002316F066FC22462B4616F016FEE8
:107E600071A3D3E9002316F05FFC22462B4616F0DF
:107E70000DFE6FA3D3E90023CDE90001204629467A
:107E800016F004FE6CA3D3E9002316F04BFC224647
:107E90002B4616F0FBFD6AA3D3E9002316F044FC41
:107EA00022462B4616F0F2FD67A3D3E9002316F015
:107EB00039FC22462B4616F0E9FD694B002216F0EC
:107EC00033FCCDE902012046294615F013FA664B32
:107ED000984506460F4666DCDDE90223DDE9000130
:107EE00016F0FEFE3246CDE900013B4630463946EB
:107EF00016F01AFC02460B46DDE9000116F0C6FD3D
:107F00004FF00008CDE9000142463B464046394665
:107F100016F0BCFD02460B462046294616F002FC30
:107F2000424604460D463B463046394616F0FCFBB9
:107F300002460B462046294616F0D2FE02460B4664
:107F400016F0F2FB02460B462BA1D1E9000116F018
:107F5000E9FB02460B46DDE9000116F0E3FB424671
:107F600004460D463B464046394616F0DDFB0246C8
:107F70000B4637A1D1E9000116F0D4FB02460B46AF
:107F80002046294616F0CEFB02460B4630A1D1E929
:107F9000000116F0C7FBBAF1000F3FF7F7AE01F191
:107FA00000431946F2E6DDE90223DDE9000116F09F
:107FB00097FE32463B4616F069FD32463B4616F0C8
:107FC000B3FB02460B4616F0AFFB0BA3D3E900232D
:107FD00016F0A8FB02460B4605A1D1E9000116F0F8
:107FE000A1FBD8E7AFF300809C7500883CE4377EA6
:107FF000182D4454FB21F93F075C143326A6913C0D
:1080000009F7FD0DE13D023F88B20175E0EF493F00
:108010003B8F68B52882A43F5544880E55C1C93F9F
:108020007D6FEB0312D6D43F555555555555C53F79
:1080300082922EB1C5B8B33F59018D1B6C06E63F45
:10804000C88A599CE52A00404B2D8A1C273A0340D8
:10805000182D4454FB21E93FFFFFEF3FFFFFDF3FB7
:108060000000F03F0000E03F3233EF3F02460B4696
:1080700016F00CFD37A3D3E9002306460F4616F091
:1080800005FD36A3D3E9002316F04EFB32463B46EE
:1080900016F0FCFC33A3D3E9002316F043FB324671
:1080A0003B4616F0F3FC31A3D3E9002316F03CFB6A
:1080B00032463B4616F0EAFC2EA3D3E9002316F025
:1080C00031FB32463B4616F0E1FC2CA3D3E90023FA
:1080D00016F02AFB32463B4616F0D8FC29A3D3E91A
:1080E0000023804689463046394616F0CFFC27A348
:1080F000D3E9002316F016FB32463B4616F0C6FCC9
:1081000024A3D3E9002316F00FFB32463B4616F0BA
:10811000BDFC22A3D3E9002316F004FB32463B4604
:1081200016F0B4FC00220A4B16F0FEFA02460B468B
:108130004046494616F0D4FD22462B4616F0A6FCD2
:1081400022462B4616F0F0FA04B0BDE8F08700BFD7
:108150000000F03F09F7FD0DE13D023F88B20175D7
:10816000E0EF493F3B8F68B52882A43F5544880E15
:1081700055C1C93F7D6FEB0312D6D43F55555555B8
:108180005555C53F82922EB1C5B8B33F59018D1BDD
:108190006C06E63FC88A599CE52A00404B2D8A1C94
:1081A000273A0340000000002DE9F84F1D465342D6
:1081B000134325F0004ADFF8E0E14AEAD373734540
:1081C000144606460F4647D8C0F1000848EA0008A2
:1081D00021F0004343EAD878F0458B463CD805F1BE
:1081E000404808F5801858EA020850D04FEAA578B0
:1081F00008F0020848EAD17850EA030134D052EA84
:108200000A023CD0F24557D0734538D0A3EB0A039D
:108210001B153C2B42DC002D70DB22462B463046E2
:10822000394616F05DFD14F0ADF8FEF751FBB8F1DC
:10823000010F5FD0B8F1020F4ED0B8F1000F62D03D
:1082400043A3D3E9002316F06DFA43A3D3E9002337
:1082500016F068FABDE8F88F32463B4620462946BC
:1082600016F062FABDE8F88FB8F1020F1AD0B8F133
:10827000030F10D13AA1D1E90001BDE8F88FBBF19D
:10828000000F14DB38A1D1E90001BDE8F88FBDE88B
:10829000F84FFEF71DBB3946BDE8F88F32A1D1E992
:1082A0000001C4E72CA1D1E90001BDE8F88F30A19D
:1082B000D1E90001BDE8F88F534526D0B8F1020F8F
:1082C000F0D0B8F1030FD5D0B8F1010F4FF0000096
:1082D00029D00021BDE8F88F1DA3D3E9002316F0B3
:1082E00021FA02460B461CA1D1E9000116F01AFA48
:1082F000BDE8F88F01F10041BDE8F88F3C338CDA1E
:108300000020002193E7BDE8F88FB8F1020F18D0E4
:10831000B8F1030F10D0B8F1010F08D016A1D1E9C0
:108320000001BDE8F88F4FF00041BDE8F88F14A1BF
:10833000D1E90001BDE8F88F13A1D1E90001BDE842
:10834000F88F13A1D1E90001BDE8F88FAFF30080E9
:10835000075C143326A6A13C182D4454FB21094088
:10836000182D4454FB2109C0182D4454FB21F93F1A
:10837000182D4454FB21F9BF182D4454FB21E93F2B
:10838000182D4454FB21E9BFD221337F7CD902C090
:10839000D221337F7CD902400000F07F0000000032
:1083A00043422DE9F047034321F000463E4A46EAA6
:1083B000D373934204460D4613D896423DD03B4BAF
:1083C0009E428A4617DC36A3D3E9002316F0ACF9A7
:1083D0000022002316F0EAFDA8B320462946BDE896
:1083E000F08702460B4616F09DF902460B4616F042
:1083F00077FCBDE8F0872E4B9E42354624DD3346A0
:108400000246314616F090F9224606460F462B46A4
:108410000020254916F086F902460B4630463946BB
:1084200016F05EFCFEF708FD0022224B16F02EFB34
:10843000BAF1000F2FDBBDE8F0870022002316F011
:108440004FFCBDE8F087354622462B46204629469C
:1084500016F06AF922462B4606460F4616F016FB22
:108460002246804689462B4600200F4916F05AF9CD
:1084700002460B464046494616F032FC32463B4621
:1084800016F052F9FEF7D8FC00220A4B16F0FEFA5D
:10849000BAF1000FCFDA01F100431946BDE8F087C9
:1084A0009C7500883CE4377E0000F03FFFFF2F3EC4
:1084B000FFFFDF3F0000E03F2DE9F8434E4B21F086
:1084C00000449C4206460F461BDC4C4B9C4222DD7E
:1084D0004B4B9C4263DD4B4B9C427BDD4A4B9C42A9
:1084E00046DD01339C4240D041A3D3E9002310462E
:1084F000194616F0CBFA06460F4630463946BDE817
:10850000F88302460B4616F0C1FA06460F4630467F
:108510003946BDE8F88313F035FF02F0B1FC0022C4
:108520003A4B8046894616F0FFF8B4F1725F064672
:108530000F46ECDB42464B464046494616F0A6FA4B
:1085400032463B4604460D463046394616F0ECF8B6
:1085500002460B462046294616F0C2FB00222B4B52
:1085600016F0E2F806460F46D1E7294B9842BBD8F1
:108570003046394613F006FF0022264B16F086FAE5
:1085800000F04AF8002204460D46224B16F07EFA0F
:1085900022462B4616F07AFA06460F46B7E713F046
:1085A000F1FE00F039F800221A4B06460F4616F08D
:1085B0006DFA32463B4604460D460020154916F03A
:1085C0008FFB02460B462046294616F0ADF80646BC
:1085D0000F469CE713F0D6FE00F01EF800220D4B6C
:1085E00016F054FA06460F4691E700BFAFF300803D
:1085F0009C7500883CE4377EFFFFEF7F422ED63F1C
:10860000FFFF3540412E8640CD3386400000F03FCD
:108610007DF8B98F0000E03F2DE9F04FB04E21F01A
:108620000042B24283B004460D464FEAD1770DD9DD
:10863000AC4EB24225D9C1F31303034340F0EC80A2
:108640000FB10020002103B0BDE8F08FA64B9A4285
:1086500000F2CB80A54B9A4200F2DC808AA3D3E9DA
:10866000002316F061F80022A14B16F09FFC0028B1
:1086700000F006812046294600229D4B16F054F852
:10868000E1E783A3D3E9002316F090FC002840F033
:10869000C88081A3D3E900232046294616F068FC50
:1086A0000028CED1934E7EA3D3E9002306EBC70664
:1086B0002046294616F0EAF9D6E9002316F034F8E8
:1086C00016F094FC064616F07BF977A3D3E9002355
:1086D0008046894616F0DAF902460B4620462946BE
:1086E00016F020F872A3D3E90023CDE9000140463B
:1086F000494616F0CBF982468B4652465B46DDE989
:10870000000116F00FF804460D4622462B4620467F
:10871000294616F0BBF968A3D3E9002380468946B1
:1087200016F0B4F966A3D3E9002315F0FBFF424627
:108730004B4616F0ABF964A3D3E9002315F0F4FF20
:1087400042464B4616F0A2F961A3D3E9002315F087
:10875000E9FF42464B4616F099F95FA3D3E900239F
:1087600015F0E2FF42464B4616F090F902460B46E2
:108770002046294615F0D6FF80468946002E58D05F
:108780002046294642464B4616F080F942460446AA
:108790000D464B4600204FF0804115F0C3FF0246C6
:1087A0000B462046294616F09BFA02460B465046D9
:1087B000594615F0B7FFDDE9002315F0B3FF0B466E
:1087C00002464B49002015F0ADFF6FF47F739E42C7
:1087D00051DA06F57A7601EB065100224FF0B873B4
:1087E00016F054F903B0BDE8F08F434B9A423FF6C0
:1087F00059AF424BFC002344D3E9002315F092FF0C
:108800003F4BC7F101062344CDE90001D3E900AB9A
:10881000F61B72E7002678E702460B4615F084FF48
:1088200011E719A3D3E900231046194616F02EF9D3
:1088300009E702460B462046294616F027F9002292
:1088400006460F464FF080434046494615F06AFF02
:1088500002460B463046394616F042FA22462B466F
:1088600015F060FF02460B460020214915F05AFF23
:1088700003B0BDE8F08F01EB065103B0BDE8F08F07
:10888000064642E7AFF300809C7500883CE4377EE3
:10889000EF39FAFE422E864051302DD5104987C05F
:1088A000FE822B654715F73F0000E0FE422EE63FB3
:1088B000763C7935EF39EA3DD0A4BE726937663E21
:1088C000F16BD2C541BDBB3E2CDE25AF6A56113FD0
:1088D00093BDBE166CC1663F3E5555555555C53FB7
:1088E000412E8640FFFFEF7F422ED63FFFFF2F3EF7
:1088F0000000F03F08FD0300B1A2F03F18FD0300A7
:1089000028FD0300000000002DE9F04FB1F5801FA5
:1089100085B006460F460B465ADA024621F000445F
:10892000224300F0F8800029C0F27A810022D64B61
:1089300016F0ACF8D54A0B46934206460F466FF048
:10894000350C4ADCC3F3130505F5152E0EF6647ECF
:108950000EF4801E8EF07F5282F440121C1542EA03
:108960000507A4F2FF3464440022C94B304639465F
:1089700004EB1E5415F0D6FEAB1CC3F31303022BFD
:1089800082468B464FF0000230DC002316F0E6FAF8
:10899000002800F0C980002C00F04B81204616F022
:1089A0000FF8A5A3D3E9002306460F4616F06EF88C
:1089B000A3A3D3E9002304460D463046394616F0FA
:1089C00065F802460B462046294615F0ADFE0AE042
:1089D000AE4A93424FF0000CB4DD32463B4630467F
:1089E000394615F0A1FE05B0BDE8F08F4FF0804389
:1089F00015F09AFE02460B465046594616F070F99D
:108A0000064620460F4615F0DBFF3246CDE9000151
:108A10003B4630463946CDE9026716F037F8024644
:108A20000B468046894616F031F887A3D3E9002328
:108A300006460F4616F02AF885A3D3E9002315F061
:108A400073FE32463B4616F021F883A3D3E9002398
:108A500015F06AFE32463B4616F018F880A3D3E9BB
:108A6000002315F061FE42464B4616F00FF87EA338
:108A7000D3E90023804689463046394616F006F889
:108A80007BA3D3E9002315F04FFE32463B4615F099
:108A9000FDFF79A3D3E9002315F046FE32463B469D
:108AA00015F0F4FF0B4602464946404615F03CFEE1
:108AB000A5F5C223C5F5D725A3F27A4351351D4349
:108AC000002D8046894656DD0022724B504659469D
:108AD00015F0DCFF52465B4615F0D8FF06460F4600
:108AE000002C68D132463B464046494615F01CFEF4
:108AF000DDE9022315F0CAFF02460B46304639462F
:108B000015F010FE02460B465046594615F00AFE77
:108B100005B0BDE8F08F0022002300205E4916F06A
:108B2000DFF805B0BDE8F08F55A3D3E90023504628
:108B3000594615F0ABFF02460B460020554915F08B
:108B4000F1FD524606460F465B465046594615F023
:108B50009DFF02460B463046394615F097FF064604
:108B60000F46002C40F09A8002460B46504659466C
:108B700015F0D8FD37E7002C00F0A4802EA3D3E930
:108B80000023DDE9000115F081FF42464B46044613
:108B90000D465046594615F0C5FDDDE9022315F096
:108BA00075FF27A3D3E9002306460F46DDE9000140
:108BB00015F06CFF21E020A3D3E90023DDE90001DB
:108BC00015F064FF32463B4604460D464046494692
:108BD00015F0AAFDDDE9022315F058FF18A3D3E92B
:108BE000002380468946DDE9000115F04FFF02466B
:108BF0000B464046494615F097FD02460B46304667
:108C0000394615F08FFD52465B4615F08BFD024646
:108C10000B462046294615F085FD05B0BDE8F08FCE
:108C200002460B4615F07EFD0022002316F058F890
:108C3000D9E600200021D6E60000E0FE422EE63F05
:108C4000763C7935EF39EA3D44523EDF12F1C23FBE
:108C5000DE03CB966446C73F599322942449D23F02
:108C6000935555555555E53F9FC678D0099AC33F52
:108C7000AF788E1DC571CC3F04FA97999999D93F69
:108C8000555555555555D53F00005043FFFFEF7FD3
:108C90000000F03F0000E03F000050C3204615F008
:108CA0008FFE0FA3D3E900238046894615F0EEFE20
:108CB0000DA3D3E9002304460D464046494615F06E
:108CC000E5FE9AE702460B465046594615F02AFD46
:108CD000DDE9022315F0DAFE14E700BFAFF30080F0
:108CE0000000E0FE422EE63F763C7935EF39EA3D62
:108CF000B1F5801F2DE9F84304460D460B461ADAFC
:108D0000024621F00046324359D000295FDB0022A1
:108D10003B4B15F0BBFE3B4A0D462B4693420446A7
:108D20006FF035010CDD22462B462046294615F012
:108D3000FBFCBDE8F883334A93424FF00001F2DCBC
:108D40001815A0F2FF3008444FEAD0794844C3F325
:108D5000130815F035FEC9F57F73033348EA035550
:108D600006460F4620462946FFF7CEFD1EA3D3E94F
:108D70000023804689463046394615F087FE1CA3FD
:108D8000D3E9002304460D464046494615F07EFED1
:108D900002460B462046294615F0C6FC16A3D3E929
:108DA000002304460D463046394615F06FFE024654
:108DB0000B462046294615F0B7FCBDE8F883002293
:108DC00000230020104915F08BFFBDE8F883024610
:108DD0000B4615F0A7FC0022002315F081FFBDE82B
:108DE000F88300BFAFF30080362BF111F3FE593D3D
:108DF0000EE526157BCBDB3F00609F501344D33F2D
:108E000000005043FFFFEF7F000050C30000000050
:108E10002DE9F04F23F0004757EA020493B037D012
:108E2000674C21F00046A64283460D4629DC9A464F
:108E3000964625D0A74224DC614CA74279D0002D6C
:108E400080468946CDE9002377DB0024BEF1000F80
:108E50002CD15B4B9F4200F08B805A4B9F4261D0DC
:108E6000BAF1804F00F0C383574B9A451ED1002DB5
:108E70001CDB4046494613B0BDE8F04F14F03ABA47
:108E800058B106F1404606F5801656EA0B0306D1A6
:108E90004C49002013B0BDE8F08FB742CCDD4B4801
:108EA00013B0BDE8F04F15F041BA002440464946E2
:108EB00013F068FABBF1000F19D126B1414B25F030
:108EC00040429A4213D1BAF1000FC0F2CA83002D7A
:108ED000E0DA06F1404606F5801656EA040300F093
:108EE000A584012CD6D101F100431946D2E7ED0F3C
:108EF000013D54EA05034ED0354B9F426EDD03F130
:108F000004739F4240F3FE83324B9E424EDDBAF122
:108F1000000F4EDD28A3D3E900231046194615F0B3
:108F2000B5FDB7E7BAF1000FC0F25284404649469A
:108F3000B0E7BEF1000F82D0A3E7274B9F4228DCA9
:108F4000A3F154739F4280DD3B15A3F2FF33142B32
:108F500040F35484C3F134032EFA03F202FA03F30C
:108F60009E457FF472AF02F00102C2F102046DE788
:108F700006F1404303F5801353EA0B0388D0154BE9
:108F80009E4240F33B83BAF1000F12DBDDE90001A2
:108F900080E702245AE742464B461046194615F030
:108FA000C1FB02460B4615F09BFE73E7BAF1000FBA
:108FB000B0DB002000216DE79C7500883CE4377E23
:108FC0000000F07F0000F03F0000E03F18050400C3
:108FD0000000E041FFFFEF3FFFFF3F43B6F5801F7A
:108FE0004FF0000205DAD84B15F050FD6FF0340257
:108FF0000E463315D54FC6F31306A3F2FF331344C1
:1090000046F07F5ABE421A460D934AF4401A40F386
:109010002F83CF4B9E4240F30D849FEDB57B8DEDAA
:10902000087B8DED0E7B9FEDB47B13468DED067BAB
:1090300001330D93AAF5801A0027DDE90623514676
:10904000CDE90A0115F06EFBDDE90623804689466D
:10905000DDE90A0115F068FB02460B460020BD4918
:1090600015F03EFE0A460146CDE910121346494668
:109070000246404615F00AFD4FEA6A0343F00053EA
:109080008C46834603F50023CDE904BCDA468B46C3
:10909000D9190023CDE902AB0293DDE902AB002030
:1090A00006460F4602460B465046594615F0EEFC62
:1090B00002460B464046494615F034FBDDE90623DF
:1090C000804689463046394615F02CFB02460B4651
:1090D000DDE90A0115F026FB52465B4615F0D6FC89
:1090E00002460B464046494615F01CFBDDE91023BD
:1090F00015F0CCFCDDE90467CDE9060132463B46BC
:109100003046394615F0C2FC7DA3D3E9002306465C
:109110000F4615F0BBFC7CA3D3E9002315F004FB3C
:1091200032463B4615F0B2FC79A3D3E9002315F093
:10913000FBFA32463B4615F0A9FC77A3D3E900239E
:1091400015F0F2FA32463B4615F0A0FC74A3D3E9C1
:10915000002315F0E9FA32463B4615F097FC72A35E
:10916000D3E9002315F0E0FA3246804689463B46B3
:109170003046394615F08AFC02460B4640464946C1
:1091800015F084FC524606460F465B46DDE90401B5
:1091900015F0CAFADDE9062315F078FC32463B46A5
:1091A00015F0C2FA5246804689465B4650465946FB
:1091B00015F06CFC0022684BCDE90A0115F0B4FAF9
:1091C00042464B4615F0B0FA02980F460646324624
:1091D0003B465046594615F059FC002282468B46C4
:1091E0005D4B3046394615F09DFADDE90A2315F04E
:1091F00099FA02460B464046494615F093FADDE9D6
:10920000042315F043FC3246804689463B46DDE99F
:10921000060115F03BFC02460B464046494615F058
:1092200083FA8046894602460B4650465946CDE9A8
:1092300004AB15F079FADDE902AB3DA3D3E90023D5
:1092400050460F4615F022FCDDE90423CDE902016A
:109250003946504615F066FA02460B4640464946E6
:1092600015F060FA34A3D3E9002315F00FFC34A302
:10927000D3E90023804689465046394615F006FC5E
:1092800002460B464046494615F04EFADDE90E23EC
:1092900015F04AFA80460D98894615F091FB424632
:1092A00006460F464B46DDE9020115F03DFADDE9C1
:1092B000082315F039FA32463B4615F035FA3246A6
:1092C0003B4650468B4615F02DFADDE9082315F094
:1092D00029FADDE9022315F025FA02460B4640463D
:1092E000494615F01FFA8046894637E0AFF3008003
:1092F0000000000000000000000000000000F03F3F
:10930000EF4E454A287ECA3F65DBC9934A86CD3F6A
:1093100001411DA96074D13F4D268F515555D53F50
:10932000FFAB6FDBB66DDB3F033333333333E33FE8
:10933000000000E009C7EE3FFD033ADC09C7EE3F3D
:10934000F5015B14E02F3EBE000040438E98030001
:1093500079B60B000000F03F00000840013C54EAE1
:10936000050300F079819FEDC87B8DED047BDDE97D
:1093700000120B461446CDE9023400230293DDE9C6
:10938000024508462B461146224615F0CBF95246B7
:109390005B4615F07BFBDDE9002306460F464046A1
:1093A000494615F073FB02460B463046394615F028
:1093B000BBF92246804689462B4650465946CDE9A0
:1093C000008915F063FB0B46024606460F464046F1
:1093D000494615F0A9F9C64B994204460D468A46FE
:1093E00040F3168101F13F4303F5E003034340F0EE
:1093F000F781A7A3D3E90023DDE9000115F094F973
:109400003246804689463B462046294615F08AF971
:1094100002460B464046494615F0C8FD002840F07C
:10942000DF81A8464FEA28534FF48012A3F2FE339F
:1094300042FA03F35344C3F30A52AE4DA2F2FF3291
:109440001541C3F3130423EA05010020C2F1140BF4
:1094500044F48014BAF1000F02460B4644FA0BFBA9
:1094600030463946B8BFCBF1000B15F05BF9024628
:109470000B4606460F46DDE9000115F055F94FEAA7
:109480000B5A0D46002484A3D3E900232046294625
:1094900015F0FCFA3246804689463B46204629466E
:1094A00015F040F902460B46DDE9000115F03AF9E6
:1094B0007BA3D3E9002315F0E9FA7BA3D3E90023CA
:1094C00006460F462046294615F0E0FA02460B46AE
:1094D0003046394615F028F906460F4602460B4637
:1094E0004046494615F020F942464B4604460D4693
:1094F00015F018F902460B463046394615F012F9B8
:109500002246804689462B462046294615F0BEFA5B
:1095100067A3D3E9002306460F4615F0B7FA66A302
:10952000D3E9002315F0FEF832463B4615F0AEFABB
:1095300063A3D3E9002315F0F7F832463B4615F054
:10954000A5FA61A3D3E9002315F0ECF832463B46B7
:1095500015F09CFA5EA3D3E9002315F0E5F8324636
:109560003B4615F093FA02460B462046294615F075
:10957000D9F806460F4602460B462046294615F006
:1095800085FA0022CDE900014FF08043304639468C
:1095900015F0C8F802460B46DDE9000115F0A0FB06
:1095A000424606460F464B462046294615F06EFABF
:1095B00042464B4615F0B8F802460B46304639464F
:1095C00015F0B0F822462B4615F0ACF802460B46D3
:1095D0000020494915F0A6F88A44BAF5801FC0F268
:1095E00039815146DDE9042315F050FA52E4424630
:1095F0004B464046494615F049FA4BE4BAF1000F94
:10960000BFF6D7ACDDE90034184604F1004141E46F
:109610003A4B21F00048984540F3FF80384B0B440B
:1096200003430CD132463B4615F07CF802460B460C
:10963000DDE9000115F0A6FC00283FF4F3AEDDE9FA
:10964000040125A3D3E9002315F020FA22A3D3E9CE
:10965000002315F01BFA1DE49FED217B8DED047BAB
:1096600085E602460B460020234915F039FB2EE41F
:109670009FED1D7B8DED087B8DED0E7B9FED027BBD
:1096800000278DED067BD8E4000000000000F03FCD
:10969000FE822B654715973C00000000432EE63FF5
:1096A000EF39FAFE422EE63F396CA80C615C20BE11
:1096B000D0A4BE726937663EF16BD2C541BDBB3ED8
:1096C0002CDE25AF6A56113F93BDBE166CC1663FB6
:1096D0003E5555555555C53F59F3F8C21F6EA50166
:1096E000000000000000F0BF0000000000000000CB
:1096F000FFFF8F40FFFF0F000000F03FFFCB9040C7
:1097000000346F3F684B9E427FF750AC674B9E42E0
:109710003FF7FDAB0022654B15F004F852A3D3E9E7
:10972000002306460F4615F0B1F951A3D3E90023F3
:10973000804689463046394615F0A8F9002282460F
:109740008B465B4B3046394615F0A0F902460B4676
:1097500049A1D1E9000114F0E5FF32463B4615F07E
:1097600095F902460B460020524914F0DBFF3246C1
:10977000CDE902013B463046394615F087F90246ED
:109780000B46DDE9020115F081F93DA3D3E9002381
:1097900015F07CF902460B465046594614F0C2FFBC
:1097A00002460B4606460F464046494614F0BCFFAB
:1097B00042464B46002082468B4614F0B3FF0246D9
:1097C0000B463046394614F0ADFF80468946C5E564
:1097D00042464B460020354915F082FAFFF75ABB46
:1097E000DDE9040128A3D3E9002315F04FF926A3EE
:1097F000D3E9002315F04AF9FFF74CBBBEF1000F87
:109800007FF453ABC3F1140347FA03F202FA03F3F4
:109810009F4223D07446FFF720BB264B98453FF765
:1098200001AEDDE90223924693462BE602460B4643
:10983000FFF7B3BB9FED167B8DED087B9FED167B8D
:109840008DED0E7B9FED167B4FF480278DED067B13
:10985000FFF7F3BB5A4601F04FFDC3E602F00102E9
:10986000C2F10204FFF7F9BA000000604715F73FA4
:1098700044DF5DF80BAE543E555555555555D53F13
:10988000FE822B654715F73F9C7500883CE4377EC8
:109890000000004003B8E23F06D0CF43EBFD4C3E52
:1098A000000000000000F83FFEFFEF3F0000F03F27
:1098B0000000D03F0000E03F2DE9F0479C4B21F035
:1098C00000479F4290B08046894640F38E80994B76
:1098D0009F420C46924626DC00298BA3D3E9002345
:1098E00040F3B08114F01EFF934B9F4204460D4697
:1098F00000F0908086A3D3E9002314F013FF024602
:109900000B46CAE900232046294614F00BFF80A32A
:10991000D3E9002314F006FF0125CAE90201284615
:1099200010B0BDE8F087854B9F4240F39080844B98
:109930009F4265DC3D15A5F21645A7EB0553194678
:109940001F46064615F052FB15F03AF88046894648
:1099500042464B4630463946CDE90A8914F0E2FECC
:109960000022784B15F092F88946804615F03EFBB0
:1099700015F026F806460F4632463B464046494615
:10998000CDE90C6714F0CEFE00226E4B15F07EF888
:1099900000220023CDE90E0115F0E0FA002800F0C6
:1099A0006F81002330463946002215F0D7FA00288F
:1099B00014BF01230223644A019202212A46009126
:1099C0000AA8514600F08CFB002C054614DADAF8A0
:1099D0000420DAF80C3002F1004203F10043454262
:1099E000CAF80420CAF80C3006E000200021C2E9C1
:1099F0000089C2E902010025284610B0BDE8F087C1
:109A000002460B4614F08EFE0025CAE90201CAE99F
:109A10000001F1E740A3D3E9002314F083FE40A343
:109A2000D3E900230D46044614F07CFE02460B46A3
:109A3000CAE900232946204614F074FE38A3D3E96E
:109A4000002314F06FFE0125CAE90201D4E712F0E9
:109A500099FC35A3D3E900238046894615F016F812
:109A600000223A4B14F060FE15F0C0FA054614F0DF
:109A7000A7FF25A3D3E90023CDE9060115F006F8D9
:109A800002460B464046494614F04CFE20A3D3E95B
:109A90000023CDE90201DDE9060114F0F7FF1F2DD7
:109AA00080468946CDE9048954DC294B6A1E53F867
:109AB00022309F424ED002460B46DDE9020114F0EF
:109AC00031FE80468946CAE9008942464B46DDE9B7
:109AD000020114F027FEDDE9042314F023FE002C1C
:109AE000CAE9020188DA09F1004401F100436D423C
:109AF000CAF80080CAF80440CAF80800CAF80C3056
:109B00007AE700BFAFF3008000004054FB21F93F2B
:109B10003163621A61B4D03D0000601A61B4D03D77
:109B20007370032E8A19A33B83C8C96D305FE43F6D
:109B3000FB21E93F7BD90240FB21F93FFB21394161
:109B4000FFFFEF7F00007041940F04000000E03F32
:109B5000140F0400DDE90423DDE9020114F0E2FD45
:109B60003F15C1F30A53FB1A80468946102BCAE9F8
:109B70000089AADD58A3D3E90023DDE9060114F02A
:109B800085FF8046894602460B46DDE9020114F056
:109B9000C9FD02460B46DDE90201CDE9082314F0B8
:109BA000C1FD42464B4614F0BDFD4DA3D3E9002351
:109BB00080468946DDE9060114F068FF42464B46BF
:109BC00014F0B0FD0B46CDE904010246DDE90801C1
:109BD00014F0A8FDC1F30A53FF1A80468946312FBD
:109BE000CAE900896CDD41A3D3E90023DDE9060160
:109BF00014F04CFFDDE9088906460F4602460B4685
:109C00004046494614F08EFD02460B464046494602
:109C1000CDE9022314F086FD32463B4614F082FD66
:109C200034A3D3E9002306460F46DDE9060114F00C
:109C30002DFF32463B4614F075FD02460B46CDE93A
:109C400004233AE714F070FD274B9F4204460D466B
:109C500018D01FA3D3E9002314F066FD02460B467B
:109C6000CAE900232946204614F05CFD18A3D3E975
:109C7000002314F059FD4FF0FF35CAE90201BBE69D
:109C8000032398E614A3D3E9002314F04DFD14A395
:109C9000D3E900230D46044614F046FD02460B4668
:109CA000CAE900232946204614F03CFD0CA3D3E961
:109CB000002314F039FD4FF0FF35CAE902019BE69D
:109CC0009DED087B8DED027BFFE600BFAFF30080CA
:109CD0003163621A61B4D03D0000601A61B4D03DB6
:109CE0007370032E8A19A33BFB21F93F0000002E5D
:109CF0008A19A33BC14920259A837B3900000000C3
:109D0000594A2DE9F84F21F00048904506460F4684
:109D10002BDC564B0029B4BF554D564D98454FF09E
:109D2000000410DC544B984570DC4DA3D3E90023AC
:109D300014F0FAFC0022514B15F038F9D8B1304636
:109D40003946BDE8F88F4E4B98457CDD4D4B984524
:109D500044DD013398453ED03046394640A3D3E92F
:109D6000002314F093FEBDE8F88F02460B4614F072
:109D7000DBFCBDE8F88F3046394612F003FB01F0FA
:109D80007FF806460F4632463B463046394614F0C9
:109D9000CBFC324682468B463B463046394614F071
:109DA00075FE002280468946344B3046394614F011
:109DB000BBFC02460B464046494614F091FF024662
:109DC0000B465046594614F0ADFC22462B4614F083
:109DD0005DFEBDE8F88F2C4B9842BDD83046394621
:109DE00012F0D0FA0022234B14F050FEFEF714FCC0
:109DF00006460F4602460B462046294614F046FE0C
:109E000032463B4614F042FEBDE8F88F12F0BAFA33
:109E100001F036F81D4B984506460F46B3DD00228B
:109E2000164B14F081FC02460B463046394614F0BE
:109E300057FF32463B4614F077FC22462B4614F07F
:109E400025FEBDE8F88F12F09DFAFEF7E5FB02460D
:109E50000B462046294614F019FEBDE8F88F00BFD6
:109E60003374AC3C1F7BAC7FFFFFEF7FFFFF3540BF
:109E70000000E0BF0000E03FFFFF2F3E0000F03F8A
:109E8000412E8640CD3386407DF8B98FFFFFEF3FEE
:109E90002DE9F04F21F00048B8F1795F85B0064612
:109EA0000F4692469B466BDA15F0A0F8002800F0AA
:109EB000EA8032463B463046394614F0E7FD74A34B
:109EC000D3E9002304460D4614F0E0FD72A3D3E964
:109ED000002314F029FC22462B4614F0D7FD70A372
:109EE000D3E9002314F01EFC22462B4614F0CEFDCD
:109EF0006DA3D3E9002314F017FC22462B4614F07F
:109F0000C5FD6BA3D3E9002314F00CFC22462B46BD
:109F100014F0BCFD68A3D3E9002314F005FC22462D
:109F20002B4614F0B3FDCDE900010022664B20461C
:109F3000294614F0ABFDDDE9002380468946204622
:109F4000294614F0A3FD524604460D465B463046B2
:109F5000394614F09BFD02460B462046294614F074
:109F6000E1FB02460B464046494614F0DBFB024645
:109F70000B460020554914F0D5FB05B0BDE8F08F25
:109F800002460B4614F082FD41A3D3E900230446A8
:109F90000D4614F07BFD40A3D3E9002314F0C4FB6D
:109FA00022462B4614F072FD3DA3D3E9002314F0A2
:109FB000B9FB22462B4614F069FD3BA3D3E90023ED
:109FC00014F0B2FB22462B4614F060FD38A3D3E90F
:109FD000002314F0A7FB22462B4614F057FD36A3AE
:109FE000D3E9002314F0A0FB2B46224614F04EFDCB
:109FF000374B9845CDE9000197DD364B984539DC64
:10A00000A8F500130022002030499046994614F02C
:10A0100089FBCDE9020100222B4B2046294614F092
:10A0200035FD42464B4614F07DFBDDE900238046BA
:10A0300089462046294614F029FD524604460D461D
:10A040005B463046394614F021FD02460B46204659
:10A05000294614F067FB02460B464046494614F079
:10A0600061FB02460B46DDE9020114F05BFB05B023
:10A07000BDE8F08F9FED127B4FF000088DED027B65
:10A08000DFF85490C7E71149002005B0BDE8F08F14
:10A09000D43888BEE9FAA8BDC4B1B4BD9EEE213E55
:10A0A000AD529C804F7E923E9015CB19A001FA3E96
:10A0B0007751C1166CC1563F4C5555555555A53F66
:10A0C000000000000000E73F0000E03F0000F03F1C
:10A0D0003233D33F0000E93F0000D23F00000000D0
:10A0E0002DE9F04FADF51B7D9F4CA49E9F4D54F87C
:10A0F000264007942646D41E85FB0475E417C4EB5E
:10A10000A50424EAE4741D460A93631CA3EB8303AD
:10A11000013D02EBC30306932B460B940395651B8D
:10A12000F418049008911AD42C4400260027013416
:10A130000DF18808DDF8949208E059F8250014F034
:10A140003FFC0135A542E8E8020108D0002DF4DA11
:10A15000013530463946A542E8E80201F6D1079BB1
:10A16000002BC0F2DF83079B03F1010B0A9B22A99E
:10A17000DB001A4601EB03090093049B0DF5E47A1A
:10A1800019460AEBCB0B01EB0208039B002BC0F234
:10A19000F582049C4D460026002775E90223F4E869
:10A1A000020114F073FC02460B463046394614F0A7
:10A1B000BBFA444506460F46EFD1EAE80267DA45A6
:10A1C00009F10809E1D107990098049C009101F177
:10A1D0008043013B9B0020441A1F83460EA8024483
:10A1E00003440C920D93009A9AA901EBC203002A32
:10A1F00053E9284529DD0DF5E47A0AEBC2080DF193
:10A20000340900225A4B2046294614F03FFC14F032
:10A21000EDFE14F0D5FB0022564B06460F4614F017
:10A2200035FC02460B462046294614F07BFA14F012
:10A23000DDFE78E9022349F8040F3946304614F070
:10A2400073FAD04504460D46DBD1DDF81890204660
:10A2500029464A4601F050F800224FF07F53044649
:10A260000D4614F013FCFCF75FFD0022424B14F086
:10A270000DFC02460B462046294614F053FA0D46C3
:10A28000044614F0B3FE804614F09AFB0B460246D7
:10A290002946204614F046FA4B46002B06460F4648
:10A2A00040F3F980009A0EA9013AC9F1180351F858
:10A2B000225045FA03F101FA03F30EA8EB1A40F815
:10A2C0002230C9F11705884443FA05F5002D6DDDEC
:10A2D000009B002B08F1010840F36F820E9C002CBC
:10A2E00040F01683009B012B40F38F820EAA0123BE
:10A2F00052F8044F002C00F08382581C0EAAC4F1BF
:10A30000807442F82340009A824219DD0EAA0EACF6
:10A3100052F820106FF07F42511A44F82010009933
:10A32000023399420CDD1046009A0EA901EB83031B
:10A3300001EB82011A68821A43F8042B8B42F9D18F
:10A34000069B002B1ADD069B012B4FF0010440F009
:10A350003C82009B5A1E0EAB0EA953F82230C3F369
:10A36000160341F822303CE234140400ABAAAA2AB6
:10A370000000703E0000704100002040022D15D109
:10A3800032463B460020924914F0CCF906460F466F
:10A39000069A8F49002000F0AFFF02460B46304678
:10A3A000394614F0BFF9022506460F460022002365
:10A3B0003046394614F0D2FD002800F03782009A6A
:10A3C000079B501E83420FDC02F18043013B0EAA23
:10A3D0000D9C02EB8303002253F80419A34242EAC6
:10A3E0000102F9D1002A67D1079B0EAA013B52F85E
:10A3F0002330002B40F018820C9A012352F80419E4
:10A4000001330029FAD0009AD31802F1010A9A45C3
:10A4100009933DDC009B0A990B9A0B4409990AEBBE
:10A420000208994622AB08F1804803EBC9098B1852
:10A43000A59A08F1FF3802EB880872AA02EBCA0A53
:10A44000A59A02EB8303009358F8040F14F0B8FAAE
:10A45000039B002BE9E802014FF000064FF00007D4
:10A4600011DB049C4D4675E90223F4E8020114F067
:10A470000DFB02460B463046394614F055F95C4553
:10A4800006460F46EFD1009B9845EAE80267DBD10C
:10A49000099B0093A7E606D1009B0EAA013B52F848
:10A4A0002350ED1512E700224A4B14F075FD0028E9
:10A4B00040F06E81054679E70EA9039551F82030EA
:10A4C0000699CDF8248018390246009006916BB9A0
:10A4D00000F18043013B0EA800EB830353F804090D
:10A4E000013A18390028F9D000920691069A3849A5
:10A4F000002000F001FF009B002B04460D46C0F237
:10A50000F781DA0072A901EB020B06920EAA02EBA8
:10A510008306DFF8C4904FF000080BF108070436FB
:10A5200056F8040D14F04CFA22462B4614F0AEFAFD
:10A530004B4667E9020142462046294614F0A6FA36
:10A540000EAB9E4204460D46EAD14AACDDF81C90A3
:10A5500004944FF0000AB9F1000FC0F22B81DFF82C
:10A560007C805D4618A1D1E9000100260027002467
:10A5700003E0544510DCF8E80201F5E8022314F08A
:10A5800085FA02460B463046394614F0CDF80134C0
:10A59000A14506460F46ECDA049B03EBCA03ABF178
:10A5A000080BC3E9006770AB9B450AF1010AD2D1E1
:10A5B000A49B049C032B00F28980DFE803F0C58E86
:10A5C0008E1100BFAFF3008000000040FB21F93F77
:10A5D0000000F03F0000E03F0000703E50FD03002F
:10A5E000009B002B40F38181069A04EB020ADAE912
:10A5F000008902F1080525440DF5987B1AED027BD0
:10A6000042464B4651EC170B8DED047B14F08CF851
:10A6100006460F4602460B46DDE9040114F082F8B7
:10A6200042464B4614F080F865E902015D45B046AC
:10A63000B9466AE90267E1D1009B012B40F35581DD
:10A64000069BE518D5E9008903F1080B04EB0B0A1A
:10A6500015ED027B42464B4651EC170B8DED007B0E
:10A6600014F062F806460F4602460B46DDE900018B
:10A6700014F058F84B46424614F056F86AE90201C5
:10A680004EAB5345B046B94665E90267E0D10020BC
:10A69000002104EB0B0575E9022314F045F8AA45E7
:10A6A000F9D1039B002B00F00A816268E368089FE0
:10A6B0002568A4683D6002F1004203F1004301F106
:10A6C00000417A60FB60BC6038617961099B03F0EE
:10A6D00007000DF51B7DBDE8F08F069D083525446C
:10A6E0000020002175E9022314F01EF8A542F9D1DB
:10A6F000039B002B00F0D280089E024601F100432C
:10A7000086E80C000B460246D4E9000114F00AF872
:10A71000009B002B0BDD4CAD0124F5E8022314F067
:10A7200003F8009B0134A342F7DA039B13B101F154
:10A7300000431946089BC3E90201099B03F0070087
:10A740000DF51B7DBDE8F08F069D0835002000212A
:10A75000254475E9022313F0E7FFAC42F9D1039BCE
:10A7600013B101F100431946089BC3E90001099B9D
:10A7700003F007000DF51B7DBDE8F08F00260027D4
:10A78000EAE80267DA4509F108097FF4FEAC1AE548
:10A79000009B002B08F10108C8BF02253FF79EADC2
:10A7A00032463B460020614913F0BCFF02250646B5
:10A7B0000F46FBE500260027EEE6069B002B27DD73
:10A7C0000024069B012B3FF4C4AD022B09D1009B52
:10A7D0005A1E0EAB0EA953F82230C3F3150341F8ED
:10A7E0002230022D7FF4E2AD32463B4600204F4935
:10A7F00013F098FF06460F46002C3FF4D7ADC7E58F
:10A800000099013399427FF473AD069B002BD8DC8D
:10A81000022D7FF4CBAD32463B460020434913F076
:10A8200081FF06460F46C1E50123ECE53946069F48
:10A8300003957A423046CDF8248000F05DFD002279
:10A840003B4B04460D4614F0A7FB002843D00022E2
:10A85000384B2046294614F019F914F0C7FB064678
:10A8600014F0AEF80022324B14F010F902460B46F9
:10A870002046294613F056FF14F0B8FB00990B460A
:10A8800001331A4600933B46183306930B460EA934
:10A8900041F82300134641F8236027E6089B02464F
:10A8A000C3E900010B46D4E9000113F03BFF009B14
:10A8B000002B3FF730AF089BC3E902013DE7D4E925
:10A8C0000067D4E90223089DC5E90401C5E90067D2
:10A8D000C5E90223FAE62946204614F087FB009AD0
:10A8E0000EA941F8220001E64AAC00200021D8E67A
:10A8F000A49B032B3FF6EAAE01A252F823F000BF5F
:10A900001FA9020017A9020017A90200E9A8020066
:10A9100001200023F2E4002000214AACE8E60020F8
:10A9200000211CE70A9BDB0000934CE40000F03F91
:10A93000000070410000703E2DE9F04F21F000460C
:10A94000B6F1795F85B004460D469046994604DA23
:10A9500014F04CFB002800F0858022462B46204650
:10A96000294614F093F806460F4602460B46204649
:10A97000294614F08BF841A3D3E9002382468B4685
:10A980003046394614F082F83EA3D3E9002313F091
:10A99000C9FE32463B4614F079F83CA3D3E90023C4
:10A9A00013F0C2FE32463B4614F070F839A3D3E9E7
:10A9B000002313F0B7FE32463B4614F067F837A386
:10A9C000D3E9002313F0B0FE0E9BCDE900019BB349
:10A9D0000022294B4046494614F058F8DDE900238F
:10A9E000CDE902015046594614F050F802460B4694
:10A9F000DDE9020113F096FE32463B4614F046F8BC
:10AA000042464B4613F08EFE19A3D3E900230646B7
:10AA10000F465046594614F039F802460B46304668
:10AA2000394613F081FE02460B462046294613F0B4
:10AA300079FE05B0BDE8F08F02460B463046394638
:10AA400014F024F80AA3D3E9002313F06BFE524656
:10AA50005B4614F01BF822462B4613F065FE05B04A
:10AA6000BDE8F08F2046294605B0BDE8F08F00BF55
:10AA7000495555555555C53F0000E03F7CD5CF5A47
:10AA80003AD9E53DEB9C2B8AE6E55A3E7DFEB1576F
:10AA9000E31DC73ED561C119A0012A3FA6F81011D8
:10AAA0001111813F000000002DE9F04FBE4C21F054
:10AAB000004687B0A64282468B460F46CDE900236A
:10AAC0001BDC14F093FA002837D153461E43109B29
:10AAD0000133334300F0B381109B012B00F0C88198
:10AAE00052465B460020B14914F0FAF804460D4680
:10AAF0002046294607B0BDE8F08FAD4B9E421CDDD5
:10AB00000029C0F2A98152465B4687A1D1E9000124
:10AB100013F008FEDDE9002304460D4684A1D1E9C7
:10AB2000000113F0FFFD9FED847B22462B468DED47
:10AB3000007B13F0F9FD82468B4652465B46504639
:10AB4000594613F0A3FF02460B468046894613F090
:10AB50009DFF424604460D464B465046594613F06B
:10AB600095FF77A3D3E90023CDE9020120462946CA
:10AB700013F08CFF74A3D3E9002313F0D5FD224614
:10AB80002B4613F083FF72A3D3E9002313F0CCFD0F
:10AB900022462B4613F07AFF6FA3D3E9002313F06C
:10ABA000C3FD22462B4613F071FF6DA3D3E90023AA
:10ABB00013F0BAFD22462B4613F068FF6AA3D3E9CF
:10ABC000002313F0B1FD42464B4613F05FFF68A32C
:10ABD000D3E90023CDE904012046294613F056FFAE
:10ABE00065A3D3E9002313F09FFD22462B4613F003
:10ABF0004DFF63A3D3E9002313F096FD22462B46B5
:10AC000013F044FF60A3D3E9002313F08DFD224627
:10AC10002B4613F03BFF5EA3D3E9002313F084FD22
:10AC200022462B4613F032FF5BA3D3E9002313F037
:10AC30007BFD02460B46DDE9040113F075FDDDE9FD
:10AC4000022313F023FFDDE9004522462B4613F0D3
:10AC50006BFD42464B4613F019FF02460B46204659
:10AC6000294613F061FD4EA3D3E9002304460D46A7
:10AC7000DDE9020113F00AFF22462B4613F054FDD2
:10AC80000B460246804689465046594613F04CFD15
:10AC9000474B9E4204460D4600F38E80109B012BCD
:10ACA0003BD002460B460020404914F019F800241E
:10ACB00006460F462046294652465B46CDE90067C8
:10ACC000CDE90201009413F02DFDDDE900AB024651
:10ACD0000B464046494613F025FD52465B4613F0AD
:10ACE000D5FE524604460D465B46DDE9020113F0EF
:10ACF000CDFE00222F4B13F017FD02460B462046D7
:10AD0000294613F011FD32463B4613F0BFFE524672
:10AD10005B4613F009FD04460D462046294607B060
:10AD2000BDE8F08FAFF30080182D4454FB21E93FBC
:10AD3000075C143326A6813C0000000000000000E0
:10AD4000D47ABF74702AFB3EE9A7F0320FB8123FE5
:10AD500068108D1AF726303F1583E0FEC8DB573F99
:10AD600093846EE9E326823FFE41B31BBAA1AB3F59
:10AD7000735360DBCB75F3BEA69237A0887E143F79
:10AD80000165F2F2D844433F280356C9226D6D3F56
:10AD900037D60684F464963F7AFE10111111C13F34
:10ADA000635555555555D53FFFFF2F3E0000F0BF69
:10ADB0002794E53F0000F03F109813F001FE224673
:10ADC000CDE900012B462046294613F05FFEDDE960
:10ADD0000023CDE902012046294613F0A5FC0246D6
:10ADE0000B46DDE9020113F07BFF42464B4613F0B0
:10ADF00099FC02460B465046594613F093FC024616
:10AE00000B4613F091FC02460B46DDE9000113F0FE
:10AE100089FC0446B81700F00200C0F101000D469D
:10AE200013F0CEFD02460B462046294613F02EFEB7
:10AE300004460D462046294607B0BDE8F08F50462F
:10AE4000594611F09FFA02460B4600200A4913F0BA
:10AE500047FF04460D4660E7DDE9004501F100418A
:10AE6000224605F1004382468B46CDE900234AE69F
:10AE700054465D4651E700BF0000F03F000000006F
:10AE80002DE9F04FD24A21F00043934285B082462B
:10AE90008B460C462DD9CF4A93421AD8002C80F20B
:10AEA0001681B5A3D3E900235046594613F03CFC64
:10AEB0000022002314F05CF8C0B9B1A3D3E9002349
:10AEC0005046594613F0E2FD02460B460020C249A7
:10AED00008E1C24A934240F2D0800346C1F3130214
:10AEE000134340F0F481002980F2C4800020BC4963
:10AEF000C0E0BC4A934200F22981BB4A934240F22F
:10AF0000DE80002301930022B84B5046594613F0CF
:10AF1000BDFD06460F4602460B465046594613F005
:10AF2000B5FD99A3D3E9002304460D4613F0AEFD09
:10AF300097A3D3E9002313F0F7FB22462B4613F027
:10AF4000A5FD95A3D3E9002313F0ECFB22462B4685
:10AF500013F09CFD92A3D3E9002313F0E5FB2246F6
:10AF60002B4613F093FD90A3D3E9002313F0DAFBF3
:10AF700022462B4613F08AFD00229D4B13F0D4FB92
:10AF80008046894602460B463046394613F07EFD20
:10AF900002460B460020974913F0C4FB06460246C2
:10AFA0000B460F464046494613F0BCFB32468046EE
:10AFB00089463B465046594613F068FD02460B460B
:10AFC00000208D4913F0AEFB02460B464046494631
:10AFD00013F086FE22462B4613F058FD019E0246D2
:10AFE0000B46002E38D0DDE9026732463B4613F0AF
:10AFF00099FB52465B4613F049FD32463B4613F03F
:10B0000091FB2B46224613F08DFB019B0133064634
:10B010000F4600F00F81019B012B00F0F180019B96
:10B020000133392B39D8019B132B40F31281019C3A
:10B03000C4F57F75033500222B0513F075FB02461E
:10B040000B465046594613F06DFB0022684B13F037
:10B050006BFB01EB04510DE05046594613F016FD11
:10B0600022462B4613F05EFB02460B4650465946DD
:10B0700013F058FB05B0BDE8F08F4DA3D3E90023D2
:10B0800013F094FF00283FF409AF4BA3D3E900234A
:10B090001046194613F0FAFCECE752465B4613F0F3
:10B0A00041FB02460B460020514913F03BFB019A3D
:10B0B0004F4B01EB0251002213F034FBDAE73EA3C1
:10B0C000D3E9002313F030FB02460B46CAE72CA35A
:10B0D000D3E900235046594613F0D8FC0B464349A8
:10B0E0000246002013F020FB13F080FF019013F0C4
:10B0F00067FC33A3D3E9002306460F4613F0C6FCD2
:10B1000002460B465046594613F00CFB2EA3D3E9DA
:10B110000023804689463046394613F0B7FC064680
:10B120000F4632463B464046494613F0FBFA02467C
:10B130000B4682468B464046494613F0F3FA3246A8
:10B140003B4613F0EFFACDE90201DCE62B4A9342CD
:10B1500000F2958000291AA3D3E90023C0F2AC8045
:10B1600013F0E0FA012380468946019316A7D7E938
:10B170000067D6E7AFF3008059F3F8C21F6EA50150
:10B18000FE822B654715F73F2DC3096EB7FD8ABEBA
:10B190003952E686CACFD03EB7DBAA9E19CE143FFD
:10B1A0008555FE19A0015A3FF41011111111A13F4C
:10B1B000EF39FAFE422E86409C7500883CE4377ECB
:10B1C0000000E0FE422EE63F763C7935EF39EA3D5D
:10B1D00079684340412E86400000E0BFFFFFEF7FCB
:10B1E0000000F0BF422ED63FFFFF8F3C0000E03F43
:10B1F0000000F03F0000084000001840B1A2F03FFE
:10B200000022394B5046594613F0B2FE002844D074
:10B21000504659460022354B13F086FA02460B463B
:10B220003046394613F07EFA00224FF0404313F0C7
:10B230002DFC1FE702460B465046594613F072FAA2
:10B2400000222A4B13F022FC0022284B13F06AFA4A
:10B2500010E7019C4FF400132341C3F17F5752467E
:10B260005B4613F05FFA002607F5401702460B46CF
:10B270003046394613F056FA01EB0451FAE616A3AC
:10B28000D3E9002313F002FC002C02460B464FF0DA
:10B290000000FFF61CAE154924E732463B465046F7
:10B2A000594613F03FFA02460B4613F03DFA0022CE
:10B2B0000F4B13F039FADDE613F036FA4FF0FF3397
:10B2C00080468946019306A7D7E9006729E7024629
:10B2D0000B4613F029FACDE6FE822B654715F73FA2
:10B2E000763C7935EF39EABD0000D0BF0000E03F81
:10B2F0000000F03F00000000F8B5C1F30A56044614
:10B300000D460B4617460EBB21F00043034386460D
:10B3100025D00022344B13F0B9FB344A974204463F
:10B320000D460B462ADBC1F30A56363E3E4440F238
:10B33000FE72964228DC002E12DD23F0FF4323F438
:10B34000E00343EA065520462946F8BD40F2FF7265
:10B350009642EBD102460B4613F0E6F9F8BDF8BD74
:10B3600016F1350F1DDA4CF250339F4222462B4620
:10B3700025DC19A1D1E9000113F046F916A3D3E9A0
:10B38000002313F083FBF8BD22462B4614A1D1E91C
:10B39000000113F039F912A3D3E9002313F076FB6F
:10B3A000F8BD23F0FF4323F4E003363643EA0655A5
:10B3B0002046294600220E4B13F068FBF8BD08A179
:10B3C000D1E9000113F020F905A3D3E9002313F01C
:10B3D0005DFBF8BDAFF3008059F3F8C21F6EA50105
:10B3E0009C7500883CE4377E00005043B03CFFFF72
:10B3F0000000903C10B5054C237833B9044B13B1D1
:10B400000448AFF300800123237010BD1085002095
:10B41000000000008C1504000C4B43B10C480D4992
:10B4200010B5AFF300800C48036823B910BD0A487B
:10B43000036833B97047094B002BF7D0BDE81040C3
:10B440001847064B002BF5D0184700BF000000003E
:10B450008C150400148500201482002000000000D8
:10B46000154B002B08BF134B9D46A3F5803A0021D6
:10B470008B460F461348144A121A08F07BF80F4BFC
:10B48000002B00D098470E4B002B00D0984700208F
:10B49000002104000D000D48002802D00C48AFF335
:10B4A000008013F0E7F82000290005F049F913F0B7
:10B4B000CDF800BF000008000000042000000000DC
:10B4C0000000000000840020B08C0020000000007C
:10B4D0000000000070B504460E4600F0D1F888B1B7
:10B4E0000368DB6A05469847082C0CD0A4F10903D1
:10B4F000012B14D93246214610230D20BDE870409F
:10B5000004F0D4B970BD2B6828465B6A98470228BE
:10B51000F0DC2B6828461B6A04219847EAE72B6871
:10B5200028465B6A98470528E4DC2B6828461B6A96
:10B5300008219847DEE700BF30B52DED028B83B0C0
:10B54000054600F09DF8044640B10368DB6A984761
:10B55000032D50D8DFE805F0373F470801900198E8
:10B5600003B0BDEC028B30BD20460AF0E9FD07EECA
:10B57000900A2046F8EEE78A0AF0F0FD07EE900AFE
:10B580002046B8EEE78A0AF0F7FD68EE087A07EE83
:10B59000100AE8EEA87AB8EEC77AE7EE077AF5EE79
:10B5A000407AF1EE10FAB1EEE78A03D517EE900A71
:10B5B00011F028FDFDEEC87ACDED017A019803B0B7
:10B5C000BDEC028B30BD204603B0BDEC028BBDE864
:10B5D00030400AF0B5BD204603B0BDEC028BBDE89B
:10B5E00030400AF0BBBD204603B0BDEC028BBDE885
:10B5F00030400AF0C1BD00230193B0E738B50546DD
:10B6000000F03EF858B10368DB6A0446984745B13C
:10B61000012D04D12046BDE83840FBF79DB800203D
:10B6200038BD2046BDE83840FBF776B810B5044673
:10B6300000F026F828B1036821461B6ABDE81040D7
:10B64000184710BD0048704716FCFFFF704700BF49
:10B6500010B5034B036004460AF06EFB204610BD94
:10B66000C009040010B5054B036004460AF064FBF2
:10B67000204613F04DFF204610BD00BFC009040056
:10B680002DE9F043C14C236885B01BB1986805B023
:10B69000BDE8F0834FF0FF31012001F045FDC0B25D
:10B6A00004F0F6FB002800F006810C2013F032FFB6
:10B6B00003210646512001F037FDDFF8F4E2B44BD8
:10B6C000054605F00F07C5F3031815F4807518BF7C
:10B6D0007346B0483946424609F0B4FC2A1C18BFEC
:10B6E00001223946434630460DF092FB0023AA481A
:10B6F000B36009F0A7FC4FF0FF31032001F014FD07
:10B70000C0B204F0C5FB4FF0FF310546022001F046
:10B710000BFDC0B204F0BCFB002D59D0002857D05F
:10B720000146284604F0A4F90746002800F0BF802F
:10B730004FF0FF31462001F0F7FC382880465CD0FE
:10B7400029DD3A2800F09B80682870D14FF0FF3146
:10B75000012001F0E9FCC0B204F09AFB81465C20B4
:10B7600013F0D8FE0523054601934A46CDF8008024
:10B77000394633460BF01CFE2846B06003689B6ACE
:10B780009847B0680368DB6A9847844809F05AFC18
:10B790002660B0687BE7302801D0322847D14FF0CF
:10B7A000FF31012001F0C0FCC0B204F071FB814602
:10B7B000542013F0AFFE1FFA88F1054605234A46D0
:10B7C00000910193394633460BF0C4FB2846D4E779
:10B7D000734809F037FC4FF0FF31192001F0A4FC49
:10B7E000C0B204F055FB4FF0FF310546182001F0C0
:10B7F0009BFCC0B204F04CFB92E74FF0FF310120FC
:10B8000001F092FCC0B204F043FB8146502013F0DB
:10B8100081FE052305464A46CDF80080394601934E
:10B8200033460BF0A1FC5F4B2B602846A5E73A6836
:10B830000125002301950095D2F82480B3600F22E2
:10B840000DF10F0332213846C04700283FD14FF099
:10B8500032084146544809F0F5FB4FF0FF31012012
:10B8600001F062FCC0B204F013FB8146542013F0D7
:10B8700051FE052305464A46CDF80080A1E74FF06A
:10B88000FF31012001F050FCC0B204F001FB814601
:10B89000502013F03FFE0523054601934A46CDF89C
:10B8A0000080394633460BF05FFC284665E73F4889
:10B8B00009F0C8FB6CE74FF0FF31032001F034FCC6
:10B8C000C0B204F0E5FA00287FF4EFAEDFE63B6893
:10B8D00001950095D3F824800F220DF10F0330213C
:10B8E0003846C04718B94FF030084146B2E73B68C8
:10B8F00001950095D3F824800D220DF10F03382116
:10B900003846C047C0B93821274809F09BFB4FF0A3
:10B91000FF31284601F008FCC0B204F0B9FA8046B5
:10B92000502013F0F7FD4FF0050E38230546424630
:10B9300039468DE8084073E73B6801950095D3F8D8
:10B9400024800D220DF10F033A213846C04788BBF1
:10B950003A21154809F076FB4FF0FF31284601F0F7
:10B96000E3FBC0B204F094FA8046502013F0D2FDFD
:10B970004FF0050E3A2305468DE808404246394609
:10B9800033460BF0F1FB2846F7E600BF2C8500207C
:10B99000DCFD0300E4FD030004FE03009CFE030045
:10B9A00014FE0300A0FD0300C0FE030028FE0300F8
:10B9B000D4FD03003A6801950095D2F824800DF17A
:10B9C0000F03752268213846C047E0B968211A483C
:10B9D00009F038FB4FF0FF31284601F0A5FBC0B25B
:10B9E00004F056FA80465C2013F094FD4FF0050EEB
:10B9F000682305468DE808404246394633460BF039
:10BA0000D7FC2846B9E60D4809F01CFBB0680028B1
:10BA10007FF4B4AE4FF0FF31032001F085FBC0B2DC
:10BA200004F036FA18B1064809F00CFBB0E60548F8
:10BA300009F008FBACE600BFC0FE0300ACFE03004B
:10BA400040FE03007CFE030008B501F095FCFBF707
:10BA500027FCBDE8084001F0FDB900BF08B501F0C2
:10BA60008BFCFBF78DFCBDE8084001F0F3B900BF8B
:10BA700008B501F081FC10F0FBFCBDE8084001F0C6
:10BA8000E9B900BF08B501F077FC11F003F9BDE892
:10BA9000084001F0DFB900BF08B501F06DFCFBF70D
:10BAA0000FFCBDE8084001F0D5B900BF08B501F0B2
:10BAB00063FC10F01BFFBDE8084001F0CBB900BFEC
:10BAC00008B501F059FCFAF767FEBDE8084001F03F
:10BAD000C1B900BF08B501F04FFC10F05BFEBDE836
