:020000040002F8
:10600000000004200DBB030035BB030037BB0300B9
:1060100039BB03003BBB03003DBB03000000000095
:106020000000000000000000000000003FBB030073
:1060300041BB03000000000043BB030045BB03005D
:1060400047BB030047BB0300ADB9030071B90300B0
:1060500085B9030047BB0300E1AA030065C0030044
:1060600095B503009DB50300A5B5030047BB03002C
:1060700047BB030047BB030047BB030047BB03000C
:1060800047BB030047BB030047BB030047BB0300FC
:1060900047BB030047BB030047BB030047BB0300EC
:1060A00047BB030047BB0300ADB50300B5B5030014
:1060B00047BB030047BB03000000000000000000D6
:1060C00047BB030047BB030047BB030099B903006C
:1060D00047BB030047BB030047BB030047BB0300AC
:1060E000D5B9030047BB030047BB03000000000015
:1060F0000000000047BB030000000000C1B903001E
:10610000000000000000000000000000000000008F
:10611000000000000000000000000000000000007F
:10612000000000000000000000000000000000006F
:10613000000000000000000000000000000000005F
:10614000000000000000000000000000000000004F
:10615000000000000000000000000000000000003F
:10616000000000000000000000000000000000002F
:10617000000000000000000000000000000000001F
:10618000000000000000000000000000000000000F
:1061900000000000000000000000000000000000FF
:1061A00000000000000000000000000000000000EF
:1061B00000000000000000000000000000000000DF
:1061C00000000000000000000000000000000000CF
:1061D00000000000000000000000000000000000BF
:1061E00000000000000000000000000000000000AF
:1061F000000000000000000000000000000000009F
:106200007CB0EE877CB0EE87FF00FF00FF00FF0050
:10621000FF00FF00FF00FF00FF00FF00FF00FF0086
:10622000FF00FF00FF00FF00FF00FF00FF00FF0076
:10623000FF00FF00FF00FF002DE9F04F85B0039144
:106240000778A7F10903042B044607F07F0200F149
:106250000100F5D9202AF3D02B2F04BF677804461C
:106260002D2F72D09FED427B8DED007B4FF000080B
:106270004FF000098FB34FF0000E4FF0000ADFF827
:1062800000B1754619E018F02DFF8046894630466A
:1062900018F0C2FE42464B4618F072FD5246804648
:1062A00089465B46DDE9000135B319F045F8CDE9D3
:1062B0000001AE4614F8017F7FB1A7F13006092E28
:1062C00052465B4640464946DDD9C5B92E2F16D108
:1062D00014F8017F0125002FEFD142464B46DDE93E
:1062E000000118F0FFFE80468946039B4046494660
:1062F0001C6005B0BDE8F08F4FF0010EDAE7BEF18B
:10630000000F29D042464B46DDE9000118F0EAFEB5
:1063100007F0DF07452F80468946E6D10399601CC8
:106320000A2218F011FD16490246002019F03AFA27
:1063300002460B464046494618F0D4FE8046894640
:106340004046494605B0BDE8F08F9FED0B7B67786E
:106350008DED007B013489E7DFF828904FF00008CD
:106360004046494605B0BDE8F08F00BFAFF300805E
:10637000000000000000F03F000000000000F0BF3F
:10638000000024400000F87F2DE9F84F1646002356
:10639000002204460D4619F017F9002840F09D80B0
:1063A000002200232046294619F004F928B13022A2
:1063B000002332707370BDE8F88F2046294617F02D
:1063C00003F819F03FF97BA3D3E90023814629465E
:1063D000204619F0F9F8002800F08680B9F1000F86
:1063E000C0F2BE804A4600206F4919F0DBF9024630
:1063F0000B462046294618F09FFF04460D4666A12D
:10640000D1E9000101274FF0000822462B4618F081
:1064100069FE0022654B18F0B3FC19F0FFF9002F5C
:10642000CC464FF0FF3AC1464FF0000840F385805C
:10643000DFF888E15E4C0122AEF1700945F6F325E4
:106440004FF02E0BA94208BFA0424FF0300309D3F2
:10645000001B61EB0501A94208BFA04203F1010343
:10646000F6D2DBB2337050EA010306F1010409D120
:10647000BA4210DACE4502F101020CD026467EE87F
:106480000245DFE7BA4204BF86F801B0B41CCE452E
:1064900002F10102F2D1B8F1000F0DD022463021F5
:1064A00002F8011BC2F1010353442344002BF7DC23
:1064B0002AEAEA7301331C44BCF1010F4CD0652376
:1064C000BCF1000F2370C5BF2B236370611CA11C9E
:1064D0006046BDE8F84F0FF083BB05F100431D4651
:1064E0002D23337001365BE72DA3D3E9002320462B
:1064F000294619F087F800287FF470AFB9F10E0F24
:1065000009F101073DDDA9F10E08424600202649A8
:1065100019F048F902460B462046294618F00CFFB0
:106520000022224B18F02CFC19F078F9002FA9F169
:106530000F0A4FF0010C3FF77BAF334630222E2479
:1065400003F8022B74707FEA090618D01E4403F882
:10655000012BB342FBD16BE700232370BDE8F88F1A
:10656000C9F100020020104919F01CF902460B463F
:106570002046294618F0B6FD04460D463FE71E4664
:1065800056E7C9F10E0200200749C84619F00AF97A
:106590004FF0010939E700BF0000901EC4BCD6428D
:1065A00050EFE2D6E41A4B44000024400000E03FE4
:1065B00000407A108DEDB5A0F7C6B03E2803040068
:1065C00070B54FF0FF3006F07BFA04466FF07F4065
:1065D00006F076FA0646204618F00EFD00220C4B17
:1065E00018F080FD044630460D4618F005FD06A360
:1065F000D3E9002318F0A0FE02460B4620462946A8
:1066000018F0BEFB70BD00BF0000E0DFFFFF6F436E
:106610000000F03D000000002DE9F04F2DED028B51
:10662000044683B0C06818F0F7FC804620698946AC
:1066300018F0F2FC824660698B4618F0EDFC0246C9
:1066400001F1004306460F464046494616F068FDF4
:1066500019F040F8E062054616F016FC0190284655
:1066600016F0C6FB019B0546184618F0E7FC4246AB
:106670004B4618F037FD80462846894618F0DEFC68
:1066800032463B4618F02EFD02460B464046494630
:1066900018F074FB02460B465046594616F040FD72
:1066A00019F018F8002208EE100A00233046394687
:1066B00018F0A8FF28B3B5EEC08AF1EE10FA1CDD81
:1066C00011A7D7E9006718EE100A18F0B7FC0246C8
:1066D0000B463046394618F051FB32463B4618F01F
:1066E0004FFB18F0F7FFA062E38843F00203E3805A
:1066F00003B0BDEC028BBDE8F08F05A7D7E90067BA
:10670000E1E784ED0A8AEFE7EA2E4454FB21F93FE2
:10671000EA2E4454FB21F9BF08B510F011FDDFED5E
:106720000C7A07EE100A67EE277A17EE900A18F037
:1067300085FC05A3D3E9002318F0FEFD18F082FFC5
:1067400008BD00BFAFF30080EA2E4454FB2119407E
:106750000000B4430000000008B510F005FDDFEDB7
:106760000C7A07EE100A67EE277A17EE900A18F0F7
:1067700065FC05A3D3E9002318F0DEFD18F062FFE5
:1067800008BD00BFAFF30080EA2E4454FB2119403E
:106790000000B44300000000494A21F00043934246
:1067A0002DE9704304460D464BDC464A93420E46A3
:1067B0000EDC3FA3D3E9002318F0E2FA0022424B9B
:1067C00018F020FF00284CD020462946BDE87083F1
:1067D0003E4A93423BDCB3F1804F42DD16F0EEF9C6
:1067E0002246804689462B462046294618F07AFCE8
:1067F0000022354B18F0C4FA17F01EF902460B467A
:106800004046494618F0BCFA02460B4600202E4985
:1068100018F092FD424604460D464B464046494616
:1068200018F0AEFA02460B462046294618F0A8FAA0
:1068300002F06AF8002EC9DC01F100431946BDE8F8
:10684000708302460B4618F09BFABDE8708316F081
:10685000B5F902F059F818A3D3E9002318F090FA1B
:10686000E8E722462B462046294618F03BFC8046A6
:1068700089462046294616F0A1F9002204460D4615
:10688000114B4046494618F07BFA17F0D5F8002224
:106890000D4B18F075FA02460B464046494618F073
:1068A0004BFD22462B4618F06BFA00F0C5FAC1E703
:1068B0009C7500883CE4377EEF39FAFE422EE63FB5
:1068C000FFFFEF7FFFFF2F3E0000F03F0000B041D1
:1068D0002DE9F84FC44B21F000469E4204460D4678
:1068E0008A460EDDC14B9E4200F3AC8000F0A780CB
:1068F000BAF1000F40F3EA809FA1D1E90001BDE8A1
:10690000F88FBB4B9E4200F3B580A3F1DE739E422D
:1069100040F3A0804FF0FF3B22462B4620462946FD
:1069200018F0E0FB02460B468046894618F0DAFB79
:1069300093A3D3E9002306460F4618F0D3FB92A396
:10694000D3E9002318F01CFA32463B4618F0CAFB84
:106950008FA3D3E9002318F013FA32463B4618F010
:10696000C1FB8DA3D3E9002318F00AFA32463B4657
:1069700018F0B8FB8AA3D3E9002318F001FA3246D5
:106980003B4618F0AFFB88A3D3E9002318F0F8F9D1
:1069900042464B4618F0A6FB85A3D3E90023804668
:1069A00089463046394618F09DFB83A3D3E900237E
:1069B00018F0E4F932463B4618F094FB80A3D3E983
:1069C000002318F0DBF932463B4618F08BFB7EA320
:1069D000D3E9002318F0D2F932463B4618F082FB87
:1069E0007BA3D3E9002318F0C9F932463B4618F0DF
:1069F00079FBBBF1FF3F02460B466CD0404649464F
:106A000018F0BEF922462B4618F06CFB794E7A4BF3
:106A10004FEACB0B5E449B44DBE9002318F0AEF950
:106A200022462B4618F0AAF902460B46D6E9000189
:106A300018F0A4F9BAF1000F43DBBDE8F88F002885
:106A40003FF456AF22462B462046294618F098F9C7
:106A5000BDE8F88F60A3D3E9002318F091F9002274
:106A6000664B18F0CFFD00283FF454AF204629466E
:106A7000BDE8F88F16F0A2F8614B9E4204460D4621
:106A800039DCA3F550239E425EDC02460B4618F02B
:106A900077F90022594B18F071F9002206460F468B
:106AA0004FF080432046294618F06AF902460B460B
:106AB0003046394618F040FC4FF0000B04460D46B6
:106AC0002AE701F100431946BDE8F88F44A1D1E956
:106AD0000001BDE8F88F4046494618F051F92246BA
:106AE0002B4618F0FFFA02460B462046294618F0BE
:106AF00045F9BDE8F88F434B9E421ADC0022424B19
:106B000018F03CF9002206460F463F4B2046294626
:106B100018F0E8FA0022394B18F032F902460B4619
:106B20003046394618F008FC4FF0020B04460D467B
:106B3000F2E602460B460020344918F0FDFB4FF008
:106B4000030B04460D46E7E600222C4B18F016F91D
:106B5000002206460F46294B2046294618F010F918
:106B600002460B463046394618F0E6FB4FF0010B63
:106B700004460D46D0E600BF182D4454FB21F93FD2
:106B800011DA22E33AAD903FEB0D76244B7BA93F1F
:106B9000513DD0A0660DB13F6E204CC5CD45B73FED
:106BA000FF8300922449C23F0D5555555555D53F99
:106BB0002F6C6A2C44B4A2BF9AFDDE522DDEAD3F8D
:106BC0006D9A74AFF2B0B33F711623FEC671BC3F2D
:106BD000C4EB98999999C93F9C7500883CE4377E2D
:106BE000182D4454FB21F9BFFFFF0F440000F07F34
:106BF000FFFFDB3F38030400580304000000F03FB0
:106C0000FFFFF23FFF7F03400000F83F0000F0BFAE
:106C10002DE9F843C1F30A59A9F2FF35132D0246B5
:106C20000B460C4606468846074622DC002D50DB04
:106C3000DFF8F09049FA05F901EA090E5EEA060666
:106C40001CD036A3D3E9002318F09AF800220023C1
:106C500018F0D8FC48B1002C04DD4FF4801343FA3F
:106C600005F5A84428EA0904002721463846BDE86E
:106C7000F883332D06DDB5F5806F3DD010461946FB
:106C8000BDE8F883A9F213494FF0FF3E2EFA09F947
:106C900010EA090FF2D021A3D3E9002318F070F80D
:106CA0000022002318F0AEFC0028DED0002C09DD05
:106CB000142D2BD00127C5F1340507FA05F5AE19BF
:106CC00028BFB844444626EA090721463846BDE8AD
:106CD000F88312A3D3E9002318F052F8002200230E
:106CE00018F090FC0028C0D0002C0BDB54EA0607FB
:106CF00006D00027084CB8E718F042F8BDE8F88342
:106D00003C46B2E700274FF00044AEE704F101082B
:106D1000D8E700BFAFF300800000F03F9C7500880B
:106D20003CE4377EFFFF0F002DE9F041C1F30A5725
:106D3000A7F2FF35132D02460B460C468846064641
:106D40001CDC002D3FDB3A4F2F41864601EA070C41
:106D50005CEA0E0E17D034A3D3E9002318F010F824
:106D60000022002318F04EFC20B1002C3FDB28EA63
:106D70000704002621463046BDE8F081332D06DDAC
:106D8000B5F5806F2FD010461946BDE8F081A7F207
:106D900013474FF0FF3E2EFA07F73842F3D022A3F5
:106DA000D3E9002317F0ECFF0022002318F02AFC9F
:106DB0000028DFD0002C20DB444626EA07062146C7
:106DC0003046BDE8F08118A3D3E9002317F0D8FFBF
:106DD0000022002318F016FC0028CBD0002C17DB73
:106DE00000263446C6E717F0CBFFBDE8F0814FF42C
:106DF000801343FA05F5A844B9E7142D10D00123F8
:106E0000C5F1340503FA05F5AE1928BF9844D3E758
:106E100024F00042074B324318BF1C460026A9E766
:106E200004F10108C8E700BF9C7500883CE4377E88
:106E3000FFFF0F000000F0BF2DE9F04FD84B994243
:106E400087B0804689460E4613DCD64B21F00044BD
:106E50009C4218DD0022D44B18F0ACFB002879D0FE
:106E6000002200230020D14918F066FA07B0BDE8DF
:106E7000F08FCF4B99422FDD42464B4617F080FFF3
:106E800007B0BDE8F08FCB4B9C4270DDCA4B1E446F
:106E90009E427ED80022C94B4046494617F070FFFB
:106EA0004FEA215AAAF2FF3ABAF1000F04460D4602
:106EB0000E4640F3DE8142464B4617F05FFF024626
:106EC0000B460020BD4917F059FF22462B4618F00B
:106ED00033FACDE902010BE0B94B9E42DADD9FEDBA
:106EE0009A7B8DED027B4FEA265A4446AAF2FF3A7E
:106EF000B44BC6F313069E4246F07F5500F3E7807D
:106F000045F44015204629460022AC4B17F036FFC9
:106F1000002204460D46AC4B18F0E4F822462B46FE
:106F200018F0E0F8A046CDE90401A946CDE900013A
:106F3000002E3AD1002200232046294618F03AFBC1
:106F4000002800F0CE80BAF1000F40F074810020DC
:106F5000002195E742464B464046314617F00EFF6A
:106F600002460B4618F0E8F907B0BDE8F08F0022A2
:106F7000964B17F005FF0022002318F043FB002872
:106F800000F0CC80924B9C4200F3C88040464946BA
:106F900076E700228C4B18F0A5F842464B4618F0D5
:106FA000A1F8CDE900014FF0000A00224FF0804324
:106FB0004046494617F0E4FE02460B464046494625
:106FC00018F0BAF902460B4606460F4618F08AF842
:106FD0005FA3D3E9002304460D4618F083F85EA3AF
:106FE000D3E9002317F0CCFE22462B4618F07AF89E
:106FF0005BA3D3E9002317F0C3FE22462B4618F00B
:1070000071F859A3D3E9002317F0BAFE22462B46A4
:1070100018F068F856A3D3E9002317F0B1FE224612
:107020002B4618F05FF854A3D3E9002317F0A8FE0D
:1070300022462B4618F056F851A3D3E9002317F047
:107040009FFE22462B4618F04DF804460D46BAF135
:10705000000F00F0BF80504617F0DEFF4AA3D3E9CF
:10706000002382468B4618F03DF8DDE90023CDE988
:1070700004012046294617F083FE32463B4618F0AD
:1070800031F843A3D3E9002304460D465046594640
:1070900018F028F8DDE9022317F072FE02460B46CD
:1070A0002046294617F06CFE02460B46DDE900013A
:1070B00017F064FE42464B4617F060FE02460B4650
:1070C000DDE9040117F05AFE07B0BDE8F08F45F482
:1070D0000015C6F5801620462946B6100AF1010AA9
:1070E00012E72DA3D3E900232046294617F0FAFF23
:1070F00002460B460020314917F040FEDDE904232B
:1071000017F0F0FF06460F46BAF1000F73D10246A2
:107110000B462046294617F031FEB1E642464B4663
:107120004046494617F0DEFF0022274B17F0DAFFF2
:1071300002460B464046494617F020FE07B0BDE820
:10714000F08F00BFAFF300800000000000000000DF
:1071500044523EDF12F1C23F9FC678D0099AC33F26
:10716000DE03CB966446C73FAF788E1DC571CC3F1A
:10717000599322942449D23F04FA97999999D93F77
:10718000935555555555E53F0000E0FE422EE63F2C
:10719000763C7935EF39EA3D555555555555E53F1E
:1071A0007982DA3FFFFFEF3F0000F0BF000050C3DD
:1071B000FFFFEF7FFFFF1F3E3C412D400000F03FEF
:1071C000FFFF3F439DA006000000E03F000050434A
:1071D000FFFF8F3CDDE9004522462B4617F0D0FD2E
:1071E00032463B4617F07EFF02460B4620462946B4
:1071F00017F0C4FD9CE7504617F00EFF23A3D3E918
:10720000002382468B4617F06DFF22A3D3E90023AB
:10721000804689465046594617F064FFDDE902234F
:1072200017F0AEFD02460B463046394617F0A6FD74
:1072300022462B46DCE7504617F0EEFE15A3D3E9B5
:10724000002306460F4617F04DFFDDE9022317F035
:1072500097FD0EA3D3E9002304460D463046394678
:1072600017F040FF02460B462046294617F088FDDE
:1072700006E60022044B17F081FD02460B4640460D
:10728000494617F07BFD20E60000F03F0000E0FEDD
:10729000422EE63F763C7935EF39EA3D00000000AA
:1072A00008B516F011F804A3D3E9002318F044F848
:1072B00008BD00BFAFF30080EF39FAFE422EE63F73
:1072C0002DE9F043DFF8B4808BB004460D4601F0A1
:1072D000F3F898F90030013306460F462BD02246CA
:1072E0002B462046294618F097F9814618BB2046C0
:1072F000294615F063FC1FA3D3E9002318F082F997
:10730000C8B1194A98F90030CDF820900321CDE991
:107310000445CDE902458DE806008BB9134B4FF0CB
:107320006042CDE90623684617F02AFB70B1089B3E
:107330009BB9DDE90667304639460BB0BDE8F083FE
:107340000B490020022BCDE90601ECD117F0A4FC7B
:1073500022230360089B002BEBD017F09DFC089BB9
:107360000360E6E7AFF30080A8150400FFFFEF47D6
:107370000000F07F7DF8B98FCE338640FF8100207A
:107380002DE9F043DFF8E4808BB004460D4601F0B0
:1073900043F998F90030013306460F4633D02046B2
:1073A000294617F0E7FA70B32CA3D3E9002320464F
:1073B000294618F027F9814650BB2AA3D3E90023B8
:1073C0002046294618F000F9E8B198F90030204A23
:1073D000CDF82090002600270421022BCDE904459A
:1073E000CDE90245CDE906678DE8060029D068465B
:1073F00017F0C6FA28B3089B1BB117F04DFC089B89
:107400000360DDE90667304639460BB0BDE8F0831E
:107410000F4A98F90030019203210022CDE904457A
:10742000CDE90245009108922BB90A4B4FF060421A
:10743000CDE90623DBE708490020022BCDE9060150
:10744000D5D117F029FC22230360D4E7AFF30080E5
:10745000B0150400FFFFEF470000F07FEF39FAFEA0
:10746000422E864051302DD5104987C0FF81002023
:107470002DE9F04FDFF80C938DB006460F46144609
:107480001D4601F0C5FC99F90080B8F1FF3FCDE938
:10749000000136D022462B462046294618F0BCF87B
:1074A000834670BB32463B463046394618F0B4F846
:1074B0008246002840F0A280304639460022002350
:1074C00018F078F810B3002200232046294618F05F
:1074D00071F8834600286AD09FEDA17B0122A44B5E
:1074E000CDF828A00292CDE90467CDE906458DEDDF
:1074F000087B0393B8F1000F45D09FED9B7B8DED8A
:10750000007BDDE900010DB0BDE8F08FDDE9000191
:1075100017F030FA8046002800F08D804FF0000A06
:107520004FF0000BDDE9000152465B4618F042F8CF
:107530000028E6D03046394617F01CFA0028E0D083
:107540002046294617F016FA0028DAD099F90030BB
:10755000874A039204210022022BCDE90467CDE97A
:107560000645CDE908AB02910A9203D002A817F0B4
:1075700007FA68B917F090FB2223036008E09FED3B
:10758000787B8DED087B02A817F0FAF9002830D03F
:107590000A9B1BB117F080FB0A9B03609DED087BE3
:1075A0008DED007BDDE900010DB0BDE8F08F2046D8
:1075B000294617F0DFF90028A3D000220023204637
:1075C000294618F001F800289BD099F90030684A44
:1075D000CDF828B00121CDE90467CDE90645029137
:1075E0000392002BCBD063490020022BCDE9080188
:1075F000C9D117F051FB21230360C9E70022002302
:107600002046294617F0D6FF00283FF47AAF5A4BA0
:107610005749CDF828B000220120B8F1020FCDE97A
:1076200004670290CDE90645CDE908230391AAD16C
:10763000CDE9002365E73046394617F09BF900286D
:107640003FF46CAF2046294617F094F900283FF428
:1076500065AFDDE900231046194617F0DDFF00286D
:107660005FD1032399F900800293414B0A90CDE941
:107670000467CDE906450393B8F1000F2BD1DFF87D
:1076800008B14FF0604A0022002330463946CDE968
:1076900008AB17F099FF00283FF468AF0022374B82
:1076A0002046294617F01EFD04460D4617F070F9D6
:1076B00002460B462046294617F07CFF70BB304B34
:1076C00099F900804FF06042CDE90823B8F1020F2C
:1076D0007FF44CAF4EE7DFF8B4B04FF0000A002261
:1076E000002330463946CDE908AB17F06DFF00287E
:1076F000ECD00022214B2046294617F0F3FC04462B
:107700000D4617F045F902460B462046294617F06C
:1077100051FF18B9174B0022CDE9082399F90080D1
:10772000D4E799F90090124BCDF828800122CDE9D9
:107730000467CDE9064502920393B9F1000F3FF4C7
:107740001EAF002200231046194617F0F5FDB9F1CF
:10775000020FCDE908013FF44CAF14E7AFF300800E
:107760000000000000000000000000000000F03FEA
:10777000C81504000000F0FF0000F03F0000E03FEB
:10778000FFFFEFC7FF810020FFFFEF470000F07F02
:107790002DE9F84FC44E21F00043B34204460D4694
:1077A0000DDD03F1404303F58013034340F0B9803E
:1077B000002940F3408100200021BDE8F88FBB4E36
:1077C000B34240F3A6800029C0F2788102460B46FE
:1077D0000020B74917F0D2FA0022B64B17F082FC0E
:1077E00004460D4616F028F995A3D3E900238946EF
:1077F00080462946204617F075FC93A3D3E9002361
:1078000017F0BEFA22462B4617F06CFC90A3D3E982
:10781000002317F0B3FA22462B4617F063FC8EA321
:10782000D3E9002317F0ACFA22462B4617F05AFC96
:107830008BA3D3E9002317F0A1FA22462B4617F0B9
:1078400051FC89A3D3E9002317F09AFA22462B466C
:1078500017F048FC86A3D3E9002382468B462046D6
:10786000294617F03FFC84A3D3E9002317F086FADA
:1078700022462B4617F036FC81A3D3E9002317F0EC
:107880007FFA22462B4617F02DFC7FA3D3E9002375
:1078900017F074FA22462B4617F024FC0022844B82
:1078A00017F06EFA02460B465046594617F044FD53
:1078B00042464B4617F016FC002682468B4632465F
:1078C0004B463046494617F00DFC02460B46204613
:1078D000294617F053FA324604460D464B464046B9
:1078E000494617F04DFA02460B462046294617F046
:1078F00023FD02460B465046594617F041FA3246E0
:107900004B4617F03DFA02460B4617F039FABDE830
:10791000F88F694A93420EDC5DA1D1E90001BDE810
:10792000F88F02460B4617F029FA02460B4617F06D
:1079300003FDBDE8F88F02460B4617F0D3FB40A3CA
:10794000D3E9002306460F4617F0CCFB3EA3D3E94C
:10795000002317F015FA32463B4617F0C3FB3CA351
:10796000D3E9002317F00AFA32463B4617F0BAFB78
:1079700039A3D3E9002317F003FA32463B4617F048
:10798000B1FB37A3D3E9002317F0F8F932463B46A1
:1079900017F0A8FB34A3D3E9002317F0F1F932461E
:1079A0003B4617F09FFB32A3D3E90023804689466C
:1079B0003046394617F096FB2FA3D3E9002317F082
:1079C000DDF932463B4617F08DFB2DA3D3E90023AA
:1079D00017F0D6F932463B4617F084FB2AA3D3E9C9
:1079E000002317F0CBF932463B4617F07BFB002211
:1079F0002F4B17F0C5F902460B464046494617F093
:107A00009BFC22462B4617F06DFB02460B4622A13B
:107A1000D1E9000117F0B2F902460B46204629468B
:107A200017F0ACF902460B4619A1D1E9000117F095
:107A3000A5F9BDE8F88F1AA1D1E90001BDE8F88FDA
:107A400009F7FD0DE13D023F88B20175E0EF493FC6
:107A50003B8F68B52882A43F5544880E55C1C93F65
:107A60007D6FEB0312D6D43F555555555555C53F3F
:107A700082922EB1C5B8B33F59018D1B6C06E63F0B
:107A8000C88A599CE52A00404B2D8A1C273A03409E
:107A9000182D4454FB21F93F075C143326A6913C72
:107AA000182D4454FB210940FFFFEF3FFFFFDF3F4C
:107AB0000000F03F0000E03F0000603C00225C4B13
:107AC00017F05EF900225B4B17F00CFB40A3D3E9E3
:107AD000002304460D4617F005FB3FA3D3E900231E
:107AE00017F04EF922462B4617F0FCFA3CA3D3E9D7
:107AF000002317F043F922462B4617F0F3FA3AA376
:107B0000D3E9002317F03CF922462B4617F0EAFA96
:107B100037A3D3E9002317F031F922462B4617F09B
:107B2000E1FA35A3D3E9002317F02AF922462B46C0
:107B300017F0D8FA804689462046294615F07CFF82
:107B40002FA3D3E9002306460F462046294617F007
:107B5000C9FA2DA3D3E9002317F010F922462B46CA
:107B600017F0C0FA2AA3D3E9002317F009F9224637
:107B70002B4617F0B7FA28A3D3E9002317F0FEF835
:107B800022462B4617F0AEFA0022294B17F0F8F8E0
:107B900002460B464046494617F0CEFB32463B466E
:107BA00017F0A0FA1EA3D3E9002317F0E7F8324636
:107BB0003B4617F0E5F802460B4617F0E1F802469F
:107BC0000B4619A1D1E9000117F0D8F8BDE8F88FEC
:107BD00009F7FD0DE13D023F88B20175E0EF493F35
:107BE0003B8F68B52882A43F5544880E55C1C93FD4
:107BF0007D6FEB0312D6D43F555555555555C53FAE
:107C000082922EB1C5B8B33F59018D1B6C06E63F79
:107C1000C88A599CE52A00404B2D8A1C273A03400C
:107C2000075C143326A6913C182D4454FB210940CF
:107C30000000F03F0000E03F434A91422DE9F84345
:107C400004460D4639DD414A914209DD02F179527F
:107C5000914240DD02460B4617F092F8BDE8F883EA
:107C600001F1404202F58012024330D0B1F1804F61
:107C70003ADC0022364B17F081F802460B460446E8
:107C80000D4617F07DF8224606460F462B46204645
:107C9000294617F027FA02460B463046394617F0B8
:107CA0006FF815F0C9FE0B4602462946204617F02C
:107CB00067F8BDE8F843FFF7BFB802460B4617F078
:107CC0005DF802460B4617F037FBBDE8F88300204D
:107CD0000021BDE8F88300F017FE19A3D3E90023C3
:107CE00017F04EF8BDE8F88302460B4617F0FAF994
:107CF0000022174B17F042F815F09EFE22468046F0
:107D000089462B462046294617F03AF84246064651
:107D10000F464B462046294617F032F802460B46DE
:107D200000200B4917F008FB0B4602463946304647
:107D300017F024F8BDE8F84300F0E6BDAFF300808B
:107D4000EF39FAFE422EE63FFFFFEF3FFFFFAF4164
:107D50000000F03F000000002DE9F047BE4B21F08D
:107D60000048984584B004460D4612DD08F14048AD
:107D700008F58018034658EA030321D002460B4653
:107D800016F0FCFF02460B4617F0D6FA04B0BDE829
:107D9000F087B24B98458A4629DCB8F1795F80F2CA
:107DA000658191A3D3E9002316F0EAFF0022AC4BD2
:107DB00017F028FCD8B12046294604B0BDE8F0876A
:107DC0008BA3D3E9002317F08DF98BA3D3E900230C
:107DD00006460F462046294617F084F902460B4610
:107DE0003046394616F0CCFF04B0BDE8F087204697
:107DF000294614F0E3FE02460B460020984916F08F
:107E0000BDFF0022974B17F06DF97DA3D3E9002346
:107E100004460D4617F066F97BA3D3E9002316F05C
:107E2000AFFF22462B4617F05DF979A3D3E9002373
:107E300016F0A4FF22462B4617F054F976A3D3E997
:107E4000002316F09DFF22462B4617F04BF974A332
:107E5000D3E9002316F092FF22462B4617F042F991
:107E600071A3D3E9002316F08BFF22462B4617F0AF
:107E700039F96FA3D3E90023CDE900012046294653
:107E800017F030F96CA3D3E9002316F077FF2246F0
:107E90002B4617F027F96AA3D3E9002316F070FFE9
:107EA00022462B4617F01EF967A3D3E9002316F0EC
:107EB00065FF22462B4617F015F9694B002216F094
:107EC0005FFFCDE902012046294615F0B5FD664B5E
:107ED000984506460F4666DCDDE90223DDE9000130
:107EE00017F02AFA3246CDE900013B4630463946C2
:107EF00016F046FF02460B46DDE9000117F0F2F8E6
:107F00004FF00008CDE9000142463B464046394665
:107F100017F0E8F802460B462046294616F02EFFD9
:107F2000424604460D463B463046394616F028FF89
:107F300002460B462046294617F0FEF902460B463C
:107F400016F01EFF02460B462BA1D1E9000116F0E8
:107F500015FF02460B46DDE9000116F00FFF424611
:107F600004460D463B464046394616F009FF024698
:107F70000B4637A1D1E9000116F000FF02460B467F
:107F80002046294616F0FAFE02460B4630A1D1E9FA
:107F9000000116F0F3FEBAF1000F3FF7F7AE01F162
:107FA00000431946F2E6DDE90223DDE9000117F09E
:107FB000C3F932463B4617F095F832463B4616F079
:107FC000DFFE02460B4616F0DBFE0BA3D3E90023CF
:107FD00016F0D4FE02460B4605A1D1E9000116F0C9
:107FE000CDFED8E7AFF300809C7500883CE4377E77
:107FF000182D4454FB21F93F075C143326A6913C0D
:1080000009F7FD0DE13D023F88B20175E0EF493F00
:108010003B8F68B52882A43F5544880E55C1C93F9F
:108020007D6FEB0312D6D43F555555555555C53F79
:1080300082922EB1C5B8B33F59018D1B6C06E63F45
:10804000C88A599CE52A00404B2D8A1C273A0340D8
:10805000182D4454FB21E93FFFFFEF3FFFFFDF3FB7
:108060000000F03F0000E03F3233EF3F02460B4696
:1080700017F038F837A3D3E9002306460F4617F068
:1080800031F836A3D3E9002316F07AFE32463B4698
:1080900017F028F833A3D3E9002316F06FFE324619
:1080A0003B4617F01FF831A3D3E9002316F068FE12
:1080B00032463B4617F016F82EA3D3E9002316F0FC
:1080C0005DFE32463B4617F00DF82CA3D3E90023A2
:1080D00016F056FE32463B4617F004F829A3D3E9C2
:1080E0000023804689463046394616F0FBFF27A319
:1080F000D3E9002316F042FE32463B4616F0F2FF6B
:1081000024A3D3E9002316F03BFE32463B4616F08B
:10811000E9FF22A3D3E9002316F030FE32463B46A6
:1081200016F0E0FF00220A4B16F02AFE02460B462C
:108130004046494617F000F922462B4616F0D2FF7A
:1081400022462B4616F01CFE04B0BDE8F08700BFA7
:108150000000F03F09F7FD0DE13D023F88B20175D7
:10816000E0EF493F3B8F68B52882A43F5544880E15
:1081700055C1C93F7D6FEB0312D6D43F55555555B8
:108180005555C53F82922EB1C5B8B33F59018D1BDD
:108190006C06E63FC88A599CE52A00404B2D8A1C94
:1081A000273A0340000000002DE9F84F1D465342D6
:1081B000134325F0004ADFF8E0E14AEAD373734540
:1081C000144606460F4647D8C0F1000848EA0008A2
:1081D00021F0004343EAD878F0458B463CD805F1BE
:1081E000404808F5801858EA020850D04FEAA578B0
:1081F00008F0020848EAD17850EA030134D052EA84
:108200000A023CD0F24557D0734538D0A3EB0A039D
:108210001B153C2B42DC002D70DB22462B463046E2
:10822000394617F089F814F0C9FCFEF751FBB8F194
:10823000010F5FD0B8F1020F4ED0B8F1000F62D03D
:1082400043A3D3E9002316F099FD43A3D3E9002308
:1082500016F094FDBDE8F88F32463B46204629468D
:1082600016F08EFDBDE8F88FB8F1020F1AD0B8F104
:10827000030F10D13AA1D1E90001BDE8F88FBBF19D
:10828000000F14DB38A1D1E90001BDE8F88FBDE88B
:10829000F84FFEF71DBB3946BDE8F88F32A1D1E992
:1082A0000001C4E72CA1D1E90001BDE8F88F30A19D
:1082B000D1E90001BDE8F88F534526D0B8F1020F8F
:1082C000F0D0B8F1030FD5D0B8F1010F4FF0000096
:1082D00029D00021BDE8F88F1DA3D3E9002316F0B3
:1082E0004DFD02460B461CA1D1E9000116F046FDEA
:1082F000BDE8F88F01F10041BDE8F88F3C338CDA1E
:108300000020002193E7BDE8F88FB8F1020F18D0E4
:10831000B8F1030F10D0B8F1010F08D016A1D1E9C0
:108320000001BDE8F88F4FF00041BDE8F88F14A1BF
:10833000D1E90001BDE8F88F13A1D1E90001BDE842
:10834000F88F13A1D1E90001BDE8F88FAFF30080E9
:10835000075C143326A6A13C182D4454FB21094088
:10836000182D4454FB2109C0182D4454FB21F93F1A
:10837000182D4454FB21F9BF182D4454FB21E93F2B
:10838000182D4454FB21E9BFD221337F7CD902C090
:10839000D221337F7CD902400000F07F0000000032
:1083A00043422DE9F047034321F000463E4A46EAA6
:1083B000D373934204460D4613D896423DD03B4BAF
:1083C0009E428A4617DC36A3D3E9002316F0D8FC78
:1083D0000022002317F016F9A8B320462946BDE86D
:1083E000F08702460B4616F0C9FC02460B4616F013
:1083F000A3FFBDE8F0872E4B9E42354624DD334671
:108400000246314616F0BCFC224606460F462B4675
:108410000020254916F0B2FC02460B46304639468C
:1084200016F08AFFFEF708FD0022224B16F05AFED6
:10843000BAF1000F2FDBBDE8F0870022002316F011
:108440007BFFBDE8F087354622462B46204629466D
:1084500016F096FC22462B4606460F4616F042FEC4
:108460002246804689462B4600200F4916F086FC9E
:1084700002460B464046494616F05EFF32463B46F2
:1084800016F07EFCFEF7D8FC00220A4B16F02AFEFE
:10849000BAF1000FCFDA01F100431946BDE8F087C9
:1084A0009C7500883CE4377E0000F03FFFFF2F3EC4
:1084B000FFFFDF3F0000E03F2DE9F8434E4B21F086
:1084C00000449C4206460F461BDC4C4B9C4222DD7E
:1084D0004B4B9C4263DD4B4B9C427BDD4A4B9C42A9
:1084E00046DD01339C4240D041A3D3E9002310462E
:1084F000194616F0F7FD06460F4630463946BDE8E8
:10850000F88302460B4616F0EDFD06460F46304650
:108510003946BDE8F88314F051FB02F0B1FC0022AB
:108520003A4B8046894616F02BFCB4F1725F064642
:108530000F46ECDB42464B464046494616F0D2FD1C
:1085400032463B4604460D463046394616F018FC86
:1085500002460B462046294616F0EEFE00222B4B23
:1085600016F00EFC06460F46D1E7294B9842BBD8C1
:108570003046394614F022FB0022264B16F0B2FD9D
:1085800000F04AF8002204460D46224B16F0AAFDE0
:1085900022462B4616F0A6FD06460F46B7E714F016
:1085A0000DFB00F039F800221A4B06460F4616F074
:1085B00099FD32463B4604460D460020154916F00B
:1085C000BBFE02460B462046294616F0D9FB06465E
:1085D0000F469CE714F0F2FA00F01EF800220D4B53
:1085E00016F080FD06460F4691E700BFAFF300800E
:1085F0009C7500883CE4377EFFFFEF7F422ED63F1C
:10860000FFFF3540412E8640CD3386400000F03FCD
:108610007DF8B98F0000E03F2DE9F04FB04E21F01A
:108620000042B24283B004460D464FEAD1770DD9DD
:10863000AC4EB24225D9C1F31303034340F0EC80A2
:108640000FB10020002103B0BDE8F08FA64B9A4285
:1086500000F2CB80A54B9A4200F2DC808AA3D3E9DA
:10866000002316F08DFB0022A14B16F0CBFF002853
:1086700000F006812046294600229D4B16F080FB23
:10868000E1E783A3D3E9002316F0BCFF002840F004
:10869000C88081A3D3E900232046294616F094FF21
:1086A0000028CED1934E7EA3D3E9002306EBC70664
:1086B0002046294616F016FDD6E9002316F060FB89
:1086C00016F0C0FF064616F0A7FC77A3D3E90023F7
:1086D0008046894616F006FD02460B46204629468E
:1086E00016F04CFB72A3D3E90023CDE9000140460C
:1086F000494616F0F7FC82468B4652465B46DDE95A
:10870000000116F03BFB04460D4622462B46204650
:10871000294616F0E7FC68A3D3E900238046894682
:1087200016F0E0FC66A3D3E9002316F027FB4246CF
:108730004B4616F0D7FC64A3D3E9002316F020FBC8
:1087400042464B4616F0CEFC61A3D3E9002316F057
:1087500015FB42464B4616F0C5FC5FA3D3E9002348
:1087600016F00EFB42464B4616F0BCFC02460B468A
:108770002046294616F002FB80468946002E58D036
:108780002046294642464B4616F0ACFC424604467B
:108790000D464B4600204FF0804116F0EFFA02469E
:1087A0000B462046294616F0C7FD02460B465046AA
:1087B000594616F0E3FADDE9002316F0DFFA0B461E
:1087C00002464B49002016F0D9FA6FF47F739E429F
:1087D00051DA06F57A7601EB065100224FF0B873B4
:1087E00016F080FC03B0BDE8F08F434B9A423FF691
:1087F00059AF424BFC002344D3E9002316F0BEFAE4
:108800003F4BC7F101062344CDE90001D3E900AB9A
:10881000F61B72E7002678E702460B4616F0B0FA20
:1088200011E719A3D3E900231046194616F05AFCA4
:1088300009E702460B462046294616F053FC002263
:1088400006460F464FF080434046494616F096FADA
:1088500002460B463046394616F06EFD22462B4640
:1088600016F08CFA02460B460020214916F086FAD3
:1088700003B0BDE8F08F01EB065103B0BDE8F08F07
:10888000064642E7AFF300809C7500883CE4377EE3
:10889000EF39FAFE422E864051302DD5104987C05F
:1088A000FE822B654715F73F0000E0FE422EE63FB3
:1088B000763C7935EF39EA3DD0A4BE726937663E21
:1088C000F16BD2C541BDBB3E2CDE25AF6A56113FD0
:1088D00093BDBE166CC1663F3E5555555555C53FB7
:1088E000412E8640FFFFEF7F422ED63FFFFF2F3EF7
:1088F0000000F03F78030400B1A2F03F88030400B9
:1089000098030400000000002DE9F04FB1F5801F2E
:1089100085B006460F460B465ADA024621F000445F
:10892000224300F0F8800029C0F27A810022D64B61
:1089300016F0D8FBD54A0B46934206460F466FF019
:10894000350C4ADCC3F3130505F5152E0EF6647ECF
:108950000EF4801E8EF07F5282F440121C1542EA03
:108960000507A4F2FF3464440022C94B304639465F
:1089700004EB1E5416F002FAAB1CC3F31303022BD4
:1089800082468B464FF0000230DC002316F012FEC8
:10899000002800F0C980002C00F04B81204616F022
:1089A0003BFBA5A3D3E9002306460F4616F09AFB2E
:1089B000A3A3D3E9002304460D463046394616F0FA
:1089C00091FB02460B462046294616F0D9F90AE0EB
:1089D000AE4A93424FF0000CB4DD32463B4630467F
:1089E000394616F0CDF905B0BDE8F08F4FF0804361
:1089F00016F0C6F902460B465046594616F09CFC46
:108A0000064620460F4616F007FB3246CDE9000128
:108A10003B4630463946CDE9026716F063FB024615
:108A20000B468046894616F05DFB87A3D3E90023F9
:108A300006460F4616F056FB85A3D3E9002316F031
:108A40009FF932463B4616F04DFB83A3D3E9002342
:108A500016F096F932463B4616F044FB80A3D3E964
:108A6000002316F08DF942464B4616F03BFB7EA3E1
:108A7000D3E90023804689463046394616F032FB5A
:108A80007BA3D3E9002316F07BF932463B4616F070
:108A900029FB79A3D3E9002316F072F932463B464D
:108AA00016F020FB0B4602464946404616F068F990
:108AB000A5F5C223C5F5D725A3F27A4351351D4349
:108AC000002D8046894656DD0022724B504659469D
:108AD00016F008FB52465B4616F004FB06460F46AE
:108AE000002C68D132463B464046494616F048F9CC
:108AF000DDE9022316F0F6FA02460B463046394607
:108B000016F03CF902460B465046594616F036F927
:108B100005B0BDE8F08F0022002300205E4916F06A
:108B20000BFC05B0BDE8F08F55A3D3E900235046F8
:108B3000594616F0D7FA02460B460020554916F062
:108B40001DF9524606460F465B465046594616F0FA
:108B5000C9FA02460B463046394616F0C3FA0646B5
:108B60000F46002C40F09A8002460B46504659466C
:108B700016F004F937E7002C00F0A4802EA3D3E907
:108B80000023DDE9000116F0ADFA42464B460446EB
:108B90000D465046594616F0F1F8DDE9022316F06D
:108BA000A1FA27A3D3E9002306460F46DDE9000119
:108BB00016F098FA21E020A3D3E90023DDE90001B3
:108BC00016F090FA32463B4604460D46404649466A
:108BD00016F0D6F8DDE9022316F084FA18A3D3E9DB
:108BE000002380468946DDE9000116F07BFA024643
:108BF0000B464046494616F0C3F802460B4630463F
:108C0000394616F0BBF852465B4616F0B7F80246F6
:108C10000B462046294616F0B1F805B0BDE8F08FA6
:108C200002460B4616F0AAF80022002316F084FB39
:108C3000D9E600200021D6E60000E0FE422EE63F05
:108C4000763C7935EF39EA3D44523EDF12F1C23FBE
:108C5000DE03CB966446C73F599322942449D23F02
:108C6000935555555555E53F9FC678D0099AC33F52
:108C7000AF788E1DC571CC3F04FA97999999D93F69
:108C8000555555555555D53F00005043FFFFEF7FD3
:108C90000000F03F0000E03F000050C3204616F007
:108CA000BBF90FA3D3E900238046894616F01AFAD0
:108CB0000DA3D3E9002304460D464046494616F06D
:108CC00011FA9AE702460B465046594616F056F8F6
:108CD000DDE9022316F006FA14E700BFAFF30080C7
:108CE0000000E0FE422EE63F763C7935EF39EA3D62
:108CF000B1F5801F2DE9F84304460D460B461ADAFC
:108D0000024621F00046324359D000295FDB0022A1
:108D10003B4B16F0E7F93B4A0D462B46934204467F
:108D20006FF035010CDD22462B462046294616F011
:108D300027F8BDE8F883334A93424FF00001F2DC94
:108D40001815A0F2FF3008444FEAD0794844C3F325
:108D5000130816F061F9C9F57F73033348EA035528
:108D600006460F4620462946FFF7CEFD1EA3D3E94F
:108D70000023804689463046394616F0B3F91CA3D5
:108D8000D3E9002304460D464046494616F0AAF9A9
:108D900002460B462046294615F0F2FF16A3D3E9FA
:108DA000002304460D463046394616F09BF902462C
:108DB0000B462046294615F0E3FFBDE8F883002264
:108DC00000230020104916F0B7FABDE8F8830246E8
:108DD0000B4615F0D3FF0022002316F0ADFABDE8D4
:108DE000F88300BFAFF30080362BF111F3FE593D3D
:108DF0000EE526157BCBDB3F00609F501344D33F2D
:108E000000005043FFFFEF7F000050C30000000050
:108E10002DE9F04F23F0004757EA020493B037D012
:108E2000674C21F00046A64283460D4629DC9A464F
:108E3000964625D0A74224DC614CA74279D0002D6C
:108E400080468946CDE9002377DB0024BEF1000F80
:108E50002CD15B4B9F4200F08B805A4B9F4261D0DC
:108E6000BAF1804F00F0C383574B9A451ED1002DB5
:108E70001CDB4046494613B0BDE8F04F14F0DCBDA2
:108E800058B106F1404606F5801656EA0B0306D1A6
:108E90004C49002013B0BDE8F08FB742CCDD4B4801
:108EA00013B0BDE8F04F15F06DBD002440464946B3
:108EB00013F084FEBBF1000F19D126B1414B25F010
:108EC00040429A4213D1BAF1000FC0F2CA83002D7A
:108ED000E0DA06F1404606F5801656EA040300F093
:108EE000A584012CD6D101F100431946D2E7ED0F3C
:108EF000013D54EA05034ED0354B9F426EDD03F130
:108F000004739F4240F3FE83324B9E424EDDBAF122
:108F1000000F4EDD28A3D3E900231046194616F0B2
:108F2000E1F8B7E7BAF1000FC0F252844046494673
:108F3000B0E7BEF1000F82D0A3E7274B9F4228DCA9
:108F4000A3F154739F4280DD3B15A3F2FF33142B32
:108F500040F35484C3F134032EFA03F202FA03F30C
:108F60009E457FF472AF02F00102C2F102046DE788
:108F700006F1404303F5801353EA0B0388D0154BE9
:108F80009E4240F33B83BAF1000F12DBDDE90001A2
:108F900080E702245AE742464B461046194615F030
:108FA000EDFE02460B4616F0C7F973E7BAF1000F63
:108FB000B0DB002000216DE79C7500883CE4377E23
:108FC0000000F07F0000F03F0000E03F880B04004D
:108FD0000000E041FFFFEF3FFFFF3F43B6F5801F7A
:108FE0004FF0000205DAD84B16F07CF86FF034022F
:108FF0000E463315D54FC6F31306A3F2FF331344C1
:1090000046F07F5ABE421A460D934AF4401A40F386
:109010002F83CF4B9E4240F30D849FEDB57B8DEDAA
:10902000087B8DED0E7B9FEDB47B13468DED067BAB
:1090300001330D93AAF5801A0027DDE90623514676
:10904000CDE90A0115F09AFEDDE90623804689463E
:10905000DDE90A0115F094FE02460B460020BD49E9
:1090600016F06AF90A460146CDE910121346494640
:109070000246404616F036F84FEA6A0343F00053C2
:109080008C46834603F50023CDE904BCDA468B46C3
:10909000D9190023CDE902AB0293DDE902AB002030
:1090A00006460F4602460B465046594616F01AF839
:1090B00002460B464046494615F060FEDDE90623B0
:1090C000804689463046394615F058FE02460B4622
:1090D000DDE90A0115F052FE52465B4616F002F831
:1090E00002460B464046494615F048FEDDE910238E
:1090F00015F0F8FFDDE90467CDE9060132463B468D
:109100003046394615F0EEFF7DA3D3E9002306462D
:109110000F4615F0E7FF7CA3D3E9002315F030FEDE
:1091200032463B4615F0DEFF79A3D3E9002315F064
:1091300027FE32463B4615F0D5FF77A3D3E900233F
:1091400015F01EFE32463B4615F0CCFF74A3D3E962
:10915000002315F015FE32463B4615F0C3FF72A3FF
:10916000D3E9002315F00CFE3246804689463B4683
:109170003046394615F0B6FF02460B464046494692
:1091800015F0B0FF524606460F465B46DDE9040186
:1091900015F0F6FDDDE9062315F0A4FF32463B4647
:1091A00015F0EEFD5246804689465B4650465946CC
:1091B00015F098FF0022684BCDE90A0115F0E0FD9B
:1091C00042464B4615F0DCFD02980F4606463246F5
:1091D0003B465046594615F085FF002282468B4695
:1091E0005D4B3046394615F0C9FDDDE90A2315F01F
:1091F000C5FD02460B464046494615F0BFFDDDE978
:10920000042315F06FFF3246804689463B46DDE970
:10921000060115F067FF02460B464046494615F029
:10922000AFFD8046894602460B4650465946CDE979
:1092300004AB15F0A5FDDDE902AB3DA3D3E90023A6
:1092400050460F4615F04EFFDDE90423CDE902013B
:109250003946504615F092FD02460B4640464946B7
:1092600015F08CFD34A3D3E9002315F03BFF34A3A4
:10927000D3E90023804689465046394615F032FF2F
:1092800002460B464046494615F07AFDDDE90E23BD
:1092900015F076FD80460D98894615F0BDFE4246D4
:1092A00006460F464B46DDE9020115F069FDDDE992
:1092B000082315F065FD32463B4615F061FD324648
:1092C0003B4650468B4615F059FDDDE9082315F065
:1092D00055FDDDE9022315F051FD02460B464046DF
:1092E000494615F04BFD8046894637E0AFF30080D4
:1092F0000000000000000000000000000000F03F3F
:10930000EF4E454A287ECA3F65DBC9934A86CD3F6A
:1093100001411DA96074D13F4D268F515555D53F50
:10932000FFAB6FDBB66DDB3F033333333333E33FE8
:10933000000000E009C7EE3FFD033ADC09C7EE3F3D
:10934000F5015B14E02F3EBE000040438E98030001
:1093500079B60B000000F03F00000840013C54EAE1
:10936000050300F079819FEDC87B8DED047BDDE97D
:1093700000120B461446CDE9023400230293DDE9C6
:10938000024508462B461146224615F0F7FC524688
:109390005B4615F0A7FEDDE9002306460F46404672
:1093A000494615F09FFE02460B463046394615F0F9
:1093B000E7FC2246804689462B4650465946CDE971
:1093C000008915F08FFE0B46024606460F464046C2
:1093D000494615F0D5FCC64B994204460D468A46CF
:1093E00040F3168101F13F4303F5E003034340F0EE
:1093F000F781A7A3D3E90023DDE9000115F0C0FC44
:109400003246804689463B462046294615F0B6FC42
:1094100002460B464046494616F0F4F8002840F054
:10942000DF81A8464FEA28534FF48012A3F2FE339F
:1094300042FA03F35344C3F30A52AE4DA2F2FF3291
:109440001541C3F3130423EA05010020C2F1140BF4
:1094500044F48014BAF1000F02460B4644FA0BFBA9
:1094600030463946B8BFCBF1000B15F087FC0246F9
:109470000B4606460F46DDE9000115F081FC4FEA78
:109480000B5A0D46002484A3D3E900232046294625
:1094900015F028FE3246804689463B46204629463E
:1094A00015F06CFC02460B46DDE9000115F066FC88
:1094B0007BA3D3E9002315F015FE7BA3D3E900239A
:1094C00006460F462046294615F00CFE02460B467E
:1094D0003046394615F054FC06460F4602460B4608
:1094E0004046494615F04CFC42464B4604460D4664
:1094F00015F044FC02460B463046394615F03EFC5A
:109500002246804689462B462046294615F0EAFD2C
:1095100067A3D3E9002306460F4615F0E3FD66A3D3
:10952000D3E9002315F02AFC32463B4615F0DAFD5C
:1095300063A3D3E9002315F023FC32463B4615F024
:10954000D1FD61A3D3E9002315F018FC32463B4658
:1095500015F0C8FD5EA3D3E9002315F011FC3246D7
:109560003B4615F0BFFD02460B462046294615F046
:1095700005FC06460F4602460B462046294615F0D6
:10958000B1FD0022CDE900014FF08043304639465D
:1095900015F0F4FB02460B46DDE9000115F0CCFEA8
:1095A000424606460F464B462046294615F09AFD90
:1095B00042464B4615F0E4FB02460B463046394620
:1095C00015F0DCFB22462B4615F0D8FB02460B4675
:1095D0000020494915F0D2FB8A44BAF5801FC0F239
:1095E00039815146DDE9042315F07CFD52E4424601
:1095F0004B464046494615F075FD4BE4BAF1000F65
:10960000BFF6D7ACDDE90034184604F1004141E46F
:109610003A4B21F00048984540F3FF80384B0B440B
:1096200003430CD132463B4615F0A8FB02460B46DD
:10963000DDE9000115F0D2FF00283FF4F3AEDDE9CB
:10964000040125A3D3E9002315F04CFD22A3D3E99F
:10965000002315F047FD1DE49FED217B8DED047B7C
:1096600085E602460B460020234915F065FE2EE4F0
:109670009FED1D7B8DED087B8DED0E7B9FED027BBD
:1096800000278DED067BD8E4000000000000F03FCD
:10969000FE822B654715973C00000000432EE63FF5
:1096A000EF39FAFE422EE63F396CA80C615C20BE11
:1096B000D0A4BE726937663EF16BD2C541BDBB3ED8
:1096C0002CDE25AF6A56113F93BDBE166CC1663FB6
:1096D0003E5555555555C53F59F3F8C21F6EA50166
:1096E000000000000000F0BF0000000000000000CB
:1096F000FFFF8F40FFFF0F000000F03FFFCB9040C7
:1097000000346F3F684B9E427FF750AC674B9E42E0
:109710003FF7FDAB0022654B15F030FB52A3D3E9B8
:10972000002306460F4615F0DDFC51A3D3E90023C4
:10973000804689463046394615F0D4FC00228246E0
:109740008B465B4B3046394615F0CCFC02460B4647
:1097500049A1D1E9000115F011FB32463B4615F055
:10976000C1FC02460B460020524915F007FB324669
:10977000CDE902013B463046394615F0B3FC0246BE
:109780000B46DDE9020115F0ADFC3DA3D3E9002352
:1097900015F0A8FC02460B465046594615F0EEFA65
:1097A00002460B4606460F464046494615F0E8FA83
:1097B00042464B46002082468B4615F0DFFA0246B1
:1097C0000B463046394615F0D9FA80468946C5E53C
:1097D00042464B460020354915F0AEFDFFF75ABB17
:1097E000DDE9040128A3D3E9002315F07BFC26A3BF
:1097F000D3E9002315F076FCFFF74CBBBEF1000F58
:109800007FF453ABC3F1140347FA03F202FA03F3F4
:109810009F4223D07446FFF720BB264B98453FF765
:1098200001AEDDE90223924693462BE602460B4643
:10983000FFF7B3BB9FED167B8DED087B9FED167B8D
:109840008DED0E7B9FED167B4FF480278DED067B13
:10985000FFF7F3BB5A4601F04FFDC3E602F00102E9
:10986000C2F10204FFF7F9BA000000604715F73FA4
:1098700044DF5DF80BAE543E555555555555D53F13
:10988000FE822B654715F73F9C7500883CE4377EC8
:109890000000004003B8E23F06D0CF43EBFD4C3E52
:1098A000000000000000F83FFEFFEF3F0000F03F27
:1098B0000000D03F0000E03F2DE9F0479C4B21F035
:1098C00000479F4290B08046894640F38E80994B76
:1098D0009F420C46924626DC00298BA3D3E9002345
:1098E00040F3B08115F04AFA934B9F4204460D466F
:1098F00000F0908086A3D3E9002315F03FFA0246DA
:109900000B46CAE900232046294615F037FA80A302
:10991000D3E9002315F032FA0125CAE902012846ED
:1099200010B0BDE8F087854B9F4240F39080844B98
:109930009F4265DC3D15A5F21645A7EB0553194678
:109940001F46064615F07EFE15F066FB80468946EA
:1099500042464B4630463946CDE90A8915F00EFAA3
:109960000022784B15F0BEFB8946804615F06AFE52
:1099700015F052FB06460F4632463B4640464946E6
:10998000CDE90C6715F0FAF900226E4B15F0AAFB31
:1099900000220023CDE90E0115F00CFE002800F096
:1099A0006F81002330463946002215F003FE00285F
:1099B00014BF01230223644A019202212A46009126
:1099C0000AA8514600F08CFB002C054614DADAF8A0
:1099D0000420DAF80C3002F1004203F10043454262
:1099E000CAF80420CAF80C3006E000200021C2E9C1
:1099F0000089C2E902010025284610B0BDE8F087C1
:109A000002460B4615F0BAF90025CAE90201CAE977
:109A10000001F1E740A3D3E9002315F0AFF940A31B
:109A2000D3E900230D46044615F0A8F902460B467B
:109A3000CAE900232946204615F0A0F938A3D3E946
:109A4000002315F09BF90125CAE90201D4E713F0C0
:109A5000B5F835A3D3E900238046894615F042FBCB
:109A600000223A4B15F08CF915F0ECFD054615F087
:109A7000D3FA25A3D3E90023CDE9060115F032FB83
:109A800002460B464046494615F078F920A3D3E933
:109A90000023CDE90201DDE9060115F023FB1F2DAE
:109AA00080468946CDE9048954DC294B6A1E53F867
:109AB00022309F424ED002460B46DDE9020115F0EE
:109AC0005DF980468946CAE9008942464B46DDE990
:109AD000020115F053F9DDE9042315F04FF9002CCC
:109AE000CAE9020188DA09F1004401F100436D423C
:109AF000CAF80080CAF80440CAF80800CAF80C3056
:109B00007AE700BFAFF3008000004054FB21F93F2B
:109B10003163621A61B4D03D0000601A61B4D03D77
:109B20007370032E8A19A33B83C8C96D305FE43F6D
:109B3000FB21E93F7BD90240FB21F93FFB21394161
:109B4000FFFFEF7F000070416C1604000000E03F53
:109B5000EC150400DDE90423DDE9020115F00EF93E
:109B60003F15C1F30A53FB1A80468946102BCAE9F8
:109B70000089AADD58A3D3E90023DDE9060115F029
:109B8000B1FA8046894602460B46DDE9020115F02E
:109B9000F5F802460B46DDE90201CDE9082315F090
:109BA000EDF842464B4615F0E9F84DA3D3E9002302
:109BB00080468946DDE9060115F094FA42464B4697
:109BC00015F0DCF80B46CDE904010246DDE9080199
:109BD00015F0D4F8C1F30A53FF1A80468946312F95
:109BE000CAE900896CDD41A3D3E90023DDE9060160
:109BF00015F078FADDE9088906460F4602460B465D
:109C00004046494615F0BAF802460B4640464946DA
:109C1000CDE9022315F0B2F832463B4615F0AEF816
:109C200034A3D3E9002306460F46DDE9060115F00B
:109C300059FA32463B4615F0A1F802460B46CDE9EB
:109C400004233AE715F09CF8274B9F4204460D4643
:109C500018D01FA3D3E9002315F092F802460B4653
:109C6000CAE900232946204615F088F818A3D3E94D
:109C7000002315F085F84FF0FF35CAE90201BBE675
:109C8000032398E614A3D3E9002315F079F814A36D
:109C9000D3E900230D46044615F072F802460B4640
:109CA000CAE900232946204615F068F80CA3D3E939
:109CB000002315F065F84FF0FF35CAE902019BE675
:109CC0009DED087B8DED027BFFE600BFAFF30080CA
:109CD0003163621A61B4D03D0000601A61B4D03DB6
:109CE0007370032E8A19A33BFB21F93F0000002E5D
:109CF0008A19A33BC14920259A837B3900000000C3
:109D0000594A2DE9F84F21F00048904506460F4684
:109D10002BDC564B0029B4BF554D564D98454FF09E
:109D2000000410DC544B984570DC4DA3D3E90023AC
:109D300015F026F80022514B15F064FCD8B13046DE
:109D40003946BDE8F88F4E4B98457CDD4D4B984524
:109D500044DD013398453ED03046394640A3D3E92F
:109D6000002315F0BFF9BDE8F88F02460B4615F049
:109D700007F8BDE8F88F3046394612F01FFF01F0B2
:109D80007FF806460F4632463B463046394614F0C9
:109D9000F7FF324682468B463B463046394615F041
:109DA000A1F9002280468946344B3046394614F0EA
:109DB000E7FF02460B464046494615F0BDFA02460B
:109DC0000B465046594614F0D9FF22462B4615F053
:109DD00089F9BDE8F88F2C4B9842BDD830463946FA
:109DE00012F0ECFE0022234B15F07CF9FEF714FC78
:109DF00006460F4602460B462046294615F072F9E4
:109E000032463B4615F06EF9BDE8F88F12F0D6FEEB
:109E100001F036F81D4B984506460F46B3DD00228B
:109E2000164B14F0ADFF02460B463046394615F08E
:109E300083FA32463B4614F0A3FF22462B4615F028
:109E400051F9BDE8F88F12F0B9FEFEF7E5FB0246C6
:109E50000B462046294615F045F9BDE8F88F00BFAE
:109E60003374AC3C1F7BAC7FFFFFEF7FFFFF3540BF
:109E70000000E0BF0000E03FFFFF2F3E0000F03F8A
:109E8000412E8640CD3386407DF8B98FFFFFEF3FEE
:109E90002DE9F04F21F00048B8F1795F85B0064612
:109EA0000F4692469B466BDA15F0CCFB002800F07B
:109EB000EA8032463B463046394615F013F974A322
:109EC000D3E9002304460D4615F00CF972A3D3E93B
:109ED000002314F055FF22462B4615F003F970A31A
:109EE000D3E9002314F04AFF22462B4615F0FAF876
:109EF0006DA3D3E9002314F043FF22462B4615F04F
:109F0000F1F86BA3D3E9002314F038FF22462B4667
:109F100015F0E8F868A3D3E9002314F031FF2246D6
:109F20002B4615F0DFF8CDE900010022664B2046F4
:109F3000294615F0D7F8DDE90023804689462046FA
:109F4000294615F0CFF8524604460D465B4630468A
:109F5000394615F0C7F802460B462046294614F04C
:109F60000DFF02460B464046494614F007FF0246E5
:109F70000B460020554914F001FF05B0BDE8F08FF5
:109F800002460B4615F0AEF841A3D3E90023044680
:109F90000D4615F0A7F840A3D3E9002314F0F0FE16
:109FA00022462B4615F09EF83DA3D3E9002314F07A
:109FB000E5FE22462B4615F095F83BA3D3E9002396
:109FC00014F0DEFE22462B4615F08CF838A3D3E9B8
:109FD000002314F0D3FE22462B4615F083F836A357
:109FE000D3E9002314F0CCFE2B46224615F07AF874
:109FF000374B9845CDE9000197DD364B984539DC64
:10A00000A8F500130022002030499046994614F02C
:10A01000B5FECDE9020100222B4B2046294615F062
:10A0200061F842464B4614F0A9FEDDE90023804664
:10A0300089462046294615F055F8524604460D46F5
:10A040005B463046394615F04DF802460B46204631
:10A05000294614F093FE02460B464046494614F04A
:10A060008DFE02460B46DDE9020114F087FE05B0C5
:10A07000BDE8F08F9FED127B4FF000088DED027B65
:10A08000DFF85490C7E71149002005B0BDE8F08F14
:10A09000D43888BEE9FAA8BDC4B1B4BD9EEE213E55
:10A0A000AD529C804F7E923E9015CB19A001FA3E96
:10A0B0007751C1166CC1563F4C5555555555A53F66
:10A0C000000000000000E73F0000E03F0000F03F1C
:10A0D0003233D33F0000E93F0000D23F00000000D0
:10A0E0002DE9F04FADF51B7D9F4CA49E9F4D54F87C
:10A0F000264007942646D41E85FB0475E417C4EB5E
:10A10000A50424EAE4741D460A93631CA3EB8303AD
:10A11000013D02EBC30306932B460B940395651B8D
:10A12000F418049008911AD42C4400260027013416
:10A130000DF18808DDF8949208E059F8250014F034
:10A140006BFF0135A542E8E8020108D0002DF4DAE2
:10A15000013530463946A542E8E80201F6D1079BB1
:10A16000002BC0F2DF83079B03F1010B0A9B22A99E
:10A17000DB001A4601EB03090093049B0DF5E47A1A
:10A1800019460AEBCB0B01EB0208039B002BC0F234
:10A19000F582049C4D460026002775E90223F4E869
:10A1A000020114F09FFF02460B463046394614F078
:10A1B000E7FD444506460F46EFD1EAE80267DA4577
:10A1C00009F10809E1D107990098049C009101F177
:10A1D0008043013B9B0020441A1F83460EA8024483
:10A1E00003440C920D93009A9AA901EBC203002A32
:10A1F00053E9284529DD0DF5E47A0AEBC2080DF193
:10A20000340900225A4B2046294614F06BFF15F002
:10A2100019FA14F001FF0022564B06460F4614F0BF
:10A2200061FF02460B462046294614F0A7FD15F0B3
:10A2300009FA78E9022349F8040F3946304614F048
:10A240009FFDD04504460D46DBD1DDF81890204631
:10A2500029464A4601F050F800224FF07F53044649
:10A260000D4614F03FFFFCF75FFD0022424B14F057
:10A2700039FF02460B462046294614F07FFD0D4665
:10A28000044615F0DFF9804614F0C6FE0B46024680
:10A290002946204614F072FD4B46002B06460F4619
:10A2A00040F3F980009A0EA9013AC9F1180351F858
:10A2B000225045FA03F101FA03F30EA8EB1A40F815
:10A2C0002230C9F11705884443FA05F5002D6DDDEC
:10A2D000009B002B08F1010840F36F820E9C002CBC
:10A2E00040F01683009B012B40F38F820EAA0123BE
:10A2F00052F8044F002C00F08382581C0EAAC4F1BF
:10A30000807442F82340009A824219DD0EAA0EACF6
:10A3100052F820106FF07F42511A44F82010009933
:10A32000023399420CDD1046009A0EA901EB83031B
:10A3300001EB82011A68821A43F8042B8B42F9D18F
:10A34000069B002B1ADD069B012B4FF0010440F009
:10A350003C82009B5A1E0EAB0EA953F82230C3F369
:10A36000160341F822303CE20C1B0400ABAAAA2AD7
:10A370000000703E0000704100002040022D15D109
:10A3800032463B460020924914F0F8FC06460F4640
:10A39000069A8F49002000F0AFFF02460B46304678
:10A3A000394614F0EBFC022506460F460022002336
:10A3B0003046394615F0FEF8002800F03782009A42
:10A3C000079B501E83420FDC02F18043013B0EAA23
:10A3D0000D9C02EB8303002253F80419A34242EAC6
:10A3E0000102F9D1002A67D1079B0EAA013B52F85E
:10A3F0002330002B40F018820C9A012352F80419E4
:10A4000001330029FAD0009AD31802F1010A9A45C3
:10A4100009933DDC009B0A990B9A0B4409990AEBBE
:10A420000208994622AB08F1804803EBC9098B1852
:10A43000A59A08F1FF3802EB880872AA02EBCA0A53
:10A44000A59A02EB8303009358F8040F14F0E4FD7F
:10A45000039B002BE9E802014FF000064FF00007D4
:10A4600011DB049C4D4675E90223F4E8020114F067
:10A4700039FE02460B463046394614F081FC5C45F5
:10A4800006460F46EFD1009B9845EAE80267DBD10C
:10A49000099B0093A7E606D1009B0EAA013B52F848
:10A4A0002350ED1512E700224A4B15F0A1F80028C1
:10A4B00040F06E81054679E70EA9039551F82030EA
:10A4C0000699CDF8248018390246009006916BB9A0
:10A4D00000F18043013B0EA800EB830353F804090D
:10A4E000013A18390028F9D000920691069A3849A5
:10A4F000002000F001FF009B002B04460D46C0F237
:10A50000F781DA0072A901EB020B06920EAA02EBA8
:10A510008306DFF8C4904FF000080BF108070436FB
:10A5200056F8040D14F078FD22462B4614F0DAFD9F
:10A530004B4667E9020142462046294614F0D2FD07
:10A540000EAB9E4204460D46EAD14AACDDF81C90A3
:10A5500004944FF0000AB9F1000FC0F22B81DFF82C
:10A560007C805D4618A1D1E9000100260027002467
:10A5700003E0544510DCF8E80201F5E8022314F08A
:10A58000B1FD02460B463046394614F0F9FB013462
:10A59000A14506460F46ECDA049B03EBCA03ABF178
:10A5A000080BC3E9006770AB9B450AF1010AD2D1E1
:10A5B000A49B049C032B00F28980DFE803F0C58E86
:10A5C0008E1100BFAFF3008000000040FB21F93F77
:10A5D0000000F03F0000E03F0000703EC0030400B8
:10A5E000009B002B40F38181069A04EB020ADAE912
:10A5F000008902F1080525440DF5987B1AED027BD0
:10A6000042464B4651EC170B8DED047B14F0B8FB22
:10A6100006460F4602460B46DDE9040114F0AEFB88
:10A6200042464B4614F0ACFB65E902015D45B0467D
:10A63000B9466AE90267E1D1009B012B40F35581DD
:10A64000069BE518D5E9008903F1080B04EB0B0A1A
:10A6500015ED027B42464B4651EC170B8DED007B0E
:10A6600014F08EFB06460F4602460B46DDE900015C
:10A6700014F084FB4B46424614F082FB6AE9020167
:10A680004EAB5345B046B94665E90267E0D10020BC
:10A69000002104EB0B0575E9022314F071FBAA45B8
:10A6A000F9D1039B002B00F00A816268E368089FE0
:10A6B0002568A4683D6002F1004203F1004301F106
:10A6C00000417A60FB60BC6038617961099B03F0EE
:10A6D00007000DF51B7DBDE8F08F069D083525446C
:10A6E0000020002175E9022314F04AFBA542F9D1AC
:10A6F000039B002B00F0D280089E024601F100432C
:10A7000086E80C000B460246D4E9000114F036FB43
:10A71000009B002B0BDD4CAD0124F5E8022314F067
:10A720002FFB009B0134A342F7DA039B13B101F125
:10A7300000431946089BC3E90201099B03F0070087
:10A740000DF51B7DBDE8F08F069D0835002000212A
:10A75000254475E9022314F013FBAC42F9D1039BA5
:10A7600013B101F100431946089BC3E90001099B9D
:10A7700003F007000DF51B7DBDE8F08F00260027D4
:10A78000EAE80267DA4509F108097FF4FEAC1AE548
:10A79000009B002B08F10108C8BF02253FF79EADC2
:10A7A00032463B460020614914F0E8FA022506468D
:10A7B0000F46FBE500260027EEE6069B002B27DD73
:10A7C0000024069B012B3FF4C4AD022B09D1009B52
:10A7D0005A1E0EAB0EA953F82230C3F3150341F8ED
:10A7E0002230022D7FF4E2AD32463B4600204F4935
:10A7F00014F0C4FA06460F46002C3FF4D7ADC7E567
:10A800000099013399427FF473AD069B002BD8DC8D
:10A81000022D7FF4CBAD32463B460020434914F075
:10A82000ADFA06460F46C1E50123ECE53946069F21
:10A8300003957A423046CDF8248000F05DFD002279
:10A840003B4B04460D4614F0D3FE002843D00022B3
:10A85000384B2046294614F045FC14F0F3FE06461A
:10A8600014F0DAFB0022324B14F03CFC02460B469B
:10A870002046294614F082FA14F0E4FE00990B46B3
:10A8800001331A4600933B46183306930B460EA934
:10A8900041F82300134641F8236027E6089B02464F
:10A8A000C3E900010B46D4E9000114F067FA009BEC
:10A8B000002B3FF730AF089BC3E902013DE7D4E925
:10A8C0000067D4E90223089DC5E90401C5E90067D2
:10A8D000C5E90223FAE62946204614F0B3FE009AA1
:10A8E0000EA941F8220001E64AAC00200021D8E67A
:10A8F000A49B032B3FF6EAAE01A252F823F000BF5F
:10A900001FA9020017A9020017A90200E9A8020066
:10A9100001200023F2E4002000214AACE8E60020F8
:10A9200000211CE70A9BDB0000934CE40000F03F91
:10A93000000070410000703E2DE9F04F21F000460C
:10A94000B6F1795F85B004460D469046994604DA23
:10A9500014F078FE002800F0858022462B46204621
:10A96000294614F0BFFB06460F4602460B4620461A
:10A97000294614F0B7FB41A3D3E9002382468B4656
:10A980003046394614F0AEFB3EA3D3E9002314F061
:10A99000F5F932463B4614F0A5FB3CA3D3E900236E
:10A9A00014F0EEF932463B4614F09CFB39A3D3E990
:10A9B000002314F0E3F932463B4614F093FB37A32F
:10A9C000D3E9002314F0DCF90E9BCDE900019BB321
:10A9D0000022294B4046494614F084FBDDE9002360
:10A9E000CDE902015046594614F07CFB02460B4665
:10A9F000DDE9020114F0C2F932463B4614F072FB65
:10AA000042464B4614F0BAF919A3D3E9002306468F
:10AA10000F465046594614F065FB02460B46304639
:10AA2000394614F0ADF902460B462046294614F08B
:10AA3000A5F905B0BDE8F08F02460B463046394611
:10AA400014F050FB0AA3D3E9002314F097F95246FF
:10AA50005B4614F047FB22462B4614F091F905B0F3
:10AA6000BDE8F08F2046294605B0BDE8F08F00BF55
:10AA7000495555555555C53F0000E03F7CD5CF5A47
:10AA80003AD9E53DEB9C2B8AE6E55A3E7DFEB1576F
:10AA9000E31DC73ED561C119A0012A3FA6F81011D8
:10AAA0001111813F000000002DE9F04FBE4C21F054
:10AAB000004687B0A64282468B460F46CDE900236A
:10AAC0001BDC14F0BFFD002837D153461E43109BFA
:10AAD0000133334300F0B381109B012B00F0C88198
:10AAE00052465B460020B14914F026FC04460D4650
:10AAF0002046294607B0BDE8F08FAD4B9E421CDDD5
:10AB00000029C0F2A98152465B4687A1D1E9000124
:10AB100014F034F9DDE9002304460D4684A1D1E99F
:10AB2000000114F02BF99FED847B22462B468DED1E
:10AB3000007B14F025F982468B4652465B46504610
:10AB4000594614F0CFFA02460B468046894614F067
:10AB5000C9FA424604460D464B465046594614F043
:10AB6000C1FA77A3D3E90023CDE9020120462946A3
:10AB700014F0B8FA74A3D3E9002314F001F92246C3
:10AB80002B4614F0AFFA72A3D3E9002314F0F8F8BF
:10AB900022462B4614F0A6FA6FA3D3E9002314F043
:10ABA000EFF822462B4614F09DFA6DA3D3E900235B
:10ABB00014F0E6F822462B4614F094FA6AA3D3E97F
:10ABC000002314F0DDF842464B4614F08BFA68A3DC
:10ABD000D3E90023CDE904012046294614F082FA86
:10ABE00065A3D3E9002314F0CBF822462B4614F0DA
:10ABF00079FA63A3D3E9002314F0C2F822462B4666
:10AC000014F070FA60A3D3E9002314F0B9F82246D7
:10AC10002B4614F067FA5EA3D3E9002314F0B0F8D2
:10AC200022462B4614F05EFA5BA3D3E9002314F00E
:10AC3000A7F802460B46DDE9040114F0A1F8DDE9AE
:10AC4000022314F04FFADDE9004522462B4614F0AA
:10AC500097F842464B4614F045FA02460B4620460A
:10AC6000294614F08DF84EA3D3E9002304460D467F
:10AC7000DDE9020114F036FA22462B4614F080F882
:10AC80000B460246804689465046594614F078F8ED
:10AC9000474B9E4204460D4600F38E80109B012BCD
:10ACA0003BD002460B460020404914F045FB0024EF
:10ACB00006460F462046294652465B46CDE90067C8
:10ACC000CDE90201009414F059F8DDE900AB024629
:10ACD0000B464046494614F051F852465B4614F084
:10ACE00001FA524604460D465B46DDE9020114F0C6
:10ACF000F9F900222F4B14F043F802460B46204688
:10AD0000294614F03DF832463B4614F0EBF9524622
:10AD10005B4614F035F804460D462046294607B038
:10AD2000BDE8F08FAFF30080182D4454FB21E93FBC
:10AD3000075C143326A6813C0000000000000000E0
:10AD4000D47ABF74702AFB3EE9A7F0320FB8123FE5
:10AD500068108D1AF726303F1583E0FEC8DB573F99
:10AD600093846EE9E326823FFE41B31BBAA1AB3F59
:10AD7000735360DBCB75F3BEA69237A0887E143F79
:10AD80000165F2F2D844433F280356C9226D6D3F56
:10AD900037D60684F464963F7AFE10111111C13F34
:10ADA000635555555555D53FFFFF2F3E0000F0BF69
:10ADB0002794E53F0000F03F109814F02DF922464B
:10ADC000CDE900012B462046294614F08BF9DDE938
:10ADD0000023CDE902012046294613F0D1FF0246A7
:10ADE0000B46DDE9020114F0A7FA42464B4613F088
:10ADF000C5FF02460B465046594613F0BFFF0246B8
:10AE00000B4613F0BDFF02460B46DDE9000113F0CF
:10AE1000B5FF0446B81700F00200C0F101000D466E
:10AE200014F0FAF802460B462046294614F05AF967
:10AE300004460D462046294607B0BDE8F08F50462F
:10AE4000594611F0BBFE02460B4600200A4914F099
:10AE500073FA04460D4660E7DDE9004501F1004163
:10AE6000224605F1004382468B46CDE900234AE69F
:10AE700054465D4651E700BF0000F03F000000006F
:10AE80002DE9F04FD24A21F00043934285B082462B
:10AE90008B460C462DD9CF4A93421AD8002C80F20B
:10AEA0001681B5A3D3E900235046594613F068FF35
:10AEB0000022002314F088FBC0B9B1A3D3E900231A
:10AEC0005046594614F00EF902460B460020C2497E
:10AED00008E1C24A934240F2D0800346C1F3130214
:10AEE000134340F0F481002980F2C4800020BC4963
:10AEF000C0E0BC4A934200F22981BB4A934240F22F
:10AF0000DE80002301930022B84B5046594614F0CE
:10AF1000E9F806460F4602460B465046594614F0DD
:10AF2000E1F899A3D3E9002304460D4614F0DAF8BA
:10AF300097A3D3E9002313F023FF22462B4614F0F6
:10AF4000D1F895A3D3E9002313F018FF22462B462E
:10AF500014F0C8F892A3D3E9002313F011FF22469E
:10AF60002B4614F0BFF890A3D3E9002313F006FF9B
:10AF700022462B4614F0B6F800229D4B13F000FF3A
:10AF80008046894602460B463046394614F0AAF8F8
:10AF900002460B460020974913F0F0FE0646024693
:10AFA0000B460F464046494613F0E8FE32468046BF
:10AFB00089463B465046594614F094F802460B46E3
:10AFC00000208D4913F0DAFE02460B464046494602
:10AFD00014F0B2F922462B4614F084F8019E024682
:10AFE0000B46002E38D0DDE9026732463B4613F0AF
:10AFF000C5FE52465B4614F075F832463B4613F0E8
:10B00000BDFE2B46224613F0B9FE019B01330646D6
:10B010000F4600F00F81019B012B00F0F180019B96
:10B020000133392B39D8019B132B40F31281019C3A
:10B03000C4F57F75033500222B0513F0A1FE0246EF
:10B040000B465046594613F099FE0022684B13F008
:10B0500097FE01EB04510DE05046594614F042F8BA
:10B0600022462B4613F08AFE02460B4650465946AE
:10B0700013F084FE05B0BDE8F08F4DA3D3E90023A3
:10B0800014F0C0FA00283FF409AF4BA3D3E9002322
:10B090001046194614F026F8ECE752465B4613F0CA
:10B0A0006DFE02460B460020514913F067FE019ADF
:10B0B0004F4B01EB0251002213F060FEDAE73EA392
:10B0C000D3E9002313F05CFE02460B46CAE72CA32B
:10B0D000D3E900235046594614F004F80B4643497F
:10B0E0000246002013F04CFE14F0ACFA019013F06D
:10B0F00093FF33A3D3E9002306460F4613F0F2FF74
:10B1000002460B465046594613F038FE2EA3D3E9AB
:10B110000023804689463046394613F0E3FF064651
:10B120000F4632463B464046494613F027FE02464C
:10B130000B4682468B464046494613F01FFE324678
:10B140003B4613F01BFECDE90201DCE62B4A93429D
:10B1500000F2958000291AA3D3E90023C0F2AC8045
:10B1600013F00CFE012380468946019316A7D7E908
:10B170000067D6E7AFF3008059F3F8C21F6EA50150
:10B18000FE822B654715F73F2DC3096EB7FD8ABEBA
:10B190003952E686CACFD03EB7DBAA9E19CE143FFD
:10B1A0008555FE19A0015A3FF41011111111A13F4C
:10B1B000EF39FAFE422E86409C7500883CE4377ECB
:10B1C0000000E0FE422EE63F763C7935EF39EA3D5D
:10B1D00079684340412E86400000E0BFFFFFEF7FCB
:10B1E0000000F0BF422ED63FFFFF8F3C0000E03F43
:10B1F0000000F03F0000084000001840B1A2F03FFE
:10B200000022394B5046594614F0DEF9002844D04C
:10B21000504659460022354B13F0B2FD02460B460C
:10B220003046394613F0AAFD00224FF0404313F098
:10B2300059FF1FE702460B465046594613F09EFD44
:10B2400000222A4B13F04EFF0022284B13F096FDEC
:10B2500010E7019C4FF400132341C3F17F5752467E
:10B260005B4613F08BFD002607F5401702460B46A0
:10B270003046394613F082FD01EB0451FAE616A37D
:10B28000D3E9002313F02EFF002C02460B464FF0AB
:10B290000000FFF61CAE154924E732463B465046F7
:10B2A000594613F06BFD02460B4613F069FD002270
:10B2B0000F4B13F065FDDDE613F062FD4FF0FF3339
:10B2C00080468946019306A7D7E9006729E7024629
:10B2D0000B4613F055FDCDE6FE822B654715F73F73
:10B2E000763C7935EF39EABD0000D0BF0000E03F81
:10B2F0000000F03F00000000F8B5C1F30A56044614
:10B300000D460B4617460EBB21F00043034386460D
:10B3100025D00022344B13F0E5FE344A9742044610
:10B320000D460B462ADBC1F30A56363E3E4440F238
:10B33000FE72964228DC002E12DD23F0FF4323F438
:10B34000E00343EA065520462946F8BD40F2FF7265
:10B350009642EBD102460B4613F012FDF8BDF8BD44
:10B3600016F1350F1DDA4CF250339F4222462B4620
:10B3700025DC19A1D1E9000113F072FC16A3D3E971
:10B38000002313F0AFFEF8BD22462B4614A1D1E9ED
:10B39000000113F065FC12A3D3E9002313F0A2FE11
:10B3A000F8BD23F0FF4323F4E003363643EA0655A5
:10B3B0002046294600220E4B13F094FEF8BD08A14A
:10B3C000D1E9000113F04CFC05A3D3E9002313F0ED
:10B3D00089FEF8BDAFF3008059F3F8C21F6EA501D6
:10B3E0009C7500883CE4377E00005043B03CFFFF72
:10B3F0000000903C10B5054C237833B9044B13B1D1
:10B400000448AFF300800123237010BD1085002095
:10B4100000000000641C04000C4B43B10C480D49B3
:10B4200010B5AFF300800C48036823B910BD0A487B
:10B43000036833B97047094B002BF7D0BDE81040C3
:10B440001847064B002BF5D0184700BF000000003E
:10B45000641C0400148500201482002000000000F9
:10B46000154B002B08BF134B9D46A3F5803A0021D6
:10B470008B460F461348144A121A08F0BBF90F4BBB
:10B48000002B00D098470E4B002B00D0984700208F
:10B49000002104000D000D48002802D00C48AFF335
:10B4A000008013F013FC2000290005F03DFB13F091
:10B4B000F9FB00BF000008000000042000000000AD
:10B4C0000000000000840020B48C00200000000078
:10B4D0000000000070B504460E4600F0D1F888B1B7
:10B4E0000368DB6A05469847082C0CD0A4F10903D1
:10B4F000012B14D93246214610230D20BDE870409F
:10B5000004F0D4B970BD2B6828465B6A98470228BE
:10B51000F0DC2B6828461B6A04219847EAE72B6871
:10B5200028465B6A98470528E4DC2B6828461B6A96
:10B5300008219847DEE700BF30B52DED028B83B0C0
:10B54000054600F09DF8044640B10368DB6A984761
:10B55000032D50D8DFE805F0373F470801900198E8
:10B5600003B0BDEC028B30BD20460BF0BFFD07EEF3
:10B57000900A2046F8EEE78A0BF0C6FD07EE900A27
:10B580002046B8EEE78A0BF0CDFD68EE087A07EEAC
:10B59000100AE8EEA87AB8EEC77AE7EE077AF5EE79
:10B5A000407AF1EE10FAB1EEE78A03D517EE900A71
:10B5B00012F0CAF8FDEEC87ACDED017A019803B019
:10B5C000BDEC028B30BD204603B0BDEC028BBDE864
:10B5D00030400BF08BBD204603B0BDEC028BBDE8C4
:10B5E00030400BF091BD204603B0BDEC028BBDE8AE
:10B5F00030400BF097BD00230193B0E738B5054606
:10B6000000F03EF858B10368DB6A0446984745B13C
:10B61000012D04D12046BDE83840FBF79DB800203D
:10B6200038BD2046BDE83840FBF776B810B5044673
:10B6300000F026F828B1036821461B6ABDE81040D7
:10B64000184710BD0048704716FCFFFF704700BF49
:10B6500010B5034B036004460BF044FB204610BDBD
:10B660004011040010B5054B036004460BF03AFB93
:10B67000204614F079FA204610BD00BF40110400A6
:10B680002DE9F043C14C236885B01BB1986805B023
:10B69000BDE8F0834FF0FF31012001F045FDC0B25D
:10B6A00004F0F6FB002800F006810C2014F05EFA8E
:10B6B00003210646512001F037FDDFF8F4E2B44BD8
:10B6C000054605F00F07C5F3031815F4807518BF7C
:10B6D0007346B048394642460AF08AFC2A1C18BF15
:10B6E00001223946434630460EF0FAF80023AA48B4
:10B6F000B3600AF07DFC4FF0FF31032001F014FD30
:10B70000C0B204F0C5FB4FF0FF310546022001F046
:10B710000BFDC0B204F0BCFB002D59D0002857D05F
:10B720000146284604F0A4F90746002800F0BF802F
:10B730004FF0FF31462001F0F7FC382880465CD0FE
:10B7400029DD3A2800F09B80682870D14FF0FF3146
:10B75000012001F0E9FCC0B204F09AFB81465C20B4
:10B7600014F004FA0523054601934A46CDF80080FB
:10B77000394633460CF0F2FD2846B06003689B6AF8
:10B780009847B0680368DB6A984784480AF030FC41
:10B790002660B0687BE7302801D0322847D14FF0CF
:10B7A000FF31012001F0C0FCC0B204F071FB814602
:10B7B000542014F0DBF91FFA88F1054605234A46A8
:10B7C00000910193394633460CF09AFB2846D4E7A2
:10B7D00073480AF00DFC4FF0FF31192001F0A4FC72
:10B7E000C0B204F055FB4FF0FF310546182001F0C0
:10B7F0009BFCC0B204F04CFB92E74FF0FF310120FC
:10B8000001F092FCC0B204F043FB8146502014F0DA
:10B81000ADF9052305464A46CDF800803946019327
:10B8200033460CF077FC5F4B2B602846A5E73A685F
:10B830000125002301950095D2F82480B3600F22E2
:10B840000DF10F0332213846C04700283FD14FF099
:10B850003208414654480AF0CBFB4FF0FF3101203B
:10B8600001F062FCC0B204F013FB8146542014F0D6
:10B870007DF9052305464A46CDF80080A1E74FF043
:10B88000FF31012001F050FCC0B204F001FB814601
:10B89000502014F06BF90523054601934A46CDF874
:10B8A0000080394633460CF035FC284665E73F48B2
:10B8B0000AF09EFB6CE74FF0FF31032001F034FCEF
:10B8C000C0B204F0E5FA00287FF4EFAEDFE63B6893
:10B8D00001950095D3F824800F220DF10F0330213C
:10B8E0003846C04718B94FF030084146B2E73B68C8
:10B8F00001950095D3F824800D220DF10F03382116
:10B900003846C047C0B9382127480AF071FB4FF0CC
:10B91000FF31284601F008FCC0B204F0B9FA8046B5
:10B92000502014F023F94FF0050E38230546424607
:10B9300039468DE8084073E73B6801950095D3F8D8
:10B9400024800D220DF10F033A213846C04788BBF1
:10B950003A2115480AF04CFB4FF0FF31284601F020
:10B96000E3FBC0B204F094FA8046502014F0FEF8D5
:10B970004FF0050E3A2305468DE808404246394609
:10B9800033460CF0C7FB2846F7E600BF2C850020A5
:10B990004C04040054040400740404000C05040066
:10B9A000840404001004040030050400980404001A
:10B9B000440404003A6801950095D2F824800DF102
:10B9C0000F03752268213846C047E0B968211A483C
:10B9D0000AF00EFB4FF0FF31284601F0A5FBC0B284
:10B9E00004F056FA80465C2014F0C0F84FF0050EC3
:10B9F000682305468DE808404246394633460CF038
:10BA0000ADFC2846B9E60D480AF0F2FAB068002805
:10BA10007FF4B4AE4FF0FF31032001F085FBC0B2DC
:10BA200004F036FA18B106480AF0E2FAB0E6054822
:10BA30000AF0DEFAACE600BF300504001C05040085
:10BA4000B0040400EC04040008B501F095FCFBF719
:10BA500027FCBDE8084001F0FDB900BF08B501F0C2
:10BA60008BFCFBF78DFCBDE8084001F0F3B900BF8B
:10BA700008B501F081FC11F017F9BDE8084001F0AC
:10BA8000E9B900BF08B501F077FC11F01FFDBDE872
:10BA9000084001F0DFB900BF08B501F06DFCFBF70D
:10BAA0000FFCBDE8084001F0D5B900BF08B501F0B2
:10BAB00063FC11F037FBBDE8084001F0CBB900BFD3
:10BAC00008B501F059FCFAF767FEBDE8084001F03F
:10BAD000C1B900BF08B501F04FFC11F077FABDE81D
